:020000040800F2
:10000000005000207D470008954600089D460008E6
:10001000A5460008AD460008B546000800000000EF
:10002000000000000000000000000000BD460008C5
:10003000C946000800000000D5460008E146000857
:10004000C5470008C5470008C5470008C547000860
:10005000C5470008C5470008ED460008C547000829
:10006000C5470008C5470008C5470008C547000840
:10007000C5470008C5470008C5470008FD460008F9
:10008000C5470008C5470008C5470008C547000820
:1000900011470008C5470008C54700082547000864
:1000A000C5470008C5470008C5470008C547000800
:1000B0003547000849470008C5470008C5470008FC
:1000C000C5470008C5470008C5470008C5470008E0
:1000D000C54700085D470008C5470008C547000838
:1000E000C5470008C5470008C547000800000000D4
:1000F0000000000000000000000000000000000000
:0C01000000000000000000005FF808F1A3
:10010C0010B5054C237833B9044B13B10448AFF345
:10011C0000800123237010BD480000200000000067
:10012C009492000808B5034B1BB103490348AFF385
:10013C00008008BD000000004C00002094920008D4
:10014C00034613F8012B002AFBD1181A013870470B
:10015C0080B584B000AF7860224BDB689847214BA8
:10016C005B6998471F4B5B6A002B03D01D4B9B6A46
:10017C00002B14D11B4B1B6A7A68120CD2B210469E
:10018C009847184B1B6A7A68120AD2B210469847E5
:10019C00144B1B6A7A68D2B21046984711E07B6800
:1001AC001B0CDBB23B737B681B0ADBB27B737B687B
:1001BC00DBB2BB730B4B9B6A07F10C02032110469D
:1001CC009847084BDB6998470346FB73054B9B69C3
:1001DC009847044B1B699847FB7B18461037BD4664
:1001EC0080BD00BF0400002080B584B000AF7860F3
:1001FC000B46FB70224BDB689847214B5B69984799
:10020C007B6843F004037B601D4B9B6A002B19D168
:10021C001B4B1B6A7A68120CD2B210469847184BCB
:10022C001B6A7A68120AD2B210469847144B1B6AA2
:10023C007A68D2B210469847114B1B6AFA7810466E
:10024C00984713E07B681B0CDBB23B737B681B0A83
:10025C00DBB27B737B68DBB2BB73FB78FB73084B45
:10026C009B6A07F10C02042110469847044B9B69CA
:10027C009847034B1B69984700BF1037BD4680BD9C
:10028C000400002090B587B000AFF860B960134649
:10029C00FB802B4BDB689847294B5B699847284BB5
:1002AC005B6A002B03D0264B9B6A002B26D1244B78
:1002BC001B6AFA68120CD2B210469847204B1B6A84
:1002CC00FA68120AD2B2104698471D4B1B6AFA689C
:1002DC00D2B2104698470023FB820AE0184BDB6928
:1002EC00FA8AB9688C18984703462370FB8A013345
:1002FC00FB82FA8AFB889A42F0D317E0FB681B0C4E
:10030C00DBB23B74FB681B0ADBB27B74FB68DBB2B1
:10031C00BB740B4B9B6A07F11002032110469847E4
:10032C00074B5B6AFA881146B8689847044B9B697F
:10033C009847034B1B69984700BF1C37BD4690BDBF
:10034C000400002080B586B000AFF860B960134699
:10035C00FB802B4BDB689847294B5B699847FB6804
:10036C0043F00403FB60264B9B6A002B26D1244BE5
:10037C001B6AFA68120CD2B210469847204B1B6AC3
:10038C00FA68120AD2B2104698471D4B1B6AFA68DB
:10039C00D2B2104698470023FB820AE0184B1B6A26
:1003AC00FA8AB9680A44127810469847FB8A0133D6
:1003BC00FB82FA8AFB889A42F0D317E0FB681B0C8D
:1003CC00DBB23B74FB681B0ADBB27B74FB68DBB2F1
:1003DC00BB740B4B9B6A07F1100203211046984724
:1003EC00074B9B6AFA881146B8689847044B9B697F
:1003FC009847034B1B69984700BF1837BD4680BD13
:10040C000400002090B585B000AF0346FB710023BB
:10041C00FB810023BB81FB799B000133DB0003F5DF
:10042C0000531846FFF794FE0346BB81BB891B02A1
:10043C009CB2FB799B000133DB0003F50453184697
:10044C00FFF786FE03462344BB81BB89002B19D0E2
:10045C00FB799B000133DB0003F500531846FFF7D3
:10046C0077FE0346FB81FB891B029CB2FB799B0048
:10047C000133DB0003F504531846FFF769FE03460E
:10048C002344FB81FA89BB899A42C4D1FB89184663
:10049C001437BD4690BD90B585B000AF0346FB71D7
:1004AC000023FB810023BB81FB799B000133DB0024
:1004BC0003F518531846FFF74BFE0346BB81BB8967
:1004CC001B029CB2FB799B000133DB0003F51C5330
:1004DC001846FFF73DFE03462344BB81BB89002B26
:1004EC0019D0FB799B000133DB0003F51853184638
:1004FC00FFF72EFE0346FB81FB891B029CB2FB79A6
:10050C009B000133DB0003F51C531846FFF720FE5C
:10051C0003462344FB81FA89BB899A42C4D1FB89E7
:10052C0018461437BD4690BD90B585B000AF034654
:10053C003960FB711346BB800023FB810023BB6039
:10054C00BB88002B46D0FB799B000133DB0003F505
:10055C0010531846FFF7FCFD03461B029CB2FB79B7
:10056C009B000133DB0003F514531846FFF7F0FD35
:10057C0003462344FB81FB891A02FB799B0002335F
:10058C00DB001344BB60BB881A463968B868FFF7B8
:10059C00D9FEFA89BB881344FB81FB799B0001339C
:1005AC00DB0003F510531A46FB891B0A9BB2DBB226
:1005BC0019461046FFF718FEFB799B000133DB0050
:1005CC0003F514531A46FB89DBB219461046FFF7A4
:1005DC000BFE00E000BF1437BD4690BD90B585B052
:1005EC0000AF03463960FB711346BB800023FB81CF
:1005FC000023BB60BB88002B46D0FB799B000133EA
:10060C00DB0003F520531846FFF7A2FD03461B023F
:10061C009CB2FB799B000133DB0003F52453184695
:10062C00FFF796FD03462344FB81FB891A02FB79F5
:10063C009B000333DB001344BB60BB881A4639684C
:10064C00B868FFF71FFEFA89BB881344FB81FB795E
:10065C009B000133DB0003F520531A46FB891B0A70
:10066C009BB2DBB219461046FFF7BEFDFB799B002F
:10067C000133DB0003F524531A46FB89DBB2194620
:10068C001046FFF7B1FD00E000BF1437BD4690BD2A
:10069C0080B500AF00221021024805F050FF00BFCA
:1006AC0080BD00BF0008014080B500AF01221021C1
:1006BC00024805F044FF00BF80BD00BF00080140A8
:1006CC0080B582B000AFF91D4FF0FF330122044812
:1006DC0006F0ACFDFB7918460837BD4680BD00BF5F
:1006EC00D000002080B582B000AF0346FB71F91D2D
:1006FC004FF0FF330122034806F054FC00BF0837CB
:10070C00BD4680BDD000002080B582B000AF7860BF
:10071C000B467B807A884FF0FF337968034806F0EC
:10072C0085FD00BF0837BD4680BD00BFD00000204E
:10073C0080B582B000AF78600B467B807A884FF032
:10074C00FF337968034806F02DFC00BF0837BD461F
:10075C0080BD00BFD000002090B587B000AFFF2354
:10076C00FB751A4B3C1D0FCB84E80F0001221021A6
:10077C00174805F0E4FE00220221164805F0DFFEC2
:10078C0000BFFB7D5A1EFA75002BFAD10122022103
:10079C00104805F0D4FE1049104800F029FD10490E
:1007AC00104800F049FD1049104800F071FD3B1D48
:1007BC001946012000F098FD0346B3F1FF3F01D12B
:1007CC0000BFFDE700BF1C37BD4690BDAC920008D2
:1007DC0000080140000C0140B50600089D06000809
:1007EC00F1060008CD0600083D07000815070008B3
:1007FC0090B585B000AF0446084611461A4623460C
:10080C00FB710346BB710B46BB801346FB70FB7937
:10081C00082B02D94FF0FF33EFE0BB79012B05D049
:10082C00002B11DD023B022B0ED811E007F10C035B
:10083C00042219464FF47060FFF724FDFB68002B6F
:10084C0005D16FF00203D8E06FF00403D5E000BFD0
:10085C00FB7803F00403002B02D06FF00503CCE00F
:10086C00FB78002B28D0BB79012B02D0022B08D0AF
:10087C0022E0FB7803F02103002B1AD16FF0050363
:10088C00BBE0FB7803F02003002B06D097F9033074
:10089C00002B02DB6FF00503AFE0FB7803F01003D5
:1008AC00002B08D097F90330002B04DB6FF0050305
:1008BC00A3E000BF00E000BFFB79184600F0ACF8E5
:1008CC00FB799B000133D80097F9033023F00F0319
:1008DC005AB297F9063013435BB2DBB21946FFF7F5
:1008EC0083FCBB88002B10D1464B1B885A1C91B241
:1008FC00444A1180BB80434B1B884FF6F0729342E5
:10090C0003D1404B4FF440421A80FB799B000133DA
:10091C00DB0003F580631A46BB881B0A9BB2DBB273
:10092C0019461046FFF760FCFB799B000133DB0096
:10093C0003F5A0631A46BB88DBB219461046FFF7D5
:10094C0053FCFB799B000133DB0003F58073012121
:10095C001846FFF749FC00BFFB799B000133DB0015
:10096C0003F580731846FFF7F3FB0346002BF3D116
:10097C00FB79012202FA03F31BB2DB431AB2224BBE
:10098C001B881BB213401BB29AB21F4B1A80FB7808
:10099C0003F00102FB7902FA03F31AB21A4B1B881B
:1009AC001BB213431BB29AB2174B1A80FB7901226C
:1009BC0002FA03F31BB2DB431AB2144B1B881BB2B3
:1009CC0013401BB29AB2114B1A80FB79104A0021CA
:1009DC0022F81310FB790F4A0021D15400BFFB7988
:1009EC009B000133DB0003F540731846FFF7B0FBA7
:1009FC000346002BF3D097F9073018461437BD4641
:100A0C0090BD00BF000000206400002066000020A4
:100A1C00680000207C00002080B582B000AF034647
:100A2C00FB71FB79082B02D94FF0FF3360E0FB79A7
:100A3C009B000133DB0003F5807310211846FFF790
:100A4C00D3FB00BFFB799B000133DB0003F5807304
:100A5C001846FFF77DFB0346002BF3D1FB799B0077
:100A6C000133DB0003F500731F211846FFF7BCFBB5
:100A7C00FB79012202FA03F31BB2DB431AB21E4BC1
:100A8C001B881BB213401BB29AB21B4B1A80FB790A
:100A9C00012202FA03F31BB2DB431AB2174B1B8879
:100AAC001BB213401BB29AB2144B1A80FB79144A36
:100ABC00002122F81310FB79124A0021D1540AE0CC
:100ACC00114B1B78DBB2012B05D10F4B00221A7096
:100ADC006FF00C030CE0FB799B000133DB0003F59A
:100AEC0040731846FFF734FB0346002BE8D1012373
:100AFC0018460837BD4680BD640000206600002003
:100B0C00680000207C0000207800002080B584B0B4
:100B1C0000AF03463960FB711346BB80FB79082B91
:100B2C0002D94FF0FF33D1E0FB799B000133DB009E
:100B3C001846FFF70DFB034603F00F03012B02D001
:100B4C006FF00403C2E0FB799B000133DB0003F57B
:100B5C0040731846FFF7FCFA0346132B02D06FF0D4
:100B6C000203B3E03B681B78FB60FB681B023A682E
:100B7C00013212781344FB60FB681B023A680232A4
:100B8C0012781344FB60FB681B023A68033212783C
:100B9C001344FB60FB68B3F1FF3F02D0FB68002BF2
:100BAC0002D16FF00B0391E0BB88002B02D16FF0E8
:100BBC000A038BE0FB799B000133DB0003F54063F8
:100BCC00042239681846FFF7BDFBFB799B00013303
:100BDC00DB0003F580531A46BB881B0A9BB2DBB2C1
:100BEC0019461046FFF700FBFB799B000133DB0035
:100BFC0003F588531A46BB88DBB219461046FFF73B
:100C0C00F3FAFB799B000133DB0003F580730421BD
:100C1C001846FFF7E9FA00BFFB799B000133DB00B4
:100C2C0003F580731846FFF793FA0346002BF3D1B4
:100C3C00284B1B881A46FB7942FA03F303F0010395
:100C4C00002B36D0002341E0FB799B000133DB0005
:100C5C0003F500731846FFF77BFA034603F008030D
:100C6C00002B0CD0FB799B000133DB0003F50073E8
:100C7C0008211846FFF7B8FA6FF00C0326E0FB7951
:100C8C009B000133DB0003F540731846FFF760FA55
:100C9C000346002B02D16FF0030317E00E4B1B78B9
:100CAC00DBB2012B05D10C4B00221A706FF00C0338
:100CBC000CE0FB799B000133DB0003F54073184615
:100CCC00FFF746FA0346172BBED1012318461037FF
:100CDC00BD4680BD640000207800002080B582B045
:100CEC0000AF0346FB71FB79082B02D94FF0FF33A1
:100CFC006DE0FB799B000133DB001846FFF728FA07
:100D0C00034603F00F03012B02D06FF004035EE0E7
:100D1C00FB799B000133DB0003F580730821184637
:100D2C00FFF762FA00BFFB799B000133DB0003F590
:100D3C0080731846FFF70CFA0346002BF3D1FB79AE
:100D4C00012202FA03F31BB2DB431AB2224B1B88BB
:100D5C001BB213401BB29AB21F4B1A801F4B1B883D
:100D6C001A46FB7942FA03F303F00103002B21D05E
:100D7C0000232CE0FB799B000133DB0003F50073AF
:100D8C001846FFF7E5F9034603F00803002B06D0DD
:100D9C00FB791846FFF740FE6FF00C0317E0104B81
:100DAC001B78DBB2012B05D10D4B00221A706FF0B2
:100DBC000C030CE0FB799B000133DB0003F5407363
:100DCC001846FFF7C5F90346002BD3D1012318466B
:100DDC000837BD4680BD00BF6600002064000020BF
:100DEC007800002080B584B000AF03463960FB71F9
:100DFC001346BB800023FB730023BB81FB79082BBC
:100E0C0002D94FF0FF33DDE0FB799B000133DB00AF
:100E1C001846FFF79DF9034603F00F03012B02D090
:100E2C006FF00403CEE0BB88002B02D16FF00D03F2
:100E3C00C8E0FB799B000133DB0003F540731846D7
:100E4C00FFF786F90346FB73FB7B172B05D0FB7B67
:100E5C001C2B02D06FF00603B4E05C4B1B881A46C7
:100E6C00FB7942FA03F303F00103002B39D0FB7931
:100E7C009B000133DB0003F500731846FFF768F99C
:100E8C00034603F01F03FB73FB7B03F01003002BE3
:100E9C0019D0FB799B000133DB0003F500731021A3
:100EAC001846FFF7A1F9FB79012202FA03F31BB2F2
:100EBC00DB431AB2454B1B881BB213401BB29AB2D0
:100ECC00424B1A800DE0FB7B03F00803002B06D08D
:100EDC00FB791846FFF7A0FD6FF00C0372E00023BE
:100EEC0070E0FB799B000133DB0003F5F8531846E7
:100EFC00FFF72EF903469B02BB81BA88BB899A4245
:100F0C0001D9BB89BB80FB791846FFF77BFA0346F6
:100F1C00BB81FB799B000133DB0003F54073184662
:100F2C00FFF716F90346FB73FB7B172B09D0FB7BF2
:100F3C001C2B06D0FB791846FFF76EFD6FF00603ED
:100F4C0040E0234B1B881A46FB7942FA03F303F06B
:100F5C000103002B05D0BA88BB899A4201D9002322
:100F6C0030E0BA88BB899A4200D9CCE700BFBA8876
:100F7C00FB7939681846FFF7D7FAFB799B000133E8
:100F8C00DB0003F5807320211846FFF72DF900BF15
:100F9C00FB799B000133DB0003F580731846FFF7E8
:100FAC00D7F80346002BF3D1FB79012202FA03F3A5
:100FBC001AB2064B1B881BB213431BB29AB2034BDB
:100FCC001A80BB8818461037BD4680BD66000020CD
:100FDC006400002090B585B000AF03463960FB710A
:100FEC001346BB800023FB730023BB81FB79082BCA
:100FFC0002D94FF0FF339BE0FB799B000133DB0000
:10100C001846FFF7A5F8034603F00F03012B02D097
:10101C006FF004038CE0BB88002B02D16FF00D0342
:10102C0086E0FB799B000133DB0003F5F053184697
:10103C00FFF78EF803469B02BB81BA89BB889A42A4
:10104C0001D2BB89BB80FB791846FFF724FA034613
:10105C00BB81FB799B000133DB0003F54073184621
:10106C00FFF776F80346FB73FB7B172B26D0FB7B35
:10107C001C2B1CD1BB89002B33D1FB791846FFF7F5
:10108C00C1F903461C46FB799B000133DB0003F5D9
:10109C00F8531846FFF75CF803469B029C420DD1AF
:1010AC00FB791846FFF7B8FC6FF0060340E0FB79BC
:1010BC001846FFF7B1FC6FF0060339E01E4B1B8896
:1010CC001A46FB7942FA03F303F00103002B04D018
:1010DC00BB89002B01D100232AE0BB89002B02D154
:1010EC00B1E700BF00E000BFBA89BB889A4201D2C9
:1010FC00BB89BB80BA88FB7939681846FFF76EFA52
:10110C00FB799B000133DB0003F58073402118460B
:10111C00FFF76AF800BFFB799B000133DB0003F596
:10112C0080731846FFF714F80346002BF3D1BB88E5
:10113C0018461437BD4690BD6400002080B400AF43
:10114C0000BFBD4680BC704780B400AF00BFBD4639
:10115C0080BC704780B400AF00BFBD4680BC7047F8
:10116C0080B400AF00BFBD4680BC704780B483B074
:10117C0000AF78607B681B78DBB218460C37BD4635
:10118C0080BC704780B483B000AF78600B46FB70B6
:10119C007B68FA781A7000BF0C37BD4680BC70476C
:1011AC0080B400AF00231846BD4680BC704780B4A5
:1011BC0083B000AF0346FB7100BF0C37BD4680BC4B
:1011CC00704780B483B000AF78600B467B8000BF63
:1011DC000C37BD4680BC704780B483B000AF7860DC
:1011EC000B467B8000BF0C37BD4680BC70470000AF
:1011FC0080B483B000AF786039607B68002B02D07C
:10120C003B68002B06D1094B094A5A61074B094A26
:10121C009A6106E0054A7B685361044A3B68936116
:10122C0000BF00BF0C37BD4680BC704704000020D7
:10123C00611100086D11000880B483B000AF7860B4
:10124C00396000BF0F4B1B8803F40073002BF9D0DF
:10125C007B68002B02D03B68002B06D1094B0A4A55
:10126C00DA61084B094A1A6206E0064A7B68D361C8
:10127C00044A3B68136200BF00BF0C37BD4680BCFC
:10128C00704700BF04000020AD110008BB1100081E
:10129C0080B483B000AF7860396000BF0F4B1B88FF
:1012AC0003F40073002BF9D07B68002B02D03B6851
:1012BC00002B06D1094B0A4A5A62084B094A9A621A
:1012CC0006E0064A7B685362044A3B68936200BF9F
:1012DC0000BF0C37BD4680BC704700BF0400002027
:1012EC00CF110008E511000890B587B000AF034698
:1012FC003960FB710023FB750023FB6000233B610D
:10130C00FB790F2B00F2C58001A252F823F000BF2D
:10131C005D130008631300088F1300088313000883
:10132C009D130008A9130008B7130008DD1300086B
:10133C00FF13000843140008491400085114000856
:10134C00A514000859140008671400088314000839
:10135C0000F0AAF8A1E03B68002B04D03B68FB60CE
:10136C00FB6808333B61FB683A691146184600F08C
:10137C00E7F8034692E03B681B88184600F06CF9CE
:10138C008BE000F09DF903461A463B681A8084E016
:10139C003B681B88184600F0B8F97EE000F0D0F9E5
:1013AC0003461A463B681A8077E03B681B881B0A89
:1013BC009BB2DBB219464FF49850FEF715FF3B6811
:1013CC001B88DBB219464FF4A050FEF70DFF64E00A
:1013DC004FF49850FEF7BCFE03461B029CB24FF430
:1013EC00A050FEF7B5FE034623449AB23B681A8020
:1013FC0053E02C4B9A783B681A703B680133294AAE
:10140C00D2781A703B680233264A12791A703B68FC
:10141C000333244A52791A703B680433214A927977
:10142C001A703B6805331F4AD2791A703B68063331
:10143C0000221A7031E000F0D5F92EE0386800F087
:10144C00F8F92AE0386800F037FA26E03B681B7898
:10145C00184600F09BFA034620E000F0AAF9034678
:10146C00FB75FB7DFF2B02D14FF0FF3316E03B6881
:10147C00FA7D1A7011E000F086F90346FB75FB7DCE
:10148C00FF2B02D14FF0FF3308E03B68FA7D1A7056
:10149C0003E04FF0FF3301E000BF002318461C3778
:1014AC00BD4690BD0400002080B586B000AF3B1D4A
:1014BC00062219464FF41060FEF7E4FE07F1140300
:1014CC00042219464FF48070FEF7DCFE07F110037E
:1014DC00042219464FF4A060FEF7D4FE07F10C036A
:1014EC00042219464FF47060FEF7CCFE80210020D8
:1014FC00FEF77AFE0020FEF72BFE3B1D0622194656
:10150C004FF41060FEF71EFF07F114030422194676
:10151C004FF48070FEF716FF07F1100304221946F2
:10152C004FF4A060FEF70EFF07F10C0304221946DE
:10153C004FF47060FEF706FF00BF1837BD4680BD44
:10154C0080B584B000AF786039600023BB73FFF7BF
:10155C00ABFF7B68002B3BD00023BB730023FB73DA
:10156C0015E097F90F307A6813441A78BB7B134453
:10157C00DBB2BB7397F90E30102B02DD4FF0FF334B
:10158C0066E097F90F30DBB20133DBB2FB7397F9EE
:10159C000F30072BE5DD0023FB7315E097F90F30B7
:1015AC009B000133DB0003F5F853184697F90F3015
:1015BC007A6813441B781946FEF716FE97F90F301C
:1015CC00DBB20133DBB2FB7397F90F30072BE5DD90
:1015DC003B68002B3BD00023BB730023FB7315E04F
:1015EC0097F90F303A6813441A78BB7B1344DBB27B
:1015FC00BB7397F90E30102B02DD4FF0FF3327E051
:10160C0097F90F30DBB20133DBB2FB7397F90F3074
:10161C00072BE5DD0023FB7315E097F90F309B00DA
:10162C000133DB0003F5F053184697F90F303A6895
:10163C0013441B781946FEF7D7FD97F90F30DBB230
:10164C000133DBB2FB7397F90F30072BE5DD002379
:10165C0018461037BD4680BD80B584B000AF034638
:10166C00FB80FB88FB73FB881B0A9BB2BB73FB7B69
:10167C0023F00F03DBB219464FF4A850FEF7B4FD6C
:10168C000023FB7314E0BA7BFB7B42FA03F303F0F9
:10169C000103002B09D0FB7B9B000133DB0003F51E
:1016AC0000731F211846FEF79FFDFB7B0133FB7374
:1016BC00FB7B072BE7D900BF00BF1037BD4680BDB1
:1016CC0080B582B000AF0023FB710023BB710023F7
:1016DC00BB804FF4A850FEF73BFD034623F00F03ED
:1016EC00FB714FF4B850FEF733FD0346BB71BB7969
:1016FC00BB80BB881B029AB2FB799BB21344BB80A4
:10170C00BB8818460837BD4680BD80B584B000AF95
:10171C000346FB80FB88FB73FB881B0A9BB2BB73E5
:10172C00FB7B19464FF4B050FEF75EFDBB7B1946B0
:10173C004FF4C050FEF758FD00BF1037BD4680BDBA
:10174C0080B582B000AF0023FB710023BB71002376
:10175C00BB804FF4B050FEF7FBFC0346FB714FF41B
:10176C00C050FEF7F5FC0346BB71BB79BB80BB8850
:10177C001B029AB2FB799BB21344BB80BB88184600
:10178C000837BD4680BD80B582B000AF0023FB7129
:10179C004FF43850FEF7DCFC034603F00103002B3A
:1017AC0001D00123FB7197F9073018460837BD4665
:1017BC0080BD80B582B000AF0023FB714FF4385070
:1017CC00FEF7C6FC034603F03803302B02D101238D
:1017DC00FB7101E00023FB7197F9073018460837BD
:1017EC00BD4680BD80B582B000AF4FF43850FEF7D7
:1017FC00AFFC0346FB71FB7903F07F03FB71FB79B4
:10180C0019464FF43850FEF7EFFC4FF43850FEF702
:10181C009FFC0346FB71FB7963F07F03FB71FB7943
:10182C0019464FF43850FEF7DFFC00BF0837BD46B1
:10183C0080BD80B584B000AF78600023FB737B68FB
:10184C001B78012B04D1FB7B43F04003FB7303E0BB
:10185C00FB7B23F04003FB737B685B78012B04D18B
:10186C00FB7B43F03803FB7319E07B68DB78012BBF
:10187C000DD17B689B78012B04D1FB7B43F01803C3
:10188C00FB730CE0FB7B43F00803FB7307E07B6806
:10189C009B78012B03D1FB7B43F01003FB73FB7B89
:1018AC0019464FF43850FEF79FFCFFF79BFF00BF23
:1018BC001037BD4680BD000080B584B000AF7860A5
:1018CC000023FB734FF43850FEF742FC0346FB73C6
:1018DC00FB7B9B11DBB203F00103DAB27B681A705D
:1018EC00FB7B03F03803202B01D0382B03D17B6812
:1018FC0001225A7003E07B6800225A7000BFFB7B08
:10190C0003F03803103B102B8CBF01220022D2B203
:10191C00002A0FD11B4A22FA03F303F00103002B18
:10192C0014BF01230023DBB2002B03D07B68012200
:10193C009A7003E07B6800229A7000BFFB7B03F077
:10194C003803083B182B8CBF01220022D2B2002A8C
:10195C000FD10D4A22FA03F303F00103002B14BF3D
:10196C0001230023DBB2002B03D07B680122DA7049
:10197C0003E07B680022DA7000BF00BF1037BD4661
:10198C0080BD00BF010101000100010180B584B0E0
:10199C0000AF0346FB710023FB734FF43850FEF786
:1019AC00D7FB0346FB73FB7B03F04003002B02D1F8
:1019BC004FF0FF3330E0FB7B23F03803FB73FB79F4
:1019CC00012B04D1FB7B43F03003FB7303E0FB7B67
:1019DC0043F03803FB73FB7B19464FF43850FEF78A
:1019EC0003FCFFF7FFFE4FF43850FEF7B1FB034644
:1019FC00FB73FB79012B06D1FB7B03F03003002B2F
:101A0C0008D0002308E0FB7B03F03803002B01D047
:101A1C00002301E04FF0FF3318461037BD4680BD60
:101A2C0080B582B000AF78607B68062219464FF40F
:101A3C001060FEF787FC7B680E33042219464FF4C6
:101A4C008070FEF77FFC7B680A33042219464FF442
:101A5C00A060FEF777FC7B680633042219464FF42E
:101A6C007060FEF76FFC7B689A7C0B4B1A707B687E
:101A7C00DA7C094B5A707B681A7D074B9A707B682D
:101A8C005A7D054BDA707B689A7D044B1A7000BF47
:101A9C000837BD4680BD00BF8400002088000020B0
:101AAC0080B500AF00224FF48051024804F047FD8E
:101ABC0000BF80BD000C014080B500AF01224FF487
:101ACC008051024804F03BFD00BF80BD000C01407A
:101ADC0080B582B000AF7860786802F0D1FE00BFAC
:101AEC000837BD4680BD000080B582B000AF78607D
:101AFC000B467B807A884FF4FA637968034805F0CB
:101B0C0051FA00BF0837BD4680BD00BF2801002038
:101B1C0080B582B000AF78600B467B807A8841F24A
:101B2C0088337968034805F081FB00BF0837BD4650
:101B3C0080BD00BF2801002080B582B000AF052316
:101B4C00BB710120FFF7C4FFFFF7AAFFB91D4FF4CB
:101B5C007A7301220B4805F025FAF91D4FF47A73BC
:101B6C000122084805F062FB0120FFF7B1FFFB7969
:101B7C0003F00103002BF0D1FFF79EFF00BF0837E5
:101B8C00BD4680BD2801002080B582B000AF662321
:101B9C003B7199237B71FFF783FF391D4FF47A73E7
:101BAC000222044805F0FEF9FFF786FF00BF083754
:101BBC00BD4680BD2801002080B588B000AFF8601C
:101BCC007A603B600B46FB72FB681A02FB7A13448B
:101BDC00FB610B233B75FB691B0CDBB27B75FB6953
:101BEC001B0ADBB2BB75FB69DBB2FB7500233B76D2
:101BFC00FFF756FF07F1140305211846FFF774FF92
:101C0C007B689BB219463868FFF782FFFFF754FFD9
:101C1C0000BF2037BD4680BD80B582B000AF062323
:101C2C00FB71FFF73DFFFB1D01211846FFF75CFF21
:101C3C00FFF742FF0120FFF74BFF00BF0837BD46FF
:101C4C0080BD80B582B000AF0423FB71FFF728FF85
:101C5C00FB1D01211846FFF747FFFFF72DFF012061
:101C6C00FFF736FF00BF0837BD4680BD80B586B094
:101C7C0000AF0346FB80FB881B037B61FFF75CFF17
:101C8C00FFF7CAFF20233B737B691B0CDBB27B7312
:101C9C007B691B0ADBB2BB737B69DBB2FB73FFF79F
:101CAC00FFFE07F10C0304211846FFF71DFFFFF799
:101CBC0003FFFFF741FFFFF7C4FF00BF1837BD4616
:101CCC0080BD80B586B000AF786003233B747B6821
:101CDC001B0CDBB27B747B681B0ADBB2BB747B68AE
:101CEC00DBB2FB74FFF7DCFE07F11003042118468E
:101CFC00FFF7FAFE07F10F0301211846FFF708FF63
:101D0C00FFF7DAFEFB7B18461837BD4680BD80B561
:101D1C00C8B000AF07F59073A3F58A73186007F588
:101D2C009073A3F58C73196007F59073A3F58E73FC
:101D3C001A6007F59073A3F5887302221A7007F5E1
:101D4C009073A3F58A731B681B0CDAB207F59073BA
:101D5C00A3F588735A7007F59073A3F58A731B6803
:101D6C001B0ADAB207F59073A3F588739A7007F51E
:101D7C009073A3F58A731B68DAB207F59073A3F519
:101D8C008873DA70042387F81F3197F81F319AB2E1
:101D9C0007F59073A3F58E731B689BB21344A7F8D9
:101DAC001A310023A7F81C3118E0B7F81C3107F5DD
:101DBC009072A2F58C7212681A4497F81F31591C54
:101DCC0087F81F111946127807F59073A3F58873DD
:101DDC005A54B7F81C310133A7F81C31B7F81C3131
:101DEC0007F59072A2F58E7212689A42DDD807F54B
:101DFC009073A3F58A731868FFF763FF0346FF2BF4
:101E0C002BD1FFF709FFB7F81A31FA2B15D9FFF7C9
:101E1C0047FE07F1100364211846FFF765FE07F132
:101E2C0010036433B7F81A21643A92B2114618467B
:101E3C00FFF75AFEFFF740FE0BE0FFF731FEB7F855
:101E4C001A2107F1100311461846FFF74DFEFFF754
:101E5C0033FEFFF771FEFFF7F4FE00BF07F5907736
:101E6C00BD4680BD90B589B000AF78610B467B82D2
:101E7C007B691A68A44B1B689A4240F0348102F0CB
:101E8C00F5FC0346A14A1360A14B1B78433B142B72
:101E9C0000F2298101A252F823F000BF951F00081F
:101EAC00FD1E0008F3200008F3200008F3200008B2
:101EBC00F3200008F3200008F3200008F3200008AA
:101ECC00F3200008F3200008F3200008F32000089A
:101EDC00F3200008F320000805200008D11F00089B
:101EEC00F3200008F3200008F32000082920000844
:101EFC00874B5B781A06864B9B781B041A43844BE2
:101F0C00DB781B021343824A127913431A46814B26
:101F1C001A60814B1B7883F00103DBB2002B00F0BD
:101F2C00DF807E4B1B78002B0ED07A4B1B6819463A
:101F3C007B4801F005FD7B4B01221A7002F096FCE8
:101F4C000346794A1360CBE0784B1968714B1A68D9
:101F5C00774C3B46184601F041FF3B460FCB84E8DB
:101F6C000F00734B1B68002B09D0724A72497348DF
:101F7C0001F081FF0121724801F0ACFDB0E00021BD
:101F8C006F4801F0A7FDABE06E4B1B78002B09D01E
:101F9C006C4B00221A706C4B1B781946684801F088
:101FAC0099FD05E0694B1B781946654801F092FDD7
:101FBC00574B1B79002B14BF01230023DAB2644B5F
:101FCC001A7090E0634B01221A70634B01221A7055
:101FDC000023FB7709E0FB7F5A1CFB7F4C49895C93
:101FEC005E4AD154FB7F0133FB77FB7F162BF2D972
:101FFC005B4B01221A7076E0454B5B78012B09D1C3
:10200C00584B01221A70424B5A78574B1A70524B4C
:10201C0001221A70524B01221A7064E03C4B5B781F
:10202C00452B06D0452B5DDC432B51D0442B12D0D5
:10203C0058E04E4B01221A7002F018FC03464C4A31
:10204C001360454B01221A704A4B01221A70444B03
:10205C0001221A7043E0484B1B680133464A136057
:10206C002B4B9B781A062A4BDB781B041A43284B04
:10207C001B791B021343264A527913431A463E4BD3
:10208C005A60234B9A793C4B1A72214BDA793A4BB2
:10209C005A721F4B1A7A384B9A721D4B5A7A364B1E
:1020AC00DA721B4B9A7A344B1A73194BDA7A324B1D
:1020BC005A73174B1A7B304B9A73154B5A7B2E4B1A
:1020CC00DA732E4B01221A70234B01221A7006E090
:1020DC002B4B01221A70204B01221A7000BF01E019
:1020EC0000BF00E000BF32220949074806F037F96B
:1020FC00244B1B681A68234B1B6822F004021A60DD
:10210C0000BF2437BD4690BD10020020AC08002053
:10211C00D0020020840700200F0900200C090020A9
:10212C00BC9200080D090020B00800208C0800208B
:10213C00300900208C070020CC0800203809002032
:10214C00C09200081B0900207807002030000020F6
:10215C00C8080020160900201C0900205407002084
:10216C0078000020180900206D0700200E090020BF
:10217C0094080020170900204009002011090020B4
:10218C00100900205802002080B582B000AF034631
:10219C00FB80FB88402B45D1142002F071FB4021C1
:1021AC00224804F0B5F90346002B3BD1204B012209
:1021BC001A7002F05BFB03461E4A13601E4B4FF471
:1021CC00FA621A6027E002F051FB0246194B1B68B9
:1021DC00D31A1A4A1360194B1B6842F210729342BD
:1021EC0002D9154B64221A6002F040FB0246144BD4
:1021FC001B68D21A104B1B689A4209D902F036FBA5
:10220C0003460F4A13604FF400510E4804F0AFF927
:10221C000A2002F035FB4021044804F079F903460A
:10222C00002BD0D000BF0837BD4680BD000C01404C
:10223C0019090020B4080020C0080020BC080020A8
:10224C00B80800200010014080B584B002AF78605F
:10225C007B681A68414B1B689A4265D1404B1A78CF
:10226C00404B1B789A4205D23D4B1B780133DAB2B6
:10227C003B4B1A703C4B1B78002B19D13B4B1B78FA
:10228C00002B15D13A4B1B78002B11D1394B1B78F5
:10229C00002B0DD1384B1B7883F00103DBB2002BE4
:1022AC0006D10421354804F033F90346002B21D123
:1022BC00334B01221A70324B00225A70304B0022E1
:1022CC009A702F4B0022DA702D4B00221A712C4B76
:1022DC0000225A712A4B00229A71294B0022DA7182
:1022EC0001224FF40041274804F029F9264B022221
:1022FC001A7013E01B4B1B78194A01920093234B65
:10230C001F4A2349234801F021FE00224FF40041CB
:10231C001C4804F014F91C4B03221A701E4B184A6B
:10232C001E491F4802F0F6FC7B681A681D4B1B689F
:10233C009A420ED11C4804F08FF91C4B1B7883F089
:10234C000103DBB2002B04D04FF400510D4804F014
:10235C000EF900BF0837BD4680BD00BF80010020CC
:10236C006E070020080700200F0900201A09002022
:10237C00C9080020C80800203600002000080140D1
:10238C003C07002000100140300000200C0700200A
:10239C008C070020CC08002088070020B802002001
:1023AC009C000020C8010020C40000201909002056
:1023BC0080B582B000AF7860124B134A0021786868
:1023CC0002F0EFFD0346002B01D001F08DFF0E4B08
:1023DC001B68B3F5E86F10D10A4B9B78482B0CD1D6
:1023EC00084B1B7903F04003002B03D0074B012251
:1023FC001A7002E0054B00221A7000BF0837BD4668
:10240C0080BD00BF700700209C0200201A0900202C
:10241C0090B58FB002AF02F0D1F900F0C7FF924B2C
:10242C005B68914A43F48073536001F0A7F901F0A3
:10243C0087F901F003F801F051F801F085F801F08B
:10244C0055F901F005F901F02FF801F0B3F88748C0
:10245C0005F008FB32228649864805F080FF864B42
:10246C001B681A68844B1B6822F004021A60834BA9
:10247C0008221A61814B44F2FF725A607F4B04228E
:10248C009A607E4B0022DA607C4B00221A607B4BF8
:10249C0000221A757A4B00221A60794B01225A607D
:1024AC00774B784A9A60764B0122DA60754B1B6841
:1024BC00DAB2754B1A70754B1B68DAB2744B1A7022
:1024CC00744B1B68DAB2744B1A70744B1B68DAB21B
:1024DC00734B1A70734B1B689AB2734B1A80734B05
:1024EC001B68DAB2724B1A70724B1B68DAB2724B01
:1024FC001A70724B1B68DAB2714B1A70714B1B68F5
:10250C00DAB2714B1A70714B1B689AB2704B1A800D
:10251C00704B1B68DAB2704B1A70704B1B68DAB2D6
:10252C006F4B1A706F4B1B686F4A13606F4B1B68B5
:10253C006F4A1360544B1B78FF2B02D1524BC022B5
:10254C001A70534B1B78FF2B02D1514BA8221A70D7
:10255C00514B1B78FF2B02D14F4B00221A70504B62
:10256C001B78FF2B02D14E4B48221A704E4B1B8806
:10257C004FF6FF72934202D14B4B00221A804C4B08
:10258C001B78FF2B02D14A4BC0221A704A4B1B7886
:10259C00FF2B02D1484BA8221A70494B1B78FF2BFA
:1025AC0002D1474B00221A70474B1B78FF2B02D1EC
:1025BC00454B02221A70464B1B884FF6FF72934212
:1025CC0003D1434B41F270721A80434B1B78FF2BA3
:1025DC0002D1414B01221A70414B1B78FF2B02D1C7
:1025EC003F4B00221A70404B1B68DAB2414B1A70F9
:1025FC003D4B1B681B0ADAB23E4B5A703A4B1B68B8
:10260C001B0CDAB23B4B9A70374B1B681B0EDAB2C1
:10261C00384BDA70364B1B68DAB2364B1A71344BC6
:10262C001B681B0ADAB2334B5A71314B1B681B0CFB
:10263C00DAB2304B9A712E4B1B681B0EDAB22D4B53
:10264C00DA711B4B1A782C4B1A701B4B1A782A4BCD
:10265C005A701B4B1A78284B9A701B4B1A78264BC6
:10266C00DA70FFF791FA63E0002004E0C801002063
:10267C00D00200201002002058020020B8020020D6
:10268C008C00002000FC00081407002004FC00084B
:10269C001507002008FC0008160700200CFC000899
:1026AC001707002010FC00087C07002014FC000811
:1026BC001807002018FC0008190700201CFC000853
:1026CC001A07002020FC00081B07002024FC00082F
:1026DC007A07002028FC0008080700202CFC0008C2
:1026EC003A07002030FC00089C08002034FC00084D
:1026FC00A00800200C07002004070020B84B1B6822
:10270C001809B74B1B68DBB203F00F03DBB21B01DC
:10271C00D9B2B44B1022FFF74FFAB24B1B685A1EBA
:10272C00AF4B1B689A4203D1AE4B1B68AC4A13608B
:10273C00AC4B1B68B3F1FF3FE0D100233B741C236F
:10274C007B741623BB74A84B1B78FB74A64B1B78AD
:10275C00DB43DBB23B75A44B1B78A34A127802FB1C
:10276C0003F3DBB27B75A14B1B78BB75A04B1B78BD
:10277C00FB75A04B1B783B769B4B1B787B769E4A5C
:10278C0007F11A03106818609C4A07F11E031068C1
:10279C0018609B4A07F1220310681860012387F820
:1027AC002630984B1A78984B1A70984B1A78964B8F
:1027BC005A70974B1A78944B9A70964B1A78924B96
:1027CC00DA7002F081F803461B0EDCB202F090F8CE
:1027DC0003461B0CDBB22344DCB202F07FF8034649
:1027EC001B0ADBB22344DCB202F06EF80346DBB208
:1027FC002344DBB2FB7402F071F803461B0EDCB20F
:10280C0002F062F803461B0CDBB22344DCB202F08C
:10281C006FF803461B0ADBB22344DCB202F068F803
:10282C000346DBB22344DBB23B7502F061F803468E
:10283C001B0EDCB202F052F803461B0CDBB2234435
:10284C00DCB202F041F803461B0ADBB22344DCB2D3
:10285C0002F044F80346DBB22344DBB27B75FDF790
:10286C007BFF4FF4FA6002F00BF807F110031846E7
:10287C00FFF7D6F8684B1A88202301210020FDF7BA
:10288C00B7FF664B1B881A465F490020FEF73EF9DE
:10289C004FF44270FDF75CFC0346172B12D101F08C
:1028AC00E5FF03465E4A136001F0E0FF03465D4A14
:1028BC0013605D4B01221A7001224FF480415B487A
:1028CC0003F03DFE5A4B1B78184601F0A7FC594803
:1028DC0005F0C8F8584802F030FB0346002B0AD12B
:1028EC00564B1B681946544802F0E3FA0346002B7A
:1028FC0001D002F0D6FF0020FDF7CDFD03461A46AD
:10290C004F4B1A604E4B1B68B3F5806F01D902F028
:10291C00C8FF4B4B1B68002B00F0E180484B1B6839
:10292C009BB21A4647490020FEF754FB454B1B78D7
:10293C00443B132B00F2D38001A252F823F000BFCA
:10294C00A9290008EB2A0008EB2A0008EB2A00084A
:10295C009D290008EB2A0008EB2A0008EB2A000846
:10296C00EB2A0008EB2A0008EB2A0008EB2A0008E7
:10297C00EB2A0008EB2A00088B2A0008DD29000846
:10298C00EB2A0008EB2A0008EB2A0008CF2A0008E3
:10299C0001F06CFF03462C4A1360A0E02B4B012284
:1029AC001A70002387F82F300DE097F82F305A1C3F
:1029BC0097F82F302349895C254AD15497F82F304A
:1029CC00013387F82F3097F82F30082BEDD986E09C
:1029DC00204B01221A70002387F82E304AE000BFEA
:1029EC008C08002020090020170700201407002065
:1029FC001507002016070020F0920008F49200083A
:102A0C00F89200081807002004070020190700207E
:102A1C001A0700201B0700207C0700207A070020E3
:102A2C00A4080020A8080020140900200010014070
:102A3C003A070020800100209C000020880700201D
:102A4C00980800200403002090080020150900209D
:102A5C00480700201609002097F82E305A1C97F8CA
:102A6C002E306F49895C6F4AD15497F82E30013360
:102A7C0087F82E3097F82E30162BEDD92FE0684BB7
:102A8C005B78022B08D1684B01221A7001F0EEFE24
:102A9C000346664A136022E0614B5B78032B08D136
:102AAC00634B01221A7001F0E1FE03465F4A13608A
:102ABC0015E0604B01221A70594B5A785E4B1A7014
:102ACC000DE0574B5B78452B08D15C4B01221A70FB
:102ADC0001F0CCFE0346554A136000BF00BF01F065
:102AEC00C5FE0246564B1B68D31A002BB8BF5B427F
:102AFC0042F21072934203DD524B00221A7002E034
:102B0C00504B01221A70504B1B78172B10D101F02F
:102B1C00ADFE02464A4B1B68D31A002BB8BF5B4272
:102B2C0042F20F72934203DC464B01221A7002E010
:102B3C00444B00221A7001F099FE0246434B1B686D
:102B4C00D31A002BB8BF5B4242F21072934203DDE2
:102B5C003F4B00221A7002E03D4B01221A703D4B94
:102B6C001B78002B1CD03B4B00221A703A4B1B7865
:102B7C00002B02D0012B07D012E0384B00221A7028
:102B8C00374B01221A700BE0364A3749374801F0AF
:102B9C0072F9324B01221A70314B01221A7000BFAC
:102BAC00334B1B78002B2AD001F060FE0246314BD0
:102BBC001B68D31AB3F5FA7F21D92D4B00221A705A
:102BCC002D4B19682D4B1A682D4C3B46184601F0BD
:102BDC0005F93B460FCB84E80F00294B1B68002BF3
:102BEC0009D0204A2049274801F045F901212648FF
:102BFC0000F070FF03E00021234800F06BFF234B33
:102C0C001B78002B00F0C580204B00221A70054B5E
:102C1C001B78002B3CD0012B00F0B180B9E000BF39
:102C2C0004030020540700201209002094080020FF
:102C3C0013090020180900206D0700200E09002040
:102C4C00900800200C09002044070020AC0800204C
:102C5C0036000020150900204807002078070020C6
:102C6C001B0900208C070020CC08002049070020FD
:102C7C000D090020B00800208C08002084070020DB
:102C8C003009002038090020C092000816090020E5
:102C9C008A4B5A788A4B1A70884B9A78894B1A70DF
:102CAC00864BDA78884B1A70844B1A79874B1A70DA
:102CBC00824B5B791BB21B021AB2804B9B791BB205
:102CCC0013431BB29AB2824B1A807C4BDA79814B3C
:102CDC001A707A4B1A7A804B1A70784B5A7A7F4B4F
:102CEC001A70764B9A7A7E4B1A70744BDB7A1BB245
:102CFC001B021AB2714B1B7B1BB213431BB29AB251
:102D0C00784B1A806D4B5A7B774B1A706B4B9A7BB6
:102D1C00764B1A70694BDB7B1A46684B1B7C1B028B
:102D2C001A43664B5B7C1B041A43644B9B7C1B064F
:102D3C0013431A466E4B1A60604BDB7C1A465F4B92
:102D4C001B7D1B021A435D4B5B7D1B041A435B4BC3
:102D5C009B7D1B0613431A46664B1A6000F04AFF14
:102D6C00654B1B78002B03D0644800F0DBFE03E0BE
:102D7C006349644800F01CFE02F093FD09E04F4BE0
:102D8C005B78002B14BF01230023DAB25E4B1A7060
:102D9C0000BF5E4B1B78002B00F0C7805B4B002202
:102DAC001A705B4B1B78002B02D0012B03D0BCE0BC
:102DBC0002F077FDB9E0424B1A78564B1A70414B32
:102DCC001A78544B5A70404B1A78524B9A703F4BAE
:102DDC001A78504BDA703E4B1B881B0A9BB2DAB246
:102DEC004C4B1A713A4B1B88DAB24A4B5A71394B1D
:102DFC001A78484B9A71384B1A78464BDA71374B24
:102E0C001A78444B1A72364B1A78424B5A72354B1D
:102E1C001B881B0A9BB2DAB23E4B9A72314B1B8851
:102E2C00DAB23C4BDA72304B1A783A4B1A732F4B9E
:102E3C001A78384B5A73384B1B681B0EDAB2354B69
:102E4C009A73354B1B681B0CDAB2324BDA73324B6C
:102E5C001B681B0ADAB22F4B1A742F4B1B68DAB2A1
:102E6C002C4B5A742D4B1A782A4B9A742B4B5A783C
:102E7C00284BDA74294B9A78264B1A75274BDA783B
:102E8C00244B5A75254B1A79224B9A75234B5A7938
:102E9C00204BDA75214B9A791E4B1A761F4BDA7937
:102EAC001C4B5A76144B1B78002B39D0194800F068
:102EBC0065FE114B00221A7036E000BF540700204B
:102ECC001407002015070020160700201707002004
:102EDC007C07002018070020190700201A07002083
:102EEC001B0700207A070020080700203A07002063
:102EFC009C080020A00800201C090020C492000897
:102F0C00C8920008CC920008C908002018090020BB
:102F1C006D0700201C0700208C0800200C070020E7
:102F2C008349844800F066FD00BF834B1B7883F017
:102F3C000103DBB2002B00F0BB8001F097FC0246D2
:102F4C007E4B1B68D31A002BB8BF5B4241F2883210
:102F5C00934240F3AD8001F089FC0346774A13603D
:102F6C00002001F0D5F803461A46754B1A70744BC5
:102F7C001B78172B40F09C80724B1B78002B03D0D6
:102F8C00714B46225A7033E0704B1B78002B03D0E8
:102F9C006D4B50225A702BE06D4B1B78002B03D0DD
:102FAC00694B45225A7023E06A4B1B7883F001036E
:102FBC00DBB2002B03D0644B44225A7018E004217E
:102FCC00654803F0A5FA0346002B03D15E4B432260
:102FDC005A700DE0614B1B7883F00103DBB2002BC0
:102FEC0003D0594B4F225A7002E0574B52225A7061
:102FFC00022255490020FDF7F5FE59E0584B1B689D
:10300C00002B07D100214B4800F0BCFC554B002293
:10301C001A704DE00023BB6245E0BB6A1809BB6A1D
:10302C00DBB203F00F03DBB21B01D9B24E4B102203
:10303C00FEF7C2FD4C4BDA6800920ECB3D4800F017
:10304C0005FD4A4B00221A7012E001F00FFC0246FB
:10305C00474B1B68D31A002BB8BF5B4242F210726D
:10306C00934205DD414B01221A703E4B00221A702F
:10307C003E4B1B7883F00103DBB2002BE5D1384BC0
:10308C001B68013BBA6A9A420AD10121294800F017
:10309C0079FC364B01221A70324B00221A7007E071
:1030AC00BB6A0133BB622E4B1B68BA6A9A42B4D31B
:1030BC002C4B1B78002BA1D108E12E4B1B7883F0F5
:1030CC000103DBB2002B00F00781002387F82730C7
:1030DC000AE097F827309BB21846FEF7C7FD97F821
:1030EC002730013387F8273097F827201C4B1B68B3
:1030FC001B0A01339A42ECD31E4B01221A70184B57
:10310C0000221A601C4B1B78002B06D01A4B002295
:10311C001A701A4800F006FD03E01949194800F02E
:10312C0047FC01F0A3FB0346114A1360C8E000BF43
:10313C001C070020D092000817090020A4080020CA
:10314C00440700201A09002034000020C908002080
:10315C00C808002036000020000801400C0900209F
:10316C008C080020120900205009002013090020AF
:10317C00940800200F0900201C090020D49200089C
:10318C00DC920008E09200086F4B1B7883F001037F
:10319C00DBB2002B53D00020FDF77DF90346002B4A
:1031AC004DD0322269490020FDF714FF674B1B7884
:1031BC00572B44D1654B5B78442B39D1644B1B683E
:1031CC000133634A1360614B9B781A065F4BDB78C3
:1031DC001B041A435D4B1B791B0213435B4A527948
:1031EC0013431A465A4B5A60584B9A79584B1A72D9
:1031FC00564BDA79564B5A72544B1A7A544B9A7284
:10320C00524B5A7A524BDA72504B9A7A504B1A7381
:10321C004E4BDA7A4E4B5A734C4B1A7B4C4B9A737F
:10322C004A4B5A7B4A4BDA734A4B01221A7006E01E
:10323C00464B5B78432B02D1474B01221A70454B0E
:10324C001B78002B24D0454B1B680133434A136079
:10325C003F4B1B68013B1B0110223D491846FEF7F2
:10326C0056FD3C4B00221A703D4B1B78002B06D0B0
:10327C003B4B00221A703B4800F054FC03E03A49E7
:10328C003A4800F095FB01F0F1FA0346384A136016
:10329C00314B1B781C4601F0E9FA0246344B1B6893
:1032AC00D31A002BB8BF5B4242F210729342CCBFD0
:1032BC0001230023DBB22343002B01D002F0F1FAEF
:1032CC002C4B1B78002B7FF45FAF05E02A4B1B784F
:1032DC00002B7FF4F2AE00E000BF284B1B78002BD4
:1032EC0025D0274B1B6842F2107293421DD9254BF7
:1032FC00C0221A70244BA8221A70244B00221A7078
:10330C00234B48221A70234BC0221A70224BA8223E
:10331C001A70224B00221A70214B02221A70214B78
:10332C0041F270721A8000F065FC02F0BAFA1E4B82
:10333C001B68B3F5347F01D102F0B3FA0A2001F017
:10334C009FFAFFF7C7BA00BF17090020040300203B
:10335C004009002011090020100900208C080020D1
:10336C001C090020E4920008EC920008E09200088E
:10337C00940800200F0900200E09002019090020D4
:10338C00BC08002014070020150700201607002099
:10339C001707002018070020190700201A07002023
:1033AC001B0700207A070020C408002080B590B0CD
:1033BC0000AF07F1180328220021184605F020FF62
:1033CC003B1D00221A605A609A60DA601A61092368
:1033DC00BB614FF48033FB614FF400333B6201233C
:1033EC00BB6201233B6302237B634FF48033BB63DB
:1033FC004FF4E013FB6307F11803184603F03CF994
:10340C000346002B01D000F06FFF0F237B600223DB
:10341C00BB600023FB604FF480633B6100237B6146
:10342C003B1D0221184603F0A9FB0346002B01D0DB
:10343C0000F05AFF00BF4037BD4680BD80B500AFDD
:10344C00174B184A1A60164B3C225A60144B002238
:10345C009A60134B0022DA60114B4FF470221A6100
:10346C000F4B4FF4C0025A610D4B00221A760C4BD5
:10347C0001225A760A4B00229A76094B0022DA7600
:10348C00074B00221A77064B00225A77044801F0AA
:10349C0039FA0346002B01D000F026FF00BF80BD97
:1034AC009C0000200064004080B500AF094B0A4A24
:1034BC001A60084B04225A60064B40F252729A6012
:1034CC00044803F085F80346002B01D000F00CFFF4
:1034DC0000BF80BDC40000200030004080B500AFAC
:1034EC00174B184A1A60164B4FF482725A60144BE1
:1034FC0000229A60124B0022DA60114B00221A61F2
:10350C000F4B00225A610E4B4FF400729A610C4B18
:10351C002022DA610A4B00221A62094B00225A62FD
:10352C00074B00229A62064B0A22DA62044803F027
:10353C00B5FC0346002B01D000F0D6FE00BF80BDC9
:10354C00D00000200030014080B500AF174B184A66
:10355C001A60164B4FF482725A60144B00229A6018
:10356C00124B0022DA60114B00221A610F4B002221
:10357C005A610E4B4FF400729A610C4B0022DA61C7
:10358C000A4B00221A62094B00225A62074B002296
:10359C009A62064B0A22DA62044803F07FFC034667
:1035AC00002B01D000F0A0FE00BF80BD2801002040
:1035BC000038004080B586B000AF07F10803002248
:1035CC001A605A609A60DA603B4600221A605A60B0
:1035DC001E4B4FF080421A601C4B48F6A0425A60BA
:1035EC001A4B00229A60194B40F2E732DA60174B03
:1035FC0000221A61154B00229A61144804F0E3F979
:10360C000346002B01D000F06FFE4FF48053BB60DB
:10361C0007F1080319460D4804F066FB0346002B1E
:10362C0001D000F061FE00233B6000237B603B4631
:10363C001946064804F048FD0346002B01D000F063
:10364C0053FE00BF1837BD4680BD00BF800100206F
:10365C0080B586B000AF07F1080300221A605A60EB
:10366C009A60DA603B4600221A605A601D4B1E4A73
:10367C001A601C4B48F6A0425A601A4B00229A6002
:10368C00184B40F2E732DA60164B00221A61154BE8
:10369C0000229A61134804F096F90346002B01D0DE
:1036AC0000F022FE4FF48053BB6007F1080319466B
:1036BC000C4804F019FB0346002B01D000F014FE5B
:1036CC0000233B6000237B603B461946054804F011
:1036DC00FBFC0346002B01D000F006FE00BF1837A0
:1036EC00BD4680BDC80100200004004080B500AF7D
:1036FC00114B124A1A60104B4FF416525A600E4B73
:10370C0000229A600C4B0022DA600B4B00221A61EB
:10371C00094B0C225A61084B00229A61064B00227D
:10372C00DA61054804F040FD0346002B01D000F09F
:10373C00DBFD00BF80BD00BF10020020003801403F
:10374C0080B582B000AF0C4B5B690B4A43F00103B0
:10375C005361094B5B6903F001037B607B680022BA
:10376C0000210F2002F073F80F2002F08CF800BF3C
:10377C000837BD4680BD00BF0010024080B588B040
:10378C0000AF07F1100300221A605A609A60DA60E9
:10379C00664B9B69654A43F010039361634B9B69CD
:1037AC0003F01003FB60FB68604B9B695F4A43F0BE
:1037BC00200393615D4B9B6903F02003BB60BB68E6
:1037CC005A4B9B69594A43F004039361574B9B69CD
:1037DC0003F004037B607B68544B9B69534A43F0B2
:1037EC0008039361514B9B6903F008033B603B68F2
:1037FC0000224FF460414E4802F0A1FE012210213C
:10380C004C4802F09CFE002232214B4802F097FEFD
:10381C0001224FF48051484802F091FE00224FF4EF
:10382C008071444802F08BFE4FF460433B610123EE
:10383C007B610023BB610223FB6107F11003194676
:10384C003B4802F0E1FC04233B6100237B61012334
:10385C00BB6107F110031946364802F0D5FC102362
:10386C003B6101237B610023BB610323FB6107F1F7
:10387C00100319462F4802F0C7FC01233B612F4B64
:10388C007B610023BB6107F1100319462A4802F043
:10389C00BBFC32233B6101237B610023BB61022310
:1038AC00FB6107F110031946234802F0ADFC4FF4FD
:1038BC0080533B6101237B610023BB610323FB61CC
:1038CC0007F1100319461C4802F09EFC4FF480735C
:1038DC003B6101237B610023BB610223FB6107F188
:1038EC0010031946134802F08FFC40233B61134B25
:1038FC007B610123BB6107F1100319460E4802F0EE
:10390C0083FC00220121062001F0A1FF062001F01A
:10391C00BAFF00220721172001F099FF172001F0B0
:10392C00B2FF00BF2037BD4680BD00BF0010024073
:10393C000010014000080140000C01400000211063
:10394C0080B584B000AF786039607B681B783B72BF
:10395C003B681B0EDBB27B723B681B0CDBB2BB7291
:10396C003B681B0ADBB2FB723B68DBB23B7307F1B3
:10397C000803052219460020FDF734FA00BF103762
:10398C00BD4680BD80B584B000AF78600B46FB703F
:10399C007B681B783B73FB787B7307F10C0302226B
:1039AC0019460020FDF71EFA00BF1037BD4680BD3A
:1039BC0080B584B000AF7860396007F1080379688E
:1039CC00184605F059FC07F108033968184605F04C
:1039DC001FFC07F108031846FCF7B2FB03469AB22A
:1039EC0007F1080319460020FDF7FCF900BF10375A
:1039FC00BD4680BD80B58AB000AF786039607B6809
:103A0C001B783B73002387F8273010E097F827309A
:103A1C003A681A4497F827300133127828333B441C
:103A2C0003F81C2C97F82730013387F8273097F8C8
:103A3C002730192BEAD907F10C031B221946002059
:103A4C00FDF7D0F900BF2837BD4680BD84B080B5E6
:103A5C0086B000AF786007F1240080E80E007B6828
:103A6C001B783B7202237B72BB6A1B0EDBB2BB72F0
:103A7C00BB6A1B0CDBB2FB72BB6A1B0ADBB23B736F
:103A8C00BB6ADBB27B7397F82C30BB7397F82D3085
:103A9C00FB7397F82E303B7497F82F307B7497F8A4
:103AAC003030BB7497F83130FB7497F832303B757B
:103ABC0097F833307B7507F108030E221946002066
:103ACC00FDF790F900BF1837BD46BDE8804004B043
:103ADC007047000080B584B000AF78600B46FB7077
:103AEC007B681B783B73FB787B7301224FF48071EE
:103AFC000A4802F024FD07F10C014FF4FA7302227C
:103B0C00074804F0A1FB00224FF48071034802F037
:103B1C0016FD00BF1037BD4680BD00BF0008014038
:103B2C001002002080B584B000AF78607B681B78F1
:103B3C003B737B685B787B737B689B78BB737B6820
:103B4C00DB78FB7301224FF480710A4802F0F7FC1A
:103B5C0007F10C014FF4FA730422074804F074FBCC
:103B6C0000224FF48071034802F0E9FC00BF1037CB
:103B7C00BD4680BD000801401002002080B58AB00F
:103B8C0000AF786052233B73002387F8273010E096
:103B9C0097F827307A681A4497F82730013312784F
:103BAC0028333B4403F81C2C97F82730013387F853
:103BBC00273097F82730192BEAD901224FF480715E
:103BCC000A4802F0BCFC07F10C014FF47A731B227B
:103BDC00074804F039FB00224FF48071034802F0CF
:103BEC00AEFC00BF2837BD4680BD00BF00080140B9
:103BFC00100200202DE9B04F96B000AF02F074F91E
:103C0C005849594802F058FA584B1B78DBB200223D
:103C1C001C46154622462B465549022002F0F4F864
:103C2C00544B1B78DBB200229846914642464B46D9
:103C3C005149022002F0E8F8504B1B78DBB200220D
:103C4C009A46934652465B464D49022002F0DCF8F8
:103C5C004C4B1B78DBB200223B657A65D7E9142309
:103C6C004949022002F0D0F8484B1B889BB2002235
:103C7C00BB64FA64D7E912234549022002F0C4F868
:103C8C00444B1B78DBB200223B647A64D7E91023E7
:103C9C004149022002F0B8F8404B1B78DBB20022FD
:103CAC00BB63FA63D7E90E233D49022002F0ACF85E
:103CBC003C4B1B78DBB200223B637A63D7E90C23C5
:103CCC003949022002F0A0F8384B1B78DBB20022F5
:103CDC00BB62FA62D7E90A233549022002F094F854
:103CEC00344B1B889BB200223B627A62D7E90823D3
:103CFC003149022002F088F8304B1B78DBB20022ED
:103D0C00BB61FA61D7E906232D49022002F07CF849
:103D1C002C4B1B78DBB200223B617A61D7E9042380
:103D2C002949022002F070F8284B1B680022BB6066
:103D3C00FA60D7E902232649022002F065F8254BE8
:103D4C001B6800223B607A60D7E9002322490220DD
:103D5C0002F05AF802F0EEF800BF5837BD46BDE845
:103D6C00B08F00BF800700208C00002014070020BB
:103D7C0000FC00081507002004FC000816070020B2
:103D8C0008FC0008170700200CFC00087C0700202A
:103D9C0010FC00081807002014FC0008190700206C
:103DAC0018FC00081A0700201CFC00081B07002048
:103DBC0020FC00087A07002024FC000808070020DB
:103DCC0028FC00083A0700202CFC00089C08002066
:103DDC0030FC0008A008002034FC000890B591B01D
:103DEC0000AFF860B9607A600123FB63BB68BB630A
:103DFC0007F1240300221A605A609A60DA602BE003
:103E0C00FA6BBB6B13445B087B637B6B013B180940
:103E1C007B6B013BDBB203F00F03DBB21B01D9B2AE
:103E2C0007F114031022FDF7C7FEBB697A689A42AA
:103E3C0007D1FB681C4607F114030FCB84E80F0075
:103E4C0015E0BB697A689A4203D97B6B0133FB633B
:103E5C0002E07B6B013BBB63FA6BBB6B9A42CFD925
:103E6C00FB681C4607F124030FCB84E80F00F868AD
:103E7C004437BD4690BD90B587B000AFF860B960CF
:103E8C007A600023FB752BE00023BB7522E0FB7DE1
:103E9C00FA6813441B781A46BB7D42FA03F303F00D
:103EAC000103002B13D0FB7DDA00BB7D13441A46B3
:103EBC00BB68134401221A70FB7DDA00BB7D1344EE
:103ECC009B007A68D41800F0D1FC03462360BB7DBC
:103EDC000133BB75BB7D072BD9D9FB7D0133FB753A
:103EEC00FB7D072BD0D900BF00BF1C37BD4690BD52
:103EFC0080B487B000AF786039600023FB75002375
:103F0C003B611AE03B697A6813441B78DB09FB734D
:103F1C003B697A6813441B785BB25B005AB297F921
:103F2C001730134359B23B693A681344CAB21A703A
:103F3C00FB7BFB753B6901333B613B69072BE1DD87
:103F4C0000BF00BF1C37BD4680BC704780B588B031
:103F5C0000AFF860B9607A603B6007F11003002293
:103F6C001A605A60FB6A1B7897F828209A4248D945
:103F7C000023FB7740E00023BB7731E0FB7FDA00C6
:103F8C00BB7F13449B00BA6813441B68002B1FD1E2
:103F9C00FB7F3A6813441B781A46BB7F42FA03F343
:103FAC0003F00103002B09D0FB7FDA00BB7F134425
:103FBC001A46FB68134401221A700EE0FB7FDA00EC
:103FCC00BB7F13441A46FB68134400221A7004E0AA
:103FDC00FB6A97F828201A7005E0BB7F0133BB778A
:103FEC00BB7F072BCAD9FB6A1B7897F828209A420B
:103FFC0006D0FB7F0133FB77FB7F072BBBD900E09F
:10400C0000BFFB6A1B7897F828209A4248D80023F7
:10401C007B7742E000233B7739E07B7F3A6813449F
:10402C001B781A463B7F42FA03F303F00103002B83
:10403C0021D000F01BFC01467B7FDA003B7F134450
:10404C009B00BA6813441B68CB1A83EAE372A2EB99
:10405C00E37297F828304FF47A7101FB03F39A421C
:10406C0009DD7B7FDA003B7F13441A46FB6813445F
:10407C0001221A7008E07B7FDA003B7F13441A465A
:10408C00FB68134400221A703B7F01333B773B7F64
:10409C00072BC2D97B7F01337B777B7F072BB9D969
:1040AC000023FB7626E00023BB761DE0FB7E20334D
:1040BC003B4413F8103C5AB2FB7ED900BB7E0B4438
:1040CC001946FB680B441B781946BB7E01FA03F3B7
:1040DC005BB213435AB2FB7ED2B220333B4403F89B
:1040EC00102CBB7E0133BB76BB7E072BDED9FB7E4F
:1040FC000133FB76FB7E072BD5D907F110037968CA
:10410C001846FFF7F5FE00BF2037BD4680BD000006
:10411C0080B584B000AF0346FB71FB799B00013383
:10412C00DB0003F540731846FCF712F80346FB73EB
:10413C00FDF729FB0346002B10D1324B1B78002BCB
:10414C000CD000224FF480412F4802F0F8F92D4B8F
:10415C0000221A70FB791846FCF7C0FDFB7B1C2B68
:10416C000CD100224FF48041274802F0E8F9254B8E
:10417C0000221A70FB791846FCF7B0FDFDF703FB23
:10418C000346012B1BD1FB7B002B18D100224FF4D3
:10419C0080411D4802F0D3F91C4B1A88F879202372
:1041AC000121FCF725FB1A4B1A88FB791949184693
:1041BC00FCF7ACFC184B1B680133174A1360FB79F6
:1041CC009B000133DB0003F540731846FBF7C0FF7F
:1041DC000346FB73FB7B172B0FD10A4B1B7883F029
:1041EC000103DBB2002B08D001224FF480410648BA
:1041FC0002F0A5F9034B01221A70FB7B184610370D
:10420C00BD4680BD14090020001001407C07002031
:10421C007A07002004070020C408002080B58CB069
:10422C0000AF0346FB71FB79002B0BD12C4B1E22EC
:10423C005A602B4B4FF4E0221A61294B4FF40012B9
:10424C005A611CE0FB79012B0BD1254B28225A60BB
:10425C00234B4FF430221A61214B4FF480025A61E8
:10426C000DE0FB79022B0AD11D4B3C225A601C4BF2
:10427C004FF470221A611A4B4FF4C0025A61184B5A
:10428C000122DA76164B4FF00072DA60144800F017
:10429C0039FB0123BB620023FB610023BB614FF49C
:1042AC006843BB600023FB600E4B3B6106237B61C4
:1042BC0000233B6201237B620D23FB6207F10803A1
:1042CC001946074800F019FC054800F0DFFC0221F4
:1042DC00034800F087FF00BF3037BD4680BD00BFEC
:1042EC009C000020E0FF010080B400AF72B600BF5C
:1042FC0000BFFDE780B485B000AF154B9B69144A35
:10430C0043F001039361124B9B6903F00103BB6003
:10431C00BB680F4BDB690E4A43F08053D3610C4BE7
:10432C00DB6903F080537B607B680A4B5B68FB6046
:10433C00FB6823F0E063FB60FB6843F00073FB60F9
:10434C00044AFB68536000BF1437BD4680BC7047FD
:10435C00001002400000014080B588B000AF7860CA
:10436C0007F1100300221A605A609A60DA607B68C9
:10437C001B68204A934239D11F4BDB691E4A43F01C
:10438C000073D3611C4BDB6903F00073FB60FB68AB
:10439C00194B9B69184A43F004039361164B9B69B4
:1043AC0003F00403BB60BB684FF400633B61002364
:1043BC007B610023BB6107F1100319460F4801F024
:1043CC0023FF4FF480533B6102237B610323FB618A
:1043DC0007F110031946094801F016FF00220321CA
:1043EC00142001F034FA142001F04DFA00BF2037EC
:1043FC00BD4680BD00640040001002400008014032
:10440C0080B58AB000AF786007F1180300221A60FB
:10441C005A609A60DA607B681B68374A934230D1E5
:10442C00364B9B69354A43F480539361334B9B69FC
:10443C0003F480537B617B69304B9B692F4A43F0BB
:10444C00040393612D4B9B6903F004033B613B69AF
:10445C00A023BB610223FB6103237B6207F11803DA
:10446C001946274801F0D0FE4023BB610023FB61B5
:10447C0000233B6207F118031946214801F0C4FEE2
:10448C0036E07B681B681F4A934231D11B4BDB69BA
:10449C001A4A43F48043D361184BDB6903F480431D
:1044AC00FB60FB68154B9B69144A43F0080393614E
:1044BC00124B9B6903F00803BB60BB684FF42043AD
:1044CC00BB610223FB6103237B6207F118031946CE
:1044DC000D4801F099FE4FF48043BB610023FB6152
:1044EC0000233B6207F118031946074801F08CFEC4
:1044FC0000BF2837BD4680BD00300140001002408F
:10450C000008014000380040000C014080B584B028
:10451C0000AF78607B681B68B3F1804F14D1194BE6
:10452C00DB69184A43F00103D361164BDB6903F0D6
:10453C000103FB60FB68002204211C2001F087F9B9
:10454C001C2001F0A0F918E07B681B680E4A93420E
:10455C0013D10C4BDB690B4A43F00203D361094BBB
:10456C00DB6903F00203BB60BB68002205211D2040
:10457C0001F06DF91D2001F086F900BF1037BD4622
:10458C0080BD00BF001002400004004080B588B020
:10459C0000AF786007F1100300221A605A609A602D
:1045AC00DA607B681B68334A93425FD1324B9B695C
:1045BC00314A43F4804393612F4B9B6903F480434E
:1045CC00FB60FB682C4B9B692B4A43F00403936103
:1045DC00294B9B6903F00403BB60BB684FF4007369
:1045EC003B6102237B610323FB6107F11003194636
:1045FC00224801F009FE4FF480633B6100237B618C
:10460C000023BB6107F1100319461C4801F0FCFDA7
:10461C001B4B1C4A1A601A4B00225A60184B002282
:10462C009A60174B8022DA60154B00221A61144BEA
:10463C0000225A61124B00229A61114B0022DA615E
:10464C000F4801F03FF90346002B01D0FFF74CFE59
:10465C007B680B4ADA630A4A7B68536200220221A8
:10466C00252001F0F4F8252001F00DF900BF2037CA
:10467C00BD4680BD003801400010024000080140DA
:10468C00580200205800024080B400AF00BFFDE784
:10469C0080B400AF00BFFDE780B400AF00BFFDE702
:1046AC0080B400AF00BFFDE780B400AF00BFFDE7F2
:1046BC0080B400AF00BFBD4680BC704780B400AF73
:1046CC0000BFBD4680BC704780B400AF00BFBD4684
:1046DC0080BC704780B500AF00F0B6F800BF80BD5D
:1046EC0080B500AF012001F05BFF00BF80BD000072
:1046FC0080B500AF024801F053FA00BF80BD00BF87
:10470C005802002080B500AF024800F090FD00BFB9
:10471C0080BD00BF9C00002080B500AF402001F0A0
:10472C003FFF00BF80BD000080B500AF024803F022
:10473C00EBF900BF80BD00BF8001002080B500AF49
:10474C00024803F0E1F900BF80BD00BFC8010020A2
:10475C0080B500AF024803F05BFE00BF80BD00BF18
:10476C001002002080B400AF00BFBD4680BC704773
:10477C00FFF7F8FF0B480C490C4A002302E0D45811
:10478C00C4500433C4188C42F9D3094A094C002391
:10479C0001E013600432A242FBD304F049FDFDF7A3
:1047AC0037FE7047000000204400002038930008BA
:1047BC004800002088090020FEE7000080B500AF0B
:1047CC00084B1B68074A43F010031360032001F0E9
:1047DC0033F8062000F008F8FFF78CFD002318468C
:1047EC0080BD00BF0020024080B582B000AF786071
:1047FC00124B1A68124B1B7819464FF47A73B3FBA1
:10480C00F1F3B2FBF3F3184601F04FF80346002B1B
:10481C0001D001230EE07B680F2B0AD800227968A7
:10482C004FF0FF3001F013F8064A7B681360002349
:10483C0000E0012318460837BD4680BD3800002033
:10484C00400000203C00002080B400AF054B1B78DA
:10485C001A46054B1B681344034A136000BFBD4640
:10486C0080BC7047400000206009002080B400AF7D
:10487C00024B1B681846BD4680BC7047600900207F
:10488C0080B584B000AF7860FFF7F0FFB8607B684C
:10489C00FB60FB68B3F1FF3F05D00A4B1B781A464F
:1048AC00FB681344FB6000BFFFF7E0FF0246BB68E8
:1048BC00D31AFA689A42F7D800BF00BF1037BD462A
:1048CC0080BD00BF4000002080B400AF024B1B68CD
:1048DC001846BD4680BC7047E8F7FF1F80B400AF98
:1048EC00024B1B681846BD4680BC7047ECF7FF1F97
:1048FC0080B400AF024B1B681846BD4680BC7047A5
:10490C00F0F7FF1F80B584B000AF78607B68002B98
:10491C0001D10123EDE07B6893F82030DBB2002B52
:10492C0002D17868FFF718FD7B681B681A687B68F2
:10493C001B6842F001021A60FFF798FFF86012E062
:10494C00FFF794FF0246FB68D31A0A2B0BD97B683E
:10495C005B6A43F400327B685A627B68052283F8F9
:10496C0020200123C5E07B681B685B6803F0010312
:10497C00002BE5D07B681B681A687B681B6822F0EB
:10498C0002021A60FFF772FFF86012E0FFF76EFF89
:10499C000246FB68D31A0A2B0BD97B685B6A43F47B
:1049AC0000327B685A627B68052283F82020012341
:1049BC009FE07B681B685B6803F00203002BE5D16A
:1049CC007B681B7E012B08D17B681B681A687B688F
:1049DC001B6842F080021A6007E07B681B681A684B
:1049EC007B681B6822F080021A607B685B7E012B5F
:1049FC0008D17B681B681A687B681B6842F0400210
:104A0C001A6007E07B681B681A687B681B6822F0D9
:104A1C0040021A607B689B7E012B08D17B681B6867
:104A2C001A687B681B6842F020021A6007E07B68FA
:104A3C001B681A687B681B6822F020021A607B686E
:104A4C00DB7E012B08D17B681B681A687B681B68AE
:104A5C0022F010021A6007E07B681B681A687B68FA
:104A6C001B6842F010021A607B681B7F012B08D177
:104A7C007B681B681A687B681B6842F008021A6026
:104A8C0007E07B681B681A687B681B6822F00802C9
:104A9C001A607B685B7F012B08D17B681B681A68E6
:104AAC007B681B6842F004021A6007E07B681B6895
:104ABC001A687B681B6822F004021A607B689A688B
:104ACC007B68DB681A437B681B691A437B685B69EC
:104ADC0042EA03017B685B685A1E7B681B680A43C9
:104AEC00DA617B6800225A627B68012283F82020FD
:104AFC00002318461037BD4680BD80B487B000AF88
:104B0C00786039607B681B687B617B6893F8203028
:104B1C00FB74FB7C012B03D0FB7C022B40F0AA80A6
:104B2C007B69D3F8003243F001027B69C3F80022A1
:104B3C003B685B6903F01F03012202FA03F3FB607D
:104B4C007B69D3F81C22FB68DB431A407B69C3F8F2
:104B5C001C223B68DB69002B23D17B69D3F80C2228
:104B6C00FB68DB431A407B69C3F80C223B68DB68AB
:104B7C0019043B685B689BB23A68526919437B69BC
:104B8C00483243F832103B689B6819043B681B6839
:104B9C009AB23B685B690A4379694833DB000B4482
:104BAC005A603B68DB69012B22D17B69D3F80C225C
:104BBC00FB681A437B69C3F80C223B681B68190419
:104BCC003B685B689BB23A68526919437B6948320F
:104BDC0043F832103B689B6819043B68DB689AB257
:104BEC003B685B690A4379694833DB000B445A60C4
:104BFC003B689B69002B09D17B69D3F80422FB68C5
:104C0C00DB431A407B69C3F8042207E07B69D3F8C5
:104C1C000422FB681A437B69C3F804223B681B69B6
:104C2C00002B09D17B69D3F81422FB68DB431A40B3
:104C3C007B69C3F8142207E07B69D3F81422FB6864
:104C4C001A437B69C3F814223B681B6A012B07D1FA
:104C5C007B69D3F81C22FB681A437B69C3F81C22BE
:104C6C007B69D3F8003223F001027B69C3F8002280
:104C7C00002306E07B685B6A43F480227B685A62FF
:104C8C00012318461C37BD4680BC704780B584B0E4
:104C9C0000AF78607B6893F82030DBB2012B2ED10B
:104CAC007B68022283F820207B681B681A687B686B
:104CBC001B6822F001021A60FFF7D8FDF86012E0C1
:104CCC00FFF7D4FD0246FB68D31A0A2B0BD97B687D
:104CDC005B6A43F400327B685A627B68052283F876
:104CEC002020012312E07B681B685B6803F0010342
:104CFC00002BE5D17B6800225A62002306E07B681A
:104D0C005B6A43F400227B685A6201231846103711
:104D1C00BD4680BD80B489B000AFF860B9607A60E0
:104D2C003B60FB6893F82030FB77FB681B689B6843
:104D3C00BB61FB7F012B03D0FB7F022B40F0AD80CE
:104D4C00BB6903F08063002B0AD1BB6903F00063DD
:104D5C00002B05D1BB6903F08053002B00F095802C
:104D6C00BB691B0E03F003037B6101227B699A4034
:104D7C003B681A60BB689B68002B0DD1BB681B6835
:104D8C005A05BB68DB68F96809681A437B691833F4
:104D9C001B010B441A600FE0BB685B68DA00BB6850
:104DAC009B681A43BB68DB68F96809681A437B691E
:104DBC0018331B010B441A60FB681968BB681A692D
:104DCC007B6918331B010B4404331A60BB681B7DD1
:104DDC00012B11D1FB681A687B6918331B01134432
:104DEC0004331B68FA68116843F480727B691833CA
:104DFC001B010B4404331A607B6807331B781A06BB
:104E0C007B6806331B781B041A437B6805331B78BD
:104E1C001B0213437A68043212781046FA68116840
:104E2C0043EA00027B691B010B4403F5C6731A604D
:104E3C007B6803331B781A067B6802331B781B04D0
:104E4C001A437B6801331B781B0213437A68127870
:104E5C001046FA68116843EA00027B691B010B4497
:104E6C0003F5C4731A60FB681A687B6918331B015D
:104E7C0013441B68FA68116843F001027B6918330C
:104E8C001B010B441A6000230EE0FB685B6A43F4C1
:104E9C000012FB685A62012306E0FB685B6A43F46C
:104EAC008022FB685A62012318462437BD4680BC19
:104EBC00704780B485B000AF786039607B6893F838
:104ECC002030FB73FB7B012B02D0FB7B022B28D108
:104EDC003B6803F00103002B07D07B681B689A68C2
:104EEC007B681B6842F080029A603B6803F0020307
:104EFC00002B07D07B681B689A687B681B6842F4A0
:104F0C0000429A603B6803F00403002B07D07B68D7
:104F1C001B689A687B681B6842F400029A60002345
:104F2C0006E07B685B6A43F480227B685A6201234B
:104F3C0018461437BD4680BC704780B485B000AFAE
:104F4C0078600023FB607B6893F82030FB72FB7A5F
:104F5C00012B02D0FB7A022B1DD17B681B689B684E
:104F6C0003F08063002B02D0FB680133FB607B688D
:104F7C001B689B6803F00063002B02D0FB680133B5
:104F8C00FB607B681B689B6803F08053002B02D08E
:104F9C00FB680133FB60FB6818461437BD4680BCC8
:104FAC00704780B487B000AFF860B9607A603B603E
:104FBC00FB6893F82030FB75FB7D012B03D0FB7D48
:104FCC00022B40F00381BB68002B0ED1FB681B68E1
:104FDC00DB6803F00303002B16D1FB685B6A43F418
:104FEC000012FB685A620123F7E0FB681B681B691F
:104FFC0003F00303002B07D1FB685B6A43F4001238
:10500C00FB685A620123E8E0FB681A68BB681B3333
:10501C001B0113441B6803F004027B689A607B68D5
:10502C009B68002B0CD1FB681A68BB681B331B01F7
:10503C0013441B685B0DC3F30A027B681A600BE018
:10504C00FB681A68BB681B331B0113441B68DB0825
:10505C0023F060427B685A60FB681A68BB681B339C
:10506C001B0113441B6803F002027B68DA60FB68C7
:10507C001A68BB681B331B01134404331B6803F011
:10508C000803002B03D07B6808221A610BE0FB6835
:10509C001A68BB681B331B01134404331B6803F0F1
:1050AC000F027B681A61FB681A68BB681B331B0113
:1050BC00134404331B681B0ADAB27B689A61FB68E1
:1050CC001A68BB681B331B01134404331B681B0C8D
:1050DC009AB27B685A61FB681A68BB681B0113445F
:1050EC0003F5DC731B68DAB23B681A70FB681A684C
:1050FC00BB681B01134403F5DC731B681A0A3B687D
:10510C000133D2B21A70FB681A68BB681B011344D6
:10511C0003F5DC731B681A0C3B680233D2B21A70AD
:10512C00FB681A68BB681B01134403F5DC731B682E
:10513C001A0E3B680333D2B21A70FB681A68BB684C
:10514C001B01134403F5DE731A683B680433D2B2B7
:10515C001A70FB681A68BB681B01134403F5DE73F5
:10516C001B681A0A3B680533D2B21A70FB681A68BE
:10517C00BB681B01134403F5DE731B681A0C3B68F8
:10518C000633D2B21A70FB681A68BB681B01134451
:10519C0003F5DE731B681A0E3B680733D2B21A7024
:1051AC00BB68002B08D1FB681B68DA68FB681B68BE
:1051BC0042F02002DA6007E0FB681B681A69FB68A2
:1051CC001B6842F020021A61002306E0FB685B6A50
:1051DC0043F48022FB685A62012318461C37BD46F3
:1051EC0080BC704780B485B000AF786039607B6854
:1051FC0093F82030FB73FB7B012B02D0FB7B022B43
:10520C0009D17B681B6859697B681B683A680A433B
:10521C005A61002306E07B685B6A43F480227B685A
:10522C005A62012318461437BD4680BC704780B5BE
:10523C008AB000AF786000237B627B681B685B6977
:10524C003B627B681B685B68FB617B681B689B68C7
:10525C00BB617B681B68DB687B617B681B681B69B7
:10526C003B617B681B689B69FB603B6A03F0010335
:10527C00002B7CD0BB6903F00103002B23D07B688F
:10528C001B6801229A60BB6903F00203002B03D058
:10529C00786800F083F916E0BB6903F00403002B77
:1052AC0004D07B6A43F400637B620CE0BB6903F0BF
:1052BC000803002B04D07B6A43F480537B6202E02A
:1052CC00786800F086F9BB6903F48073002B24D056
:1052DC007B681B684FF480729A60BB6903F400739F
:1052EC00002B03D0786800F062F916E0BB6903F478
:1052FC008063002B04D07B6A43F400537B620CE088
:10530C00BB6903F40063002B04D07B6A43F4804335
:10531C007B6202E0786800F065F9BB6903F48033C6
:10532C00002B24D07B681B684FF480329A60BB69D9
:10533C0003F40033002B03D0786800F041F916E039
:10534C00BB6903F48023002B04D07B6A43F4004335
:10535C007B620CE0BB6903F40023002B04D07B6A56
:10536C0043F480337B6202E0786800F044F93B6AD6
:10537C0003F00803002B0CD07B6903F01003002B07
:10538C0007D07B6A43F400737B627B681B68102236
:10539C00DA603B6A03F00403002B0BD07B6903F04B
:1053AC000803002B06D07B681B680822DA6078683B
:1053BC0000F02AF93B6A03F00203002B09D07B684A
:1053CC001B68DB6803F00303002B02D07868FCF742
:1053DC00EFFF3B6A03F04003002B0CD03B6903F05A
:1053EC001003002B07D07B6A43F480637B627B68DD
:1053FC001B6810221A613B6A03F02003002B0BD0B0
:10540C003B6903F00803002B06D07B681B6808225D
:10541C001A61786800F00AF93B6A03F01003002B5C
:10542C0009D07B681B681B6903F00303002B02D0B7
:10543C00786800F0F2F83B6A03F40033002B0BD0D1
:10544C00FB6903F01003002B06D07B681B6810224D
:10545C005A60786800F0F3F83B6A03F48033002B51
:10546C000BD0FB6903F00803002B06D07B681B688C
:10547C0008225A60786800F0EBF83B6A03F40043AA
:10548C00002B7BD0FB6903F00403002B72D03B6A2A
:10549C0003F48073002B08D0FB6803F00103002B8E
:1054AC0003D07B6A43F001037B623B6A03F4007315
:1054BC00002B08D0FB6803F00203002B03D07B6A9F
:1054CC0043F002037B623B6A03F48063002B08D039
:1054DC00FB6803F00403002B03D07B6A43F0040346
:1054EC007B623B6A03F40063002B43D0FB6803F040
:1054FC007003002B3ED0FB6803F07003602B2BD0A5
:10550C00602B2ED8502B22D0502B2AD8402B19D0C0
:10551C00402B26D8302B10D0302B22D8102B02D079
:10552C00202B05D01DE07B6A43F008037B6219E059
:10553C007B6A43F010037B6214E07B6A43F0200328
:10554C007B620FE07B6A43F040037B620AE07B6A7C
:10555C0043F080037B6205E07B6A43F480737B62DB
:10556C0000E000BF7B681B689A697B681B6822F0AF
:10557C0070029A617B681B6804225A607B6A002B5C
:10558C0008D07B685A6A7B6A1A437B685A627868CF
:10559C0000F067F800BF2837BD4680BD80B483B0EB
:1055AC0000AF786000BF0C37BD4680BC704780B43C
:1055BC0083B000AF786000BF0C37BD4680BC70472D
:1055CC0080B483B000AF786000BF0C37BD4680BCA0
:1055DC00704780B483B000AF786000BF0C37BD4615
:1055EC0080BC704780B483B000AF786000BF0C37CC
:1055FC00BD4680BC704780B483B000AF786000BFFC
:10560C000C37BD4680BC704780B483B000AF786067
:10561C0000BF0C37BD4680BC704780B483B000AF70
:10562C00786000BF0C37BD4680BC704780B483B037
:10563C0000AF786000BF0C37BD4680BC704780B4AB
:10564C0083B000AF786000BF0C37BD4680BC70479C
:10565C0080B483B000AF786000BF0C37BD4680BC0F
:10566C00704780B483B000AF786000BF0C37BD4684
:10567C0080BC704780B485B000AF78607B6803F065
:10568C000703FB600C4BDB68BB60BA684FF6FF038B
:10569C001340BB60FB681A02BB68134343F0BF6343
:1056AC0043F40033BB60044ABB68D36000BF1437BB
:1056BC00BD4680BC704700BF00ED00E080B400AF79
:1056CC00044BDB681B0A03F007031846BD4680BC7D
:1056DC00704700BF00ED00E080B483B000AF03461C
:1056EC00FB7197F90730002B0BDBFB7903F01F02E2
:1056FC00064997F907305B09012000FA02F241F8DC
:10570C00232000BF0C37BD4680BC704700E100E091
:10571C0080B483B000AF03463960FB7197F9073052
:10572C00002B0ADB3B68DAB20C4997F907301201FF
:10573C00D2B20B4483F800230AE03B68DAB2084982
:10574C00FB7903F00F03043B1201D2B20B441A761F
:10575C0000BF0C37BD4680BC704700BF00E100E0C5
:10576C0000ED00E080B489B000AFF860B9607A60F9
:10577C00FB6803F00703FB61FB69C3F10703042B10
:10578C0028BF0423BB61FB690433062B02D9FB69D8
:10579C00033B00E000237B614FF0FF32BB6902FA50
:1057AC0003F3DA43BB681A407B699A404FF0FF3130
:1057BC007B6901FA03F3D9437B680B40134318460A
:1057CC002437BD4680BC704780B400AFBFF34F8F09
:1057DC0000BF064BDB6803F4E0620449044B13433F
:1057EC00CB60BFF34F8F00BF00BFFDE700ED00E0C3
:1057FC000400FA0580B582B000AF78607B68013B8D
:10580C00B3F1807F01D301230FE00A4A7B68013B8F
:10581C0053600F214FF0FF30FFF77AFF054B00224A
:10582C009A60044B07221A60002318460837BD46BD
:10583C0080BD00BF10E000E080B582B000AF7860A2
:10584C007868FFF717FF00BF0837BD4680BD80B5ED
:10585C0086B000AF0346B9607A60FB7300237B61AE
:10586C00FFF72CFF78617A68B9687869FFF77AFFDF
:10587C00024697F90F3011461846FFF749FF00BF53
:10588C001837BD4680BD80B582B000AF0346FB71B2
:10589C0097F907301846FFF71FFF00BF0837BD46C2
:1058AC0080BD80B500AFFFF78FFF80B582B000AF31
:1058BC0078607868FFF79EFF034618460837BD46A8
:1058CC0080BD000080B485B000AF78600023FB6021
:1058DC007B68002B01D1012343E07B681B681A46CF
:1058EC00224B1344224AA2FB03231B099A007B6818
:1058FC001A647B681F4ADA637B68022283F82120D2
:10590C007B681B681B68FB60FB6823F47F5323F0E8
:10591C003003FB607B685A687B689B681A437B6822
:10592C00DB681A437B681B691A437B685B691A4303
:10593C007B689B691A437B68DB691343FA681343E2
:10594C00FB607B681B68FA681A607B6800229A63AC
:10595C007B68012283F821207B68002283F82020B9
:10596C00002318461437BD4680BC7047F8FFFDBFB6
:10597C00CDCCCCCC0000024080B586B000AFF86036
:10598C00B9607A603B600023FB75FB6893F82030AC
:10599C00012B01D102234BE0FB68012283F820206C
:1059AC00FB6893F82130DBB2012B3AD1FB68022261
:1059BC0083F82120FB6800229A63FB681B681A6835
:1059CC00FB681B6822F001021A603B687A68B968B0
:1059DC00F86800F0EBF9FB68DB6A002B08D0FB6879
:1059EC001B681A68FB681B6842F00E021A600FE015
:1059FC00FB681B681A68FB681B6822F004021A60BB
:105A0C00FB681B681A68FB681B6842F00A021A6084
:105A1C00FB681B681A68FB681B6842F001021A607D
:105A2C0005E0FB68002283F820200223FB75FB7D38
:105A3C0018461837BD4680BD80B485B000AF78607D
:105A4C000023FB737B6893F82130DBB2022B08D068
:105A5C007B6804229A637B68002283F82020012350
:105A6C0020E07B681B681A687B681B6822F00E02BA
:105A7C001A607B681B681A687B681B6822F001023D
:105A8C001A607B681A6C7B68DB6B012101FA02F2ED
:105A9C005A607B68012283F821207B68002283F8FE
:105AAC002020FB7B18461437BD4680BC7047000095
:105ABC0080B584B000AF78600023FB737B6893F8EB
:105ACC002130DBB2022B05D07B6804229A630123C0
