:020000040800F2
:1000000000500020314D0008494C0008514C0008B8
:10001000594C0008614C0008694C000800000000C1
:10002000000000000000000000000000714C00080B
:100030007D4C000800000000894C0008954C000829
:10004000794D0008794D0008794D0008794D000878
:10005000794D0008794D0008A14C0008794D000841
:10006000794D0008794D0008794D0008794D000858
:10007000794D0008794D0008794D0008B14C000811
:10008000794D0008794D0008794D0008794D000838
:10009000C54C0008794D0008794D0008D94C00087E
:1000A000794D0008794D0008794D0008794D000818
:1000B000E94C0008FD4C0008794D0008794D000816
:1000C000794D0008794D0008794D0008794D0008F8
:1000D000794D0008114D0008794D0008794D000850
:1000E000794D0008794D0008794D000800000000A6
:1000F0000000000000000000000000000000000000
:0C01000000000000000000005FF808F1A3
:10010C0010B5054C237833B9044B13B10448AFF345
:10011C0000800123237010BD480000200000000067
:10012C004898000808B5034B1BB103490348AFF3CB
:10013C00008008BD000000004C000020489800081A
:10014C00034613F8012B002AFBD1181A013870470B
:10015C0080B584B000AF7860224BDB689847214BA8
:10016C005B6998471F4B5B6A002B03D01D4B9B6A46
:10017C00002B14D11B4B1B6A7A68120CD2B210469E
:10018C009847184B1B6A7A68120AD2B210469847E5
:10019C00144B1B6A7A68D2B21046984711E07B6800
:1001AC001B0CDBB23B737B681B0ADBB27B737B687B
:1001BC00DBB2BB730B4B9B6A07F10C02032110469D
:1001CC009847084BDB6998470346FB73054B9B69C3
:1001DC009847044B1B699847FB7B18461037BD4664
:1001EC0080BD00BF0400002080B584B000AF7860F3
:1001FC000B46FB70224BDB689847214B5B69984799
:10020C007B6843F004037B601D4B9B6A002B19D168
:10021C001B4B1B6A7A68120CD2B210469847184BCB
:10022C001B6A7A68120AD2B210469847144B1B6AA2
:10023C007A68D2B210469847114B1B6AFA7810466E
:10024C00984713E07B681B0CDBB23B737B681B0A83
:10025C00DBB27B737B68DBB2BB73FB78FB73084B45
:10026C009B6A07F10C02042110469847044B9B69CA
:10027C009847034B1B69984700BF1037BD4680BD9C
:10028C000400002090B587B000AFF860B960134649
:10029C00FB802B4BDB689847294B5B699847284BB5
:1002AC005B6A002B03D0264B9B6A002B26D1244B78
:1002BC001B6AFA68120CD2B210469847204B1B6A84
:1002CC00FA68120AD2B2104698471D4B1B6AFA689C
:1002DC00D2B2104698470023FB820AE0184BDB6928
:1002EC00FA8AB9688C18984703462370FB8A013345
:1002FC00FB82FA8AFB889A42F0D317E0FB681B0C4E
:10030C00DBB23B74FB681B0ADBB27B74FB68DBB2B1
:10031C00BB740B4B9B6A07F11002032110469847E4
:10032C00074B5B6AFA881146B8689847044B9B697F
:10033C009847034B1B69984700BF1C37BD4690BDBF
:10034C000400002080B586B000AFF860B960134699
:10035C00FB802B4BDB689847294B5B699847FB6804
:10036C0043F00403FB60264B9B6A002B26D1244BE5
:10037C001B6AFA68120CD2B210469847204B1B6AC3
:10038C00FA68120AD2B2104698471D4B1B6AFA68DB
:10039C00D2B2104698470023FB820AE0184B1B6A26
:1003AC00FA8AB9680A44127810469847FB8A0133D6
:1003BC00FB82FA8AFB889A42F0D317E0FB681B0C8D
:1003CC00DBB23B74FB681B0ADBB27B74FB68DBB2F1
:1003DC00BB740B4B9B6A07F1100203211046984724
:1003EC00074B9B6AFA881146B8689847044B9B697F
:1003FC009847034B1B69984700BF1837BD4680BD13
:10040C000400002090B585B000AF0346FB710023BB
:10041C00FB810023BB81FB799B000133DB0003F5DF
:10042C0000531846FFF794FE0346BB81BB891B02A1
:10043C009CB2FB799B000133DB0003F50453184697
:10044C00FFF786FE03462344BB81BB89002B19D0E2
:10045C00FB799B000133DB0003F500531846FFF7D3
:10046C0077FE0346FB81FB891B029CB2FB799B0048
:10047C000133DB0003F504531846FFF769FE03460E
:10048C002344FB81FA89BB899A42C4D1FB89184663
:10049C001437BD4690BD90B585B000AF0346FB71D7
:1004AC000023FB810023BB81FB799B000133DB0024
:1004BC0003F518531846FFF74BFE0346BB81BB8967
:1004CC001B029CB2FB799B000133DB0003F51C5330
:1004DC001846FFF73DFE03462344BB81BB89002B26
:1004EC0019D0FB799B000133DB0003F51853184638
:1004FC00FFF72EFE0346FB81FB891B029CB2FB79A6
:10050C009B000133DB0003F51C531846FFF720FE5C
:10051C0003462344FB81FA89BB899A42C4D1FB89E7
:10052C0018461437BD4690BD90B585B000AF034654
:10053C003960FB711346BB800023FB810023BB6039
:10054C00BB88002B46D0FB799B000133DB0003F505
:10055C0010531846FFF7FCFD03461B029CB2FB79B7
:10056C009B000133DB0003F514531846FFF7F0FD35
:10057C0003462344FB81FB891A02FB799B0002335F
:10058C00DB001344BB60BB881A463968B868FFF7B8
:10059C00D9FEFA89BB881344FB81FB799B0001339C
:1005AC00DB0003F510531A46FB891B0A9BB2DBB226
:1005BC0019461046FFF718FEFB799B000133DB0050
:1005CC0003F514531A46FB89DBB219461046FFF7A4
:1005DC000BFE00E000BF1437BD4690BD90B585B052
:1005EC0000AF03463960FB711346BB800023FB81CF
:1005FC000023BB60BB88002B46D0FB799B000133EA
:10060C00DB0003F520531846FFF7A2FD03461B023F
:10061C009CB2FB799B000133DB0003F52453184695
:10062C00FFF796FD03462344FB81FB891A02FB79F5
:10063C009B000333DB001344BB60BB881A4639684C
:10064C00B868FFF71FFEFA89BB881344FB81FB795E
:10065C009B000133DB0003F520531A46FB891B0A70
:10066C009BB2DBB219461046FFF7BEFDFB799B002F
:10067C000133DB0003F524531A46FB89DBB2194620
:10068C001046FFF7B1FD00E000BF1437BD4690BD2A
:10069C0080B500AF00221021024806F02AFA00BFF4
:1006AC0080BD00BF0008014080B500AF01221021C1
:1006BC00024806F01EFA00BF80BD00BF00080140D2
:1006CC0080B582B000AFF91D4FF0FF330122044812
:1006DC0007F086F8FB7918460837BD4680BD00BF89
:1006EC00D000002080B582B000AF0346FB71F91D2D
:1006FC004FF0FF330122034806F02EFF00BF0837EE
:10070C00BD4680BDD000002080B582B000AF7860BF
:10071C000B467B807A884FF0FF337968034807F0EB
:10072C005FF800BF0837BD4680BD00BFD000002079
:10073C0080B582B000AF78600B467B807A884FF032
:10074C00FF337968034806F007FF00BF0837BD4642
:10075C0080BD00BFD000002090B587B000AFFF2354
:10076C00FB751A4B3C1D0FCB84E80F0001221021A6
:10077C00174806F0BEF900220221164806F0B9F916
:10078C0000BFFB7D5A1EFA75002BFAD10122022103
:10079C00104806F0AEF91049104800F0A5FC1049BD
:1007AC00104800F0C5FC1049104800F0EDFC3B1D52
:1007BC001946012000F014FD0346B3F1FF3F01D1AF
:1007CC0000BFFDE700BF1C37BD4690BD6098000818
:1007DC0000080140000C0140B50600089D06000809
:1007EC00F1060008CD0600083D07000815070008B3
:1007FC0090B585B000AF0446084611461A4623460C
:10080C00FB710346BB710B46BB801346FB70FB7937
:10081C00082B02D94FF0FF33EFE0BB79012B05D049
:10082C00002B11DD023B022B0ED811E007F10C035B
:10083C00042219464FF47060FFF724FDFB68002B6F
:10084C0005D16FF00203D8E06FF00403D5E000BFD0
:10085C00FB7803F00403002B02D06FF00503CCE00F
:10086C00FB78002B28D0BB79012B02D0022B08D0AF
:10087C0022E0FB7803F02103002B1AD16FF0050363
:10088C00BBE0FB7803F02003002B06D097F9033074
:10089C00002B02DB6FF00503AFE0FB7803F01003D5
:1008AC00002B08D097F90330002B04DB6FF0050305
:1008BC00A3E000BF00E000BFFB79184600F0ACF8E5
:1008CC00FB799B000133D80097F9033023F00F0319
:1008DC005AB297F9063013435BB2DBB21946FFF7F5
:1008EC0083FCBB88002B10D1464B1B885A1C91B241
:1008FC00444A1180BB80434B1B884FF6F0729342E5
:10090C0003D1404B4FF440421A80FB799B000133DA
:10091C00DB0003F580631A46BB881B0A9BB2DBB273
:10092C0019461046FFF760FCFB799B000133DB0096
:10093C0003F5A0631A46BB88DBB219461046FFF7D5
:10094C0053FCFB799B000133DB0003F58073012121
:10095C001846FFF749FC00BFFB799B000133DB0015
:10096C0003F580731846FFF7F3FB0346002BF3D116
:10097C00FB79012202FA03F31BB2DB431AB2224BBE
:10098C001B881BB213401BB29AB21F4B1A80FB7808
:10099C0003F00102FB7902FA03F31AB21A4B1B881B
:1009AC001BB213431BB29AB2174B1A80FB7901226C
:1009BC0002FA03F31BB2DB431AB2144B1B881BB2B3
:1009CC0013401BB29AB2114B1A80FB79104A0021CA
:1009DC0022F81310FB790F4A0021D15400BFFB7988
:1009EC009B000133DB0003F540731846FFF7B0FBA7
:1009FC000346002BF3D097F9073018461437BD4641
:100A0C0090BD00BF000000206400002066000020A4
:100A1C00680000207C00002080B582B000AF034647
:100A2C00FB71FB79082B02D94FF0FF3360E0FB79A7
:100A3C009B000133DB0003F5807310211846FFF790
:100A4C00D3FB00BFFB799B000133DB0003F5807304
:100A5C001846FFF77DFB0346002BF3D1FB799B0077
:100A6C000133DB0003F500731F211846FFF7BCFBB5
:100A7C00FB79012202FA03F31BB2DB431AB21E4BC1
:100A8C001B881BB213401BB29AB21B4B1A80FB790A
:100A9C00012202FA03F31BB2DB431AB2174B1B8879
:100AAC001BB213401BB29AB2144B1A80FB79144A36
:100ABC00002122F81310FB79124A0021D1540AE0CC
:100ACC00114B1B78DBB2012B05D10F4B00221A7096
:100ADC006FF00C030CE0FB799B000133DB0003F59A
:100AEC0040731846FFF734FB0346002BE8D1012373
:100AFC0018460837BD4680BD640000206600002003
:100B0C00680000207C0000207800002080B584B0B4
:100B1C0000AF03463960FB711346BB80FB79082B91
:100B2C0002D94FF0FF33D1E0FB799B000133DB009E
:100B3C001846FFF70DFB034603F00F03012B02D001
:100B4C006FF00403C2E0FB799B000133DB0003F57B
:100B5C0040731846FFF7FCFA0346132B02D06FF0D4
:100B6C000203B3E03B681B78FB60FB681B023A682E
:100B7C00013212781344FB60FB681B023A680232A4
:100B8C0012781344FB60FB681B023A68033212783C
:100B9C001344FB60FB68B3F1FF3F02D0FB68002BF2
:100BAC0002D16FF00B0391E0BB88002B02D16FF0E8
:100BBC000A038BE0FB799B000133DB0003F54063F8
:100BCC00042239681846FFF7BDFBFB799B00013303
:100BDC00DB0003F580531A46BB881B0A9BB2DBB2C1
:100BEC0019461046FFF700FBFB799B000133DB0035
:100BFC0003F588531A46BB88DBB219461046FFF73B
:100C0C00F3FAFB799B000133DB0003F580730421BD
:100C1C001846FFF7E9FA00BFFB799B000133DB00B4
:100C2C0003F580731846FFF793FA0346002BF3D1B4
:100C3C00284B1B881A46FB7942FA03F303F0010395
:100C4C00002B36D0002341E0FB799B000133DB0005
:100C5C0003F500731846FFF77BFA034603F008030D
:100C6C00002B0CD0FB799B000133DB0003F50073E8
:100C7C0008211846FFF7B8FA6FF00C0326E0FB7951
:100C8C009B000133DB0003F540731846FFF760FA55
:100C9C000346002B02D16FF0030317E00E4B1B78B9
:100CAC00DBB2012B05D10C4B00221A706FF00C0338
:100CBC000CE0FB799B000133DB0003F54073184615
:100CCC00FFF746FA0346172BBED1012318461037FF
:100CDC00BD4680BD640000207800002080B584B043
:100CEC0000AF03463960FB711346BB800023FB73D6
:100CFC000023BB81FB79082B02D94FF0FF33DDE0D9
:100D0C00FB799B000133DB001846FFF721FA034601
:100D1C0003F00F03012B02D06FF00403CEE0BB886D
:100D2C00002B02D16FF00D03C8E0FB799B0001335F
:100D3C00DB0003F540731846FFF70AFA0346FB7312
:100D4C00FB7B172B05D0FB7B1C2B02D06FF0060313
:100D5C00B4E05C4B1B881A46FB7942FA03F303F0B0
:100D6C000103002B39D0FB799B000133DB0003F529
:100D7C0000731846FFF7ECF9034603F01F03FB73EF
:100D8C00FB7B03F01003002B19D0FB799B00013384
:100D9C00DB0003F5007310211846FFF725FAFB79E9
:100DAC00012202FA03F31BB2DB431AB2454B1B8838
:100DBC001BB213401BB29AB2424B1A800DE0FB7B64
:100DCC0003F00803002B06D0FB791846FFF724FE2E
:100DDC006FF00C0372E0002370E0FB799B00013391
:100DEC00DB0003F5F8531846FFF7B2F903469B02F4
:100DFC00BB81BA88BB899A4201D9BB89BB80FB797C
:100E0C001846FFF7FFFA0346BB81FB799B000133C1
:100E1C00DB0003F540731846FFF79AF90346FB73A2
:100E2C00FB7B172B09D0FB7B1C2B06D0FB791846C0
:100E3C00FFF7F2FD6FF0060340E0234B1B881A46C8
:100E4C00FB7942FA03F303F00103002B05D0BA88B7
:100E5C00BB899A4201D9002330E0BA88BB899A42F7
:100E6C0000D9CCE700BFBA88FB7939681846FFF780
:100E7C005BFBFB799B000133DB0003F580732021C6
:100E8C001846FFF7B1F900BFFB799B000133DB007B
:100E9C0003F580731846FFF75BF90346002BF3D17B
:100EAC00FB79012202FA03F31AB2064B1B881BB220
:100EBC0013431BB29AB2034B1A80BB8818461037E7
:100ECC00BD4680BD660000206400002090B585B052
:100EDC0000AF03463960FB711346BB800023FB73E4
:100EEC000023BB81FB79082B02D94FF0FF339BE029
:100EFC00FB799B000133DB001846FFF729F9034609
:100F0C0003F00F03012B02D06FF004038CE0BB88BD
:100F1C00002B02D16FF00D0386E0FB799B000133AF
:100F2C00DB0003F5F0531846FFF712F903469B025A
:100F3C00BB81BA89BB889A4201D2BB89BB80FB7941
:100F4C001846FFF7A8FA0346BB81FB799B000133D7
:100F5C00DB0003F540731846FFF7FAF80346FB7302
:100F6C00FB7B172B26D0FB7B1C2B1CD1BB89002BAE
:100F7C0033D1FB791846FFF745FA03461C46FB793B
:100F8C009B000133DB0003F5F8531846FFF7E0F83C
:100F9C0003469B029C420DD1FB791846FFF73CFDA2
:100FAC006FF0060340E0FB791846FFF735FD6FF054
:100FBC00060339E01E4B1B881A46FB7942FA03F3F1
:100FCC0003F00103002B04D0BB89002B01D10023BB
:100FDC002AE0BB89002B02D1B1E700BF00E000BFC3
:100FEC00BA89BB889A4201D2BB89BB80BA88FB798B
:100FFC0039681846FFF7F2FAFB799B000133DB00E6
:10100C0003F5807340211846FFF7EEF800BFFB791B
:10101C009B000133DB0003F580731846FFF798F84B
:10102C000346002BF3D1BB8818461437BD4690BD40
:10103C006400002080B400AF00BFBD4680BC704788
:10104C0080B400AF00BFBD4680BC704780B400AF19
:10105C0000BFBD4680BC704780B400AF00BFBD462A
:10106C0080BC704780B483B000AF78607B681B781D
:10107C00DBB218460C37BD4680BC704780B483B0D9
:10108C0000AF78600B46FB707B68FA781A7000BF73
:10109C000C37BD4680BC704780B400AF00231846A7
:1010AC00BD4680BC704780B483B000AF0346FB7173
:1010BC0000BF0C37BD4680BC704780B483B000AF16
:1010CC0078600B467B8000BF0C37BD4680BC7047F8
:1010DC0080B483B000AF78600B467B8000BF0C37C8
:1010EC00BD4680BC7047000080B483B000AF786010
:1010FC0039607B68002B02D03B68002B06D1094B72
:10110C00094A5A61074B094A9A6106E0054A7B680D
:10111C005361044A3B68936100BF00BF0C37BD4666
:10112C0080BC7047040000205910000865100008AE
:10113C0080B483B000AF7860396000BF0F4B1B8860
:10114C0003F40073002BF9D07B68002B02D03B68B2
:10115C00002B06D1094B0A4ADA61084B094A1A627C
:10116C0006E0064A7B68D361044A3B68136200BF01
:10117C0000BF0C37BD4680BC704700BF0400002088
:10118C00A5100008B310000880B483B000AF7860DD
:10119C00396000BF0F4B1B8803F40073002BF9D090
:1011AC007B68002B02D03B68002B06D1094B0A4A06
:1011BC005A62084B094A9A6206E0064A7B685362F7
:1011CC00044A3B68936200BF00BF0C37BD4680BC2D
:1011DC00704700BF04000020C7100008DD10000895
:1011EC0090B587B000AF03463960FB710023FB75E7
:1011FC000023FB6000233B61FB790F2B00F2C580C1
:10120C0001A252F823F000BF551200085B1200082F
:10121C00871200087B12000895120008A112000822
:10122C00AF120008D5120008F71200083B13000893
:10123C0041130008491300089D13000851130008BE
:10124C005F1300087B13000800F0AAF8A1E03B68CC
:10125C00002B04D03B68FB60FB6808333B61FB68E8
:10126C003A691146184600F0E7F8034692E03B68ED
:10127C001B88184600F06CF98BE000F09DF90346D2
:10128C001A463B681A8084E03B681B88184600F0BD
:10129C00B8F97EE000F0D0F903461A463B681A8094
:1012AC0077E03B681B881B0A9BB2DBB219464FF4F4
:1012BC009850FEF799FF3B681B88DBB219464FF438
:1012CC00A050FEF791FF64E04FF49850FEF740FFFA
:1012DC0003461B029CB24FF4A050FEF739FF0346A5
:1012EC0023449AB23B681A8053E02C4B9A783B68A3
:1012FC001A703B680133294AD2781A703B68023362
:10130C00264A12791A703B680333244A52791A70B0
:10131C003B680433214A92791A703B6805331F4AA3
:10132C00D2791A703B68063300221A7031E000F053
:10133C00D5F92EE0386800F0F8F92AE0386800F0AA
:10134C0037FA26E03B681B78184600F09BFA0346F8
:10135C0020E000F0AAF90346FB75FB7DFF2B02D1C0
:10136C004FF0FF3316E03B68FA7D1A7011E000F085
:10137C0086F90346FB75FB7DFF2B02D14FF0FF3343
:10138C0008E03B68FA7D1A7003E04FF0FF3301E090
:10139C0000BF002318461C37BD4690BD040000203A
:1013AC0080B586B000AF3B1D062219464FF4106085
:1013BC00FEF768FF07F11403042219464FF48070FE
:1013CC00FEF760FF07F11003042219464FF4A060EA
:1013DC00FEF758FF07F10C03042219464FF4706016
:1013EC00FEF750FF80210020FEF7FEFE0020FEF7E6
:1013FC00AFFE3B1D062219464FF41060FEF7A2FF0C
:10140C0007F11403042219464FF48070FEF79AFF7B
:10141C0007F11003042219464FF4A060FEF792FF67
:10142C0007F10C03042219464FF47060FEF78AFF93
:10143C0000BF1837BD4680BD80B584B000AF786062
:10144C0039600023BB73FFF7ABFF7B68002B3BD0ED
:10145C000023BB730023FB7315E097F90F307A68F8
:10146C0013441A78BB7B1344DBB2BB7397F90E3071
:10147C00102B02DD4FF0FF3366E097F90F30DBB233
:10148C000133DBB2FB7397F90F30072BE5DD00233B
:10149C00FB7315E097F90F309B000133DB0003F56C
:1014AC00F853184697F90F307A6813441B7819468D
:1014BC00FEF79AFE97F90F30DBB20133DBB2FB7308
:1014CC0097F90F30072BE5DD3B68002B3BD0002351
:1014DC00BB730023FB7315E097F90F303A68134484
:1014EC001A78BB7B1344DBB2BB7397F90E30102B0D
:1014FC0002DD4FF0FF3327E097F90F30DBB20133F9
:10150C00DBB2FB7397F90F30072BE5DD0023FB7380
:10151C0015E097F90F309B000133DB0003F5F05316
:10152C00184697F90F303A6813441B781946FEF7A2
:10153C005BFE97F90F30DBB20133DBB2FB7397F92B
:10154C000F30072BE5DD002318461037BD4680BD54
:10155C0080B584B000AF0346FB80FB88FB73FB882F
:10156C001B0A9BB2BB73FB7B23F00F03DBB2194648
:10157C004FF4A850FEF738FE0023FB7314E0BA7B3F
:10158C00FB7B42FA03F303F00103002B09D0FB7B36
:10159C009B000133DB0003F500731F211846FEF797
:1015AC0023FEFB7B0133FB73FB7B072BE7D900BFCF
:1015BC0000BF1037BD4680BD80B582B000AF0023A0
:1015CC00FB710023BB710023BB804FF4A850FEF7C6
:1015DC00BFFD034623F00F03FB714FF4B850FEF729
:1015EC00B7FD0346BB71BB79BB80BB881B029AB2AB
:1015FC00FB799BB21344BB80BB8818460837BD46A9
:10160C0080BD80B584B000AF0346FB80FB88FB73C4
:10161C00FB881B0A9BB2BB73FB7B19464FF4B05083
:10162C00FEF7E2FDBB7B19464FF4C050FEF7DCFD24
:10163C0000BF1037BD4680BD80B582B000AF00231F
:10164C00FB710023BB710023BB804FF4B050FEF73D
:10165C007FFD0346FB714FF4C050FEF779FD034646
:10166C00BB71BB79BB80BB881B029AB2FB799BB266
:10167C001344BB80BB8818460837BD4680BD80B577
:10168C0082B000AF0023FB714FF43850FEF760FDC1
:10169C00034603F00103002B01D00123FB7197F9E2
:1016AC00073018460837BD4680BD80B582B000AF04
:1016BC000023FB714FF43850FEF74AFD034603F04C
:1016CC003803302B02D10123FB7101E00023FB71A5
:1016DC0097F9073018460837BD4680BD80B582B0F3
:1016EC0000AF4FF43850FEF733FD0346FB71FB7926
:1016FC0003F07F03FB71FB7919464FF43850FEF76A
:10170C0073FD4FF43850FEF723FD0346FB71FB7954
:10171C0063F07F03FB71FB7919464FF43850FEF7E9
:10172C0063FD00BF0837BD4680BD80B584B000AFF7
:10173C0078600023FB737B681B78012B04D1FB7B47
:10174C0043F04003FB7303E0FB7B23F04003FB738C
:10175C007B685B78012B04D1FB7B43F03803FB7374
:10176C0019E07B68DB78012B0DD17B689B78012B12
:10177C0004D1FB7B43F01803FB730CE0FB7B43F0C1
:10178C000803FB7307E07B689B78012B03D1FB7B81
:10179C0043F01003FB73FB7B19464FF43850FEF7F4
:1017AC0023FDFFF79BFF00BF1037BD4680BD000037
:1017BC0080B584B000AF78600023FB734FF43850D1
:1017CC00FEF7C6FC0346FB73FB7B9B11DBB203F0FD
:1017DC000103DAB27B681A70FB7B03F03803202B11
:1017EC0001D0382B03D17B6801225A7003E07B684F
:1017FC0000225A7000BFFB7B03F03803103B102B08
:10180C008CBF01220022D2B2002A0FD11B4A22FA2D
:10181C0003F303F00103002B14BF01230023DBB2FD
:10182C00002B03D07B6801229A7003E07B680022B6
:10183C009A7000BFFB7B03F03803083B182B8CBF5E
:10184C0001220022D2B2002A0FD10D4A22FA03F350
:10185C0003F00103002B14BF01230023DBB2002B88
:10186C0003D07B680122DA7003E07B680022DA7017
:10187C0000BF00BF1037BD4680BD00BF0101010095
:10188C000100010180B584B000AF0346FB71002359
:10189C00FB734FF43850FEF75BFC0346FB73FB7B8A
:1018AC0003F04003002B02D14FF0FF3330E0FB7B01
:1018BC0023F03803FB73FB79012B04D1FB7B43F042
:1018CC003003FB7303E0FB7B43F03803FB73FB7BC0
:1018DC0019464FF43850FEF787FCFFF7FFFE4FF424
:1018EC003850FEF735FC0346FB73FB79012B06D110
:1018FC00FB7B03F03003002B08D0002308E0FB7BBC
:10190C0003F03803002B01D0002301E04FF0FF332C
:10191C0018461037BD4680BD80B582B000AF7860E8
:10192C007B68062219464FF41060FEF70BFD7B68AE
:10193C000E33042219464FF48070FEF703FD7B68CA
:10194C000A33042219464FF4A060FEF7FBFC7B68B7
:10195C000633042219464FF47060FEF7F3FC7B68E3
:10196C009A7C0B4B1A707B68DA7C094B5A707B683B
:10197C001A7D074B9A707B685A7D054BDA707B6831
:10198C009A7D044B1A7000BF0837BD4680BD00BF5E
:10199C00840000208800002080B500AF00224FF4A6
:1019AC008051024805F0A5F800BF80BD000C014035
:1019BC0080B500AF01224FF48051024805F099F830
:1019CC0000BF80BD000C014080B582B000AF7860D4
:1019DC00786803F02FFA00BF0837BD4680BD0000C1
:1019EC0080B582B000AF78600B467B807A884FF46C
:1019FC00FA637968034805F0AFFD00BF0837BD46B0
:101A0C0080BD00BF2801002080B582B000AF786097
:101A1C000B467B807A8841F288337968034805F05D
:101A2C00DFFE00BF0837BD4680BD00BF2801002087
:101A3C0080B582B000AF0523BB710120FFF7C4FF56
:101A4C00FFF7AAFFB91D4FF47A7301220B4805F07A
:101A5C0083FDF91D4FF47A730122084805F0C0FE8E
:101A6C000120FFF7B1FFFB7903F00103002BF0D14C
:101A7C00FFF79EFF00BF0837BD4680BD2801002040
:101A8C0080B582B000AF66233B7199237B71FFF761
:101A9C0083FF391D4FF47A730222044805F05CFD74
:101AAC00FFF786FF00BF0837BD4680BD2801002028
:101ABC0080B588B000AFF8607A603B600B46FB7273
:101ACC00FB681A02FB7A1344FB610B233B75FB6921
:101ADC001B0CDBB27B75FB691B0ADBB2BB75FB69AC
:101AEC00DBB2FB7500233B76FFF756FF07F11403BF
:101AFC0005211846FFF774FF7B689BB219463868BE
:101B0C00FFF782FFFFF754FF00BF2037BD4680BDB3
:101B1C0080B586B000AFF860B9607A600B233B7477
:101B2C00FB681B0CDBB27B74FB681B0ADBB2BB745F
:101B3C00FB68DBB2FB7400233B75FFF72DFF07F14D
:101B4C00100305211846FFF74BFFBB689BB21946E3
:101B5C007868FFF759FFFFF72BFF00BF1837BD461A
:101B6C0080BD80B582B000AF0623FB71FFF714FF78
:101B7C00FB1D01211846FFF733FFFFF719FF01206A
:101B8C00FFF722FF00BF0837BD4680BD80B582B08D
:101B9C0000AF0423FB71FFF7FFFEFB1D012118466C
:101BAC00FFF71EFFFFF704FF0120FFF70DFF00BF3B
:101BBC000837BD4680BD80B582B000AFC723FB712E
:101BCC00FFF7CFFFFFF7E8FEFB1D01211846FFF7DB
:101BDC0007FFFFF7EDFEFFF72BFF0520FFF7F4FEE5
:101BEC0000BF0837BD4680BD80B586B000AF034648
:101BFC00FB80FB881B037B61FFF71AFFFFF7B1FF2C
:101C0C0020233B737B691B0CDBB27B737B691B0A48
:101C1C00DBB2BB737B69DBB2FB73FFF7BDFE07F175
:101C2C000C0304211846FFF7DBFEFFF7C1FEFFF79C
:101C3C00FFFEFFF7ABFF00BF1837BD4680BD80B578
:101C4C0086B000AF786003233B747B681B0CDBB25F
:101C5C007B747B681B0ADBB2BB747B68DBB2FB74E6
:101C6C00FFF79AFE07F1100304211846FFF7B8FEA0
:101C7C0007F10F0301211846FFF7C6FEFFF798FE88
:101C8C00FB7B18461837BD4680BD80B5C8B000AF89
:101C9C0007F59073A3F58A73186007F59073A3F595
:101CAC008C73196007F59073A3F58E731A6007F5A2
:101CBC009073A3F5887302221A7007F59073A3F53D
:101CCC008A731B681B0CDAB207F59073A3F5887343
:101CDC005A7007F59073A3F58A731B681B0ADAB266
:101CEC0007F59073A3F588739A7007F59073A3F5B5
:101CFC008A731B68DAB207F59073A3F58873DA70F0
:101D0C00042387F81F3197F81F319AB207F59073A7
:101D1C00A3F58E731B689BB21344A7F81A310023EA
:101D2C00A7F81C3118E0B7F81C3107F59072A2F532
:101D3C008C7212681A4497F81F31591C87F81F11BE
:101D4C001946127807F59073A3F588735A54B7F8AF
:101D5C001C310133A7F81C31B7F81C3107F5907210
:101D6C00A2F58E7212689A42DDD807F59073A3F52E
:101D7C008A731868FFF763FF0346FF2B2BD1FFF71D
:101D8C00F0FEB7F81A31FA2B15D9FFF705FE07F15B
:101D9C00100364211846FFF723FE07F11003643388
:101DAC00B7F81A21643A92B211461846FFF718FE9A
:101DBC00FFF7FEFD0BE0FFF7EFFDB7F81A2107F177
:101DCC00100311461846FFF70BFEFFF7F1FDFFF766
:101DDC002FFEFFF7DBFE00BF07F59077BD4680BDF9
:101DEC0080B582B000AF78600B467B807B681A6848
:101DFC003D4B1B689A4265D103F012F803463B4AEF
:101E0C0013603B4B1B78432B3DD0442B5AD1384BA2
:101E1C005B781A06364B9B781B041A43344BDB78E1
:101E2C001B021343324A127913431A46314B1A6080
:101E3C00314B1B7883F00103DBB2002B1BD02F4BF3
:101E4C001B7883F00103DBB2002B14D02C4B1B78D6
:101E5C0083F00103DBB2002B0DD0264B1B68194617
:101E6C00284801F08FFF284B01221A7002F0D8FF8E
:101E7C000346264A1360224B1B78002B21D0244B9F
:101E8C0001221A701DE0234B1B78002B09D0214B2B
:101E9C0000221A70204B1B781946204802F0AEF82D
:101EAC0005E01F4B1B7819461C4802F0A7F8104B95
:101EBC001B79002B14BF01230023DAB2194B1A70C3
:101ECC0000E000BF32220A49074806F022FD164BFB
:101EDC001B681A68144B1B6822F004021A6000BFBE
:101EEC000837BD4680BD00BF10020020B40600209C
:101EFC00D00200208C0500202307002022070020A0
:101F0C002B0700207098000821070020B80600203D
:101F1C00270700202F070020800500207498000858
:101F2C0030000020DC0600205802002080B582B072
:101F3C0000AF0346FB80FB88402B45D1142002F0F8
:101F4C0079FF4021224804F0BDFD0346002B3BD114
:101F5C00204B01221A7002F063FF03461E4A1360E5
:101F6C001E4B4FF4FA621A6027E002F059FF02464A
:101F7C00194B1B68D31A1A4A1360194B1B6842F28F
:101F8C001072934202D9154B64221A6002F048FF7A
:101F9C000246144B1B68D21A104B1B689A4209D983
:101FAC0002F03EFF03460F4A13604FF400510E48F7
:101FBC0004F0B7FD0A2002F03DFF4021044804F074
:101FCC0081FD0346002BD0D000BF0837BD4680BD35
:101FDC00000C01402D070020BC060020C806002084
:101FEC00C4060020C00600200010014080B584B05B
:101FFC0002AF78607B681A68434B1B689A4269D1C0
:10200C00424B1A78424B1B789A4205D23F4B1B78B5
:10201C000133DAB23D4B1A703E4B1B78002B1DD1AD
:10202C003D4B1B78002B19D13C4B1B78002B15D149
:10203C003B4B1B78002B11D13A4B1B78002B0DD14D
:10204C00394B1B7883F00103DBB2002B06D1042142
:10205C00364804F037FD0346002B21D1344B0122C6
:10206C001A70334B00225A70314B00229A70304B4D
:10207C000022DA702E4B00221A712D4B00225A715D
:10208C002B4B00229A712A4B0022DA7101224FF459
:10209C000041284804F02DFD274B02221A7013E052
:1020AC001B4B1B78194A01920093244B204A24495C
:1020BC00244802F07DF900224FF400411D4804F041
:1020CC0018FD1D4B03221A701F4B194A1F4920483B
:1020DC0003F0FAF87B681A681E4B1B689A420ED103
:1020EC001D4804F093FD1D4B1B7883F00103DBB2FC
:1020FC00002B04D04FF400510E4804F012FD00BF29
:10210C000837BD4680BD00BF800100207605002049
:10211C001005002023070020220700202E07002096
:10212C00DD060020DC0600203600002000080140FF
:10213C004405002000100140300000201405002050
:10214C0094050020E006002090050020B802002035
:10215C009C000020C8010020C40000202D07002096
:10216C0080B582B000AF7860124B134A00217868BA
:10217C0003F0F1F90346002B01D002F08FFB0E4B5C
:10218C001B68B3F5E86F10D10A4B9B78482B0CD128
:10219C00084B1B7903F04003002B03D0074B0122A3
:1021AC001A7002E0054B00221A7000BF0837BD46BA
:1021BC0080BD00BF780500209C0200202E07002067
:1021CC00F0B5B5B006AF02F0D3FD01F011FB924BA8
:1021DC005B68914A43F48073536001F0F1FC01F0A9
:1021EC00D1FC01F04DFB01F09BFB01F0CFFB01F0AA
:1021FC009FFC01F04FFC01F079FB01F0FDFB8748DF
:10220C0005F00AFF32228649864806F082FB864B8F
:10221C001B681A68844B1B6822F004021A60834BFB
:10222C0008221A61814B44F2FF725A607F4B0422E0
:10223C009A607E4B0022DA607C4B00221A607B4B4A
:10224C0000221A757A4B00221A60794B01225A60CF
:10225C00774B784A9A60764B0122DA60754B1B6893
:10226C00DAB2754B1A70754B1B68DAB2744B1A7074
:10227C00744B1B68DAB2744B1A70744B1B68DAB26D
:10228C00734B1A70734B1B689AB2734B1A80734B57
:10229C001B68DAB2724B1A70724B1B68DAB2724B53
:1022AC001A70724B1B68DAB2714B1A70714B1B6847
:1022BC00DAB2714B1A70714B1B689AB2704B1A8060
:1022CC00704B1B68DAB2704B1A70704B1B68DAB229
:1022DC006F4B1A706F4B1B686F4A13606F4B1B6808
:1022EC006F4A1360544B1B78FF2B02D1524BC02208
:1022FC001A70534B1B78FF2B02D1514BA8221A702A
:10230C00514B1B78FF2B02D14F4B00221A70504BB4
:10231C001B78FF2B02D14E4B48221A704E4B1B8858
:10232C004FF6FF72934202D14B4B00221A804C4B5A
:10233C001B78FF2B02D14A4BC0221A704A4B1B78D8
:10234C00FF2B02D1484BA8221A70494B1B78FF2B4C
:10235C0002D1474B00221A70474B1B78FF2B02D13E
:10236C00454B02221A70464B1B884FF6FF72934264
:10237C0003D1434B41F270721A80434B1B78FF2BF5
:10238C0002D1414B01221A70414B1B78FF2B02D119
:10239C003F4B00221A70404B1B68DAB2414B1A704B
:1023AC003D4B1B681B0ADAB23E4B5A703A4B1B680A
:1023BC001B0CDAB23B4B9A70374B1B681B0EDAB214
:1023CC00384BDA70364B1B68DAB2364B1A71344B19
:1023DC001B681B0ADAB2334B5A71314B1B681B0C4E
:1023EC00DAB2304B9A712E4B1B681B0EDAB22D4BA6
:1023FC00DA711B4B1A782C4B1A701B4B1A782A4B20
:10240C005A701B4B1A78284B9A701B4B1A78264B18
:10241C00DA70FFF735FB5CE0002004E0C801002017
:10242C00D00200201002002058020020B802002028
:10243C008C00002000FC00081C05002004FC000897
:10244C001D05002008FC00081E0500200CFC0008DF
:10245C001F05002010FC00088405002014FC000857
:10246C002005002018FC0008210500201CFC000899
:10247C002205002020FC00082305002024FC000875
:10248C008205002028FC0008100500202CFC000808
:10249C004205002030FC0008A806002034FC00088F
:1024AC00AC060020140500200C050020AD4B1B6869
:1024BC005B01AD4A20211846FFF72AFBAA4B1B688B
:1024CC005A1EA84B1B689A4203D1A74B1B68A54AFE
:1024DC001360A54B1B68B3F1FF3FE7D114E0A34B8E
:1024EC001B6803F580335B01A14A20211846FFF7D6
:1024FC000FFB9F4B1B685A1E9C4B1B689A4203D1C7
:10250C009B4B1B68994A1360994B1B68B3F1FF3FB7
:10251C00E5D1964B1B68002B1AD00023C7F8B430BA
:10252C000DE0D7F8B4309BB203F500739BB218469C
:10253C00FFF75AFBD7F8B4300133C7F8B4308B4BE4
:10254C001B685B011B0B0233D7F8B4209A42E8D30B
:10255C00002387F864301C2387F86530162387F82E
:10256C00663002F08BFC0346DAB2824B1B78534088
:10257C00DBB287F8673002F08BFC0346DAB27D4B96
:10258C001B785340DBB287F8683002F08BFC0346B3
:10259C00DAB2784B1B785340DBB287F86930764B54
:1025AC001B7887F86A30754B1B7887F86B30744B47
:1025BC001B7887F86C306F4B1B7887F86D30714A3D
:1025CC0007F16E03106818606F4A07F17203106808
:1025DC0018606E4A07F1760310681860012387F8BB
:1025EC007A30FEF7B9F84FF4FA6002F023FC07F1E9
:1025FC0064031846FFF790F9654B1A8820230121D4
:10260C000020FEF7F5F8634B1B881A466249002040
:10261C00FEF77CFA614B1B78184602F031F86048E3
:10262C0005F0FAFC0020FDF736FF03461A465D4B19
:10263C001A600020FDF72FFF03461A46594B1B6802
:10264C009A4241F0A080574B1B68B3F5007F01D92B
:10265C0003F001FC534B1B68002B00F00F81514B16
:10266C001B689BB21A4650490020FEF72FFC4E4BBC
:10267C001B78443B132B00F2018101A252F823F08A
:10268C002F270008892800088928000889280008B5
:10269C00DD260008892800088928000889280008F8
:1026AC00892800088928000889280008892800083A
:1026BC008928000889280008F327000863270008E8
:1026CC00892800088928000889280008372800086C
:1026DC0002F0A6FB0346354A1360334B1A79324B92
:1026EC001A71314B1B79002B00F0C5802E4BDB7817
:1026FC001BB21B021AB22C4B1B791BB213401BB220
:10270C0098B2294B9978284B5A78274B5C79264BF1
:10271C009B790093234602F04BF80346244A13603E
:10272C00A9E0244B01221A70002387F8B3300DE086
:10273C0097F8B3305A1C97F8B3301B49895C1E4A82
:10274C00D15497F8B330013387F8B33097F8B330DE
:10275C00082BEDD992E0194B01221A70002387F84F
:10276C00B2303BE09406002030070020A406002085
:10277C00500700201F0500201C0500201D0500200F
:10278C001E050020A4980008A8980008AC98000822
:10279C0084050020820500200C0500204205002045
:1027AC0080010020A00600200403002098060020D1
:1027BC00D006002028070020500500202907002003
:1027CC0097F8B2305A1C97F8B2309C49895C9C4AF5
:1027DC00D15497F8B230013387F8B23097F8B23051
:1027EC00162BEDD94AE0954B5B78022B08D1954B13
:1027FC0001221A7002F014FB0346934A13603DE069
:10280C008E4B5B78032B08D1904B01221A7002F08F
:10281C0007FB03468C4A136030E08D4B01221A7083
:10282C00864B5A788B4B1A7028E0844B5B78482B7C
:10283C0017D0482B21DC412B0AD0452B1DD1864BC0
:10284C0001221A7002F0ECFA03467F4A136011E081
:10285C00824B01221A7002F0E3FA03467A4A1360A3
:10286C0008E07F4B01221A7002F0DAFA0346764A2E
:10287C00136000BF01E000BF00E000BF794802F028
:10288C0036FE0346002B0AD1774B1B681946754858
:10289C0002F0E9FD0346002B01D003F0DCFA734B88
:1028AC001B78172B10D102F0BBFA0246704B1B6839
:1028BC00D31A002BB8BF5B4242F20F72934203DC77
:1028CC006C4B01221A7002E06A4B00221A7002F063
:1028DC00A7FA0246684B1B68D31A002BB8BF5B42A1
:1028EC0042F21072934203DD644B00221A7002E034
:1028FC00624B01221A70624B1B78002B22D0604B6A
:10290C0000221A705F4B1B78002B02D0012B0AD0CF
:10291C0018E05D4B00221A705C4B01221A705C4B64
:10292C0000221A700EE05B4A5B495C4801F0D5FC52
:10293C00554B01221A70554B01221A70544B002230
:10294C001A7000BF524B1B78002B67D0494B1B7879
:10295C0083F00103DBB2002B08D102F061FA0246CE
:10296C004F4B1B68D31AB3F5FA7F57D9484B00224B
:10297C001A704C4B19684C4B1A684C4C3B46184619
:10298C0001F058FC25463C460FCC0FC594E80F00CF
:10299C0085E80F00454B1B68002B39D0434B188A38
:1029AC00424B997C414BDA7C404B1C7D3F4B5B7D11
:1029BC000093234601F0FCFE03463D4A13603B4B5B
:1029CC00D88A3A4B197E394B5A7E384B9C7E374B02
:1029DC00DB7E0093234601F0EBFE0346354A136081
:1029EC00334B1A68344B1B689A4217D2314B1A6816
:1029FC00314B1B689A4211D9264A27492F4801F0BE
:102A0C006CFC214B01221A70204B01221A7005E03C
:102A1C001D4B00221A701D4B01221A70284B1B787B
:102A2C00002B00F0C880264B00221A70044B1B7838
:102A3C00002B47D0012B00F0B480BCE00403002035
:102A4C005C050020250700209C060020260700209E
:102A5C002C070020750500202307002022070020EA
:102A6C002B0700209C000020900500204C05002026
:102A7C009806002020070020B40600203600002015
:102A8C002807002050050020800500202F0700207B
:102A9C002107002094050020E006002051050020AD
:102AAC00B8060020940600208C050020700700203A
:102ABC00D4060020D8060020D0060020780700207D
:102ACC0029070020984B5A78984B1A70964B9A7895
:102ADC00974B1A70944BDA78964B1A70924B1A7972
:102AEC00954B1A70904B5B791BB21B021AB28E4B32
:102AFC009B791BB213431BB29AB2904B1A808A4B30
:102B0C00DA798F4B1A70884B1A7A8E4B1A70864B67
:102B1C005A7A8D4B1A70844B9A7A8C4B1A70824B62
:102B2C00DB7A1BB21B021AB27F4B1B7B1BB213430B
:102B3C001BB29AB2864B1A807B4B5A7B854B1A7010
:102B4C00794B9A7B844B1A70774BDB7B1A46764B0E
:102B5C001B7C1B021A43744B5B7C1B041A43724B89
:102B6C009B7C1B0613431A467C4B1A606E4BDB7C1A
:102B7C001A466D4B1B7D1B021A436B4B5B7D1B0472
:102B8C001A43694B9B7D1B0613431A46744B1A6000
:102B9C0001F05CFA7349744801F02CF903F05BF90D
:102BAC0009E0614B5B78002B14BF01230023DAB2E0
:102BBC006E4B1A7000BF6E4B1B78002B00F0898097
:102BCC006B4B00221A706B4B1B78002B02D0012B25
:102BDC0003D07EE003F03FF97BE0544B1A78664B50
:102BEC001A70534B1A78644B5A70524B1A78624BCA
:102BFC009A70514B1A78604BDA70504B1B881B0A39
:102C0C009BB2DAB25C4B1A714C4B1B88DAB25A4B42
:102C1C005A714B4B1A78584B9A714A4B1A78564B3F
:102C2C00DA71494B1A78544B1A72484B1A78524B3A
:102C3C005A72474B1B881B0A9BB2DAB24E4B9A72E4
:102C4C00434B1B88DAB24C4BDA72424B1A784A4B24
:102C5C001A73414B1A78484B5A73484B1B681B0E1E
:102C6C00DAB2454B9A73454B1B681B0CDAB2424BDC
:102C7C00DA73424B1B681B0ADAB23F4B1A743F4B98
:102C8C001B68DAB23C4B5A743D4B1A783A4B9A7427
:102C9C003B4B5A78384BDA74394B9A78364B1A7559
:102CAC00374BDA78344B5A75354B1A79324B9A7557
:102CBC00334B5A79304BDA75314B9A792E4B1A7655
:102CCC002F4BDA792C4B5A762B492E4801F0B4F85D
:102CDC0000BF2D4B1B7883F00103DBB2002B00F0FF
:102CEC00C98002F09DF80246284B1B68D31A002BB2
:102CFC00B8BF5B4241F28832934240F3BB80002064
:102D0C0001F038FC03461A46214B1A70204B1B78F5
:102D1C00172B40F0AF801F4B1B78002B3ED01E4B67
:102D2C0046225A706EE000BF5C0500201C05002096
:102D3C001D0500201E0500201F0500208405002015
:102D4C00200500202105002022050020230500205D
:102D5C00820500201005002042050020A806002056
:102D6C00AC060020789800087C980008DD0600204E
:102D7C002C07002075050020240500209406002057
:102D8C0014050020809800082A070020B0060020B7
:102D9C004C0500202E07002034000020A14B1B788E
:102DAC00002B03D0A04B50225A702BE09F4B1B786A
:102DBC00002B03D09C4B45225A7023E09C4B1B7874
:102DCC0083F00103DBB2002B03D0974B44225A70E3
:102DDC0018E00421974803F075FE0346002B03D13D
:102DEC00914B43225A700DE0934B1B7883F00103F7
:102DFC00DBB2002B03D08C4B4F225A7002E08A4B73
:102E0C0052225A70022288490020FDF767FF31E0F8
:102E1C004FF47A7002F00EF80023C7F8AC301CE0C7
:102E2C00D7F8AC305B01854A20211846FEF770FEBE
:102E3C00824E6D4606F10C040FCC0FC523682B6037
:102E4C0096E80E007E4801F023F8642001F0F2FFB2
:102E5C00D7F8AC300133C7F8AC307A4B1B68D7F8D5
:102E6C00AC209A42DCD30121754800F0ADFF764BC3
:102E7C0000221A70744B1B78002BC9D16FE14FF4F0
:102E8C007A7001F0D7FF0023C7F8A8306F4970485B
:102E9C0000F0B0FF01F0C4FF03466E4A1360614BB3
:102EAC0001221A700020FDF7F6FA03461A466A4B07
:102EBC001A600020FDF7EFFA03461A46664B1B68B2
:102ECC009A4240F04A81644B1B68B3F5FA7F01D9F2
:102EDC0002F0C1FF614B1B7883F00103DBB2002BC6
:102EEC0000F026815C4B1B68002B00F021815A4BB3
:102EFC001B689BB21A465A490020FDF7E7FF584B56
:102F0C001B78572B40F01481554B5B78442B40F0C9
:102F1C00AD80D7F8A8300133C7F8A830514AD7F89C
:102F2C00A83013604E4B9B781A064D4BDB781B0474
:102F3C001A434B4B1B791B021343494A52791343D7
:102F4C001A46484B5A60464B9A79464B1A72444B78
:102F5C00DA79444B5A72424B1A7A424B9A72404B72
:102F6C005A7A404BDA723E4B9A7A3E4B1A733C4B70
:102F7C00DA7A3C4B5A733A4B1A7B3A4B9A73384B6E
:102F8C005A7B384BDA73364B9A7B364BDA74344BAC
:102F9C00DA7B344B9A74324B1B7C1BB21B021AB279
:102FAC002F4B5B7C1BB213431BB29AB22D4B1A8274
:102FBC002B4B9A7C2B4B1A75294BDA7C294B5A7567
:102FCC00274B1A7D274B5A76254B5A7D254B1A7663
:102FDC00234B9B7D1BB21B021AB2214BDB7D1BB218
:102FEC0013431BB29AB21F4BDA821D4B1A7E1D4B38
:102FFC009A761B4B5A7E1B4BDA76D7F8A83003F522
:10300C007F43FF335B01202216491846FEF73DFE35
:10301C0015490F4800F0EEFE01F002FF03460D4A81
:10302C00136085E0DD06002034000020DC06002063
:10303C00360000200008014020070020B0070020C7
:10304C008498000894060020250700208898000822
:10305C008C9800089C060020A00600202A0700205F
:10306C00040300209007002090980008A94B5B787F
:10307C00432B5DD1A84B01221A7059E0002387F82D
:10308C00A7300AE097F8A7309BB21846FEF7ACFDC4
:10309C0097F8A730013387F8A73097F8A7209F4BF4
:1030AC001B685B011B0B01339A42EBD30023C7F85F
:1030BC00A03016E0D7F8A03003F580335B01984AB6
:1030CC0020211846FEF724FDD7F8A0305B01202202
:1030DC0093491846FEF7D9FDD7F8A0300133C7F84D
:1030EC00A030D7F8A020D7F8A8309A42E2D300231A
:1030FC00C7F89C300DE0D7F89C309BB203F50073F9
:10310C009BB21846FEF770FDD7F89C300133C7F818
:10311C009C30D7F8A8305B011B0B0133D7F89C20EF
:10312C009A42E8D37F49804800F064FE02F093FE97
:10313C00794B1B78002BA1D101F072FE02467B4B20
:10314C001B68D31A002BB8BF5B4242F21072934239
:10315C007FF7A8AE02F07FFEA4E600BFA2E6744B98
:10316C001B78002B7FF48BAE57E24FF47A7001F092
:10317C0061FE0023C7F898306E496B4800F03AFEA8
:10318C0001F04EFE0346694A13606B4B01221A7024
:10319C000020FDF780F903461A46684B1A600020A0
:1031AC00FDF779F903461A46644B1B689A4240F0C6
:1031BC003282624B1B68B3F5007F01D902F04BFEE3
:1031CC005F4B1B7883F00103DBB2002B00F00D8208
:1031DC005A4B1B68002B00F00882584B1B689BB2A3
:1031EC001A464C490020FDF771FE4A4B1B78572BB1
:1031FC0040F0FB81474B5B78442B40F0A780D7F81D
:10320C0098300133C7F898304E4B1B6801334D4A48
:10321C001360404B9B781A063E4BDB781B041A4319
:10322C003C4B1B791B0213433A4A527913431A46FF
:10323C00444B5A60374B9A79424B1A72354BDA79B8
:10324C00404B5A72334B1A7A3E4B9A72314B5A7A24
:10325C003C4BDA722F4B9A7A3A4B1A732D4BDA7A23
:10326C00384B5A732B4B1A7B364B9A73294B5A7B20
:10327C00344BDA73274B9A7B324BDA74254BDA7B5F
:10328C00304B9A74234B1B7C1BB21B021AB2214B82
:10329C005B7C1BB213431BB29AB22A4B1A821D4B96
:1032AC009A7C284B1A751B4BDA7C264B5A75194B9A
:1032BC001A7D244B5A76174B5A7D224B1A76154B96
:1032CC009B7D1BB21B021AB2124BDB7D1BB213434C
:1032DC001BB29AB21B4BDA820E4B1A7E194B9A76A2
:1032EC000C4B5A7E174BDA76D7F8983003F5FB3334
:1032FC0003F2FF135B01202212491846FEF7C5FCAE
:10330C001149094800F076FD01F08AFD0346074A91
:10331C0013606AE1040300202407002094060020B7
:10332C00B0070020949800088C9800089C06002098
:10333C002307002098980008DD060020A006002036
:10334C002A0700209007002090980008B64B5B7865
:10335C00432B40F04A81B54B01221A7045E1002302
:10336C00C7F8943016E0D7F894305B01B04A2021AE
:10337C001846FEF7CDFBD7F8943003F580335B018C
:10338C002022AB491846FEF780FCD7F89430013365
:10339C00C7F89430A74B1B68D7F894209A42E2D315
:1033AC00002387F893300AE097F893309BB21846C5
:1033BC00FEF71AFC97F89330013387F8933097F89F
:1033CC0093209C4B1B685B011B0B01339A42EBD384
:1033DC000023C7F88C300023C7F888300023C7F8C7
:1033EC0084306DE0D7F88C3003F580335B0107F146
:1033FC00240220211846FEF78BFBD7F8883003F502
:10340C00FC335B0107F1440220211846FEF780FBD8
:10341C00BA6ABB6C9A4217D2D7F8843001337B62FC
:10342C00D7F884305B0107F1240120221846FEF7FF
:10343C002CFCD7F88C300133C7F88C30D7F884309B
:10344C000133C7F884303BE0BA6ABB6C9A4217D997
:10345C00D7F8843001337B64D7F884305B0107F1F3
:10346C00440120221846FEF710FCD7F888300133AF
:10347C00C7F88830D7F884300133C7F884301FE0A0
:10348C00BA6ABB6C9A421BD1D7F8843001337B6487
:10349C00D7F884305B0107F1440120221846FEF76F
:1034AC00F4FBD7F888300133C7F88830D7F88C3064
:1034BC000133C7F88C30D7F884300133C7F8843027
:1034CC005C4B1B68D7F88C209A4228D2D7F88820FE
:1034DC00D7F898309A4285D321E0D7F88C3003F591
:1034EC0080335B0107F1240220211846FEF710FB04
:1034FC00D7F8843001337B62D7F884305B0107F155
:10350C00240120221846FEF7C0FBD7F88C3001337B
:10351C00C7F88C30D7F884300133C7F88430454B6A
:10352C001B68D7F88C209A42D7D321E0D7F8883083
:10353C0003F5FC335B0107F1440220211846FEF72A
:10354C00E7FAD7F8843001337B64D7F884305B0119
:10355C0007F1440120221846FEF797FBD7F8883074
:10356C000133C7F88830D7F884300133C7F884307A
:10357C00D7F88820D7F898309A42D7D30023C7F8C9
:10358C0080300DE0D7F880309BB203F500739BB20E
:10359C001846FEF729FBD7F880300133C7F8803086
:1035AC00244B1B685B011B0B0133D7F880209A421C
:1035BC00E8D30023FB670AE0FB6F9BB203F57C7337
:1035CC009BB21846FEF710FBFB6F0133FB67D7F875
:1035DC0098305B011B0B0133FA6F9A42ECD31649FE
:1035EC00164800F007FC02F036FC104B1B78002B41
:1035FC007FF4B5AE01F014FC0246114B1B68D31AD4
:10360C00002BB8BF5B4242F2107293427FF7C0AD01
:10361C0002F021FCBCE500BFBAE50A4B1B78002B7D
:10362C007FF4A3AD6BE000BF04030020240700204F
:10363C00B007002094060020949800088C9800088D
:10364C009C060020220700205049514800F0D2FB74
:10365C0001F0E6FB03464F4A13604F4B01221A70F0
:10366C000020FCF718FF03461A464C4B1A6000204A
:10367C00FCF711FF03461A46484B1B689A421CD1B3
:10368C00464B1B68B3F5007F01D902F0E4FB434BBA
:10369C001B68002B11D0414B1B689BB21A4640494A
:1036AC000020FDF713FC3E4B1B78572B05D13C4BF0
:1036BC005B78432B01D102F0CEFB3A4B1B78002BED
:1036CC000DD0384B00221A70374B1B6819463748FF
:1036DC0000F058FB01F0A4FB03462E4A136001F0E6
:1036EC009FFB02462B4B1B68D31A002BB8BF5B42C7
:1036FC0042F210729342B3DD02F0ADFBB0E72C4BFB
:10370C001B78002BA0D12B4B1B78002B30D02A4BD5
:10371C001B6842F21072934228D9284BC0221A70AF
:10372C00274BA8221A70274B00221A70264B4822CE
:10373C001A70264BC0221A70254BA8221A70254BE2
:10374C0000221A70244B02221A70244B41F2707220
:10375C001A80234B00221A80224B01221A70224B12
:10376C0000221A70FEF727FA00F070FC02F073FBCF
:10377C001E4B1B68642B01D102F06DFB0A2001F07B
:10378C0059FBFEF74FBF00BFFEF74CBF9C980008DB
:10379C008C9800089C060020DD060020A006002066
:1037AC0004030020270700208C050020A0980008A7
:1037BC002B0700202D070020C40600201C0500202C
:1037CC001D0500201E0500201F05002020050020DF
:1037DC002105002022050020230500208205002061
:1037EC00840500201005002042050020CC06002096
:1037FC0080B590B000AF07F11803282200211846BD
:10380C0005F0D8FF3B1D00221A605A609A60DA60FE
:10381C001A610923BB614FF48033FB614FF4003311
:10382C003B620123BB6201233B6302237B634FF4A6
:10383C008033BB634FF4E013FB6307F118031846A6
:10384C0003F0F4F90346002B01D001F027F80F2305
:10385C007B600223BB600023FB604FF480633B6101
:10386C0000237B613B1D0221184603F061FC0346DB
:10387C00002B01D001F012F800BF4037BD4680BDCF
:10388C0080B500AF174B184A1A60164B3C225A6091
:10389C00144B00229A60134B0022DA60114B4FF448
:1038AC0070221A610F4B4FF4C0025A610D4B00226B
:1038BC001A760C4B01225A760A4B00229A76094B47
:1038CC000022DA76074B00221A77064B00225A7731
:1038DC00044801F0F1FA0346002B01D000F0DEFFA2
:1038EC0000BF80BD9C0000200064004080B500AF8C
:1038FC00094B0A4A1A60084B04225A60064B40F2E4
:10390C0052729A60044803F03DF90346002B01D033
:10391C0000F0C4FF00BF80BDC40000200030004098
:10392C0080B500AF174B184A1A60164B4FF48272D1
:10393C005A60144B00229A60124B0022DA60114B31
:10394C0000221A610F4B00225A610E4B4FF4007289
:10395C009A610C4B2022DA610A4B00221A62094B45
:10396C0000225A62074B00229A62064B0A22DA6244
:10397C00044803F06DFD0346002B01D000F08EFFD0
:10398C0000BF80BDD00000200030014080B500AFEA
:10399C00174B184A1A60164B4FF482725A60144B2C
:1039AC0000229A60124B0022DA60114B00221A613D
:1039BC000F4B00225A610E4B4FF400729A610C4B64
:1039CC000022DA610A4B00221A62094B00225A6269
:1039DC00074B00229A62064B0A22DA62044803F073
:1039EC0037FD0346002B01D000F058FF00BF80BD0F
:1039FC00280100200038004080B586B000AF07F1E8
:103A0C00080300221A605A609A60DA603B46002272
:103A1C001A605A601E4B4FF080421A601C4B48F6DD
:103A2C00A0425A601A4B00229A60194B40F2E732BE
:103A3C00DA60174B00221A61154B00229A61144868
:103A4C0004F09BFA0346002B01D000F027FF4FF443
:103A5C008053BB6007F1080319460D4804F01EFCA7
:103A6C000346002B01D000F019FF00233B6000231C
:103A7C007B603B461946064804F000FE0346002BCB
:103A8C0001D000F00BFF00BF1837BD4680BD00BF52
:103A9C008001002080B586B000AF07F1080300223A
:103AAC001A605A609A60DA603B4600221A605A60CB
:103ABC001D4B1E4A1A601C4B48F6A0425A601A4B0A
:103ACC0000229A60184B40F2E732DA60164B002263
:103ADC001A61154B00229A61134804F04EFA034602
:103AEC00002B01D000F0DAFE4FF48053BB6007F1DD
:103AFC00080319460C4804F0D1FB0346002B01D0F7
:103B0C0000F0CCFE00233B6000237B603B46194653
:103B1C00054804F0B3FD0346002B01D000F0BEFEB7
:103B2C0000BF1837BD4680BDC8010020000400400E
:103B3C0080B500AF114B124A1A60104B4FF416525D
:103B4C005A600E4B00229A600C4B0022DA600B4B31
:103B5C0000221A61094B0C225A61084B00229A610F
:103B6C00064B0022DA61054804F0F8FD0346002BF1
:103B7C0001D000F093FE00BF80BD00BF10020020FA
:103B8C000038014080B582B000AF0C4B5B690B4A2A
:103B9C0043F001035361094B5B6903F001037B6044
:103BAC007B68002200210F2002F02BF90F2002F07D
:103BBC0044F900BF0837BD4680BD00BF001002406D
:103BCC0080B588B000AF07F1100300221A605A606C
:103BDC009A60DA60664B9B69654A43F01003936107
:103BEC00634B9B6903F01003FB60FB68604B9B69A4
:103BFC005F4A43F0200393615D4B9B6903F0200304
:103C0C00BB60BB685A4B9B69594A43F004039361F0
:103C1C00574B9B6903F004037B607B68544B9B6997
:103C2C00534A43F008039361514B9B6903F008031B
:103C3C003B603B6800224FF460414E4802F059FF54
:103C4C00012210214C4802F054FF002232214B4833
:103C5C0002F04FFF01224FF48051484802F049FF17
:103C6C0000224FF48071444802F043FF4FF460434C
:103C7C003B6101237B610023BB610223FB6107F1E4
:103C8C00100319463B4802F099FD04233B610023C5
:103C9C007B610123BB6107F110031946364802F022
:103CAC008DFD10233B6101237B610023BB6103234A
:103CBC00FB6107F1100319462F4802F07FFD012329
:103CCC003B612F4B7B610023BB6107F1100319464D
:103CDC002A4802F073FD32233B6101237B610023F0
:103CEC00BB610223FB6107F110031946234802F064
:103CFC0065FD4FF480533B6101237B610023BB6165
:103D0C000323FB6107F1100319461C4802F056FD12
:103D1C004FF480733B6101237B610023BB61022361
:103D2C00FB6107F110031946134802F047FD4023CD
:103D3C003B61134B7B610123BB6107F110031946F7
:103D4C000E4802F03BFD00220121062002F059F83A
:103D5C00062002F072F800220721172002F051F819
:103D6C00172002F06AF800BF2037BD4680BD00BFA7
:103D7C00001002400010014000080140000C0140FE
:103D8C000000211080B584B000AF786039607B688A
:103D9C001B783B723B681B0EDBB27B723B681B0CC7
:103DAC00DBB2BB723B681B0ADBB2FB723B68DBB25B
:103DBC003B7307F10803052219460020FCF78EFF20
:103DCC0000BF1037BD4680BD80B584B000AF7860B1
:103DDC000B46FB707B681B783B73FB787B7307F19E
:103DEC000C03022219460020FCF778FF00BF1037A5
:103DFC00BD4680BD80B588B000AF7860396007F1F2
:103E0C000C037968184605F011FD07F10C033968AD
:103E1C00184605F0D7FC07F10C031846FCF790F98F
:103E2C0003469AB207F10C0319460020FCF756FF23
:103E3C0000BF2037BD4680BD80B58AB000AF78602A
:103E4C0039607B681B783B73002387F8273010E0C0
:103E5C0097F827303A681A4497F8273001331278CC
:103E6C0028333B4403F81C2C97F82730013387F890
:103E7C00273097F82730192BEAD907F10C031B22AE
:103E8C0019460020FCF72AFF00BF2837BD4680BD2D
:103E9C0084B02DE9F04387B000AF786007F13C00A7
:103EAC0080E80E006B461E462223FB75F97D0B46FF
:103EBC00013B3B61CBB20022984691464FF0000289
:103ECC004FF000034FEAC90343EA58734FEAC802A4
:103EDC00CBB200221C4615464FF000024FF00003F7
:103EEC00EB0043EA5473E2000B460733DB08DB00BC
:103EFC00ADEB030D6B460033FB607B681A78FB68F7
:103F0C001A70FB6802225A703B6C1B0EDAB2FB680B
:103F1C009A703B6C1B0CDAB2FB68DA703B6C1B0AB8
:103F2C00DAB2FB681A713B6CDAB2FB685A7197F81B
:103F3C004420FB689A7197F84520FB68DA7197F872
:103F4C004620FB681A7297F84720FB685A7297F85C
:103F5C004820FB689A7297F84920FB68DA7297F848
:103F6C004A20FB681A7397F84B20FB685A7397F832
:103F7C004F20FB689A7397F84E20FB68DA73B7F8FA
:103F8C004C301B0A9BB2DAB2FB681A74B7F84C308F
:103F9C00DAB2FB685A7497F85020FB689A7497F859
:103FAC005120FB68DA7497F85520FB681A7597F85E
:103FBC005420FB685A75B7F852301B0A9BB2DAB220
:103FCC00FB689A75B7F85230DAB2FB68DA7597F875
:103FDC005620FB681A7697F85720FB685A76FB7DBB
:103FEC009BB21A46F9680020FCF778FEB54600BF74
:103FFC001C37BD46BDE8F04304B0704780B584B0B3
:10400C0000AF78600B46FB707B681B783B73FB78CA
:10401C007B7301224FF480710A4802F06AFD07F1AC
:10402C000C014FF4FA730222074804F0E7FB00225C
:10403C004FF48071034802F05CFD00BF1037BD46A1
:10404C0080BD00BF00080140100200202DE9B04FD8
:10405C0096B000AF02F022FA5849594802F006FB1C
:10406C00584B1B78DBB200221C46154622462B46C9
:10407C005549022002F0A2F9544B1B78DBB2002206
:10408C009846914642464B465149022002F096F919
:10409C00504B1B78DBB200229A46934652465B4645
:1040AC004D49022002F08AF94C4B1B78DBB20022FE
:1040BC003B657A65D7E914234949022002F07EF961
:1040CC00484B1B889BB20022BB64FA64D7E91223CD
:1040DC004549022002F072F9444B1B78DBB20022F6
:1040EC003B647A64D7E910234149022002F066F957
:1040FC00404B1B78DBB20022BB63FA63D7E90E237B
:10410C003D49022002F05AF93C4B1B78DBB20022ED
:10411C003B637A63D7E90C233949022002F04EF94C
:10412C00384B1B78DBB20022BB62FA62D7E90A2358
:10413C003549022002F042F9344B1B889BB2002215
:10414C003B627A62D7E908233149022002F036F942
:10415C00304B1B78DBB20022BB61FA61D7E9062336
:10416C002D49022002F02AF92C4B1B78DBB20022DD
:10417C003B617A61D7E904232949022002F01EF938
:10418C00284B1B680022BB60FA60D7E90223264942
:10419C00022002F013F9254B1B6800223B607A6069
:1041AC00D7E900232249022002F008F902F09CF919
:1041BC0000BF5837BD46BDE8B08F00BF8805002052
:1041CC008C0000201C05002000FC00081D050020B0
:1041DC0004FC00081E05002008FC00081F05002038
:1041EC000CFC00088405002010FC000820050020B1
:1041FC0014FC00082105002018FC000822050020F2
:10420C001CFC00082305002020FC0008820500206F
:10421C0024FC00081005002028FC000842050020A2
:10422C002CFC0008A806002030FC0008AC0600207E
:10423C0034FC0008B0B598B000AFF860B9607A6093
:10424C000123FB65BB68BB6507F134032022002109
:10425C00184605F0AFFA2EE0FA6DBB6D13445B08FF
:10426C007B657B6D013B18097B6D013BDBB203F079
:10427C000F03DBB25B01D9B207F114032022FDF767
:10428C0017FCBB697A689A420AD1FB681D4607F194
:10429C0014040FCC0FC594E80F0085E80F0018E04C
:1042AC00BB697A689A4203D97B6D0133FB6502E0E6
:1042BC007B6D013BBB65FA6DBB6D9A42CCD9FB683B
:1042CC001D4607F134040FCC0FC594E80F0085E8A8
:1042DC000F00F8686037BD46B0BD90B587B000AF31
:1042EC00F860B9607A600023FB752BE00023BB7586
:1042FC0022E0FB7DFA6813441B781A46BB7D42FA18
:10430C0003F303F00103002B13D0FB7DDA00BB7D1C
:10431C0013441A46BB68134401221A70FB7DDA0061
:10432C00BB7D13449B007A68D41800F079FD0346DA
:10433C002360BB7D0133BB75BB7D072BD9D9FB7DBE
:10434C000133FB75FB7D072BD0D900BF00BF1C3799
:10435C00BD4690BD80B487B000AF78603960002353
:10436C00FB7500233B611AE03B697A6813441B78A8
:10437C00DB09FB733B697A6813441B785BB25B0007
:10438C005AB297F91730134359B23B693A68134440
:10439C00CAB21A70FB7BFB753B6901333B613B690D
:1043AC00072BE1DD00BF00BF1C37BD4680BC70474A
:1043BC0080B588B000AFF860B9607A603B6007F1F7
:1043CC00100300221A605A60FB6A1B7897F82820A9
:1043DC009A4248D90023FB7740E00023BB7731E0B9
:1043EC00FB7FDA00BB7F13449B00BA6813441B6845
:1043FC00002B1FD1FB7F3A6813441B781A46BB7FF6
:10440C0042FA03F303F00103002B09D0FB7FDA001F
:10441C00BB7F13441A46FB68134401221A700EE04A
:10442C00FB7FDA00BB7F13441A46FB68134400225F
:10443C001A7004E0FB6A97F828201A7005E0BB7F1D
:10444C000133BB77BB7F072BCAD9FB6A1B7897F864
:10445C0028209A4206D0FB7F0133FB77FB7F072B8A
:10446C00BBD900E000BFFB6A1B7897F828209A4262
:10447C0048D800237B7742E000233B7739E07B7FF1
:10448C003A6813441B781A463B7F42FA03F303F055
:10449C000103002B21D000F0C3FC01467B7FDA0026
:1044AC003B7F13449B00BA6813441B68CB1A83EA06
:1044BC00E372A2EBE37297F828304FF47A7101FBA8
:1044CC0003F39A4209DD7B7FDA003B7F13441A46E3
:1044DC00FB68134401221A7008E07B7FDA003B7FF3
:1044EC0013441A46FB68134400221A703B7F0133B5
:1044FC003B773B7F072BC2D97B7F01337B777B7F5D
:10450C00072BB9D90023FB7626E00023BB761DE0F0
:10451C00FB7E20333B4413F8103C5AB2FB7ED9008F
:10452C00BB7E0B441946FB680B441B781946BB7EBB
:10453C0001FA03F35BB213435AB2FB7ED2B22033BF
:10454C003B4403F8102CBB7E0133BB76BB7E072BA0
:10455C00DED9FB7E0133FB76FB7E072BD5D907F129
:10456C00100379681846FFF7F5FE00BF2037BD46EB
:10457C0080BD000080B584B000AF0346FB71FB79B1
:10458C009B000133DB0003F540731846FBF7E0FD9D
:10459C000346FB7300F044FC0346334A1360FB7B79
:1045AC001C2B04D0FDF76BF80346002B10D1002216
:1045BC004FF480412D4802F09CFAFB791846FCF729
:1045CC002BFA294B1B68A3F59C53083B264A136016
:1045DC00FDF755F80346012B22D1FB7B002B1FD195
:1045EC0000224FF48041214802F083FA204B1A88B4
:1045FC00F87920230121FCF7FBF81E4B1A88FB7974
:10460C001D491846FCF782FA1C4B1B6801331B4AE8
:10461C001360154B1B68A3F59C53083B124A13609F
:10462C00FB799B000133DB0003F540731846FBF765
:10463C008FFD0346FB73FB7B172B05D101224FF437
:10464C0080410A4802F055FAFB799B000133DB00EC
:10465C0003F540731846FBF77BFD0346FB73FB7BAE
:10466C0018461037BD4680BDB00600200010014032
:10467C0084050020820500200C050020CC060020BB
:10468C0080B58CB000AF0346FB71FB79002B0BD1CE
:10469C002C4B1E225A602B4B4FF4E0221A61294BF3
:1046AC004FF400125A611CE0FB79012B0BD1254B06
:1046BC0028225A60234B4FF430221A61214B4FF4BD
:1046CC0080025A610DE0FB79022B0AD11D4B3C2272
:1046DC005A601C4B4FF470221A611A4B4FF4C002F3
:1046EC005A61184B0122DA76164B4FF00072DA60E1
:1046FC00144800F0E1FB0123BB620023FB610023A3
:10470C00BB614FF46843BB600023FB600E4B3B6105
:10471C0006237B6100233B6201237B620D23FB623A
:10472C0007F108031946074800F0C1FC054800F0E2
:10473C0087FD0221034801F02FF800BF3037BD463A
:10474C0080BD00BF9C000020E0FF010080B483B05E
:10475C0000AF0346FB80FB88144AA2FB0312D2096C
:10476C004FF4C87101FB02F29B1A9BB2002B01D1D2
:10477C00012316E0FB880D4AA2FB031252096421A7
:10478C0001FB02F29B1A9BB2002B01D1002308E023
:10479C00FB8803F003039BB2002B01D1012300E043
:1047AC00002318460C37BD4680BC70471F85EB5163
:1047BC0090B585B000AF0446084611461A4623460C
:1047CC00FB8003467B710B463B711346FB70002349
:1047DC00FB600023BB6040F2E473BB6012E0BB687B
:1047EC009BB21846FFF7B2FF034603F26D134FF46A
:1047FC00B46202FB03F31A46FB681344FB60BB680C
:10480C000133BB60FB88A3F2E4731A46BB68934286
:10481C00E5D30023BB601EE01F4ABB6852F823306F
:10482C004FF4B46202FB03F31A46FB681344FB60BB
:10483C00BB68012B0CD1FB881846FFF787FF03469A
:10484C00002B05D0FB6803F5A83303F5C073FB60A0
:10485C00BB680133BB607B79BA689A42DCD33B7985
:10486C00013B1A464FF4B46302FB03F3FA6813449A
:10487C00FB60FA7813461B019B1A9B001A46FB68D7
:10488C001344FB6097F82030FA681344FB60FB6814
:10489C0018461437BD4690BDB098000880B400AFE0
:1048AC0072B600BF00BFFDE780B485B000AF154BFA
:1048BC009B69144A43F001039361124B9B6903F00B
:1048CC000103BB60BB680F4BDB690E4A43F080539E
:1048DC00D3610C4BDB6903F080537B607B680A4B24
:1048EC005B68FB60FB6823F0E063FB60FB6843F0F4
:1048FC000073FB60044AFB68536000BF1437BD466D
:10490C0080BC7047001002400000014080B588B0A8
:10491C0000AF786007F1100300221A605A609A60A9
:10492C00DA607B681B68204A934239D11F4BDB69E4
:10493C001E4A43F00073D3611C4BDB6903F0007318
:10494C00FB60FB68194B9B69184A43F004039361A5
:10495C00164B9B6903F00403BB60BB684FF4006308
:10496C003B6100237B610023BB6107F110031946F7
:10497C000F4801F023FF4FF480533B6102237B610E
:10498C000323FB6107F110031946094801F016FFD8
:10499C0000220321142001F034FA142001F04DFA06
:1049AC0000BF2037BD4680BD0064004000100240AF
:1049BC000008014080B58AB000AF786007F1180399
:1049CC0000221A605A609A60DA607B681B68374A6A
:1049DC00934230D1364B9B69354A43F480539361F3
:1049EC00334B9B6903F480537B617B69304B9B6930
:1049FC002F4A43F0040393612D4B9B6903F004038E
:104A0C003B613B69A023BB610223FB6103237B62F7
:104A1C0007F118031946274801F0D0FE4023BB616B
:104A2C000023FB6100233B6207F118031946214860
:104A3C0001F0C4FE36E07B681B681F4A934231D1FB
:104A4C001B4BDB691A4A43F48043D361184BDB6977
:104A5C0003F48043FB60FB68154B9B69144A43F0DD
:104A6C0008039361124B9B6903F00803BB60BB689E
:104A7C004FF42043BB610223FB6103237B6207F1EC
:104A8C00180319460D4801F099FE4FF48043BB61A1
:104A9C000023FB6100233B6207F11803194607480A
:104AAC0001F08CFE00BF2837BD4680BD00300140B0
:104ABC00001002400008014000380040000C01408A
:104ACC0080B584B000AF78607B681B68B3F1804F11
:104ADC0014D1194BDB69184A43F00103D361164B0F
:104AEC00DB6903F00103FB60FB68002204211C203E
:104AFC0001F087F91C2001F0A0F918E07B681B6815
:104B0C000E4A934213D10C4BDB690B4A43F0020360
:104B1C00D361094BDB6903F00203BB60BB68002265
:104B2C0005211D2001F06DF91D2001F086F900BF53
:104B3C001037BD4680BD00BF00100240000400408D
:104B4C0080B588B000AF786007F1100300221A60BE
:104B5C005A609A60DA607B681B68334A93425FD173
:104B6C00324B9B69314A43F4804393612F4B9B69D1
:104B7C0003F48043FB60FB682C4B9B692B4A43F08E
:104B8C0004039361294B9B6903F00403BB60BB686E
:104B9C004FF400733B6102237B610323FB6107F13C
:104BAC0010031946224801F009FE4FF480633B6163
:104BBC0000237B610023BB6107F1100319461C48DD
:104BCC0001F0FCFD1B4B1C4A1A601A4B00225A6068
:104BDC00184B00229A60174B8022DA60154B00228A
:104BEC001A61144B00225A61124B00229A61114B2C
:104BFC000022DA610F4801F03FF90346002B01D087
:104C0C00FFF74CFE7B680B4ADA630A4A7B685362F7
:104C1C0000220221252001F0F4F8252001F00DF9E5
:104C2C0000BF2037BD4680BD003801400010024057
:104C3C0000080140580200205800024080B400AF28
:104C4C0000BFFDE780B400AF00BFFDE780B400AF4C
:104C5C0000BFFDE780B400AF00BFFDE780B400AF3C
:104C6C0000BFFDE780B400AF00BFBD4680BC7047FD
:104C7C0080B400AF00BFBD4680BC704780B400AFAD
:104C8C0000BFBD4680BC704780B500AF00F0B6F8E1
:104C9C0000BF80BD80B500AF012001F05BFF00BFFD
:104CAC0080BD000080B500AF024801F053FA00BF90
:104CBC0080BD00BF5802002080B500AF024800F054
:104CCC0090FD00BF80BD00BF9C00002080B500AFF0
:104CDC00402001F03FFF00BF80BD000080B500AF59
:104CEC00024803F0EBF900BF80BD00BF800100203B
:104CFC0080B500AF024803F0E1F900BF80BD00BFF2
:104D0C00C801002080B500AF024803F05BFE00BF75
:104D1C0080BD00BF1002002080B400AF00BFBD46B4
:104D2C0080BC7047FFF7F8FF0B480C490C4A002376
:104D3C0002E0D458C4500433C4188C42F9D3094A45
:104D4C00094C002301E013600432A242FBD304F0AF
:104D5C0049FDFDF735FA70470000002044000020A3
:104D6C001C99000848000020F8070020FEE700000E
:104D7C0080B500AF084B1B68074A43F01003136063
:104D8C00032001F033F8062000F008F8FFF78CFD43
:104D9C000023184680BD00BF0020024080B582B0C1
:104DAC0000AF7860124B1A68124B1B7819464FF4FF
:104DBC007A73B3FBF1F3B2FBF3F3184601F04FF83F
:104DCC000346002B01D001230EE07B680F2B0AD881
:104DDC00002279684FF0FF3001F013F8064A7B6827
:104DEC001360002300E0012318460837BD4680BD40
:104DFC0038000020400000203C00002080B400AFB0
:104E0C00054B1B781A46054B1B681344034A136069
:104E1C0000BFBD4680BC704740000020D00700207A
:104E2C0080B400AF024B1B681846BD4680BC70476F
:104E3C00D007002080B584B000AF7860FFF7F0FF9A
:104E4C00B8607B68FB60FB68B3F1FF3F05D00A4B91
:104E5C001B781A46FB681344FB6000BFFFF7E0FFAA
:104E6C000246BB68D31AFA689A42F7D800BF00BF53
:104E7C001037BD4680BD00BF4000002080B400AF9D
:104E8C00024B1B681846BD4680BC7047E8F7FF1FF5
:104E9C0080B400AF024B1B681846BD4680BC7047FF
:104EAC00ECF7FF1F80B400AF024B1B681846BD46E1
:104EBC0080BC7047F0F7FF1F80B584B000AF7860FE
:104ECC007B68002B01D10123EDE07B6893F8203047
:104EDC00DBB2002B02D17868FFF718FD7B681B68EA
:104EEC001A687B681B6842F001021A60FFF798FF92
:104EFC00F86012E0FFF794FF0246FB68D31A0A2B06
:104F0C000BD97B685B6A43F400327B685A627B681E
:104F1C00052283F820200123C5E07B681B685B68B1
:104F2C0003F00103002BE5D07B681B681A687B68D3
:104F3C001B6822F002021A60FFF772FFF86012E0A1
:104F4C00FFF76EFF0246FB68D31A0A2B0BD97B685E
:104F5C005B6A43F400327B685A627B68052283F8F3
:104F6C00202001239FE07B681B685B6803F0020331
:104F7C00002BE5D17B681B7E012B08D17B681B685D
:104F8C001A687B681B6842F080021A6007E07B6835
:104F9C001B681A687B681B6822F080021A607B68A9
:104FAC005B7E012B08D17B681B681A687B681B68C9
:104FBC0042F040021A6007E07B681B681A687B6845
:104FCC001B6822F040021A607B689B7E012B08D183
:104FDC007B681B681A687B681B6842F020021A60A9
:104FEC0007E07B681B681A687B681B6822F020024C
:104FFC001A607B68DB7E012B08D17B681B681A6802
:10500C007B681B6822F010021A6007E07B681B6843
:10501C001A687B681B6842F010021A607B681B7F61
:10502C00012B08D17B681B681A687B681B6842F0EF
:10503C0008021A6007E07B681B681A687B681B68AB
:10504C0022F008021A607B685B7F012B08D17B6819
:10505C001B681A687B681B6842F004021A6007E040
:10506C007B681B681A687B681B6822F004021A6054
:10507C007B689A687B68DB681A437B681B691A43F8
:10508C007B685B6942EA03017B685B685A1E7B683C
:10509C001B680A43DA617B6800225A627B68012232
:1050AC0083F82020002318461037BD4680BD80B4FD
:1050BC0087B000AF786039607B681B687B617B6868
:1050CC0093F82030FB74FB7C012B03D0FB7C022B70
:1050DC0040F0AA807B69D3F8003243F001027B696F
:1050EC00C3F800223B685B6903F01F03012202FA3C
:1050FC0003F3FB607B69D3F81C22FB68DB431A408B
:10510C007B69C3F81C223B68DB69002B23D17B69CC
:10511C00D3F80C22FB68DB431A407B69C3F80C22E2
:10512C003B68DB6819043B685B689BB23A68526960
:10513C0019437B69483243F832103B689B68190469
:10514C003B681B689AB23B685B690A4379694833D0
:10515C00DB000B445A603B68DB69012B22D17B6975
:10516C00D3F80C22FB681A437B69C3F80C223B680A
:10517C001B6819043B685B689BB23A685269194317
:10518C007B69483243F832103B689B6819043B68D2
:10519C00DB689AB23B685B690A4379694833DB0088
:1051AC000B445A603B689B69002B09D17B69D3F88F
:1051BC000422FB68DB431A407B69C3F8042207E036
:1051CC007B69D3F80422FB681A437B69C3F8042279
:1051DC003B681B69002B09D17B69D3F81422FB684F
:1051EC00DB431A407B69C3F8142207E07B69D3F8D0
:1051FC001422FB681A437B69C3F814223B681B6AB0
:10520C00012B07D17B69D3F81C22FB681A437B69FD
:10521C00C3F81C227B69D3F8003223F001027B69AE
:10522C00C3F80022002306E07B685B6A43F480220B
:10523C007B685A62012318461C37BD4680BC7047F8
:10524C0080B584B000AF78607B6893F82030DBB217
:10525C00012B2ED17B68022283F820207B681B68EF
:10526C001A687B681B6822F001021A60FFF7D8FDF0
:10527C00F86012E0FFF7D4FD0246FB68D31A0A2B44
:10528C000BD97B685B6A43F400327B685A627B689B
:10529C00052283F82020012312E07B681B685B68E1
:1052AC0003F00103002BE5D17B6800225A62002336
:1052BC0006E07B685B6A43F400227B685A62012338
:1052CC0018461037BD4680BD80B489B000AFF86079
:1052DC00B9607A603B60FB6893F82030FB77FB6821
:1052EC001B689B68BB61FB7F012B03D0FB7F022BF0
:1052FC0040F0AD80BB6903F08063002B0AD1BB6921
:10530C0003F00063002B05D1BB6903F08053002B25
:10531C0000F09580BB691B0E03F003037B61012237
:10532C007B699A403B681A60BB689B68002B0DD167
:10533C00BB681B685A05BB68DB68F96809681A43C7
:10534C007B6918331B010B441A600FE0BB685B6868
:10535C00DA00BB689B681A43BB68DB68F9680968AC
:10536C001A437B6918331B010B441A60FB681968DC
:10537C00BB681A697B6918331B010B4404331A6030
:10538C00BB681B7D012B11D1FB681A687B69183334
:10539C001B01134404331B68FA68116843F48072D0
:1053AC007B6918331B010B4404331A607B68073389
:1053BC001B781A067B6806331B781B041A437B6820
:1053CC0005331B781B0213437A680432127810469B
:1053DC00FA68116843EA00027B691B010B4403F570
:1053EC00C6731A607B6803331B781A067B6802331A
:1053FC001B781B041A437B6801331B781B02134375
:10540C007A6812781046FA68116843EA00027B69E0
:10541C001B010B4403F5C4731A60FB681A687B69A3
:10542C0018331B0113441B68FA68116843F001021E
:10543C007B6918331B010B441A6000230EE0FB68D8
:10544C005B6A43F40012FB685A62012306E0FB68B6
:10545C005B6A43F48022FB685A62012318462437A6
:10546C00BD4680BC704780B485B000AF78603960B1
:10547C007B6893F82030FB73FB7B012B02D0FB7B0A
:10548C00022B28D13B6803F00103002B07D07B686B
:10549C001B689A687B681B6842F080029A603B68C4
:1054AC0003F00203002B07D07B681B689A687B68AB
:1054BC001B6842F400429A603B6803F00403002B23
:1054CC0007D07B681B689A687B681B6842F40002F3
:1054DC009A60002306E07B685B6A43F480227B6859
:1054EC005A62012318461437BD4680BC704780B4FD
:1054FC0085B000AF78600023FB607B6893F82030A8
:10550C00FB72FB7A012B02D0FB7A022B1DD17B683C
:10551C001B689B6803F08063002B02D0FB6801338F
:10552C00FB607B681B689B6803F00063002B02D058
:10553C00FB680133FB607B681B689B6803F080533E
:10554C00002B02D0FB680133FB60FB681846143754
:10555C00BD4680BC704780B487B000AFF860B960BE
:10556C007A603B60FB6893F82030FB75FB7D012B68
:10557C0003D0FB7D022B40F00381BB68002B0ED1C6
:10558C00FB681B68DB6803F00303002B16D1FB6878
:10559C005B6A43F40012FB685A620123F7E0FB6874
:1055AC001B681B6903F00303002B07D1FB685B6AC4
:1055BC0043F40012FB685A620123E8E0FB681A68A6
:1055CC00BB681B331B0113441B6803F004027B688C
:1055DC009A607B689B68002B0CD1FB681A68BB68CF
:1055EC001B331B0113441B685B0DC3F30A027B685E
:1055FC001A600BE0FB681A68BB681B331B01134471
:10560C001B68DB0823F060427B685A60FB681A68F1
:10561C00BB681B331B0113441B6803F002027B683D
:10562C00DA60FB681A68BB681B331B011344043334
:10563C001B6803F00803002B03D07B6808221A6157
:10564C000BE0FB681A68BB681B331B011344043363
:10565C001B6803F00F027B681A61FB681A68BB6851
:10566C001B331B01134404331B681B0ADAB27B681F
:10567C009A61FB681A68BB681B331B011344043323
:10568C001B681B0C9AB27B685A61FB681A68BB6872
:10569C001B01134403F5DC731B68DAB23B681A7008
:1056AC00FB681A68BB681B01134403F5DC731B68A9
:1056BC001A0A3B680133D2B21A70FB681A68BB68CD
:1056CC001B01134403F5DC731B681A0C3B68023393
:1056DC00D2B21A70FB681A68BB681B01134403F53D
:1056EC00DC731B681A0E3B680333D2B21A70FB686A
:1056FC001A68BB681B01134403F5DE731A683B6818
:10570C000433D2B21A70FB681A68BB681B011344CD
:10571C0003F5DE731B681A0A3B680533D2B21A70A4
:10572C00FB681A68BB681B01134403F5DE731B6826
:10573C001A0C3B680633D2B21A70FB681A68BB6845
:10574C001B01134403F5DE731B681A0E3B68073309
:10575C00D2B21A70BB68002B08D1FB681B68DA68E0
:10576C00FB681B6842F02002DA6007E0FB681B68EC
:10577C001A69FB681B6842F020021A61002306E0DC
:10578C00FB685B6A43F48022FB685A62012318466B
:10579C001C37BD4680BC704780B485B000AF7860C4
:1057AC0039607B6893F82030FB73FB7B012B02D0B4
:1057BC00FB7B022B09D17B681B6859697B681B68D2
:1057CC003A680A435A61002306E07B685B6A43F43B
:1057DC0080227B685A62012318461437BD4680BC70
:1057EC00704780B58AB000AF786000237B627B681D
:1057FC001B685B693B627B681B685B68FB617B6851
:10580C001B689B68BB617B681B68DB687B617B6882
:10581C001B681B693B617B681B689B69FB603B6A6F
:10582C0003F00103002B7CD0BB6903F00103002BB8
:10583C0023D07B681B6801229A60BB6903F00203CA
:10584C00002B03D0786800F083F916E0BB6903F0F5
:10585C000403002B04D07B6A43F400637B620CE0EE
:10586C00BB6903F00803002B04D07B6A43F480531C
:10587C007B6202E0786800F086F9BB6903F4807300
:10588C00002B24D07B681B684FF480729A60BB6934
:10589C0003F40073002B03D0786800F062F916E073
:1058AC00BB6903F48063002B04D07B6A43F4005380
:1058BC007B620CE0BB6903F40063002B04D07B6AB1
:1058CC0043F480437B6202E0786800F065F9BB69C1
:1058DC0003F48033002B24D07B681B684FF4803298
:1058EC009A60BB6903F40033002B03D0786800F096
:1058FC0041F916E0BB6903F48023002B04D07B6ACA
:10590C0043F400437B620CE0BB6903F40023002BDF
:10591C0004D07B6A43F480337B6202E0786800F049
:10592C0044F93B6A03F00803002B0CD07B6903F0AD
:10593C001003002B07D07B6A43F400737B627B68F7
:10594C001B681022DA603B6A03F00403002B0BD0B7
:10595C007B6903F00803002B06D07B681B680822C8
:10596C00DA60786800F02AF93B6A03F00203002B36
:10597C0009D07B681B68DB6803F00303002B02D0A3
:10598C007868FCF7EDFB3B6A03F04003002B0CD06E
:10599C003B6903F01003002B07D07B6A43F4806350
:1059AC007B627B681B6810221A613B6A03F0200340
:1059BC00002B0BD03B6903F00803002B06D07B684F
:1059CC001B6808221A61786800F00AF93B6A03F038
:1059DC001003002B09D07B681B681B6903F00303C1
:1059EC00002B02D0786800F0F2F83B6A03F4003325
:1059FC00002B0BD0FB6903F01003002B06D07B6847
:105A0C001B6810225A60786800F0F3F83B6A03F4C4
:105A1C008033002B0BD0FB6903F00803002B06D05E
:105A2C007B681B6808225A60786800F0EBF83B6AC8
:105A3C0003F40043002B7BD0FB6903F00403002B21
:105A4C0072D03B6A03F48073002B08D0FB6803F020
:105A5C000103002B03D07B6A43F001037B623B6A9A
:105A6C0003F40073002B08D0FB6803F00203002B37
:105A7C0003D07B6A43F002037B623B6A03F48063CE
:105A8C00002B08D0FB6803F00403002B03D07B6AC7
:105A9C0043F004037B623B6A03F40063002B43D0A6
:105AAC00FB6803F07003002B3ED0FB6803F070031F
:105ABC00602B2BD0602B2ED8502B22D0502B2AD8D9
:105ACC00402B19D0402B26D8302B10D0302B22D87D
