:020000040800F2
:1000000000500020CD4E0008E54D0008ED4D0008E1
:10001000F54D0008FD4D0008054E000800000000E9
:100020000000000000000000000000000D4E00086D
:10003000194E000800000000254E0008314E00084F
:10004000154F0008154F0008154F0008154F000800
:10005000154F0008154F00083D4E0008154F0008C9
:10006000154F0008154F0008154F0008154F0008E0
:10007000154F0008154F0008154F00084D4E000899
:10008000154F0008154F0008154F0008154F0008C0
:10009000614E0008154F0008154F0008754E000806
:1000A000154F0008154F0008154F0008154F0008A0
:1000B000854E0008994E0008154F0008154F00089E
:1000C000154F0008154F0008154F0008154F000880
:1000D000154F0008AD4E0008154F0008154F0008D9
:1000E000154F0008154F0008154F000800000000CC
:1000F0000000000000000000000000000000000000
:0C01000000000000000000005FF808F1A3
:10010C0010B5054C237833B9044B13B10448AFF345
:10011C0000800123237010BD480000200000000067
:10012C00E499000808B5034B1BB103490348AFF32E
:10013C00008008BD000000004C000020E49900087D
:10014C00034613F8012B002AFBD1181A013870470B
:10015C0080B584B000AF7860224BDB689847214BA8
:10016C005B6998471F4B5B6A002B03D01D4B9B6A46
:10017C00002B14D11B4B1B6A7A68120CD2B210469E
:10018C009847184B1B6A7A68120AD2B210469847E5
:10019C00144B1B6A7A68D2B21046984711E07B6800
:1001AC001B0CDBB23B737B681B0ADBB27B737B687B
:1001BC00DBB2BB730B4B9B6A07F10C02032110469D
:1001CC009847084BDB6998470346FB73054B9B69C3
:1001DC009847044B1B699847FB7B18461037BD4664
:1001EC0080BD00BF0400002080B584B000AF7860F3
:1001FC000B46FB70224BDB689847214B5B69984799
:10020C007B6843F004037B601D4B9B6A002B19D168
:10021C001B4B1B6A7A68120CD2B210469847184BCB
:10022C001B6A7A68120AD2B210469847144B1B6AA2
:10023C007A68D2B210469847114B1B6AFA7810466E
:10024C00984713E07B681B0CDBB23B737B681B0A83
:10025C00DBB27B737B68DBB2BB73FB78FB73084B45
:10026C009B6A07F10C02042110469847044B9B69CA
:10027C009847034B1B69984700BF1037BD4680BD9C
:10028C000400002090B587B000AFF860B960134649
:10029C00FB802B4BDB689847294B5B699847284BB5
:1002AC005B6A002B03D0264B9B6A002B26D1244B78
:1002BC001B6AFA68120CD2B210469847204B1B6A84
:1002CC00FA68120AD2B2104698471D4B1B6AFA689C
:1002DC00D2B2104698470023FB820AE0184BDB6928
:1002EC00FA8AB9688C18984703462370FB8A013345
:1002FC00FB82FA8AFB889A42F0D317E0FB681B0C4E
:10030C00DBB23B74FB681B0ADBB27B74FB68DBB2B1
:10031C00BB740B4B9B6A07F11002032110469847E4
:10032C00074B5B6AFA881146B8689847044B9B697F
:10033C009847034B1B69984700BF1C37BD4690BDBF
:10034C000400002080B586B000AFF860B960134699
:10035C00FB802B4BDB689847294B5B699847FB6804
:10036C0043F00403FB60264B9B6A002B26D1244BE5
:10037C001B6AFA68120CD2B210469847204B1B6AC3
:10038C00FA68120AD2B2104698471D4B1B6AFA68DB
:10039C00D2B2104698470023FB820AE0184B1B6A26
:1003AC00FA8AB9680A44127810469847FB8A0133D6
:1003BC00FB82FA8AFB889A42F0D317E0FB681B0C8D
:1003CC00DBB23B74FB681B0ADBB27B74FB68DBB2F1
:1003DC00BB740B4B9B6A07F1100203211046984724
:1003EC00074B9B6AFA881146B8689847044B9B697F
:1003FC009847034B1B69984700BF1837BD4680BD13
:10040C000400002090B585B000AF0346FB710023BB
:10041C00FB810023BB81FB799B000133DB0003F5DF
:10042C0000531846FFF794FE0346BB81BB891B02A1
:10043C009CB2FB799B000133DB0003F50453184697
:10044C00FFF786FE03462344BB81BB89002B19D0E2
:10045C00FB799B000133DB0003F500531846FFF7D3
:10046C0077FE0346FB81FB891B029CB2FB799B0048
:10047C000133DB0003F504531846FFF769FE03460E
:10048C002344FB81FA89BB899A42C4D1FB89184663
:10049C001437BD4690BD90B585B000AF0346FB71D7
:1004AC000023FB810023BB81FB799B000133DB0024
:1004BC0003F518531846FFF74BFE0346BB81BB8967
:1004CC001B029CB2FB799B000133DB0003F51C5330
:1004DC001846FFF73DFE03462344BB81BB89002B26
:1004EC0019D0FB799B000133DB0003F51853184638
:1004FC00FFF72EFE0346FB81FB891B029CB2FB79A6
:10050C009B000133DB0003F51C531846FFF720FE5C
:10051C0003462344FB81FA89BB899A42C4D1FB89E7
:10052C0018461437BD4690BD90B585B000AF034654
:10053C003960FB711346BB800023FB810023BB6039
:10054C00BB88002B46D0FB799B000133DB0003F505
:10055C0010531846FFF7FCFD03461B029CB2FB79B7
:10056C009B000133DB0003F514531846FFF7F0FD35
:10057C0003462344FB81FB891A02FB799B0002335F
:10058C00DB001344BB60BB881A463968B868FFF7B8
:10059C00D9FEFA89BB881344FB81FB799B0001339C
:1005AC00DB0003F510531A46FB891B0A9BB2DBB226
:1005BC0019461046FFF718FEFB799B000133DB0050
:1005CC0003F514531A46FB89DBB219461046FFF7A4
:1005DC000BFE00E000BF1437BD4690BD90B585B052
:1005EC0000AF03463960FB711346BB800023FB81CF
:1005FC000023BB60BB88002B46D0FB799B000133EA
:10060C00DB0003F520531846FFF7A2FD03461B023F
:10061C009CB2FB799B000133DB0003F52453184695
:10062C00FFF796FD03462344FB81FB891A02FB79F5
:10063C009B000333DB001344BB60BB881A4639684C
:10064C00B868FFF71FFEFA89BB881344FB81FB795E
:10065C009B000133DB0003F520531A46FB891B0A70
:10066C009BB2DBB219461046FFF7BEFDFB799B002F
:10067C000133DB0003F524531A46FB89DBB2194620
:10068C001046FFF7B1FD00E000BF1437BD4690BD2A
:10069C0080B500AF00221021024806F0F8FA00BF26
:1006AC0080BD00BF0008014080B500AF01221021C1
:1006BC00024806F0ECFA00BF80BD00BF0008014004
:1006CC0080B582B000AFF91D4FF0FF330122044812
:1006DC0007F054F9FB7918460837BD4680BD00BFBA
:1006EC00D000002080B582B000AF0346FB71F91D2D
:1006FC004FF0FF330122034806F0FCFF00BF083720
:10070C00BD4680BDD000002080B582B000AF7860BF
:10071C000B467B807A884FF0FF337968034807F0EB
:10072C002DF900BF0837BD4680BD00BFD0000020AA
:10073C0080B582B000AF78600B467B807A884FF032
:10074C00FF337968034806F0D5FF00BF0837BD4674
:10075C0080BD00BFD000002090B587B000AFFF2354
:10076C00FB751A4B3C1D0FCB84E80F0001221021A6
:10077C00174806F08CFA00220221164806F087FA78
:10078C0000BFFB7D5A1EFA75002BFAD10122022103
:10079C00104806F07CFA1049104800F0A5FC1049EE
:1007AC00104800F0C5FC1049104800F0EDFC3B1D52
:1007BC001946012000F014FD0346B3F1FF3F01D1AF
:1007CC0000BFFDE700BF1C37BD4690BDFC9900087B
:1007DC0000080140000C0140B50600089D06000809
:1007EC00F1060008CD0600083D07000815070008B3
:1007FC0090B585B000AF0446084611461A4623460C
:10080C00FB710346BB710B46BB801346FB70FB7937
:10081C00082B02D94FF0FF33EFE0BB79012B05D049
:10082C00002B11DD023B022B0ED811E007F10C035B
:10083C00042219464FF47060FFF724FDFB68002B6F
:10084C0005D16FF00203D8E06FF00403D5E000BFD0
:10085C00FB7803F00403002B02D06FF00503CCE00F
:10086C00FB78002B28D0BB79012B02D0022B08D0AF
:10087C0022E0FB7803F02103002B1AD16FF0050363
:10088C00BBE0FB7803F02003002B06D097F9033074
:10089C00002B02DB6FF00503AFE0FB7803F01003D5
:1008AC00002B08D097F90330002B04DB6FF0050305
:1008BC00A3E000BF00E000BFFB79184600F0ACF8E5
:1008CC00FB799B000133D80097F9033023F00F0319
:1008DC005AB297F9063013435BB2DBB21946FFF7F5
:1008EC0083FCBB88002B10D1464B1B885A1C91B241
:1008FC00444A1180BB80434B1B884FF6F0729342E5
:10090C0003D1404B4FF440421A80FB799B000133DA
:10091C00DB0003F580631A46BB881B0A9BB2DBB273
:10092C0019461046FFF760FCFB799B000133DB0096
:10093C0003F5A0631A46BB88DBB219461046FFF7D5
:10094C0053FCFB799B000133DB0003F58073012121
:10095C001846FFF749FC00BFFB799B000133DB0015
:10096C0003F580731846FFF7F3FB0346002BF3D116
:10097C00FB79012202FA03F31BB2DB431AB2224BBE
:10098C001B881BB213401BB29AB21F4B1A80FB7808
:10099C0003F00102FB7902FA03F31AB21A4B1B881B
:1009AC001BB213431BB29AB2174B1A80FB7901226C
:1009BC0002FA03F31BB2DB431AB2144B1B881BB2B3
:1009CC0013401BB29AB2114B1A80FB79104A0021CA
:1009DC0022F81310FB790F4A0021D15400BFFB7988
:1009EC009B000133DB0003F540731846FFF7B0FBA7
:1009FC000346002BF3D097F9073018461437BD4641
:100A0C0090BD00BF000000206400002066000020A4
:100A1C00680000207C00002080B582B000AF034647
:100A2C00FB71FB79082B02D94FF0FF335FE0FB79A8
:100A3C009B000133DB0003F5807310211846FFF790
:100A4C00D3FB00BFFB799B000133DB0003F5807304
:100A5C001846FFF77DFB0346002BF3D1FB799B0077
:100A6C000133DB0003F500731F211846FFF7BCFBB5
:100A7C00FB79012202FA03F31BB2DB431AB21E4BC1
:100A8C001B881BB213401BB29AB21B4B1A80FB790A
:100A9C00012202FA03F31BB2DB431AB2174B1B8879
:100AAC001BB213401BB29AB2144B1A80FB79144A36
:100ABC00002122F81310FB79124A0021D15409E0CD
:100ACC00114B1B78012B05D10F4B00221A706FF0C4
:100ADC000C030CE0FB799B000133DB0003F5407346
:100AEC001846FFF735FB0346002BE9D101231846C6
:100AFC000837BD4680BD00BF6400002066000020A2
:100B0C00680000207C0000207800002080B584B0B4
:100B1C0000AF03463960FB711346BB80FB79082B91
:100B2C0002D94FF0FF33D0E0FB799B000133DB009F
:100B3C001846FFF70DFB034603F00F03012B02D001
:100B4C006FF00403C1E0FB799B000133DB0003F57C
:100B5C0040731846FFF7FCFA0346132B02D06FF0D4
:100B6C000203B2E03B681B78FB60FB681B023A682F
:100B7C00013212781344FB60FB681B023A680232A4
:100B8C0012781344FB60FB681B023A68033212783C
:100B9C001344FB60FB68B3F1FF3F02D0FB68002BF2
:100BAC0002D16FF00B0390E0BB88002B02D16FF0E9
:100BBC000A038AE0FB799B000133DB0003F54063F9
:100BCC00042239681846FFF7BDFBFB799B00013303
:100BDC00DB0003F580531A46BB881B0A9BB2DBB2C1
:100BEC0019461046FFF700FBFB799B000133DB0035
:100BFC0003F588531A46BB88DBB219461046FFF73B
:100C0C00F3FAFB799B000133DB0003F580730421BD
:100C1C001846FFF7E9FA00BFFB799B000133DB00B4
:100C2C0003F580731846FFF793FA0346002BF3D1B4
:100C3C00284B1B881A46FB7942FA03F303F0010395
:100C4C00002B35D0002340E0FB799B000133DB0007
:100C5C0003F500731846FFF77BFA034603F008030D
:100C6C00002B0CD0FB799B000133DB0003F50073E8
:100C7C0008211846FFF7B8FA6FF00C0325E0FB7952
:100C8C009B000133DB0003F540731846FFF760FA55
:100C9C000346002B02D16FF0030316E00E4B1B78BA
:100CAC00012B05D10C4B00221A706FF00C030CE0D9
:100CBC00FB799B000133DB0003F540731846FFF70B
:100CCC0047FA0346172BBFD1012318461037BD46F0
:100CDC0080BD00BF640000207800002080B584B087
:100CEC0000AF03463960FB711346BB800023FB73D6
:100CFC000023BB81FB79082B02D94FF0FF33DDE0D9
:100D0C00FB799B000133DB001846FFF721FA034601
:100D1C0003F00F03012B02D06FF00403CEE0BB886D
:100D2C00002B02D16FF00D03C8E0FB799B0001335F
:100D3C00DB0003F540731846FFF70AFA0346FB7312
:100D4C00FB7B172B05D0FB7B1C2B02D06FF0060313
:100D5C00B4E05C4B1B881A46FB7942FA03F303F0B0
:100D6C000103002B39D0FB799B000133DB0003F529
:100D7C0000731846FFF7ECF9034603F01F03FB73EF
:100D8C00FB7B03F01003002B19D0FB799B00013384
:100D9C00DB0003F5007310211846FFF725FAFB79E9
:100DAC00012202FA03F31BB2DB431AB2454B1B8838
:100DBC001BB213401BB29AB2424B1A800DE0FB7B64
:100DCC0003F00803002B06D0FB791846FFF724FE2E
:100DDC006FF00C0372E0002370E0FB799B00013391
:100DEC00DB0003F5F8531846FFF7B2F903469B02F4
:100DFC00BB81BA88BB899A4201D9BB89BB80FB797C
:100E0C001846FFF7FFFA0346BB81FB799B000133C1
:100E1C00DB0003F540731846FFF79AF90346FB73A2
:100E2C00FB7B172B09D0FB7B1C2B06D0FB791846C0
:100E3C00FFF7F2FD6FF0060340E0234B1B881A46C8
:100E4C00FB7942FA03F303F00103002B05D0BA88B7
:100E5C00BB899A4201D9002330E0BA88BB899A42F7
:100E6C0000D9CCE700BFBA88FB7939681846FFF780
:100E7C005BFBFB799B000133DB0003F580732021C6
:100E8C001846FFF7B1F900BFFB799B000133DB007B
:100E9C0003F580731846FFF75BF90346002BF3D17B
:100EAC00FB79012202FA03F31AB2064B1B881BB220
:100EBC0013431BB29AB2034B1A80BB8818461037E7
:100ECC00BD4680BD660000206400002090B585B052
:100EDC0000AF03463960FB711346BB800023FB73E4
:100EEC000023BB81FB79082B02D94FF0FF339BE029
:100EFC00FB799B000133DB001846FFF729F9034609
:100F0C0003F00F03012B02D06FF004038CE0BB88BD
:100F1C00002B02D16FF00D0386E0FB799B000133AF
:100F2C00DB0003F5F0531846FFF712F903469B025A
:100F3C00BB81BA89BB889A4201D2BB89BB80FB7941
:100F4C001846FFF7A8FA0346BB81FB799B000133D7
:100F5C00DB0003F540731846FFF7FAF80346FB7302
:100F6C00FB7B172B26D0FB7B1C2B1CD1BB89002BAE
:100F7C0033D1FB791846FFF745FA03461C46FB793B
:100F8C009B000133DB0003F5F8531846FFF7E0F83C
:100F9C0003469B029C420DD1FB791846FFF73CFDA2
:100FAC006FF0060340E0FB791846FFF735FD6FF054
:100FBC00060339E01E4B1B881A46FB7942FA03F3F1
:100FCC0003F00103002B04D0BB89002B01D10023BB
:100FDC002AE0BB89002B02D1B1E700BF00E000BFC3
:100FEC00BA89BB889A4201D2BB89BB80BA88FB798B
:100FFC0039681846FFF7F2FAFB799B000133DB00E6
:10100C0003F5807340211846FFF7EEF800BFFB791B
:10101C009B000133DB0003F580731846FFF798F84B
:10102C000346002BF3D1BB8818461437BD4690BD40
:10103C006400002080B400AF00BFBD4680BC704788
:10104C0080B400AF00BFBD4680BC704780B400AF19
:10105C0000BFBD4680BC704780B400AF00BFBD462A
:10106C0080BC704780B483B000AF78607B681B781D
:10107C00DBB218460C37BD4680BC704780B483B0D9
:10108C0000AF78600B46FB707B68FA781A7000BF73
:10109C000C37BD4680BC704780B400AF00231846A7
:1010AC00BD4680BC704780B483B000AF0346FB7173
:1010BC0000BF0C37BD4680BC704780B483B000AF16
:1010CC0078600B467B8000BF0C37BD4680BC7047F8
:1010DC0080B483B000AF78600B467B8000BF0C37C8
:1010EC00BD4680BC7047000080B483B000AF786010
:1010FC0039607B68002B02D03B68002B06D1094B72
:10110C00094A5A61074B094A9A6106E0054A7B680D
:10111C005361044A3B68936100BF00BF0C37BD4666
:10112C0080BC7047040000205910000865100008AE
:10113C0080B483B000AF7860396000BF0F4B1B8860
:10114C0003F40073002BF9D07B68002B02D03B68B2
:10115C00002B06D1094B0A4ADA61084B094A1A627C
:10116C0006E0064A7B68D361044A3B68136200BF01
:10117C0000BF0C37BD4680BC704700BF0400002088
:10118C00A5100008B310000880B483B000AF7860DD
:10119C00396000BF0F4B1B8803F40073002BF9D090
:1011AC007B68002B02D03B68002B06D1094B0A4A06
:1011BC005A62084B094A9A6206E0064A7B685362F7
:1011CC00044A3B68936200BF00BF0C37BD4680BC2D
:1011DC00704700BF04000020C7100008DD10000895
:1011EC0090B587B000AF03463960FB710023FB75E7
:1011FC000023FB6000233B61FB790F2B00F2C580C1
:10120C0001A252F823F000BF551200085B1200082F
:10121C00871200087B12000895120008A112000822
:10122C00AF120008D5120008F71200083B13000893
:10123C0041130008491300089D13000851130008BE
:10124C005F1300087B13000800F0AAF8A1E03B68CC
:10125C00002B04D03B68FB60FB6808333B61FB68E8
:10126C003A691146184600F0E7F8034692E03B68ED
:10127C001B88184600F06CF98BE000F09DF90346D2
:10128C001A463B681A8084E03B681B88184600F0BD
:10129C00B8F97EE000F0D0F903461A463B681A8094
:1012AC0077E03B681B881B0A9BB2DBB219464FF4F4
:1012BC009850FEF799FF3B681B88DBB219464FF438
:1012CC00A050FEF791FF64E04FF49850FEF740FFFA
:1012DC0003461B029CB24FF4A050FEF739FF0346A5
:1012EC0023449AB23B681A8053E02C4B9A783B68A3
:1012FC001A703B680133294AD2781A703B68023362
:10130C00264A12791A703B680333244A52791A70B0
:10131C003B680433214A92791A703B6805331F4AA3
:10132C00D2791A703B68063300221A7031E000F053
:10133C00D5F92EE0386800F0F8F92AE0386800F0AA
:10134C0037FA26E03B681B78184600F09BFA0346F8
:10135C0020E000F0AAF90346FB75FB7DFF2B02D1C0
:10136C004FF0FF3316E03B68FA7D1A7011E000F085
:10137C0086F90346FB75FB7DFF2B02D14FF0FF3343
:10138C0008E03B68FA7D1A7003E04FF0FF3301E090
:10139C0000BF002318461C37BD4690BD040000203A
:1013AC0080B586B000AF3B1D062219464FF4106085
:1013BC00FEF768FF07F11403042219464FF48070FE
:1013CC00FEF760FF07F11003042219464FF4A060EA
:1013DC00FEF758FF07F10C03042219464FF4706016
:1013EC00FEF750FF80210020FEF7FEFE0020FEF7E6
:1013FC00AFFE3B1D062219464FF41060FEF7A2FF0C
:10140C0007F11403042219464FF48070FEF79AFF7B
:10141C0007F11003042219464FF4A060FEF792FF67
:10142C0007F10C03042219464FF47060FEF78AFF93
:10143C0000BF1837BD4680BD80B584B000AF786062
:10144C0039600023BB73FFF7ABFF7B68002B3BD0ED
:10145C000023BB730023FB7315E097F90F307A68F8
:10146C0013441A78BB7B1344DBB2BB7397F90E3071
:10147C00102B02DD4FF0FF3366E097F90F30DBB233
:10148C000133DBB2FB7397F90F30072BE5DD00233B
:10149C00FB7315E097F90F309B000133DB0003F56C
:1014AC00F853184697F90F307A6813441B7819468D
:1014BC00FEF79AFE97F90F30DBB20133DBB2FB7308
:1014CC0097F90F30072BE5DD3B68002B3BD0002351
:1014DC00BB730023FB7315E097F90F303A68134484
:1014EC001A78BB7B1344DBB2BB7397F90E30102B0D
:1014FC0002DD4FF0FF3327E097F90F30DBB20133F9
:10150C00DBB2FB7397F90F30072BE5DD0023FB7380
:10151C0015E097F90F309B000133DB0003F5F05316
:10152C00184697F90F303A6813441B781946FEF7A2
:10153C005BFE97F90F30DBB20133DBB2FB7397F92B
:10154C000F30072BE5DD002318461037BD4680BD54
:10155C0080B584B000AF0346FB80FB88FB73FB882F
:10156C001B0A9BB2BB73FB7B23F00F03DBB2194648
:10157C004FF4A850FEF738FE0023FB7314E0BA7B3F
:10158C00FB7B42FA03F303F00103002B09D0FB7B36
:10159C009B000133DB0003F500731F211846FEF797
:1015AC0023FEFB7B0133FB73FB7B072BE7D900BFCF
:1015BC0000BF1037BD4680BD80B582B000AF0023A0
:1015CC00FB710023BB710023BB804FF4A850FEF7C6
:1015DC00BFFD034623F00F03FB714FF4B850FEF729
:1015EC00B7FD0346BB71BB79BB80BB881B029AB2AB
:1015FC00FB799BB21344BB80BB8818460837BD46A9
:10160C0080BD80B584B000AF0346FB80FB88FB73C4
:10161C00FB881B0A9BB2BB73FB7B19464FF4B05083
:10162C00FEF7E2FDBB7B19464FF4C050FEF7DCFD24
:10163C0000BF1037BD4680BD80B582B000AF00231F
:10164C00FB710023BB710023BB804FF4B050FEF73D
:10165C007FFD0346FB714FF4C050FEF779FD034646
:10166C00BB71BB79BB80BB881B029AB2FB799BB266
:10167C001344BB80BB8818460837BD4680BD80B577
:10168C0082B000AF0023FB714FF43850FEF760FDC1
:10169C00034603F00103002B01D00123FB7197F9E2
:1016AC00073018460837BD4680BD80B582B000AF04
:1016BC000023FB714FF43850FEF74AFD034603F04C
:1016CC003803302B02D10123FB7101E00023FB71A5
:1016DC0097F9073018460837BD4680BD80B582B0F3
:1016EC0000AF4FF43850FEF733FD0346FB71FB7926
:1016FC0003F07F03FB71FB7919464FF43850FEF76A
:10170C0073FD4FF43850FEF723FD0346FB71FB7954
:10171C0063F07F03FB71FB7919464FF43850FEF7E9
:10172C0063FD00BF0837BD4680BD80B584B000AFF7
:10173C0078600023FB737B681B78012B04D1FB7B47
:10174C0043F04003FB7303E0FB7B23F04003FB738C
:10175C007B685B78012B04D1FB7B43F03803FB7374
:10176C0019E07B68DB78012B0DD17B689B78012B12
:10177C0004D1FB7B43F01803FB730CE0FB7B43F0C1
:10178C000803FB7307E07B689B78012B03D1FB7B81
:10179C0043F01003FB73FB7B19464FF43850FEF7F4
:1017AC0023FDFFF79BFF00BF1037BD4680BD000037
:1017BC0080B584B000AF78600023FB734FF43850D1
:1017CC00FEF7C6FC0346FB73FB7B9B11DBB203F0FD
:1017DC000103DAB27B681A70FB7B03F03803202B11
:1017EC0001D0382B03D17B6801225A7003E07B684F
:1017FC0000225A7000BFFB7B03F03803103B102B08
:10180C008CBF01220022D2B2002A0FD11B4A22FA2D
:10181C0003F303F00103002B14BF01230023DBB2FD
:10182C00002B03D07B6801229A7003E07B680022B6
:10183C009A7000BFFB7B03F03803083B182B8CBF5E
:10184C0001220022D2B2002A0FD10D4A22FA03F350
:10185C0003F00103002B14BF01230023DBB2002B88
:10186C0003D07B680122DA7003E07B680022DA7017
:10187C0000BF00BF1037BD4680BD00BF0101010095
:10188C000100010180B584B000AF0346FB71002359
:10189C00FB734FF43850FEF75BFC0346FB73FB7B8A
:1018AC0003F04003002B02D14FF0FF3330E0FB7B01
:1018BC0023F03803FB73FB79012B04D1FB7B43F042
:1018CC003003FB7303E0FB7B43F03803FB73FB7BC0
:1018DC0019464FF43850FEF787FCFFF7FFFE4FF424
:1018EC003850FEF735FC0346FB73FB79012B06D110
:1018FC00FB7B03F03003002B08D0002308E0FB7BBC
:10190C0003F03803002B01D0002301E04FF0FF332C
:10191C0018461037BD4680BD80B582B000AF7860E8
:10192C007B68062219464FF41060FEF70BFD7B68AE
:10193C000E33042219464FF48070FEF703FD7B68CA
:10194C000A33042219464FF4A060FEF7FBFC7B68B7
:10195C000633042219464FF47060FEF7F3FC7B68E3
:10196C009A7C0B4B1A707B68DA7C094B5A707B683B
:10197C001A7D074B9A707B685A7D054BDA707B6831
:10198C009A7D044B1A7000BF0837BD4680BD00BF5E
:10199C00840000208800002080B500AF00224FF4A6
:1019AC008051024805F073F900BF80BD000C014066
:1019BC0080B500AF01224FF48051024805F067F961
:1019CC0000BF80BD000C014080B582B000AF7860D4
:1019DC00786803F0FDFA00BF0837BD4680BD0000F3
:1019EC0080B582B000AF78600B467B807A884FF46C
:1019FC00FA637968034805F07DFE00BF0837BD46E1
:101A0C0080BD00BF2801002080B582B000AF786097
:101A1C000B467B807A8841F288337968034805F05D
:101A2C00ADFF00BF0837BD4680BD00BF28010020B8
:101A3C0080B582B000AF0523BB710120FFF7C4FF56
:101A4C00FFF7AAFFB91D4FF47A7301220B4805F07A
:101A5C0051FEF91D4FF47A730122084805F08EFFF0
:101A6C000120FFF7B1FFFB7903F00103002BF0D14C
:101A7C00FFF79EFF00BF0837BD4680BD2801002040
:101A8C0080B582B000AF66233B7199237B71FFF761
:101A9C0083FF391D4FF47A730222044805F02AFEA5
:101AAC00FFF786FF00BF0837BD4680BD2801002028
:101ABC0080B588B000AFF8607A603B600B46FB7273
:101ACC00FB681A02FB7A1344FB610B233B75FB6921
:101ADC001B0CDBB27B75FB691B0ADBB2BB75FB69AC
:101AEC00DBB2FB7500233B76FFF756FF07F11403BF
:101AFC0005211846FFF774FF7B689BB219463868BE
:101B0C00FFF782FFFFF754FF00BF2037BD4680BDB3
:101B1C0080B586B000AFF860B9607A600B233B7477
:101B2C00FB681B0CDBB27B74FB681B0ADBB2BB745F
:101B3C00FB68DBB2FB7400233B75FFF72DFF07F14D
:101B4C00100305211846FFF74BFFBB689BB21946E3
:101B5C007868FFF759FFFFF72BFF00BF1837BD461A
:101B6C0080BD80B582B000AF0623FB71FFF714FF78
:101B7C00FB1D01211846FFF733FFFFF719FF01206A
:101B8C00FFF722FF00BF0837BD4680BD80B582B08D
:101B9C0000AF0423FB71FFF7FFFEFB1D012118466C
:101BAC00FFF71EFFFFF704FF0120FFF70DFF00BF3B
:101BBC000837BD4680BD80B582B000AFC723FB712E
:101BCC00FFF7CFFFFFF7E8FEFB1D01211846FFF7DB
:101BDC0007FFFFF7EDFEFFF72BFF0520FFF7F4FEE5
:101BEC0000BF0837BD4680BD80B586B000AF034648
:101BFC00FB80FB881B037B61FFF71AFFFFF7B1FF2C
:101C0C0020233B737B691B0CDBB27B737B691B0A48
:101C1C00DBB2BB737B69DBB2FB73FFF7BDFE07F175
:101C2C000C0304211846FFF7DBFEFFF7C1FEFFF79C
:101C3C00FFFEFFF7ABFF00BF1837BD4680BD80B578
:101C4C0086B000AF786003233B747B681B0CDBB25F
:101C5C007B747B681B0ADBB2BB747B68DBB2FB74E6
:101C6C00FFF79AFE07F1100304211846FFF7B8FEA0
:101C7C0007F10F0301211846FFF7C6FEFFF798FE88
:101C8C00FB7B18461837BD4680BD80B5C8B000AF89
:101C9C0007F59073A3F58A73186007F59073A3F595
:101CAC008C73196007F59073A3F58E731A6007F5A2
:101CBC009073A3F5887302221A7007F59073A3F53D
:101CCC008A731B681B0CDAB207F59073A3F5887343
:101CDC005A7007F59073A3F58A731B681B0ADAB266
:101CEC0007F59073A3F588739A7007F59073A3F5B5
:101CFC008A731B68DAB207F59073A3F58873DA70F0
:101D0C00042387F81F3197F81F319AB207F59073A7
:101D1C00A3F58E731B689BB21344A7F81A310023EA
:101D2C00A7F81C3118E0B7F81C3107F59072A2F532
:101D3C008C7212681A4497F81F31591C87F81F11BE
:101D4C001946127807F59073A3F588735A54B7F8AF
:101D5C001C310133A7F81C31B7F81C3107F5907210
:101D6C00A2F58E7212689A42DDD807F59073A3F52E
:101D7C008A731868FFF763FF0346FF2B2BD1FFF71D
:101D8C00F0FEB7F81A31FA2B15D9FFF705FE07F15B
:101D9C00100364211846FFF723FE07F11003643388
:101DAC00B7F81A21643A92B211461846FFF718FE9A
:101DBC00FFF7FEFD0BE0FFF7EFFDB7F81A2107F177
:101DCC00100311461846FFF70BFEFFF7F1FDFFF766
:101DDC002FFEFFF7DBFE00BF07F59077BD4680BDF9
:101DEC0080B582B000AF78600B467B807B681A6848
:101DFC003D4B1B689A4265D103F0E0F803463B4A21
:101E0C0013603B4B1B78432B3DD0442B5AD1384BA2
:101E1C005B781A06364B9B781B041A43344BDB78E1
:101E2C001B021343324A127913431A46314B1A6080
:101E3C00314B1B7883F00103DBB2002B1BD02F4BF3
:101E4C001B7883F00103DBB2002B14D02C4B1B78D6
:101E5C0083F00103DBB2002B0DD0264B1B68194617
:101E6C00284802F003F8284B01221A7003F0A6F858
:101E7C000346264A1360224B1B78002B21D0244B9F
:101E8C0001221A701DE0234B1B78002B09D0214B2B
:101E9C0000221A70204B1B781946204802F068F972
:101EAC0005E01F4B1B7819461C4802F061F9104BDA
:101EBC001B79002B14BF01230023DAB2194B1A70C3
:101ECC0000E000BF32220A49074806F0F0FD164B2D
:101EDC001B681A68144B1B6822F004021A6000BFBE
:101EEC000837BD4680BD00BF10020020B40600209C
:101EFC00D00200208C050020270700202607002098
:101F0C002F0700200C9A000825070020B806002097
:101F1C002B0700203307002080050020109A0008B2
:101F2C0030000020E00600205802002080B582B06E
:101F3C0000AF0346FB80FB88402B45D1142003F0F7
:101F4C0047F84021224804F08BFE0346002B3BD17E
:101F5C00204B01221A7003F031F803461E4A13601D
:101F6C001E4B4FF4FA621A6027E003F027F8024682
:101F7C00194B1B68D31A1A4A1360194B1B6842F28F
:101F8C001072934202D9154B64221A6003F016F8B2
:101F9C000246144B1B68D21A104B1B689A4209D983
:101FAC0003F00CF803460F4A13604FF400510E482F
:101FBC0004F085FE0A2003F00BF84021044804F0DD
:101FCC004FFE0346002BD0D000BF0837BD4680BD66
:101FDC00000C014031070020C0060020CC06002078
:101FEC00C8060020C40600200010014080B584B053
:101FFC0002AF78607B681A68484B1B689A4269D1BB
:10200C00474B1A78474B1B789A4205D2444B1B78A6
:10201C000133DAB2424B1A70434B1B78002B1DD1A3
:10202C00424B1B78002B19D1414B1B78002B15D13F
:10203C00404B1B78002B11D13F4B1B78002B0DD143
:10204C003E4B1B7883F00103DBB2002B06D104213D
:10205C003B4804F005FE0346002B21D1394B0122ED
:10206C001A70384B00225A70364B00229A70354B3E
:10207C000022DA70334B00221A71324B00225A7153
:10208C00304B00229A712F4B0022DA7101224FF44F
:10209C0000412D4804F0FBFD2C4B02221A7013E07A
:1020AC00204B1B781E4A01920093294B254A294943
:1020BC00294802F036FA00224FF40041224804F07D
:1020CC00E6FD224B03221A70244B1E4A2449254854
:1020DC0003F0C8F97B681A68234B1B689A4219D124
:1020EC00224804F061FE02F069FF0246204B1B6897
:1020FC00D31AC82B02D91F4B01221A701E4B1B7806
:10210C0083F00103DBB2002B04D04FF400510E48D6
:10211C0004F0D5FD00BF0837BD4680BD800100200E
:10212C007605002010050020270700202607002038
:10213C0032070020E1060020E006002036000020D7
:10214C000008014044050020001001403000002030
:10215C001405002094050020E406002090050020C2
:10216C00B80200209C000020C8010020C400002000
:10217C00BC060020780000203107002080B582B01A
:10218C0000AF7860124B134A0021786803F0B1FA63
:10219C000346002B01D002F04FFC0E4B1B68B3F52D
:1021AC00E86F10D10A4B9B78482B0CD1084B1B794C
:1021BC0003F04003002B03D0074B01221A7002E0FE
:1021CC00054B00221A7000BF0837BD4680BD00BF0A
:1021DC00780500209C02002032070020F0B5B5B035
:1021EC0006AF02F093FE01F077FB924B5B68914ACD
:1021FC0043F48073536001F057FD01F037FD01F09B
:10220C00B3FB01F001FC01F035FC01F005FD01F020
:10221C00B5FC01F0DFFB01F063FC874805F0CAFF59
:10222C0032228649864806F042FC864B1B681A68A7
:10223C00844B1B6822F004021A60834B08221A613B
:10224C00814B44F2FF725A607F4B04229A607E4BA2
:10225C000022DA607C4B00221A607B4B00221A753C
:10226C007A4B00221A60794B01225A60774B784ADC
:10227C009A60764B0122DA60754B1B68DAB2754BAB
:10228C001A70754B1B68DAB2744B1A70744B1B685E
:10229C00DAB2744B1A70744B1B68DAB2734B1A7047
:1022AC00734B1B689AB2734B1A80734B1B68DAB270
:1022BC00724B1A70724B1B68DAB2724B1A70724BFB
:1022CC001B68DAB2714B1A70714B1B68DAB2714B26
:1022DC001A70714B1B689AB2704B1A80704B1B684A
:1022EC00DAB2704B1A70704B1B68DAB26F4B1A7003
:1022FC006F4B1B686F4A13606F4B1B686F4A136000
:10230C00544B1B78FF2B02D1524BC0221A70534BEB
:10231C001B78FF2B02D1514BA8221A70514B1B7802
:10232C00FF2B02D14F4B00221A70504B1B78FF2B06
:10233C0002D14E4B48221A704E4B1B884FF6FF723F
:10234C00934202D14B4B00221A804C4B1B78FF2B33
:10235C0002D14A4BC0221A704A4B1B78FF2B02D178
:10236C00484BA8221A70494B1B78FF2B02D1474BC4
:10237C0000221A70474B1B78FF2B02D1454B0222CF
:10238C001A70464B1B884FF6FF72934203D1434B96
:10239C0041F270721A80434B1B78FF2B02D1414BD8
:1023AC0001221A70414B1B78FF2B02D13F4B0022AC
:1023BC001A70404B1B68DAB2414B1A703D4B1B68CC
:1023CC001B0ADAB23E4B5A703A4B1B681B0CDAB242
:1023DC003B4B9A70374B1B681B0EDAB2384BDA70DA
:1023EC00364B1B68DAB2364B1A71344B1B681B0A1E
:1023FC00DAB2334B5A71314B1B681B0CDAB2304BCF
:10240C009A712E4B1B681B0EDAB22D4BDA711B4BDB
:10241C001A782C4B1A701B4B1A782A4B5A701B4B80
:10242C001A78284B9A701B4B1A78264BDA70FFF7E8
:10243C0027FB5CE0002004E0C8010020D002002053
:10244C001002002058020020B80200208C0000204E
:10245C0000FC00081C05002004FC00081D050020E1
:10246C0008FC00081E0500200CFC00081F050020BD
:10247C0010FC00088405002014FC00082005002036
:10248C0018FC0008210500201CFC00082205002077
:10249C0020FC00082305002024FC000882050020F5
:1024AC0028FC0008100500202CFC00084205002028
:1024BC0030FC0008A806002034FC0008AC06002004
:1024CC00140500200C050020B44B1B685B01B44ABA
:1024DC0020211846FFF71CFBB14B1B685A1EAF4B53
:1024EC001B689A4203D1AE4B1B68AC4A1360AC4BD1
:1024FC001B68B3F1FF3FE7D114E0AA4B1B6803F54F
:10250C0080335B01A84A20211846FFF701FBA64B3C
:10251C001B685A1EA34B1B689A4203D1A24B1B6823
:10252C00A04A1360A04B1B68B3F1FF3FE5D19D4B54
:10253C001B68002B1AD00023C7F8B4300DE0D7F875
:10254C00B4309BB203F500739BB21846FFF74CFBFB
:10255C00D7F8B4300133C7F8B430924B1B685B0129
:10256C001B0B0233D7F8B4209A42E8D3002387F828
:10257C0064301C2387F86530162387F8663002F028
:10258C004BFD0346DAB2894B1B785340DBB287F81C
:10259C00673002F04BFD0346DAB2844B1B78534094
:1025AC00DBB287F8683002F04BFD0346DAB27F4BA2
:1025BC001B785340DBB287F869307D4B1B7887F86A
:1025CC006A307C4B1B7887F86B307B4B1B7887F819
:1025DC006C30764B1B7887F86D30784A07F16E03B8
:1025EC0010681860764A07F1720310681860754A13
:1025FC0007F1760310681860012387F87A30FEF72C
:10260C00ABF84FF4FA6002F0E3FC07F164031846F0
:10261C00FFF782F96C4B1A88202301210020FEF76A
:10262C00E7F86A4B1B881A4669490020FEF76EFAD8
:10263C00684B1B78184602F0E7F8674805F0BAFDBE
:10264C000020FDF728FF03461A46644B1A60002051
:10265C00FDF721FF03461A46604B1B689A4241F076
:10266C00FD805E4B1B68B3F5007F01D903F0C1FC04
:10267C005A4B1B68002B00F04081584B1B689BB2D7
:10268C001A4657490020FEF721FC554B1B78443B5A
:10269C00132B00F2328101A252F823F041270008DB
:1026AC00072900080729000807290008F92600084F
:1026BC00072900080729000807290008072900082E
:1026CC00072900080729000807290008072900081E
:1026DC00072900080D28000875270008072900089D
:1026EC0007290008072900085128000802F066FC99
:1026FC0003463C4A13603A4BDB781BB21B021AB2FE
:10270C00374B1B791BB213431BB29AB2364B1A8050
:10271C00354B1888324B9978314B5A78304B5C7961
:10272C002F4B9B790093234602F006F903462F4A60
:10273C001360E2E02E4B01221A70002387F8B330AD
:10274C000DE097F8B3305A1C97F8B3302449895CE4
:10275C00284AD15497F8B330013387F8B33097F83F
:10276C00B330082BEDD9C8E0234B01221A7000239B
:10277C0087F8B2300DE097F8B2305A1C97F8B230A7
:10278C001749895C1D4AD15497F8B230013387F848
:10279C00B23097F8B230162BEDD9AEE0940600208B
:1027AC0034070020A4060020540700201F05002039
:1027BC001C0500201D0500201E050020409A000865
:1027CC00449A0008489A00088405002082050020DD
:1027DC000C0500204205002080010020A0060020EE
:1027EC00040300209806002086050020D406002053
:1027FC002C070020500500202D0700205C05002030
:10280C00684B5B78022B08D1674B01221A7002F0DF
:10281C00D5FB0346654A13606FE0624B5B78032B74
:10282C0008D1634B01221A7002F0C8FB03465F4AC1
:10283C00136062E05F4B01221A705A4B5A785E4B60
:10284C001A705AE0574B5B78413B192B54D801A2B4
:10285C0052F823F0E1280008052900080529000892
:10286C0005290008CF2800080529000805290008BB
:10287C00F328000805290008052900080529000887
:10288C000529000805290008052900080529000864
:10289C000529000805290008052900080529000854
:1028AC000529000805290008052900080529000844
:1028BC000529000805290008C9280008FFF77BF93D
:1028CC001AE03E4B01221A7002F078FB0346374A9D
:1028DC00136011E03A4B01221A7002F06FFB0346B1
:1028EC00324A136008E0374B01221A7002F066FB83
:1028FC0003462E4A136000BF00BF334802F0C5FEEA
:10290C000346002B0AD1314B1B6819462E4802F0A6
:10291C0078FE0346002B01D003F06BFB2C4B1B788D
:10292C00172B10D102F04AFB02462A4B1B68D31A14
:10293C00002BB8BF5B4243F69722934203DC264B35
:10294C0001221A7002E0244B00221A7002F036FBAE
:10295C000246224B1B68D31A002BB8BF5B4243F6CE
:10296C009822934203DD1E4B00221A7002E01C4B8E
:10297C0001221A701B4B1B78002B4CD0194B0022D8
:10298C001A70194B1B78002B02D0012B34D042E06B
:10299C00164B00221A70164B01221A70154B00228E
:1029AC001A7038E004030020290700209C06002040
:1029BC002A0700203007002075050020270700207B
:1029CC00260700202F0700209C00002090050020E7
:1029DC004C0500209806002024070020B406002097
:1029EC00360000202C070020500500208005002018
:1029FC003307002025070020974A9849984801F092
:102A0C0025FD984B01221A70974B01221A70974B97
:102A1C0000221A7000BF954B1B78002B00F08180B0
:102A2C00934B1B7883F00103DBB2002B08D102F02F
:102A3C00C5FA02468F4B1B68D31AB3F5FA7F70D9CF
:102A4C008A4B00221A708C4B19688C4B1A688C4C70
:102A5C003B46184601F0ACFC25463C460FCC0FC556
:102A6C0094E80F0085E80F00854B1B68002B52D0B3
:102A7C00834B1A68804B1B689A424CD8804B188A3F
:102A8C007F4B997C7E4BDA7C7D4B1C7D7C4B5B7D3C
:102A9C000093234601F050FF03467A4A1360784BAB
:102AAC00D88A774B197E764B5A7E754B9C7E744B2D
:102ABC00DB7E0093234601F03FFF0346724A13600E
:102ACC00704B1A68714B1B689A421DD26F4B1A6877
:102ADC006D4B1B689A4217D26A4B1B68002B13D0A4
:102AEC00694B1B68002B0FD0684B1B68002B0BD05D
:102AFC00594A5A49664801F0A9FC5A4B01221A70EE
:102B0C00594B01221A700CE0564B00221A70564B8E
:102B1C0001221A7005E0534B00221A70524B01220D
:102B2C001A705C4B1B78002B00F08380594B0022F1
:102B3C001A70594B1B78002B02D0012B6FD078E008
:102B4C00554B5A78554B1A70534B9A78544B1A7004
:102B5C00514BDA78534B1A704F4B1A79524B1A70FF
:102B6C004D4B5B791BB21B021AB24B4B9B791BB2C0
:102B7C0013431BB29AB24D4B1A80474BDA794C4B2C
:102B8C001A70454B1A7A4B4B1A70434B5A7A4A4B74
:102B9C001A70414B9A7A494B1A703F4BDB7A1BB235
:102BAC001B021AB23C4B1B7B1BB213431BB29AB2D7
:102BBC00434B1A80384B5A7B424B1A70364B9A7BDC
:102BCC00414B1A70344BDB7B1A46334B1B7C1B027C
:102BDC001A43314B5B7C1B041A432F4B9B7C1B060B
:102BEC0013431A46394B1A602B4BDB7C1A462A4B83
:102BFC001B7D1B021A43284B5B7D1B041A43264B7F
:102C0C009B7D1B0613431A46314B1A6001F0DCFA0C
:102C1C003049314801F06AF903F0EBF909E01E4B39
:102C2C005B78002B14BF01230023DAB22B4B1A70F4
:102C3C0000BF2B4B1B78002B00F0D280284B0022BE
:102C4C001A70284B1B78002B02D0012B4CD0C7E0FC
:102C5C0003F0CFF9C4E000BF94050020E406002087
:102C6C005105002080050020330700202507002097
:102C7C0024070020B8060020940600208C050020B4
:102C8C0074070020D8060020DC060020D4060020A3
:102C9C007C0700202D0700205C0500201C0500206F
:102CAC001D0500201E0500201F05002084050020A6
:102CBC0020050020210500202205002023050020EE
:102CCC00820500201005002042050020A8060020E7
:102CDC00AC060020149A0008189A0008E10600209F
:102CEC0030070020750500208A4B1A788A4B1A7021
:102CFC008A4B1A78884B5A70894B1A78864B9A7083
:102D0C00884B1A78844BDA70874B1B881B0A9BB252
:102D1C00DAB2814B1A71844B1B88DAB27E4B5A7132
:102D2C00824B1A787C4B9A71814B1A787A4BDA71F8
:102D3C00804B1A78784B1A727F4B1A78764B5A72F2
:102D4C007E4B1B881B0A9BB2DAB2734B9A727B4B7D
:102D5C001B88DAB2704BDA72794B1A786E4B1A7395
:102D6C00784B1A786C4B5A73774B1B681B0EDAB284
:102D7C00694B9A73744B1B681B0CDAB2664BDA7393
:102D8C00714B1B681B0ADAB2634B1A746E4B1B68CF
:102D9C00DAB2614B5A746D4B1A785F4B9A746B4B69
:102DAC005A785D4BDA74694B9A785B4B1A75674BA2
:102DBC00DA78594B5A75654B1A79574B9A75634BA0
:102DCC005A79554BDA75614B9A79534B1A765F4B9E
:102DDC00DA79514B5A7650495D4801F0DDF800BF65
:102DEC005C4B1B7883F00103DBB2002B00F08C8072
:102DFC0002F0E4F80246584B1B68D31A002BB8BFFC
:102E0C005B4241F2883293427EDD002001F06AFC85
:102E1C0003461A46514B1A70504B1B78172B73D123
:102E2C004F4B1B78002B03D04E4B46225A7033E08D
:102E3C004D4B1B78002B03D04A4B50225A702BE081
:102E4C004A4B1B78002B03D0464B45225A7023E08B
:102E5C00474B1B7883F00103DBB2002B03D0414BB3
:102E6C0044225A7018E00421424803F0F9FE03464C
:102E7C00002B03D13B4B43225A700DE03E4B1B7889
:102E8C0083F00103DBB2002B03D0364B4F225A7078
:102E9C0002E0344B52225A70022232490020FDF7D4
:102EAC001DFF31E04FF4FA7002F092F80023C7F8DE
:102EBC00AC301CE0D7F8AC305B01304A202118460E
:102ECC00FEF726FE2D4E6D4606F10C040FCC0FC5F9
:102EDC0023682B6096E80E00294801F08FF86420D7
:102EEC0002F076F8D7F8AC300133C7F8AC30164B9B
:102EFC001B68D7F8AC209A42DCD30121204800F0A3
:102F0C00DBFF204B00221A701E4B1B78002BC9D103
:102F1C0086E100BF1C050020240500201D050020B3
:102F2C001E0500201F050020840500202005002020
:102F3C002105002022050020230500208205002009
:102F4C0010050020420500209406002014050020E6
:102F5C001C9A00082E070020B00600204C0500200B
:102F6C003207002034000020E1060020E00600209B
:102F7C00360000200008014024070020B407002080
:102F8C00209A0008290700204FF47A7002F020F8EC
:102F9C000023C7F8A830A549A54800F0A7FF02F008
:102FAC000DF80346A34A1360A34B01221A700020AC
:102FBC00FDF771FA03461A46A04B1A600020FDF784
:102FCC006AFA03461A469D4B1B689A4240F02681CA
:102FDC009A4B1B68B3F5FA7F01D903F00AF8984BAA
:102FEC001B7883F00103DBB2002B00F00281934BC2
:102FFC001B68002B00F0FD80904B1B689BB21A469F
:10300C0090490020FDF762FF8E4B1B78572B40F048
:10301C00F0808C4B5B78442B40F08980D7F8A8303B
:10302C000133C7F8A830884AD7F8A8301360854B0D
:10303C009B781A06834BDB781B041A43814B1B7954
:10304C001B0213437F4A527913431A467E4B5A6034
:10305C007C4B9A797C4B1A727A4BDA797A4B5A728E
:10306C00784B1A7A784B9A72764B5A7A764BDA728C
:10307C00744B9A7A744B1A73724BDA7A724B5A738A
:10308C00704B1A7B704B9A736E4B5A7B6E4BDA7388
:10309C006C4B9A7B6C4BDA746A4BDA7B6A4B9A7486
:1030AC00684B1B7C1BB21B021AB2664B5B7C1BB2BF
:1030BC0013431BB29AB2644B1A82624B9A7C624BDA
:1030CC001A75604BDA7C604B5A755E4B1A7D5E4B01
:1030DC005A765C4B5A7D5C4B1A765A4B9B7D1BB2D5
:1030EC001B021AB2574BDB7D1BB213431BB29AB2B5
:1030FC00554BDA82534B1A7E534B9A76514B5A7E70
:10310C00514BDA76D7F8A83003F57F43FF335B01D8
:10311C0020224D491846FEF7B8FD4C49444800F0B2
:10312C00E5FE01F04BFF0346424A136061E0454B5C
:10313C005B78432B5DD1464B01221A7059E000237A
:10314C0087F8A7300AE097F8A7309BB21846FEF72D
:10315C004BFD97F8A730013387F8A73097F8A720D5
:10316C003C4B1B685B011B0B01339A42EBD30023D6
:10317C00C7F8A03016E0D7F8A03003F580335B0118
:10318C00354A20211846FEF7C3FCD7F8A0305B0166
:10319C00202231491846FEF778FDD7F8A0300133CC
:1031AC00C7F8A030D7F8A020D7F8A8309A42E2D3BD
:1031BC000023C7F89C300DE0D7F89C309BB203F588
:1031CC0000739BB21846FEF70FFDD7F89C30013305
:1031DC00C7F89C30D7F8A8305B011B0B0133D7F82C
:1031EC009C209A42E8D31D49114800F07FFE02F062
:1031FC0000FF174B1B78002BA1D101F0DFFE02461C
:10320C000C4B1B68D31A002BB8BF5B4242F21072F6
:10321C0093427FF7CCAE02F0ECFEC8E600BFC6E6E8
:10322C000F4B1B78002B7FF4AFAE71E2249A000891
:10323C00289A00089C060020E1060020A006002029
:10324C002E07002004030020940700202C9A00086D
:10325C002807002094060020B4070020309A0008AC
:10326C00270700204FF47A7001F0B2FE0023C7F854
:10327C009830A649A64800F039FE01F09FFE03469F
:10328C00A44A1360A44B01221A700020FDF703F925
:10329C0003461A46A14B1A600020FDF7FCF80346C2
:1032AC001A469E4B1B689A4240F030829B4B1B681F
:1032BC00B3F5007F01D902F09CFE994B1B7883F08B
:1032CC000103DBB2002B00F00B82944B1B68002B2C
:1032DC0000F00682914B1B689BB21A469149002064
:1032EC00FDF7F4FD8F4B1B78572B40F0F9818D4B7C
:1032FC005B78442B40F08B80D7F898300133C7F8BB
:10330C009830894B1B680133874A1360854B9B7837
:10331C001A06844BDB781B041A43824B1B791B0265
:10332C001343804A527913431A467F4B5A607D4BA4
:10333C009A797D4B1A727B4BDA797B4B5A72794BAB
:10334C001A7A794B9A72774B5A7A774BDA72754BA9
:10335C009A7A754B1A73734BDA7A734B5A73714BA7
:10336C001A7B714B9A736F4B5A7B6F4BDA736D4BA5
:10337C009A7B6D4BDA746B4BDA7B6B4B9A74694BA3
:10338C001B7C1BB21B021AB2664B5B7C1BB2134339
:10339C001BB29AB2644B1A82624B9A7C624B1A75BE
:1033AC00604BDA7C604B5A755E4B1A7D5E4B5A76DD
:1033BC005C4B5A7D5C4B1A765A4B9B7D1BB21B02A5
:1033CC001AB2584BDB7D1BB213431BB29AB2564B4D
:1033DC00DA82544B1A7E544B9A76524B5A7E524B8D
:1033EC00DA76D7F8983003F5FB3303F2FF135B0161
:1033FC0020224D491846FEF748FC4C49444800F041
:10340C0075FD01F0DBFD0346424A136068E1454B54
:10341C005B78432B40F06481454B01221A705FE1CD
:10342C000023C7F8943016E0D7F894305B01414A7A
:10343C0020211846FEF76CFBD7F8943003F5803347
:10344C005B0120223B491846FEF71FFCD7F894304D
:10345C000133C7F89430384B1B68D7F894209A4244
:10346C00E2D3002387F893300AE097F893309BB2AD
:10347C001846FEF7B9FB97F89330013387F8933071
:10348C0097F893202C4B1B685B011B0B01339A4262
:10349C00EBD30023C7F88C300023C7F88830002307
:1034AC00C7F8843086E0D7F88C3003F580335B01A5
:1034BC0007F1240220211846FEF72AFBD7F88830A2
:1034CC0003F5FC335B0107F1440220211846FEF79B
:1034DC001FFBBA6ABB6C9A4230D2D7F884300133E6
:1034EC007B62D7F884305B0107F124012022184657
:1034FC00FEF7CBFBD7F88C300133C7F88C30D7F8FC
:10350C0084300133C7F8843054E000BF349A00088B
:10351C00289A00089C060020E1060020A006002046
:10352C002E07002004030020940700202C9A00088A
:10353C0028070020B407002094060020BA6ABB6C50
:10354C009A4217D9D7F8843001337B64D7F884308A
:10355C005B0107F1440120221846FEF796FBD7F8D1
:10356C0088300133C7F88830D7F884300133C7F876
:10357C0084301FE0BA6ABB6C9A421BD1D7F88430F6
:10358C0001337B64D7F884305B0107F144012022BE
:10359C001846FEF77AFBD7F888300133C7F8883025
:1035AC00D7F88C300133C7F88C30D7F8843001331E
:1035BC00C7F88430AB4B1B68D7F88C209A4229D2C1
:1035CC00D7F88820D7F898309A42FFF46CAF21E0F6
:1035DC00D7F88C3003F580335B0107F124022021EE
:1035EC001846FEF795FAD7F8843001337B62D7F88A
:1035FC0084305B0107F1240120221846FEF745FBBD
:10360C00D7F88C300133C7F88C30D7F884300133BD
:10361C00C7F88430934B1B68D7F88C209A42D7D3C9
:10362C0021E0D7F8883003F5FC335B0107F1440245
:10363C0020211846FEF76CFAD7F8843001337B64EE
:10364C00D7F884305B0107F1440120221846FEF7BD
:10365C001CFBD7F888300133C7F88830D7F8843092
:10366C000133C7F88430D7F88820D7F898309A42BD
:10367C00D7D30023C7F880300DE0D7F880309BB249
:10368C0003F500739BB21846FEF7AEFAD7F88030FC
:10369C000133C7F88030734B1B685B011B0B013384
:1036AC00D7F880209A42E8D30023FB670AE0FB6F2F
:1036BC009BB203F57C739BB21846FEF795FAFB6F31
:1036CC000133FB67D7F898305B011B0B0133FA6FA2
:1036DC009A42ECD36449654800F008FC02F089FC7E
:1036EC00634B1B78002B7FF49BAE01F067FC02460A
:1036FC00604B1B68D31A002BB8BF5B4242F21072AE
:10370C0093427FF7C2AD02F074FCBEE500BFBCE58E
:10371C00594B1B78002B7FF4A5AD5AE05749534801
:10372C0000F0E4FB01F04AFC0346524A1360544B90
:10373C0001221A700020FCF7AEFE03461A46514BCC
:10374C001A600020FCF7A7FE03461A464D4B1B6877
:10375C009A421CD14B4B1B68B3F5007F01D902F088
:10376C0048FC484B1B68002B11D0464B1B689BB286
:10377C001A4645490020FDF7A9FB434B1B78572BF4
:10378C0005D1414B5B78432B01D102F032FC3F4B0E
:10379C001B78002B0DD03D4B00221A703C4B1B6844
:1037AC0019463C4800F062FB01F008FC0346314A24
:1037BC00136001F003FC02462E4B1B68D31A002B3E
:1037CC00B8BF5B4242F210729342B3DD02F011FCBF
:1037DC00B0E7314B1B78002BA0D1304B1B78002B62
:1037EC0030D02F4B1B6842F21072934228D92D4BCC
:1037FC00C0221A702C4BA8221A702C4B00221A7063
:10380C002B4B48221A702B4BC0221A702A4BA82221
:10381C001A702A4B00221A70294B02221A70294B5B
:10382C0041F270721A80284B00221A80274B012219
:10383C001A70274B00221A70FEF7BDF900F0C4FC79
:10384C0002F0D7FB234B1B68B3F52F7F01D102F09D
:10385C00D0FB0A2001F0BCFBFEF7F2BE00BFFEF766
:10386C00EFBE00BF94060020309A0008289A00088A
:10387C00280700209C06002026070020389A000804
:10388C00E1060020A0060020040300202B070020E6
:10389C008C0500203C9A00082F07002031070020DF
:1038AC00C80600201C0500201D0500201E05002058
:1038BC001F050020200500202105002022050020E6
:1038CC00230500208205002084050020100500201F
:1038DC0042050020D006002080B590B000AF07F163
:1038EC00180328220021184606F032F83B1D00224E
:1038FC001A605A609A60DA601A610923BB614FF44E
:10390C008033FB614FF400333B620123BB62012324
:10391C003B6302237B634FF48033BB634FF4E013B0
:10392C00FB6307F11803184603F04EFA0346002B0D
:10393C0001D001F081F80F237B600223BB600023D0
:10394C00FB604FF480633B6100237B613B1D0221D4
:10395C00184603F0BBFC0346002B01D001F06CF8B9
:10396C0000BF4037BD4680BD80B500AF174B184A2D
:10397C001A60164B3C225A60144B00229A60134B6F
:10398C000022DA60114B4FF470221A610F4B4FF486
:10399C00C0025A610D4B00221A760C4B01225A764A
:1039AC000A4B00229A76094B0022DA76074B00224A
:1039BC001A77064B00225A77044801F04BFB03465A
:1039CC00002B01D001F038F800BF80BD9C00002016
:1039DC000064004080B500AF094B0A4A1A60084BDE
:1039EC0004225A60064B40F252729A60044803F06B
:1039FC0097F90346002B01D001F01EF800BF80BDE3
:103A0C00C40000200030004080B500AF174B184AAE
:103A1C001A60164B4FF482725A60144B00229A6053
:103A2C00124B0022DA60114B00221A610F4B00225C
:103A3C005A610E4B4FF400729A610C4B2022DA61E2
:103A4C000A4B00221A62094B00225A62074B0022D1
:103A5C009A62064B0A22DA62044803F0C7FD034659
:103A6C00002B01D000F0E8FF00BF80BDD00000208B
:103A7C000030014080B500AF174B184A1A60164B46
:103A8C004FF482725A60144B00229A60124B00223F
:103A9C00DA60114B00221A610F4B00225A610E4B57
:103AAC004FF400729A610C4B0022DA610A4B00222F
:103ABC001A62094B00225A62074B00229A62064B8B
:103ACC000A22DA62044803F091FD0346002B01D070
:103ADC0000F0B2FF00BF80BD28010020003800407C
:103AEC0080B586B000AF07F1080300221A605A6057
:103AFC009A60DA603B4600221A605A601E4B4FF007
:103B0C0080421A601C4B48F6A0425A601A4B0022A5
:103B1C009A60194B40F2E732DA60174B00221A61B7
:103B2C00154B00229A61144804F0F5FA0346002B59
:103B3C0001D000F081FF4FF48053BB6007F1080304
:103B4C0019460D4804F078FC0346002B01D000F018
:103B5C0073FF00233B6000237B603B4619460648FD
:103B6C0004F05AFE0346002B01D000F065FF00BFA5
:103B7C001837BD4680BD00BF8001002080B586B0DF
:103B8C0000AF07F1080300221A605A609A60DA60ED
:103B9C003B4600221A605A601D4B1E4A1A601C4B91
:103BAC0048F6A0425A601A4B00229A60184B40F219
:103BBC00E732DA60164B00221A61154B00229A612B
:103BCC00134804F0A8FA0346002B01D000F034FF90
:103BDC004FF48053BB6007F1080319460C4804F0FE
:103BEC002BFC0346002B01D000F026FF00233B608A
:103BFC0000237B603B461946054804F00DFE034646
:103C0C00002B01D000F018FF00BF1837BD4680BD57
:103C1C00C80100200004004080B500AF114B124ACF
:103C2C001A60104B4FF416525A600E4B00229A60D9
:103C3C000C4B0022DA600B4B00221A61094B0C2250
:103C4C005A61084B00229A61064B0022DA61054842
:103C5C0004F052FE0346002B01D000F0EDFE00BF35
:103C6C0080BD00BF100200200038014080B582B03A
:103C7C0000AF0C4B5B690B4A43F001035361094BDA
:103C8C005B6903F001037B607B68002200210F203D
:103C9C0002F085F90F2002F09EF900BF0837BD46EF
:103CAC0080BD00BF0010024080B588B000AF07F1A6
:103CBC00100300221A605A609A60DA60664B9B69A6
:103CCC00654A43F010039361634B9B6903F0100347
:103CDC00FB60FB68604B9B695F4A43F02003936178
:103CEC005D4B9B6903F02003BB60BB685A4B9B691F
:103CFC00594A43F004039361574B9B6903F0040347
:103D0C007B607B68544B9B69534A43F00803936177
:103D1C00514B9B6903F008033B603B6800224FF456
:103D2C0060414E4802F0B3FF012210214C4802F0D2
:103D3C00AEFF002232214B4802F0A9FF01224FF4C2
:103D4C008051484802F0A3FF00224FF48071444890
:103D5C0002F09DFF4FF460433B6101237B61002324
:103D6C00BB610223FB6107F1100319463B4802F0CB
:103D7C00F3FD04233B6100237B610123BB6107F14D
:103D8C0010031946364802F0E7FD10233B6101236E
:103D9C007B610023BB610323FB6107F11003194610
:103DAC002F4802F0D9FD01233B612F4B7B6100238F
:103DBC00BB6107F1100319462A4802F0CDFD3223EE
:103DCC003B6101237B610023BB610223FB6107F193
:103DDC0010031946234802F0BFFD4FF480533B619A
:103DEC0001237B610023BB610323FB6107F11003FB
:103DFC0019461C4802F0B0FD4FF480733B6101235F
:103E0C007B610023BB610223FB6107F110031946A0
:103E1C00134802F0A1FD40233B61134B7B6101234E
:103E2C00BB6107F1100319460E4802F095FD002204
:103E3C000121062002F0B3F8062002F0CCF8002293
:103E4C000721172002F0ABF8172002F0C4F800BFCE
:103E5C002037BD4680BD00BF00100240001001405D
:103E6C0000080140000C01400000211080B584B016
:103E7C0000AF786039607B681B783B723B681B0E27
:103E8C00DBB27B723B681B0CDBB2BB723B681B0A60
:103E9C00DBB2FB723B68DBB23B730D237B730A23F3
:103EAC00BB7307F10803072219460020FCF716FF25
:103EBC0000BF1037BD4680BD80B584B000AF7860C0
:103ECC000B46FB707B681B783B73FB787B730D2375
:103EDC00BB730A23FB7307F10C0304221946002061
:103EEC00FCF7FCFE00BF1037BD4680BD2DE9F0434A
:103EFC0085B000AF786039606B461E463868FCF7B9
:103F0C001FF90346D91C0B46013BFB600023884676
:103F1C0099464FF000024FF000034FEAC90343EA01
:103F2C0058734FEAC80200230C461D464FF000029E
:103F3C004FF00003EB0043EA5473E200CB1DDB08A7
:103F4C00DB00ADEB030D6B460033BB607968B868E2
:103F5C0005F03AFD3968B86805F002FDB868FCF761
:103F6C00EFF803461A46BB6813440A4A1188927844
:103F7C0019809A70B868FCF7E3F803469BB21A46AE
:103F8C00B9680020FCF7AAFEB54600BF1437BD4641
:103F9C00BDE8F0834C9A000880B58AB000AF786019
:103FAC0039607B681B783B72002387F8273010E060
:103FBC0097F827303A681A4497F82730013312786B
:103FCC0028333B4403F8202C97F82730013387F82B
:103FDC00273097F82730192BEAD90D2387F823308F
:103FEC000A2387F8243007F108031D221946002004
:103FFC00FCF774FE00BF2837BD4680BD84B02DE9A8
:10400C00F04387B000AF786007F13C0080E80E0009
:10401C006B461E462023FB75F97D0B46013B3B612D
:10402C00CBB20022984691464FF000024FF00003AD
:10403C004FEAC90343EA58734FEAC802CBB20022D5
:10404C001C4615464FF000024FF00003EB0043EA0C
:10405C005473E2000B460733DB08DB00ADEB030DBA
:10406C006B460033FB607B681A78FB681A70FB6840
:10407C0002225A703B6C1B0EDAB2FB689A703B6CD6
:10408C001B0CDAB2FB68DA703B6C1B0ADAB2FB6809
:10409C001A713B6CDAB2FB685A7197F84420FB68D2
:1040AC009A7197F84520FB68DA7197F84620FB68FF
:1040BC001A7297F84720FB685A7297F84820FB68E9
:1040CC009A7297F84920FB68DA7297F84A20FB68D5
:1040DC001A7397F84B20FB685A7397F84F20FB68BC
:1040EC009A7397F84E20FB68DA73B7F84C301B0ABA
:1040FC009BB2DAB2FB681A74B7F84C30DAB2FB68D0
:10410C005A7497F85020FB689A7497F85120FB6802
:10411C00DA7497F85520FB681A7597F85420FB68E9
:10412C005A75B7F852301B0A9BB2DAB2FB689A7513
:10413C00B7F85230DAB2FB68DA7597F85620FB689C
:10414C001A7697F85720FB685A76FB680D229A76F8
:10415C00FB680A22DA761C22F9680020FCF7BEFD07
:10416C00B54600BF1C37BD46BDE8F04304B07047F0
:10417C0080B584B000AF78600B46FB707B681B7811
:10418C003B73FB787B730D23BB730A23FB730122F8
:10419C004FF480710A4802F07AFD07F10C014FF4DC
:1041AC00FA730422074804F0F7FB00224FF48071E5
:1041BC00034802F06CFD00BF1037BD4680BD00BF48
:1041CC0000080140100200202DE9B04F96B000AF5E
:1041DC0002F032FA5849594802F016FB584B1B783A
:1041EC00DBB200221C46154622462B4655490220BE
:1041FC0002F0B2F9544B1B78DBB200229846914680
:10420C0042464B465149022002F0A6F9504B1B780E
:10421C00DBB200229A46934652465B464D49022039
:10422C0002F09AF94C4B1B78DBB200223B657A65A5
:10423C00D7E914234949022002F08EF9484B1B8818
:10424C009BB20022BB64FA64D7E9122345490220D1
:10425C0002F082F9444B1B78DBB200223B647A6497
:10426C00D7E910234149022002F076F9404B1B7824
:10427C00DBB20022BB63FA63D7E90E233D4902206F
:10428C0002F06AF93C4B1B78DBB200223B637A6389
:10429C00D7E90C233949022002F05EF9384B1B7820
:1042AC00DBB20022BB62FA62D7E90A23354902204D
:1042BC0002F052F9344B1B889BB200223B627A62AB
:1042CC00D7E908233149022002F046F9304B1B781C
:1042DC00DBB20022BB61FA61D7E906232D4902202B
:1042EC0002F03AF92C4B1B78DBB200223B617A616D
:1042FC00D7E904232949022002F02EF9284B1B6828
:10430C000022BB60FA60D7E902232649022002F0A2
:10431C0023F9254B1B6800223B607A60D7E9002308
:10432C002249022002F018F902F0ACF900BF58370C
:10433C00BD46BDE8B08F00BF880500208C00002072
:10434C001C05002000FC00081D05002004FC0008D2
:10435C001E05002008FC00081F0500200CFC0008AE
:10436C008405002010FC00082005002014FC000827
:10437C002105002018FC0008220500201CFC000868
:10438C002305002020FC00088205002024FC0008E6
:10439C001005002028FC0008420500202CFC000819
:1043AC00A806002030FC0008AC06002034FC0008F5
:1043BC00B0B590B000AFF860B9607A600123FB63D0
:1043CC00BB68BB632EE0FA6BBB6B13445B087B636F
:1043DC007B6B013B18097B6B013BDBB203F00F03DA
:1043EC00DBB25B01D9B207F114032022FDF760FBAD
:1043FC00BB697A689A420AD1FB681D4607F114041E
:10440C000FCC0FC594E80F0085E80F001AE0BB69CC
:10441C007A689A4203D97B6B0133FB6302E07B6BB6
:10442C00013BBB63FA6BBB6B9A42CCD900237B611B
:10443C00FB681D4607F114040FCC0FC594E80F0060
:10444C0085E80F00F8684037BD46B0BD90B587B021
:10445C0000AFF860B9607A600023FB752BE0002395
:10446C00BB7522E0FB7DFA6813441B781A46BB7DB2
:10447C0042FA03F303F00103002B13D0FB7DDA00A7
:10448C00BB7D13441A46BB68134401221A70FB7D92
:10449C00DA00BB7D13449B007A68D41800F08EFDC3
:1044AC0003462360BB7D0133BB75BB7D072BD9D97C
:1044BC00FB7D0133FB75FB7D072BD0D900BF00BF03
:1044CC001C37BD4690BD80B487B000AF78603960B2
:1044DC000023FB7500233B611AE03B697A681344A7
:1044EC001B78DB09FB733B697A6813441B785BB25E
:1044FC005B005AB297F91730134359B23B693A68CB
:10450C001344CAB21A70FB7BFB753B6901333B61E8
:10451C003B69072BE1DD00BF00BF1C37BD4680BCEB
:10452C00704780B588B000AFF860B9607A603B60C6
:10453C0007F1100300221A605A60FB6A1B7897F887
:10454C0028209A4248D90023FB7740E00023BB7710
:10455C0031E0FB7FDA00BB7F13449B00BA68134445
:10456C001B68002B1FD1FB7F3A6813441B781A463B
:10457C00BB7F42FA03F303F00103002B09D0FB7F4E
:10458C00DA00BB7F13441A46FB68134401221A70ED
:10459C000EE0FB7FDA00BB7F13441A46FB68134422
:1045AC0000221A7004E0FB6A97F828201A7005E0C4
:1045BC00BB7F0133BB77BB7F072BCAD9FB6A1B7848
:1045CC0097F828209A4206D0FB7F0133FB77FB7FBC
:1045DC00072BBBD900E000BFFB6A1B7897F828209B
:1045EC009A4248D800237B7742E000233B7739E09E
:1045FC007B7F3A6813441B781A463B7F42FA03F3DD
:10460C0003F00103002B21D000F0D8FC01467B7F86
:10461C00DA003B7F13449B00BA6813441B68CB1A27
:10462C0083EAE372A2EBE37297F828304FF47A71C5
:10463C0001FB03F39A4209DD7B7FDA003B7F1344D5
:10464C001A46FB68134401221A7008E07B7FDA00DB
:10465C003B7F13441A46FB68134400221A703B7FBD
:10466C0001333B773B7F072BC2D97B7F01337B77B1
:10467C007B7F072BB9D90023FB7626E00023BB7682
:10468C001DE0FB7E20333B4413F8103C5AB2FB7EFA
:10469C00D900BB7E0B441946FB680B441B781946AA
:1046AC00BB7E01FA03F35BB213435AB2FB7ED2B268
:1046BC0020333B4403F8102CBB7E0133BB76BB7E0E
:1046CC00072BDED9FB7E0133FB76FB7E072BD5D97E
:1046DC0007F1100379681846FFF7F5FE00BF203785
:1046EC00BD4680BD80B584B000AF0346FB71FB793D
:1046FC009B000133DB0003F540731846FBF728FDE4
:10470C000346FB7300F05AFC0346384A1360FB7BEC
:10471C001C2B04D0FCF7B3FF0346002B15D1002251
:10472C004FF48041324802F0B2FA00F047FC0346E5
:10473C00304A1360FB791846FCF76EF92B4B1B685B
:10474C00A3F59C53083B294A1360FCF798FF0346DA
:10475C00012B26D1FB7B002B23D100224FF480416F
:10476C00234802F094FA244B1A88F879202301216B
:10477C00FCF73EF800F022FC03461E4A13601F4B68
:10478C001A88FB791E491846FCF7C0F91D4B1B68AB
:10479C0001331C4A1360154B1B68A3F57A63134A4B
:1047AC001360FB799B000133DB0003F54073184663
:1047BC00FBF7CEFC0346FB73FB7B172B05D10122C9
:1047CC004FF480410A4802F062FAFB799B000133F6
:1047DC00DB0003F540731846FBF7BAFC0346FB738A
:1047EC00FB7B18461037BD4680BD00BFB0060020CD
:1047FC0000100140BC06002084050020820500202A
:10480C000C050020D006002080B58CB000AF03460C
:10481C00FB71FB79002B0BD12C4B1E225A602B4BBE
:10482C004FF4E0221A61294B4FF400125A611CE03C
:10483C00FB79012B0BD1254B28225A60234B4FF4CB
:10484C0030221A61214B4FF480025A610DE0FB7942
:10485C00022B0AD11D4B3C225A601C4B4FF4702288
:10486C001A611A4B4FF4C0025A61184B0122DA76C6
:10487C00164B4FF00072DA60144800F0EBFB01238A
:10488C00BB620023FB610023BB614FF46843BB6038
:10489C000023FB600E4B3B6106237B6100233B62D4
:1048AC0001237B620D23FB6207F1080319460748BD
:1048BC0000F0CBFC054800F091FD0221034801F00B
:1048CC0039F800BF3037BD4680BD00BF9C000020CA
:1048DC00E0FF010080B483B000AF0346FB80FB888F
:1048EC00144AA2FB0312D2094FF4C87101FB02F265
:1048FC009B1A9BB2002B01D1012316E0FB880D4AB9
:10490C00A2FB03125209642101FB02F29B1A9BB217
:10491C00002B01D1002308E0FB8803F003039BB2BA
:10492C00002B01D1012300E0002318460C37BD46B3
:10493C0080BC70471F85EB5190B585B000AF044625
:10494C00084611461A462346FB8003467B710B46EC
:10495C003B711346FB700023FB60FB8840F2E37253
:10496C0093421BD940F2E473BB6012E0BB689BB26C
:10497C001846FFF7AFFF034603F26D134FF4B46212
:10498C0002FB03F31A46FB681344FB60BB6801335C
:10499C00BB60FB88BA689A42E8D301E0002345E08B
:1049AC007B79002B27D07B790C2B24D80023BB6080
:1049BC001CE0204ABB6852F823304FF4B46202FB6F
:1049CC0003F31A46FB681344FB60BB68012B0AD146
:1049DC00FB881846FFF77EFF0346002B03D0FB68CD
:1049EC0003F5B463FB60BB680133BB607B79BA68C9
:1049FC009A42DED301E0002318E03B79013B1A46D2
:104A0C004FF4B46302FB03F3FA681344FB60FA78C7
:104A1C0013461B019B1A9B001A46FB681344FB6050
:104A2C0097F82030FA681344FB60FB68184614377B
:104A3C00BD4690BD509A000880B400AF72B600BF5E
:104A4C0000BFFDE780B485B000AF154B9B69144ADD
:104A5C0043F001039361124B9B6903F00103BB60AC
:104A6C00BB680F4BDB690E4A43F08053D3610C4B90
:104A7C00DB6903F080537B607B680A4B5B68FB60EF
:104A8C00FB6823F0E063FB60FB6843F00073FB60A2
:104A9C00044AFB68536000BF1437BD4680BC7047A6
:104AAC00001002400000014080B588B000AF786073
:104ABC0007F1100300221A605A609A60DA607B6872
:104ACC001B68204A934239D11F4BDB691E4A43F0C5
:104ADC000073D3611C4BDB6903F00073FB60FB6854
:104AEC00194B9B69184A43F004039361164B9B695D
:104AFC0003F00403BB60BB684FF400633B6100230D
:104B0C007B610023BB6107F1100319460F4801F0CC
:104B1C0023FF4FF480533B6102237B610323FB6132
:104B2C0007F110031946094801F016FF0022032172
:104B3C00142001F034FA142001F04DFA00BF203794
:104B4C00BD4680BD006400400010024000080140DA
:104B5C0080B58AB000AF786007F1180300221A60A4
:104B6C005A609A60DA607B681B68374A934230D18E
:104B7C00364B9B69354A43F480539361334B9B69A5
:104B8C0003F480537B617B69304B9B692F4A43F064
:104B9C00040393612D4B9B6903F004033B613B6958
:104BAC00A023BB610223FB6103237B6207F1180383
:104BBC001946274801F0D0FE4023BB610023FB615E
:104BCC0000233B6207F118031946214801F0C4FE8B
:104BDC0036E07B681B681F4A934231D11B4BDB6963
:104BEC001A4A43F48043D361184BDB6903F48043C6
:104BFC00FB60FB68154B9B69144A43F008039361F7
:104C0C00124B9B6903F00803BB60BB684FF4204355
:104C1C00BB610223FB6103237B6207F11803194676
:104C2C000D4801F099FE4FF48043BB610023FB61FA
:104C3C0000233B6207F118031946074801F08CFE6C
:104C4C0000BF2837BD4680BD003001400010024037
:104C5C000008014000380040000C014080B584B0D1
:104C6C0000AF78607B681B68B3F1804F14D1194B8F
:104C7C00DB69184A43F00103D361164BDB6903F07F
:104C8C000103FB60FB68002204211C2001F087F962
:104C9C001C2001F0A0F918E07B681B680E4A9342B7
:104CAC0013D10C4BDB690B4A43F00203D361094B64
:104CBC00DB6903F00203BB60BB68002205211D20E9
:104CCC0001F06DF91D2001F086F900BF1037BD46CB
:104CDC0080BD00BF001002400004004080B588B0C9
:104CEC0000AF786007F1100300221A605A609A60D6
:104CFC00DA607B681B68334A93425FD1324B9B6905
:104D0C00314A43F4804393612F4B9B6903F48043F6
:104D1C00FB60FB682C4B9B692B4A43F004039361AB
:104D2C00294B9B6903F00403BB60BB684FF4007311
:104D3C003B6102237B610323FB6107F110031946DE
:104D4C00224801F009FE4FF480633B6100237B6134
:104D5C000023BB6107F1100319461C4801F0FCFD50
:104D6C001B4B1C4A1A601A4B00225A60184B00222B
:104D7C009A60174B8022DA60154B00221A61144B93
:104D8C0000225A61124B00229A61114B0022DA6107
:104D9C000F4801F03FF90346002B01D0FFF74CFE02
:104DAC007B680B4ADA630A4A7B6853620022022151
:104DBC00252001F0F4F8252001F00DF900BF203773
:104DCC00BD4680BD00380140001002400008014083
:104DDC00580200205800024080B400AF00BFFDE72D
:104DEC0080B400AF00BFFDE780B400AF00BFFDE7AB
:104DFC0080B400AF00BFFDE780B400AF00BFFDE79B
:104E0C0080B400AF00BFBD4680BC704780B400AF1B
:104E1C0000BFBD4680BC704780B400AF00BFBD462C
:104E2C0080BC704780B500AF00F0B6F800BF80BD05
:104E3C0080B500AF012001F05BFF00BF80BD00001A
:104E4C0080B500AF024801F053FA00BF80BD00BF2F
:104E5C005802002080B500AF024800F090FD00BF62
:104E6C0080BD00BF9C00002080B500AF402001F049
:104E7C003FFF00BF80BD000080B500AF024803F0CB
:104E8C00EBF900BF80BD00BF8001002080B500AFF2
:104E9C00024803F0E1F900BF80BD00BFC80100204B
:104EAC0080B500AF024803F05BFE00BF80BD00BFC1
:104EBC001002002080B400AF00BFBD4680BC70471C
:104ECC00FFF7F8FF0B480C490C4A002302E0D458BA
:104EDC00C4500433C4188C42F9D3094A094C00233A
:104EEC0001E013600432A242FBD304F049FDFDF74C
:104EFC0075F970470000002044000020BC9A00089F
:104F0C0048000020F8070020FEE7000080B500AF45
:104F1C00084B1B68074A43F010031360032001F091
:104F2C0033F8062000F008F8FFF78CFD0023184634
:104F3C0080BD00BF0020024080B582B000AF786019
:104F4C00124B1A68124B1B7819464FF47A73B3FB49
:104F5C00F1F3B2FBF3F3184601F04FF80346002BC4
:104F6C0001D001230EE07B680F2B0AD80022796850
:104F7C004FF0FF3001F013F8064A7B6813600023F2
:104F8C0000E0012318460837BD4680BD38000020DC
:104F9C00400000203C00002080B400AF054B1B7883
:104FAC001A46054B1B681344034A136000BFBD46E9
:104FBC0080BC704740000020D407002080B400AFB4
:104FCC00024B1B681846BD4680BC7047D4070020B6
:104FDC0080B584B000AF7860FFF7F0FFB8607B68F5
:104FEC00FB60FB68B3F1FF3F05D00A4B1B781A46F8
:104FFC00FB681344FB6000BFFFF7E0FF0246BB6891
:10500C00D31AFA689A42F7D800BF00BF1037BD46D2
:10501C0080BD00BF4000002080B400AF024B1B6875
:10502C001846BD4680BC7047E8F7FF1F80B400AF40
:10503C00024B1B681846BD4680BC7047ECF7FF1F3F
:10504C0080B400AF024B1B681846BD4680BC70474D
:10505C00F0F7FF1F80B584B000AF78607B68002B41
:10506C0001D10123EDE07B6893F82030DBB2002BFB
:10507C0002D17868FFF718FD7B681B681A687B689B
:10508C001B6842F001021A60FFF798FFF86012E00B
:10509C00FFF794FF0246FB68D31A0A2B0BD97B68E7
:1050AC005B6A43F400327B685A627B68052283F8A2
:1050BC0020200123C5E07B681B685B6803F00103BB
:1050CC00002BE5D07B681B681A687B681B6822F094
:1050DC0002021A60FFF772FFF86012E0FFF76EFF32
:1050EC000246FB68D31A0A2B0BD97B685B6A43F424
:1050FC0000327B685A627B68052283F820200123EA
:10510C009FE07B681B685B6803F00203002BE5D112
:10511C007B681B7E012B08D17B681B681A687B6837
:10512C001B6842F080021A6007E07B681B681A68F3
:10513C007B681B6822F080021A607B685B7E012B07
:10514C0008D17B681B681A687B681B6842F04002B8
:10515C001A6007E07B681B681A687B681B6822F082
:10516C0040021A607B689B7E012B08D17B681B6810
:10517C001A687B681B6842F020021A6007E07B68A3
:10518C001B681A687B681B6822F020021A607B6817
:10519C00DB7E012B08D17B681B681A687B681B6857
:1051AC0022F010021A6007E07B681B681A687B68A3
:1051BC001B6842F010021A607B681B7F012B08D120
:1051CC007B681B681A687B681B6842F008021A60CF
:1051DC0007E07B681B681A687B681B6822F0080272
:1051EC001A607B685B7F012B08D17B681B681A688F
:1051FC007B681B6842F004021A6007E07B681B683E
:10520C001A687B681B6822F004021A607B689A6833
:10521C007B68DB681A437B681B691A437B685B6994
:10522C0042EA03017B685B685A1E7B681B680A4371
:10523C00DA617B6800225A627B68012283F82020A5
:10524C00002318461037BD4680BD80B487B000AF30
:10525C00786039607B681B687B617B6893F82030D1
:10526C00FB74FB7C012B03D0FB7C022B40F0AA804F
:10527C007B69D3F8003243F001027B69C3F800224A
:10528C003B685B6903F01F03012202FA03F3FB6026
:10529C007B69D3F81C22FB68DB431A407B69C3F89B
:1052AC001C223B68DB69002B23D17B69D3F80C22D1
:1052BC00FB68DB431A407B69C3F80C223B68DB6854
:1052CC0019043B685B689BB23A68526919437B6965
:1052DC00483243F832103B689B6819043B681B68E2
:1052EC009AB23B685B690A4379694833DB000B442B
:1052FC005A603B68DB69012B22D17B69D3F80C2205
:10530C00FB681A437B69C3F80C223B681B681904C1
:10531C003B685B689BB23A68526919437B694832B7
:10532C0043F832103B689B6819043B68DB689AB2FF
:10533C003B685B690A4379694833DB000B445A606C
:10534C003B689B69002B09D17B69D3F80422FB686D
:10535C00DB431A407B69C3F8042207E07B69D3F86E
:10536C000422FB681A437B69C3F804223B681B695F
:10537C00002B09D17B69D3F81422FB68DB431A405C
:10538C007B69C3F8142207E07B69D3F81422FB680D
:10539C001A437B69C3F814223B681B6A012B07D1A3
:1053AC007B69D3F81C22FB681A437B69C3F81C2267
:1053BC007B69D3F8003223F001027B69C3F8002229
:1053CC00002306E07B685B6A43F480227B685A62A8
:1053DC00012318461C37BD4680BC704780B584B08D
:1053EC0000AF78607B6893F82030DBB2012B2ED1B4
:1053FC007B68022283F820207B681B681A687B6814
:10540C001B6822F001021A60FFF7D8FDF86012E069
:10541C00FFF7D4FD0246FB68D31A0A2B0BD97B6825
:10542C005B6A43F400327B685A627B68052283F81E
:10543C002020012312E07B681B685B6803F00103EA
:10544C00002BE5D17B6800225A62002306E07B68C2
:10545C005B6A43F400227B685A62012318461037BA
:10546C00BD4680BD80B489B000AFF860B9607A6089
:10547C003B60FB6893F82030FB77FB681B689B68EC
:10548C00BB61FB7F012B03D0FB7F022B40F0AD8077
:10549C00BB6903F08063002B0AD1BB6903F0006386
:1054AC00002B05D1BB6903F08053002B00F09580D5
:1054BC00BB691B0E03F003037B6101227B699A40DD
:1054CC003B681A60BB689B68002B0DD1BB681B68DE
:1054DC005A05BB68DB68F96809681A437B6918339D
:1054EC001B010B441A600FE0BB685B68DA00BB68F9
:1054FC009B681A43BB68DB68F96809681A437B69C7
:10550C0018331B010B441A60FB681968BB681A69D5
:10551C007B6918331B010B4404331A60BB681B7D79
:10552C00012B11D1FB681A687B6918331B011344DA
:10553C0004331B68FA68116843F480727B69183372
:10554C001B010B4404331A607B6807331B781A0663
:10555C007B6806331B781B041A437B6805331B7866
:10556C001B0213437A68043212781046FA681168E9
:10557C0043EA00027B691B010B4403F5C6731A60F6
:10558C007B6803331B781A067B6802331B781B0479
:10559C001A437B6801331B781B0213437A68127819
:1055AC001046FA68116843EA00027B691B010B4440
:1055BC0003F5C4731A60FB681A687B6918331B0106
:1055CC0013441B68FA68116843F001027B691833B5
:1055DC001B010B441A6000230EE0FB685B6A43F46A
:1055EC000012FB685A62012306E0FB685B6A43F415
:1055FC008022FB685A62012318462437BD4680BCC2
:10560C00704780B485B000AF786039607B6893F8E0
:10561C002030FB73FB7B012B02D0FB7B022B28D1B0
:10562C003B6803F00103002B07D07B681B689A686A
:10563C007B681B6842F080029A603B6803F00203AF
:10564C00002B07D07B681B689A687B681B6842F448
:10565C0000429A603B6803F00403002B07D07B6880
:10566C001B689A687B681B6842F400029A600023EE
:10567C0006E07B685B6A43F480227B685A620123F4
:10568C0018461437BD4680BC704780B485B000AF57
:10569C0078600023FB607B6893F82030FB72FB7A08
:1056AC00012B02D0FB7A022B1DD17B681B689B68F7
:1056BC0003F08063002B02D0FB680133FB607B6836
:1056CC001B689B6803F00063002B02D0FB6801335E
:1056DC00FB607B681B689B6803F08053002B02D037
:1056EC00FB680133FB60FB6818461437BD4680BC71
:1056FC00704780B487B000AFF860B9607A603B60E7
:10570C00FB6893F82030FB75FB7D012B03D0FB7DF0
:10571C00022B40F00381BB68002B0ED1FB681B6889
:10572C00DB6803F00303002B16D1FB685B6A43F4C0
:10573C000012FB685A620123F7E0FB681B681B69C7
:10574C0003F00303002B07D1FB685B6A43F40012E0
:10575C00FB685A620123E8E0FB681A68BB681B33DC
:10576C001B0113441B6803F004027B689A607B687E
:10577C009B68002B0CD1FB681A68BB681B331B01A0
:10578C0013441B685B0DC3F30A027B681A600BE0C1
:10579C00FB681A68BB681B331B0113441B68DB08CE
:1057AC0023F060427B685A60FB681A68BB681B3345
:1057BC001B0113441B6803F002027B68DA60FB6870
:1057CC001A68BB681B331B01134404331B6803F0BA
:1057DC000803002B03D07B6808221A610BE0FB68DE
:1057EC001A68BB681B331B01134404331B6803F09A
:1057FC000F027B681A61FB681A68BB681B331B01BC
:10580C00134404331B681B0ADAB27B689A61FB6889
:10581C001A68BB681B331B01134404331B681B0C35
:10582C009AB27B685A61FB681A68BB681B01134407
:10583C0003F5DC731B68DAB23B681A70FB681A68F4
:10584C00BB681B01134403F5DC731B681A0A3B6825
:10585C000133D2B21A70FB681A68BB681B0113447F
:10586C0003F5DC731B681A0C3B680233D2B21A7056
:10587C00FB681A68BB681B01134403F5DC731B68D7
:10588C001A0E3B680333D2B21A70FB681A68BB68F5
:10589C001B01134403F5DE731A683B680433D2B260
:1058AC001A70FB681A68BB681B01134403F5DE739E
:1058BC001B681A0A3B680533D2B21A70FB681A6867
:1058CC00BB681B01134403F5DE731B681A0C3B68A1
:1058DC000633D2B21A70FB681A68BB681B011344FA
:1058EC0003F5DE731B681A0E3B680733D2B21A70CD
:1058FC00BB68002B08D1FB681B68DA68FB681B6867
:10590C0042F02002DA6007E0FB681B681A69FB684A
:10591C001B6842F020021A61002306E0FB685B6AF8
:10592C0043F48022FB685A62012318461C37BD469B
:10593C0080BC704780B485B000AF786039607B68FC
:10594C0093F82030FB73FB7B012B02D0FB7B022BEB
:10595C0009D17B681B6859697B681B683A680A43E4
:10596C005A61002306E07B685B6A43F480227B6803
:10597C005A62012318461437BD4680BC704780B567
:10598C008AB000AF786000237B627B681B685B6920
:10599C003B627B681B685B68FB617B681B689B6870
:1059AC00BB617B681B68DB687B617B681B681B6960
:1059BC003B617B681B689B69FB603B6A03F00103DE
:1059CC00002B7CD0BB6903F00103002B23D07B6838
:1059DC001B6801229A60BB6903F00203002B03D001
:1059EC00786800F083F916E0BB6903F00403002B20
:1059FC0004D07B6A43F400637B620CE0BB6903F068
:105A0C000803002B04D07B6A43F480537B6202E0D2
:105A1C00786800F086F9BB6903F48073002B24D0FE
:105A2C007B681B684FF480729A60BB6903F4007347
:105A3C00002B03D0786800F062F916E0BB6903F420
:105A4C008063002B04D07B6A43F400537B620CE030
:105A5C00BB6903F40063002B04D07B6A43F48043DE
:105A6C007B6202E0786800F065F9BB6903F480336F
:105A7C00002B24D07B681B684FF480329A60BB6982
:105A8C0003F40033002B03D0786800F041F916E0E2
:105A9C00BB6903F48023002B04D07B6A43F40043DE
:105AAC007B620CE0BB6903F40023002B04D07B6AFF
:105ABC0043F480337B6202E0786800F044F93B6A7F
:105ACC0003F00803002B0CD07B6903F01003002BB0
