:020000040800F2
:1000000000500020855100089D500008A5500008B0
:10001000AD500008B5500008BD50000800000000B9
:10002000000000000000000000000000C5500008B3
:10003000D150000800000000DD500008E950000821
:10004000CD510008CD510008CD510008CD51000818
:10005000CD510008CD510008F5500008CD510008E1
:10006000CD510008CD510008CD510008CD510008F8
:10007000CD510008CD510008CD51000805510008B0
:10008000CD510008CD510008CD510008CD510008D8
:1000900019510008CD510008CD5100082D5100081C
:1000A000CD510008CD510008CD510008CD510008B8
:1000B0003D51000851510008CD510008CD510008B4
:1000C000CD510008CD510008CD510008CD51000898
:1000D000CD51000865510008CD510008CD510008F0
:1000E000CD510008CD510008CD510008000000009E
:1000F0000000000000000000000000000000000000
:0C01000000000000000000005FF808F1A3
:10010C0010B5054C237833B9044B13B10448AFF345
:10011C0000800123237010BD480000200000000067
:10012C009C9C000808B5034B1BB103490348AFF373
:10013C00008008BD000000004C0000209C9C0008C2
:10014C00034613F8012B002AFBD1181A013870470B
:10015C0080B584B000AF7860224BDB689847214BA8
:10016C005B6998471F4B5B6A002B03D01D4B9B6A46
:10017C00002B14D11B4B1B6A7A68120CD2B210469E
:10018C009847184B1B6A7A68120AD2B210469847E5
:10019C00144B1B6A7A68D2B21046984711E07B6800
:1001AC001B0CDBB23B737B681B0ADBB27B737B687B
:1001BC00DBB2BB730B4B9B6A07F10C02032110469D
:1001CC009847084BDB6998470346FB73054B9B69C3
:1001DC009847044B1B699847FB7B18461037BD4664
:1001EC0080BD00BF0400002080B584B000AF7860F3
:1001FC000B46FB70224BDB689847214B5B69984799
:10020C007B6843F004037B601D4B9B6A002B19D168
:10021C001B4B1B6A7A68120CD2B210469847184BCB
:10022C001B6A7A68120AD2B210469847144B1B6AA2
:10023C007A68D2B210469847114B1B6AFA7810466E
:10024C00984713E07B681B0CDBB23B737B681B0A83
:10025C00DBB27B737B68DBB2BB73FB78FB73084B45
:10026C009B6A07F10C02042110469847044B9B69CA
:10027C009847034B1B69984700BF1037BD4680BD9C
:10028C000400002090B587B000AFF860B960134649
:10029C00FB802B4BDB689847294B5B699847284BB5
:1002AC005B6A002B03D0264B9B6A002B26D1244B78
:1002BC001B6AFA68120CD2B210469847204B1B6A84
:1002CC00FA68120AD2B2104698471D4B1B6AFA689C
:1002DC00D2B2104698470023FB820AE0184BDB6928
:1002EC00FA8AB9688C18984703462370FB8A013345
:1002FC00FB82FA8AFB889A42F0D317E0FB681B0C4E
:10030C00DBB23B74FB681B0ADBB27B74FB68DBB2B1
:10031C00BB740B4B9B6A07F11002032110469847E4
:10032C00074B5B6AFA881146B8689847044B9B697F
:10033C009847034B1B69984700BF1C37BD4690BDBF
:10034C000400002080B586B000AFF860B960134699
:10035C00FB802B4BDB689847294B5B699847FB6804
:10036C0043F00403FB60264B9B6A002B26D1244BE5
:10037C001B6AFA68120CD2B210469847204B1B6AC3
:10038C00FA68120AD2B2104698471D4B1B6AFA68DB
:10039C00D2B2104698470023FB820AE0184B1B6A26
:1003AC00FA8AB9680A44127810469847FB8A0133D6
:1003BC00FB82FA8AFB889A42F0D317E0FB681B0C8D
:1003CC00DBB23B74FB681B0ADBB27B74FB68DBB2F1
:1003DC00BB740B4B9B6A07F1100203211046984724
:1003EC00074B9B6AFA881146B8689847044B9B697F
:1003FC009847034B1B69984700BF1837BD4680BD13
:10040C000400002090B585B000AF0346FB710023BB
:10041C00FB810023BB81FB799B000133DB0003F5DF
:10042C0000531846FFF794FE0346BB81BB891B02A1
:10043C009CB2FB799B000133DB0003F50453184697
:10044C00FFF786FE03462344BB81BB89002B19D0E2
:10045C00FB799B000133DB0003F500531846FFF7D3
:10046C0077FE0346FB81FB891B029CB2FB799B0048
:10047C000133DB0003F504531846FFF769FE03460E
:10048C002344FB81FA89BB899A42C4D1FB89184663
:10049C001437BD4690BD90B585B000AF0346FB71D7
:1004AC000023FB810023BB81FB799B000133DB0024
:1004BC0003F518531846FFF74BFE0346BB81BB8967
:1004CC001B029CB2FB799B000133DB0003F51C5330
:1004DC001846FFF73DFE03462344BB81BB89002B26
:1004EC0019D0FB799B000133DB0003F51853184638
:1004FC00FFF72EFE0346FB81FB891B029CB2FB79A6
:10050C009B000133DB0003F51C531846FFF720FE5C
:10051C0003462344FB81FA89BB899A42C4D1FB89E7
:10052C0018461437BD4690BD90B585B000AF034654
:10053C003960FB711346BB800023FB810023BB6039
:10054C00BB88002B46D0FB799B000133DB0003F505
:10055C0010531846FFF7FCFD03461B029CB2FB79B7
:10056C009B000133DB0003F514531846FFF7F0FD35
:10057C0003462344FB81FB891A02FB799B0002335F
:10058C00DB001344BB60BB881A463968B868FFF7B8
:10059C00D9FEFA89BB881344FB81FB799B0001339C
:1005AC00DB0003F510531A46FB891B0A9BB2DBB226
:1005BC0019461046FFF718FEFB799B000133DB0050
:1005CC0003F514531A46FB89DBB219461046FFF7A4
:1005DC000BFE00E000BF1437BD4690BD90B585B052
:1005EC0000AF03463960FB711346BB800023FB81CF
:1005FC000023BB60BB88002B46D0FB799B000133EA
:10060C00DB0003F520531846FFF7A2FD03461B023F
:10061C009CB2FB799B000133DB0003F52453184695
:10062C00FFF796FD03462344FB81FB891A02FB79F5
:10063C009B000333DB001344BB60BB881A4639684C
:10064C00B868FFF71FFEFA89BB881344FB81FB795E
:10065C009B000133DB0003F520531A46FB891B0A70
:10066C009BB2DBB219461046FFF7BEFDFB799B002F
:10067C000133DB0003F524531A46FB89DBB2194620
:10068C001046FFF7B1FD00E000BF1437BD4690BD2A
:10069C0080B500AF00221021024806F054FC00BFC8
:1006AC0080BD00BF0008014080B500AF01221021C1
:1006BC00024806F048FC00BF80BD00BF00080140A6
:1006CC0080B582B000AFF91D4FF0FF330122044812
:1006DC0007F0B0FAFB7918460837BD4680BD00BF5D
:1006EC00D000002080B582B000AF0346FB71F91D2D
:1006FC004FF0FF330122034807F058F900BF0837C9
:10070C00BD4680BDD000002080B582B000AF7860BF
:10071C000B467B807A884FF0FF337968034807F0EB
:10072C0089FA00BF0837BD4680BD00BFD00000204D
:10073C0080B582B000AF78600B467B807A884FF032
:10074C00FF337968034807F031F900BF0837BD461D
:10075C0080BD00BFD000002090B587B000AFFF2354
:10076C00FB751A4B3C1D0FCB84E80F0001221021A6
:10077C00174806F0E8FB00220221164806F0E3FBBE
:10078C0000BFFB7D5A1EFA75002BFAD10122022103
:10079C00104806F0D8FB1049104800F0A5FC104991
:1007AC00104800F0C5FC1049104800F0EDFC3B1D52
:1007BC001946012000F014FD0346B3F1FF3F01D1AF
:1007CC0000BFFDE700BF1C37BD4690BDB49C0008C0
:1007DC0000080140000C0140B50600089D06000809
:1007EC00F1060008CD0600083D07000815070008B3
:1007FC0090B585B000AF0446084611461A4623460C
:10080C00FB710346BB710B46BB801346FB70FB7937
:10081C00082B02D94FF0FF33EFE0BB79012B05D049
:10082C00002B11DD023B022B0ED811E007F10C035B
:10083C00042219464FF47060FFF724FDFB68002B6F
:10084C0005D16FF00203D8E06FF00403D5E000BFD0
:10085C00FB7803F00403002B02D06FF00503CCE00F
:10086C00FB78002B28D0BB79012B02D0022B08D0AF
:10087C0022E0FB7803F02103002B1AD16FF0050363
:10088C00BBE0FB7803F02003002B06D097F9033074
:10089C00002B02DB6FF00503AFE0FB7803F01003D5
:1008AC00002B08D097F90330002B04DB6FF0050305
:1008BC00A3E000BF00E000BFFB79184600F0ACF8E5
:1008CC00FB799B000133D80097F9033023F00F0319
:1008DC005AB297F9063013435BB2DBB21946FFF7F5
:1008EC0083FCBB88002B10D1464B1B885A1C91B241
:1008FC00444A1180BB80434B1B884FF6F0729342E5
:10090C0003D1404B4FF440421A80FB799B000133DA
:10091C00DB0003F580631A46BB881B0A9BB2DBB273
:10092C0019461046FFF760FCFB799B000133DB0096
:10093C0003F5A0631A46BB88DBB219461046FFF7D5
:10094C0053FCFB799B000133DB0003F58073012121
:10095C001846FFF749FC00BFFB799B000133DB0015
:10096C0003F580731846FFF7F3FB0346002BF3D116
:10097C00FB79012202FA03F31BB2DB431AB2224BBE
:10098C001B881BB213401BB29AB21F4B1A80FB7808
:10099C0003F00102FB7902FA03F31AB21A4B1B881B
:1009AC001BB213431BB29AB2174B1A80FB7901226C
:1009BC0002FA03F31BB2DB431AB2144B1B881BB2B3
:1009CC0013401BB29AB2114B1A80FB79104A0021CA
:1009DC0022F81310FB790F4A0021D15400BFFB7988
:1009EC009B000133DB0003F540731846FFF7B0FBA7
:1009FC000346002BF3D097F9073018461437BD4641
:100A0C0090BD00BF000000206400002066000020A4
:100A1C00680000207C00002080B582B000AF034647
:100A2C00FB71FB79082B02D94FF0FF3360E0FB79A7
:100A3C009B000133DB0003F5807310211846FFF790
:100A4C00D3FB00BFFB799B000133DB0003F5807304
:100A5C001846FFF77DFB0346002BF3D1FB799B0077
:100A6C000133DB0003F500731F211846FFF7BCFBB5
:100A7C00FB79012202FA03F31BB2DB431AB21E4BC1
:100A8C001B881BB213401BB29AB21B4B1A80FB790A
:100A9C00012202FA03F31BB2DB431AB2174B1B8879
:100AAC001BB213401BB29AB2144B1A80FB79144A36
:100ABC00002122F81310FB79124A0021D1540AE0CC
:100ACC00114B1B78DBB2012B05D10F4B00221A7096
:100ADC006FF00C030CE0FB799B000133DB0003F59A
:100AEC0040731846FFF734FB0346002BE8D1012373
:100AFC0018460837BD4680BD640000206600002003
:100B0C00680000207C0000207800002080B584B0B4
:100B1C0000AF03463960FB711346BB80FB79082B91
:100B2C0002D94FF0FF33D1E0FB799B000133DB009E
:100B3C001846FFF70DFB034603F00F03012B02D001
:100B4C006FF00403C2E0FB799B000133DB0003F57B
:100B5C0040731846FFF7FCFA0346132B02D06FF0D4
:100B6C000203B3E03B681B78FB60FB681B023A682E
:100B7C00013212781344FB60FB681B023A680232A4
:100B8C0012781344FB60FB681B023A68033212783C
:100B9C001344FB60FB68B3F1FF3F02D0FB68002BF2
:100BAC0002D16FF00B0391E0BB88002B02D16FF0E8
:100BBC000A038BE0FB799B000133DB0003F54063F8
:100BCC00042239681846FFF7BDFBFB799B00013303
:100BDC00DB0003F580531A46BB881B0A9BB2DBB2C1
:100BEC0019461046FFF700FBFB799B000133DB0035
:100BFC0003F588531A46BB88DBB219461046FFF73B
:100C0C00F3FAFB799B000133DB0003F580730421BD
:100C1C001846FFF7E9FA00BFFB799B000133DB00B4
:100C2C0003F580731846FFF793FA0346002BF3D1B4
:100C3C00284B1B881A46FB7942FA03F303F0010395
:100C4C00002B36D0002341E0FB799B000133DB0005
:100C5C0003F500731846FFF77BFA034603F008030D
:100C6C00002B0CD0FB799B000133DB0003F50073E8
:100C7C0008211846FFF7B8FA6FF00C0326E0FB7951
:100C8C009B000133DB0003F540731846FFF760FA55
:100C9C000346002B02D16FF0030317E00E4B1B78B9
:100CAC00DBB2012B05D10C4B00221A706FF00C0338
:100CBC000CE0FB799B000133DB0003F54073184615
:100CCC00FFF746FA0346172BBED1012318461037FF
:100CDC00BD4680BD640000207800002080B584B043
:100CEC0000AF03463960FB711346BB800023FB73D6
:100CFC000023BB81FB79082B02D94FF0FF33DDE0D9
:100D0C00FB799B000133DB001846FFF721FA034601
:100D1C0003F00F03012B02D06FF00403CEE0BB886D
:100D2C00002B02D16FF00D03C8E0FB799B0001335F
:100D3C00DB0003F540731846FFF70AFA0346FB7312
:100D4C00FB7B172B05D0FB7B1C2B02D06FF0060313
:100D5C00B4E05C4B1B881A46FB7942FA03F303F0B0
:100D6C000103002B39D0FB799B000133DB0003F529
:100D7C0000731846FFF7ECF9034603F01F03FB73EF
:100D8C00FB7B03F01003002B19D0FB799B00013384
:100D9C00DB0003F5007310211846FFF725FAFB79E9
:100DAC00012202FA03F31BB2DB431AB2454B1B8838
:100DBC001BB213401BB29AB2424B1A800DE0FB7B64
:100DCC0003F00803002B06D0FB791846FFF724FE2E
:100DDC006FF00C0372E0002370E0FB799B00013391
:100DEC00DB0003F5F8531846FFF7B2F903469B02F4
:100DFC00BB81BA88BB899A4201D9BB89BB80FB797C
:100E0C001846FFF7FFFA0346BB81FB799B000133C1
:100E1C00DB0003F540731846FFF79AF90346FB73A2
:100E2C00FB7B172B09D0FB7B1C2B06D0FB791846C0
:100E3C00FFF7F2FD6FF0060340E0234B1B881A46C8
:100E4C00FB7942FA03F303F00103002B05D0BA88B7
:100E5C00BB899A4201D9002330E0BA88BB899A42F7
:100E6C0000D9CCE700BFBA88FB7939681846FFF780
:100E7C005BFBFB799B000133DB0003F580732021C6
:100E8C001846FFF7B1F900BFFB799B000133DB007B
:100E9C0003F580731846FFF75BF90346002BF3D17B
:100EAC00FB79012202FA03F31AB2064B1B881BB220
:100EBC0013431BB29AB2034B1A80BB8818461037E7
:100ECC00BD4680BD660000206400002090B585B052
:100EDC0000AF03463960FB711346BB800023FB73E4
:100EEC000023BB81FB79082B02D94FF0FF339BE029
:100EFC00FB799B000133DB001846FFF729F9034609
:100F0C0003F00F03012B02D06FF004038CE0BB88BD
:100F1C00002B02D16FF00D0386E0FB799B000133AF
:100F2C00DB0003F5F0531846FFF712F903469B025A
:100F3C00BB81BA89BB889A4201D2BB89BB80FB7941
:100F4C001846FFF7A8FA0346BB81FB799B000133D7
:100F5C00DB0003F540731846FFF7FAF80346FB7302
:100F6C00FB7B172B26D0FB7B1C2B1CD1BB89002BAE
:100F7C0033D1FB791846FFF745FA03461C46FB793B
:100F8C009B000133DB0003F5F8531846FFF7E0F83C
:100F9C0003469B029C420DD1FB791846FFF73CFDA2
:100FAC006FF0060340E0FB791846FFF735FD6FF054
:100FBC00060339E01E4B1B881A46FB7942FA03F3F1
:100FCC0003F00103002B04D0BB89002B01D10023BB
:100FDC002AE0BB89002B02D1B1E700BF00E000BFC3
:100FEC00BA89BB889A4201D2BB89BB80BA88FB798B
:100FFC0039681846FFF7F2FAFB799B000133DB00E6
:10100C0003F5807340211846FFF7EEF800BFFB791B
:10101C009B000133DB0003F580731846FFF798F84B
:10102C000346002BF3D1BB8818461437BD4690BD40
:10103C006400002080B400AF00BFBD4680BC704788
:10104C0080B400AF00BFBD4680BC704780B400AF19
:10105C0000BFBD4680BC704780B400AF00BFBD462A
:10106C0080BC704780B483B000AF78607B681B781D
:10107C00DBB218460C37BD4680BC704780B483B0D9
:10108C0000AF78600B46FB707B68FA781A7000BF73
:10109C000C37BD4680BC704780B400AF00231846A7
:1010AC00BD4680BC704780B483B000AF0346FB7173
:1010BC0000BF0C37BD4680BC704780B483B000AF16
:1010CC0078600B467B8000BF0C37BD4680BC7047F8
:1010DC0080B483B000AF78600B467B8000BF0C37C8
:1010EC00BD4680BC7047000080B483B000AF786010
:1010FC0039607B68002B02D03B68002B06D1094B72
:10110C00094A5A61074B094A9A6106E0054A7B680D
:10111C005361044A3B68936100BF00BF0C37BD4666
:10112C0080BC7047040000205910000865100008AE
:10113C0080B483B000AF7860396000BF0F4B1B8860
:10114C0003F40073002BF9D07B68002B02D03B68B2
:10115C00002B06D1094B0A4ADA61084B094A1A627C
:10116C0006E0064A7B68D361044A3B68136200BF01
:10117C0000BF0C37BD4680BC704700BF0400002088
:10118C00A5100008B310000880B483B000AF7860DD
:10119C00396000BF0F4B1B8803F40073002BF9D090
:1011AC007B68002B02D03B68002B06D1094B0A4A06
:1011BC005A62084B094A9A6206E0064A7B685362F7
:1011CC00044A3B68936200BF00BF0C37BD4680BC2D
:1011DC00704700BF04000020C7100008DD10000895
:1011EC0090B587B000AF03463960FB710023FB75E7
:1011FC000023FB6000233B61FB790F2B00F2C580C1
:10120C0001A252F823F000BF551200085B1200082F
:10121C00871200087B12000895120008A112000822
:10122C00AF120008D5120008F71200083B13000893
:10123C0041130008491300089D13000851130008BE
:10124C005F1300087B13000800F0AAF8A1E03B68CC
:10125C00002B04D03B68FB60FB6808333B61FB68E8
:10126C003A691146184600F0E7F8034692E03B68ED
:10127C001B88184600F06CF98BE000F09DF90346D2
:10128C001A463B681A8084E03B681B88184600F0BD
:10129C00B8F97EE000F0D0F903461A463B681A8094
:1012AC0077E03B681B881B0A9BB2DBB219464FF4F4
:1012BC009850FEF799FF3B681B88DBB219464FF438
:1012CC00A050FEF791FF64E04FF49850FEF740FFFA
:1012DC0003461B029CB24FF4A050FEF739FF0346A5
:1012EC0023449AB23B681A8053E02C4B9A783B68A3
:1012FC001A703B680133294AD2781A703B68023362
:10130C00264A12791A703B680333244A52791A70B0
:10131C003B680433214A92791A703B6805331F4AA3
:10132C00D2791A703B68063300221A7031E000F053
:10133C00D5F92EE0386800F0F8F92AE0386800F0AA
:10134C0037FA26E03B681B78184600F09BFA0346F8
:10135C0020E000F0AAF90346FB75FB7DFF2B02D1C0
:10136C004FF0FF3316E03B68FA7D1A7011E000F085
:10137C0086F90346FB75FB7DFF2B02D14FF0FF3343
:10138C0008E03B68FA7D1A7003E04FF0FF3301E090
:10139C0000BF002318461C37BD4690BD040000203A
:1013AC0080B586B000AF3B1D062219464FF4106085
:1013BC00FEF768FF07F11403042219464FF48070FE
:1013CC00FEF760FF07F11003042219464FF4A060EA
:1013DC00FEF758FF07F10C03042219464FF4706016
:1013EC00FEF750FF80210020FEF7FEFE0020FEF7E6
:1013FC00AFFE3B1D062219464FF41060FEF7A2FF0C
:10140C0007F11403042219464FF48070FEF79AFF7B
:10141C0007F11003042219464FF4A060FEF792FF67
:10142C0007F10C03042219464FF47060FEF78AFF93
:10143C0000BF1837BD4680BD80B584B000AF786062
:10144C0039600023BB73FFF7ABFF7B68002B3BD0ED
:10145C000023BB730023FB7315E097F90F307A68F8
:10146C0013441A78BB7B1344DBB2BB7397F90E3071
:10147C00102B02DD4FF0FF3366E097F90F30DBB233
:10148C000133DBB2FB7397F90F30072BE5DD00233B
:10149C00FB7315E097F90F309B000133DB0003F56C
:1014AC00F853184697F90F307A6813441B7819468D
:1014BC00FEF79AFE97F90F30DBB20133DBB2FB7308
:1014CC0097F90F30072BE5DD3B68002B3BD0002351
:1014DC00BB730023FB7315E097F90F303A68134484
:1014EC001A78BB7B1344DBB2BB7397F90E30102B0D
:1014FC0002DD4FF0FF3327E097F90F30DBB20133F9
:10150C00DBB2FB7397F90F30072BE5DD0023FB7380
:10151C0015E097F90F309B000133DB0003F5F05316
:10152C00184697F90F303A6813441B781946FEF7A2
:10153C005BFE97F90F30DBB20133DBB2FB7397F92B
:10154C000F30072BE5DD002318461037BD4680BD54
:10155C0080B584B000AF0346FB80FB88FB73FB882F
:10156C001B0A9BB2BB73FB7B23F00F03DBB2194648
:10157C004FF4A850FEF738FE0023FB7314E0BA7B3F
:10158C00FB7B42FA03F303F00103002B09D0FB7B36
:10159C009B000133DB0003F500731F211846FEF797
:1015AC0023FEFB7B0133FB73FB7B072BE7D900BFCF
:1015BC0000BF1037BD4680BD80B582B000AF0023A0
:1015CC00FB710023BB710023BB804FF4A850FEF7C6
:1015DC00BFFD034623F00F03FB714FF4B850FEF729
:1015EC00B7FD0346BB71BB79BB80BB881B029AB2AB
:1015FC00FB799BB21344BB80BB8818460837BD46A9
:10160C0080BD80B584B000AF0346FB80FB88FB73C4
:10161C00FB881B0A9BB2BB73FB7B19464FF4B05083
:10162C00FEF7E2FDBB7B19464FF4C050FEF7DCFD24
:10163C0000BF1037BD4680BD80B582B000AF00231F
:10164C00FB710023BB710023BB804FF4B050FEF73D
:10165C007FFD0346FB714FF4C050FEF779FD034646
:10166C00BB71BB79BB80BB881B029AB2FB799BB266
:10167C001344BB80BB8818460837BD4680BD80B577
:10168C0082B000AF0023FB714FF43850FEF760FDC1
:10169C00034603F00103002B01D00123FB7197F9E2
:1016AC00073018460837BD4680BD80B582B000AF04
:1016BC000023FB714FF43850FEF74AFD034603F04C
:1016CC003803302B02D10123FB7101E00023FB71A5
:1016DC0097F9073018460837BD4680BD80B582B0F3
:1016EC0000AF4FF43850FEF733FD0346FB71FB7926
:1016FC0003F07F03FB71FB7919464FF43850FEF76A
:10170C0073FD4FF43850FEF723FD0346FB71FB7954
:10171C0063F07F03FB71FB7919464FF43850FEF7E9
:10172C0063FD00BF0837BD4680BD80B584B000AFF7
:10173C0078600023FB737B681B78012B04D1FB7B47
:10174C0043F04003FB7303E0FB7B23F04003FB738C
:10175C007B685B78012B04D1FB7B43F03803FB7374
:10176C0019E07B68DB78012B0DD17B689B78012B12
:10177C0004D1FB7B43F01803FB730CE0FB7B43F0C1
:10178C000803FB7307E07B689B78012B03D1FB7B81
:10179C0043F01003FB73FB7B19464FF43850FEF7F4
:1017AC0023FDFFF79BFF00BF1037BD4680BD000037
:1017BC0080B584B000AF78600023FB734FF43850D1
:1017CC00FEF7C6FC0346FB73FB7B9B11DBB203F0FD
:1017DC000103DAB27B681A70FB7B03F03803202B11
:1017EC0001D0382B03D17B6801225A7003E07B684F
:1017FC0000225A7000BFFB7B03F03803103B102B08
:10180C008CBF01220022D2B2002A0FD11B4A22FA2D
:10181C0003F303F00103002B14BF01230023DBB2FD
:10182C00002B03D07B6801229A7003E07B680022B6
:10183C009A7000BFFB7B03F03803083B182B8CBF5E
:10184C0001220022D2B2002A0FD10D4A22FA03F350
:10185C0003F00103002B14BF01230023DBB2002B88
:10186C0003D07B680122DA7003E07B680022DA7017
:10187C0000BF00BF1037BD4680BD00BF0101010095
:10188C000100010180B584B000AF0346FB71002359
:10189C00FB734FF43850FEF75BFC0346FB73FB7B8A
:1018AC0003F04003002B02D14FF0FF3330E0FB7B01
:1018BC0023F03803FB73FB79012B04D1FB7B43F042
:1018CC003003FB7303E0FB7B43F03803FB73FB7BC0
:1018DC0019464FF43850FEF787FCFFF7FFFE4FF424
:1018EC003850FEF735FC0346FB73FB79012B06D110
:1018FC00FB7B03F03003002B08D0002308E0FB7BBC
:10190C0003F03803002B01D0002301E04FF0FF332C
:10191C0018461037BD4680BD80B582B000AF7860E8
:10192C007B68062219464FF41060FEF70BFD7B68AE
:10193C000E33042219464FF48070FEF703FD7B68CA
:10194C000A33042219464FF4A060FEF7FBFC7B68B7
:10195C000633042219464FF47060FEF7F3FC7B68E3
:10196C009A7C0B4B1A707B68DA7C094B5A707B683B
:10197C001A7D074B9A707B685A7D054BDA707B6831
:10198C009A7D044B1A7000BF0837BD4680BD00BF5E
:10199C00840000208800002080B500AF00224FF4A6
:1019AC008051024805F0CFFA00BF80BD000C014009
:1019BC0080B500AF01224FF48051024805F0C3FA04
:1019CC0000BF80BD000C014080B582B000AF7860D4
:1019DC00786803F059FC00BF0837BD4680BD000095
:1019EC0080B582B000AF78600B467B807A884FF46C
:1019FC00FA637968034805F0D9FF00BF0837BD4684
:101A0C0080BD00BF2801002080B582B000AF786097
:101A1C000B467B807A8841F288337968034806F05C
:101A2C0009F900BF0837BD4680BD00BF2801002062
:101A3C0080B582B000AF0523BB710120FFF7C4FF56
:101A4C00FFF7AAFFB91D4FF47A7301220B4805F07A
:101A5C00ADFFF91D4FF47A730122084806F0EAF83D
:101A6C000120FFF7B1FFFB7903F00103002BF0D14C
:101A7C00FFF79EFF00BF0837BD4680BD2801002040
:101A8C0080B582B000AF66233B7199237B71FFF761
:101A9C0083FF391D4FF47A730222044805F086FF48
:101AAC00FFF786FF00BF0837BD4680BD2801002028
:101ABC0080B588B000AFF8607A603B600B46FB7273
:101ACC00FB681A02FB7A1344FB610B233B75FB6921
:101ADC001B0CDBB27B75FB691B0ADBB2BB75FB69AC
:101AEC00DBB2FB7500233B76FFF756FF07F11403BF
:101AFC0005211846FFF774FF7B689BB219463868BE
:101B0C00FFF782FFFFF754FF00BF2037BD4680BDB3
:101B1C0080B586B000AFF860B9607A600B233B7477
:101B2C00FB681B0CDBB27B74FB681B0ADBB2BB745F
:101B3C00FB68DBB2FB7400233B75FFF72DFF07F14D
:101B4C00100305211846FFF74BFFBB689BB21946E3
:101B5C007868FFF759FFFFF72BFF00BF1837BD461A
:101B6C0080BD80B582B000AF0623FB71FFF714FF78
:101B7C00FB1D01211846FFF733FFFFF719FF01206A
:101B8C00FFF722FF00BF0837BD4680BD80B582B08D
:101B9C0000AF0423FB71FFF7FFFEFB1D012118466C
:101BAC00FFF71EFFFFF704FF0120FFF70DFF00BF3B
:101BBC000837BD4680BD80B582B000AFC723FB712E
:101BCC00FFF7CFFFFFF7E8FEFB1D01211846FFF7DB
:101BDC0007FFFFF7EDFEFFF72BFF0520FFF7F4FEE5
:101BEC0000BF0837BD4680BD80B586B000AF034648
:101BFC00FB80FB881B037B61FFF71AFFFFF7B1FF2C
:101C0C0020233B737B691B0CDBB27B737B691B0A48
:101C1C00DBB2BB737B69DBB2FB73FFF7BDFE07F175
:101C2C000C0304211846FFF7DBFEFFF7C1FEFFF79C
:101C3C00FFFEFFF7ABFF00BF1837BD4680BD80B578
:101C4C0086B000AF786003233B747B681B0CDBB25F
:101C5C007B747B681B0ADBB2BB747B68DBB2FB74E6
:101C6C00FFF79AFE07F1100304211846FFF7B8FEA0
:101C7C0007F10F0301211846FFF7C6FEFFF798FE88
:101C8C00FB7B18461837BD4680BD80B5C8B000AF89
:101C9C0007F59073A3F58A73186007F59073A3F595
:101CAC008C73196007F59073A3F58E731A6007F5A2
:101CBC009073A3F5887302221A7007F59073A3F53D
:101CCC008A731B681B0CDAB207F59073A3F5887343
:101CDC005A7007F59073A3F58A731B681B0ADAB266
:101CEC0007F59073A3F588739A7007F59073A3F5B5
:101CFC008A731B68DAB207F59073A3F58873DA70F0
:101D0C00042387F81F3197F81F319AB207F59073A7
:101D1C00A3F58E731B689BB21344A7F81A310023EA
:101D2C00A7F81C3118E0B7F81C3107F59072A2F532
:101D3C008C7212681A4497F81F31591C87F81F11BE
:101D4C001946127807F59073A3F588735A54B7F8AF
:101D5C001C310133A7F81C31B7F81C3107F5907210
:101D6C00A2F58E7212689A42DDD807F59073A3F52E
:101D7C008A731868FFF763FF0346FF2B2BD1FFF71D
:101D8C00F0FEB7F81A31FA2B15D9FFF705FE07F15B
:101D9C00100364211846FFF723FE07F11003643388
:101DAC00B7F81A21643A92B211461846FFF718FE9A
:101DBC00FFF7FEFD0BE0FFF7EFFDB7F81A2107F177
:101DCC00100311461846FFF70BFEFFF7F1FDFFF766
:101DDC002FFEFFF7DBFE00BF07F59077BD4680BDF9
:101DEC0080B584B000AF78600B467B807B681A6846
:101DFC00784B1B689A4240F09F8103F03BFA0346F4
:101E0C00754A1360754B1B78433B142B00F294817D
:101E1C0001A252F823F000BFF31E0008791E00083F
:101E2C0045210008452100084521000845210008EE
:101E3C0045210008452100084521000845210008DE
:101E4C0045210008452100084521000845210008CE
:101E5C00452100085D1F00082F1F000845210008C0
:101E6C0045210008452100087D1F00085B4B5B786D
:101E7C001A065A4B9B781B041A43584BDB781B02EF
:101E8C001343564A127913431A46554B1A60554B55
:101E9C001B7883F00103DBB2002B1BD0524B1B7859
:101EAC0083F00103DBB2002B14D0504B1B7883F072
:101EBC000103DBB2002B0DD0494B1B6819464C4873
:101ECC0002F030F94B4B01221A7003F0D3F90346A0
:101EDC00494A1360454B1B78002B00F02881474B77
:101EEC0001221A7023E1464B1B78002B09D0444B7E
:101EFC0000221A70434B1B781946434802F04EFAE5
:101F0C0005E0424B1B7819463F4802F047FA334B29
:101F1C001B79002B14BF01230023DAB23C4B1A703F
:101F2C000AE13C4B01221A703B4B01221A70002330
:101F3C00FB7309E0FB7B5A1CFB7B2849895C374A05
:101F4C00D154FB7B0133FB73FB7B162BF2D9F3E0F3
:101F5C00224B5B78012B40F0EC80314B01221A7044
:101F6C001E4B5A782F4B1A702B4B01221A70E0E043
:101F7C001A4B5B78413B042B00F2DD8001A252F836
:101F8C0023F000BFA51F0008432100082B210008E7
:101F9C003D200008C31F0008134B01221A7003F0E8
:101FAC0069F90346204A13601B4B01221A701F4B20
:101FBC0001221A70BAE00B4B01221A7003F05AF985
:101FCC000346194A1360144B01221A70174B012255
:101FDC001A70ABE010020020B4060020D0020020E2
:101FEC008C05002023070020220700202C0700204E
:101FFC00C49C000821070020B806002028070020F8
:10200C003007002080050020C89C0008300000200C
:10201C00DC0600202A070020310700205C05002088
:10202C002D070020750500209C0600202B070020A2
:10203C004A4B1B680133494A1360494B9B781A067B
:10204C00474BDB781B041A43454B1B791B0213438C
:10205C00434A527913431A46404B5A60404B9A7983
:10206C003E4B1A723E4BDA793C4B5A723C4B1A7A05
:10207C003A4B9A723A4B5A7A384BDA72384B9A7A04
:10208C00364B1A73364BDA7A344B5A73344B1A7B01
:10209C00324B9A73324B5A7B304BDA73314B9A7BFF
:1020AC002E4BDA742F4BDA7B2C4B9A742D4B1B7CFA
:1020BC001BB21B021AB22B4B5B7C1BB213431BB221
:1020CC009AB2264B1A82274B9A7C244B1A75254BB5
:1020DC00DA7C224B5A75234B1A7D204B5A76214BB6
:1020EC005A7D1E4B1A761F4B9B7D1BB21B021AB2DC
:1020FC001C4BDB7D1BB213431BB29AB2174BDA821B
:10210C00184B1A7E154B9A76164B5A7E134BDA7671
:10211C00154B01221A70154B01221A7006E0144B54
:10212C0001221A70114B01221A7000BF03E000BF8C
:10213C0002E000BF00E000BF322209490D4806F062
:10214C0012FE0D4B1B681A680B4B1B6822F0040225
:10215C001A6000BF1037BD4680BD00BF9407002039
:10216C00D0020020040300202507002031070020A6
:10217C0024070020100200205802002080B582B0F5
:10218C0000AF0346FB80FB88402B45D1142003F0A5
:10219C007BF84021224804F0BFFE0346002B3BD1C4
:1021AC00204B01221A7003F065F803461E4A136097
:1021BC001E4B4FF4FA621A6027E003F05BF80246FC
:1021CC00194B1B68D31A1A4A1360194B1B6842F23D
:1021DC001072934202D9154B64221A6003F04AF82C
:1021EC000246144B1B68D21A104B1B689A4209D931
:1021FC0003F040F803460F4A13604FF400510E48A9
:10220C0004F0B9FE0A2003F03FF84021044804F022
:10221C0083FE0346002BD0D000BF0837BD4680BDDF
:10222C00000C01402E070020BC060020C806002030
:10223C00C4060020C00600200010014080B584B008
:10224C0002AF78607B681A68434B1B689A4269D16D
:10225C00424B1A78424B1B789A4205D23F4B1B7863
:10226C000133DAB23D4B1A703E4B1B78002B1DD15B
:10227C003D4B1B78002B19D13C4B1B78002B15D1F7
:10228C003B4B1B78002B11D13A4B1B78002B0DD1FB
:10229C00394B1B7883F00103DBB2002B06D10421F0
:1022AC00364804F039FE0346002B21D1344B012271
:1022BC001A70334B00225A70314B00229A70304BFB
:1022CC000022DA702E4B00221A712D4B00225A710B
:1022DC002B4B00229A712A4B0022DA7101224FF407
:1022EC000041284804F02FFE274B02221A7013E0FD
:1022FC001B4B1B78194A01920093244B204A24490A
:10230C00244802F08DFA00224FF400411D4804F0DD
:10231C001AFE1D4B03221A701F4B194A1F492048E5
:10232C0003F0FCF97B681A681E4B1B689A420ED1AD
:10233C001D4804F095FE1D4B1B7883F00103DBB2A6
:10234C00002B04D04FF400510E4804F014FE00BFD3
:10235C000837BD4680BD00BF8001002076050020F7
:10236C001005002023070020220700202F07002043
:10237C00DD060020DC0600203600002000080140AD
:10238C0044050020001001403000002014050020FE
:10239C0094050020E006002090050020B8020020E3
:1023AC009C000020C8010020C40000202E07002043
:1023BC0080B582B000AF7860124B134A0021786868
:1023CC0003F0F3FA0346002B01D002F091FC0E4B04
:1023DC001B68B3F5E86F10D10A4B9B78482B0CD1D6
:1023EC00084B1B7903F04003002B03D0074B012251
:1023FC001A7002E0054B00221A7000BF0837BD4668
:10240C0080BD00BF780500209C0200202F07002013
:10241C00F0B5B5B006AF02F0D5FE01F0B9FB924BAA
:10242C005B68914A43F48073536001F099FD01F0AD
:10243C0079FD01F0F5FB01F043FC01F077FC01F0B4
:10244C0047FD01F0F7FC01F021FC01F0A5FC8748E9
:10245C0006F00CF832228649864806F084FC864B3E
:10246C001B681A68844B1B6822F004021A60834BA9
:10247C0008221A61814B44F2FF725A607F4B04228E
:10248C009A607E4B0022DA607C4B00221A607B4BF8
:10249C0000221A757A4B00221A60794B01225A607D
:1024AC00774B784A9A60764B0122DA60754B1B6841
:1024BC00DAB2754B1A70754B1B68DAB2744B1A7022
:1024CC00744B1B68DAB2744B1A70744B1B68DAB21B
:1024DC00734B1A70734B1B689AB2734B1A80734B05
:1024EC001B68DAB2724B1A70724B1B68DAB2724B01
:1024FC001A70724B1B68DAB2714B1A70714B1B68F5
:10250C00DAB2714B1A70714B1B689AB2704B1A800D
:10251C00704B1B68DAB2704B1A70704B1B68DAB2D6
:10252C006F4B1A706F4B1B686F4A13606F4B1B68B5
:10253C006F4A1360544B1B78FF2B02D1524BC022B5
:10254C001A70534B1B78FF2B02D1514BA8221A70D7
:10255C00514B1B78FF2B02D14F4B00221A70504B62
:10256C001B78FF2B02D14E4B48221A704E4B1B8806
:10257C004FF6FF72934202D14B4B00221A804C4B08
:10258C001B78FF2B02D14A4BC0221A704A4B1B7886
:10259C00FF2B02D1484BA8221A70494B1B78FF2BFA
:1025AC0002D1474B00221A70474B1B78FF2B02D1EC
:1025BC00454B02221A70464B1B884FF6FF72934212
:1025CC0003D1434B41F270721A80434B1B78FF2BA3
:1025DC0002D1414B01221A70414B1B78FF2B02D1C7
:1025EC003F4B00221A70404B1B68DAB2414B1A70F9
:1025FC003D4B1B681B0ADAB23E4B5A703A4B1B68B8
:10260C001B0CDAB23B4B9A70374B1B681B0EDAB2C1
:10261C00384BDA70364B1B68DAB2364B1A71344BC6
:10262C001B681B0ADAB2334B5A71314B1B681B0CFB
:10263C00DAB2304B9A712E4B1B681B0EDAB22D4B53
:10264C00DA711B4B1A782C4B1A701B4B1A782A4BCD
:10265C005A701B4B1A78284B9A701B4B1A78264BC6
:10266C00DA70FFF70DFA5CE0002004E0C8010020EE
:10267C00D00200201002002058020020B8020020D6
:10268C008C00002000FC00081C05002004FC000845
:10269C001D05002008FC00081E0500200CFC00088D
:1026AC001F05002010FC00088405002014FC000805
:1026BC002005002018FC0008210500201CFC000847
:1026CC002205002020FC00082305002024FC000823
:1026DC008205002028FC0008100500202CFC0008B6
:1026EC004205002030FC0008A806002034FC00083D
:1026FC00AC060020140500200C050020B24B1B6812
:10270C005B01B24A20211846FFF702FAAF4B1B6857
:10271C005A1EAD4B1B689A4203D1AC4B1B68AA4A9C
:10272C001360AA4B1B68B3F1FF3FE7D114E0A84B31
:10273C001B6803F580335B01A64A20211846FFF77E
:10274C00E7F9A44B1B685A1EA14B1B689A4203D194
:10275C00A04B1B689E4A13609E4B1B68B3F1FF3F56
:10276C00E5D19B4B1B68002B1BD00023C7F8B43062
:10277C000DE0D7F8B4309BB203F500539BB218466A
:10278C00FFF732FAD7F8B4300133C7F8B430904BB6
:10279C001B685B011B091B020233D7F8B4209A4259
:1027AC00E7D3002387F864301C2387F865301623A1
:1027BC0087F8663002F08CFD0346DAB2864B1B7844
:1027CC005340DBB287F8673002F08CFD0346DAB277
:1027DC00814B1B785340DBB287F8683002F08CFDDC
:1027EC000346DAB27C4B1B785340DBB287F8693076
:1027FC007A4B1B7887F86A30794B1B7887F86B30EB
:10280C00784B1B7887F86C30734B1B7887F86D30DE
:10281C00754A07F16E0310681860744A07F1720369
:10282C0010681860724A07F176031068186001236B
:10283C0087F87A306F4B1A786F4B1A706F4B1A7887
:10284C006D4B5A706E4B1A786B4B9A706D4B1A78A5
:10285C00694BDA70FDF780FF4FF4FA6002F014FD5B
:10286C0007F164031846FFF757F8674B1A882023C3
:10287C0001210020FDF7BCFF644B1B881A465E4902
:10288C000020FEF743F9624B1B78184602F022F940
:10289C00604805F0EBFD0020FDF7FDFD03461A46F0
:1028AC005D4B1A600020FDF7F6FD03461A465A4BA5
:1028BC001B689A4241F03781574B1B68B3F5007F78
:1028CC0001D903F0F2FC544B1B68002B00F00D8176
:1028DC00514B1B689BB21A4650490020FEF7F6FA82
:1028EC004E4B1B78443B132B00F2FF8001A252F895
:1028FC0023F000BF91290008F72A0008F72A0008E6
:10290C00F72A000851290008F72A0008F72A0008BE
:10291C00F72A0008F72A0008F72A0008F72A000807
:10292C00F72A0008F72A0008F72A0008672A000887
:10293C00C5290008F72A0008F72A0008F72A00081A
:10294C00AB2A000802F096FC0346354A1360334B61
:10295C00DB781BB21B021AB2304B1B791BB2134033
:10296C001BB298B22D4B99782C4B5A782B4B5C7927
:10297C002A4B9B790093234602F044F90346294ADB
:10298C001360B2E0284B01221A70002387F8B33091
:10299C000DE097F8B3305A1C97F8B3301F49895C97
:1029AC00224AD15497F8B330013387F8B33097F8F3
:1029BC00B330082BEDD998E01D4B01221A7000237F
:1029CC0087F8B23044E000BF9406002034070020A2
:1029DC00A4060020540700201F0500201C05002021
:1029EC001D0500201E0500201C9D0008209D0008D0
:1029FC00249D0008200500200C0500202105002046
:102A0C0022050020230500208405002082050020DB
:102A1C004205002080010020A006002004030020B5
:102A2C0098060020D0060020290700205005002021
:102A3C002A07002097F8B2305A1C97F8B2309B49FD
:102A4C00895C9B4AD15497F8B230013387F8B23085
:102A5C0097F8B230162BEDD947E0944B5B78022BEC
:102A6C0008D1944B01221A7002F004FC0346924ADE
:102A7C0013603AE08D4B5B78032B08D18F4B01220E
:102A8C001A7002F0F7FB03468B4A13602DE08C4B57
:102A9C0001221A70854B5A788A4B1A7025E0834BA9
:102AAC005B78482B17D0482B1EDC412B0AD0452BCA
:102ABC001AD1854B01221A7002F0DCFB03467E4AC8
:102ACC00136011E0814B01221A7002F0D3FB034614
:102ADC00794A136008E07E4B01221A7002F0CAFB9F
:102AEC000346754A136000BF00BF7A4802F029FF05
:102AFC000346002B0AD1784B1B681946754802F027
:102B0C00DCFE0346002B01D003F0CFFB734B1B788C
:102B1C00172B10D102F0AEFB0246714B1B68D31A77
:102B2C00002BB8BF5B4242F20F72934203DC6D4B39
:102B3C0001221A7002E06B4B00221A7002F09AFB11
:102B4C000246694B1B68D31A002BB8BF5B4242F29A
:102B5C001072934203DD654B00221A7002E0634B46
:102B6C0001221A70624B1B78002B22D0604B002282
:102B7C001A70604B1B78002B02D0012B0AD018E086
:102B8C005D4B00221A705D4B01221A705C4B0022C7
:102B9C001A700EE05B4A5C495C4801F0D6FD564B5E
:102BAC0001221A70554B01221A70554B00221A70D3
:102BBC0000BF534B1B78002B67D04A4B1B7883F01C
:102BCC000103DBB2002B08D102F054FB0246504B40
:102BDC001B68D31AB3F5FA7F57D9494B00221A70E8
:102BEC004C4B19684C4B1A684C4C3B46184601F040
:102BFC0059FD25463C460FCC0FC594E80F0085E8DF
:102C0C000F00464B1B68002B39D0444B188A434BA2
:102C1C00997C424BDA7C414B1C7D404B5B7D009395
:102C2C00234601F0EFFF03463D4A13603B4BD88A25
:102C3C003A4B197E394B5A7E384B9C7E374BDB7E98
:102C4C000093234601F0DEFF0346364A1360344BF3
:102C5C001A68354B1B689A4217D2324B1A68324BA2
:102C6C001B689A4211D9274A2749304801F06DFD5B
:102C7C00214B01221A70214B01221A7005E01E4BC8
:102C8C0000221A701D4B01221A70294B1B78002B45
:102C9C0000F0D180264B00221A70054B1B78002BBC
:102CAC0048D0012B00F0BD80C5E000BF040300201C
:102CBC005C050020260700209C060020270700202A
:102CCC002D07002075050020230700202207002077
:102CDC002C0700209C000020900500204C050020B3
:102CEC009806002020070020B406002036000020A3
:102CFC002907002050050020800500203007002007
:102D0C002107002094050020E0060020510500203A
:102D1C00B8060020940600208C05002074070020C3
:102D2C00D4060020D8060020D00600207C07002006
:102D3C002A0700208A4B5A788A4B1A70884B9A784B
:102D4C00894B1A70864BDA78884B1A70844B1A7937
:102D5C00874B1A70824B5B791BB21B021AB2804BE9
:102D6C009B791BB213431BB29AB2824B1A807C4BD9
:102D7C00DA79814B1A707A4B1A7A804B1A70784B2D
:102D8C005A7A7F4B1A70764B9A7A7E4B1A70744B28
:102D9C00DB7A1BB21B021AB2714B1B7B1BB21343A7
:102DAC001BB29AB2784B1A806D4B5A7B774B1A70C8
:102DBC006B4B9A7B764B1A70694BDB7B1A46684BD4
:102DCC001B7C1B021A43664B5B7C1B041A43644B33
:102DDC009B7C1B0613431A466E4B1A60604BDB7CC4
:102DEC001A465F4B1B7D1B021A435D4B5B7D1B041C
:102DFC001A435B4B9B7D1B0613431A46664B1A60AA
:102E0C0001F05CFB654B1B78002B03D0644801F090
:102E1C00EDFA03E06349644801F0BCF903F045FAAC
:102E2C0009E04F4B5B78002B14BF01230023DAB26F
:102E3C005E4B1A7000BF5E4B1B78002B00F0C780F6
:102E4C005B4B00221A705B4B1B78002B02D0012BC2
:102E5C0003D0BCE003F029FAB9E0424B1A78564B88
:102E6C001A70414B1A78544B5A70404B1A78524B8B
:102E7C009A703F4B1A78504BDA703E4B1B881B0AEA
:102E8C009BB2DAB24C4B1A713A4B1B88DAB24A4BF2
:102E9C005A71394B1A78484B9A71384B1A78464B01
:102EAC00DA71374B1A78444B1A72364B1A78424BFC
:102EBC005A72354B1B881B0A9BB2DAB23E4B9A7284
:102ECC00314B1B88DAB23C4BDA72304B1A783A4BE6
:102EDC001A732F4B1A78384B5A73384B1B681B0ECE
:102EEC00DAB2354B9A73354B1B681B0CDAB2324B8A
:102EFC00DA73324B1B681B0ADAB22F4B1A742F4B46
:102F0C001B68DAB22C4B5A742D4B1A782A4B9A74D4
:102F1C002B4B5A78284BDA74294B9A78264B1A7516
:102F2C00274BDA78244B5A75254B1A79224B9A7514
:102F3C00234B5A79204BDA75214B9A791E4B1A7612
:102F4C001F4BDA791C4B5A76144B1B78002B39D05B
:102F5C00194801F077FA114B00221A7036E000BFC5
:102F6C005C0500201C0500201D0500201E0500200E
:102F7C001F050020840500202005002021050020CD
:102F8C0022050020230500208205002010050020CA
:102F9C0042050020A8060020AC06002031070020C6
:102FAC00CC9C0008D09C0008D49C0008DD060020B6
:102FBC002D07002075050020240500209406002014
:102FCC00140500205349544801F006F900BF534B37
:102FDC001B7883F00103DBB2002B00F0888002F039
:102FEC0049F902464E4B1B68D31A002BB8BF5B4203
:102FFC0041F2883293427ADD002001F0F3FC034663
:10300C001A46484B1A70474B1B78172B6FD1464BFF
:10301C001B78002B03D0454B46225A7033E0444BAF
:10302C001B78002B03D0414B50225A702BE0414BA4
:10303C001B78002B03D03D4B45225A7023E03E4BAE
:10304C001B7883F00103DBB2002B03D0374B4422F7
:10305C005A7018E00421394803F05EFF0346002B38
:10306C0003D1324B43225A700DE0354B1B7883F061
:10307C000103DBB2002B03D02C4B4F225A7002E021
:10308C002A4B52225A70022228490020FDF726FEB4
:10309C002DE00023C7F8AC301CE0D7F8AC305B0156
:1030AC00284A20211846FEF733FD264E6D4606F1C0
:1030BC000C040FCC0FC523682B6096E80E00224839
:1030CC0001F0B6F8642002F0DFF8D7F8AC30013329
:1030DC00C7F8AC301D4B1B68D7F8AC209A42DCD338
:1030EC000121194801F040F8194B00221A70184BB5
:1030FC001B78002BCDD1C5E10023C7F8A830154BA8
:10310C001B78002B2AD0134B00221A70124801F0A6
:10311C006DF927E024050020D89C00082B0700201F
:10312C00B00600204C0500202F07002034000020A2
:10313C00DD060020DC0600203600002000080140DF
:10314C0020070020B4070020DC9C00089406002017
:10315C002607002031070020E09C0008AA49AB4854
:10316C0001F018F802F086F80346A94A1360A94B3F
:10317C0001221A700020FDF78EF903461A46A64B61
:10318C001A600020FDF787F903461A46A24B1B680C
:10319C009A4240F07581A04B1B68B3F5FA7F01D9B8
:1031AC0003F083F89D4B1B7883F00103DBB2002BFB
:1031BC0000F0A780984B1B68002B00F0A280964B68
:1031CC001B689BB21A4696490020FDF77FFE944B74
:1031DC001B78572B40F09580914B5B78442B40F03B
:1031EC008980D7F8A8300133C7F8A8308D4AD7F8B2
:1031FC00A83013608A4B9B781A06894BDB781B042A
:10320C001A43874B1B791B021343854A527913438C
:10321C001A46844B5A60824B9A79824B1A72804BB5
:10322C00DA79804B5A727E4B1A7A7E4B9A727C4BAF
:10323C005A7A7C4BDA727A4B9A7A7A4B1A73784BAD
:10324C00DA7A784B5A73764B1A7B764B9A73744BAB
:10325C005A7B744BDA73724B9A7B724BDA74704BE9
:10326C00DA7B704B9A746E4B1B7C1BB21B021AB22E
:10327C006B4B5B7C1BB213431BB29AB2694B1A8229
:10328C00674B9A7C674B1A75654BDA7C654B5A75A4
:10329C00634B1A7D634B5A76614B5A7D614B1A76A0
:1032AC005F4B9B7D1BB21B021AB25D4BDB7D1BB2CD
:1032BC0013431BB29AB25B4BDA82594B1A7E594BB1
:1032CC009A76574B5A7E574BDA76D7F8A83003F5D7
:1032DC007F43FF335B01202252491846FEF7D5FC91
:1032EC0051494A4800F056FF01F0C4FF0346484AD2
:1032FC00136006E04A4B5B78432B02D14B4B012207
:10330C001A704B4B1B78002B00F0A480D7F8A83018
:10331C000133C7F8A830D7F8A83003F57F43FF3343
:10332C005B0120223F491846FEF7AFFC404B0022C0
:10333C001A70404801F05AF801F09CFF0346344AD9
:10334C00136087E0002387F8A7300AE097F8A730CE
:10335C009BB21846FEF748FC97F8A730013387F864
:10336C00A73097F8A720344B1B685B011B091B0285
:10337C0001339A42EAD30023C7F8A03016E0D7F8FD
:10338C00A03003F580335B012C4A20211846FEF750
:10339C00BFFBD7F8A0305B01202228491846FEF766
:1033AC0074FCD7F8A0300133C7F8A030D7F8A020B0
:1033BC00D7F8A8309A42E2D30023C7F89C300DE02E
:1033CC00D7F89C309BB203F500539BB21846FEF71E
:1033DC000BFCD7F89C300133C7F89C30D7F8A830D9
:1033EC005B011B091B020133D7F89C209A42E7D3DF
:1033FC00134B1B78002B27D0114B00221A7011484D
:10340C0000F0F4FF24E000BFE89C0008EC9C0008EE
:10341C009C060020DD060020A00600202B070020C3
:10342C000403002094070020F09C000824070020CF
:10343C0025070020F49C000894060020B407002007
:10344C0031070020FC9C0008A649A74800F0A2FE0A
:10345C0002F02BFFA54B1B78002B7FF473AF01F010
:10346C0009FF0246A24B1B68D31A002BB8BF5B4264
:10347C0042F2107293427FF77DAE02F016FF79E6AE
:10348C0000BF77E69B4B1B78002B7FF435AE94E2A4
:10349C000023C7F89830984B1B78002B06D0964B1E
:1034AC0000221A70954800F0A1FF03E094498E4861
:1034BC0000F070FE01F0DEFE03468D4A1360914B66
:1034CC0001221A700020FCF7E6FF03461A468E4BC9
:1034DC001A600020FCF7DFFF03461A468A4B1B6874
:1034EC009A4240F06882884B1B68B3F5007F01D983
:1034FC0002F0DBFE854B1B7883F00103DBB2002B63
:10350C0000F0A980804B1B68002B00F0A4807E4B40
:10351C001B689BB21A467E490020FDF7D7FC7C4BFA
:10352C001B78572B40F09780794B5B78442B40F0FD
:10353C008B80D7F898300133C7F89830754B1B68DF
:10354C000133744A1360724B9B781A06704BDB780C
:10355C001B041A436E4B1B791B0213436C4A5279A2
:10356C0013431A466B4B5A60694B9A79694B1A7222
:10357C00674BDA79674B5A72654B1A7A654B9A72BC
:10358C00634B5A7A634BDA72614B9A7A614B1A73BA
:10359C005F4BDA7A5F4B5A735D4B1A7B5D4B9A73B8
:1035AC005B4B5A7B5B4BDA73594B9A7B594BDA74F6
:1035BC00574BDA7B574B9A74554B1B7C1BB21B0237
:1035CC001AB2534B5B7C1BB213431BB29AB2514BD6
:1035DC001A824F4B9A7C4F4B1A754D4BDA7C4D4BE4
:1035EC005A754B4B1A7D4B4B5A76494B5A7D494B6E
:1035FC001A76474B9B7D1BB21B021AB2444BDB7DE8
:10360C001BB213431BB29AB2424BDA82404B1A7E66
:10361C00404B9A763E4B5A7E3E4BDA76D7F8983032
:10362C0003F5FB3303F2FF135B01202239491846E3
:10363C00FEF72BFB38492C4800F0ACFD01F01AFECC
:10364C0003462B4A136006E0314B5B78432B02D1C7
:10365C00264B01221A70314B1B78002B00F0958100
:10366C00D7F898300133C7F89830D7F8983003F56D
:10367C00FB3303F2FF135B01202226491846FEF7A9
:10368C0004FB264B00221A70254800F0AFFE01F017
:10369C00F1FD0346164A136077E10023C7F8943016
:1036AC0016E0D7F894305B011E4A20211846FEF72D
:1036BC002FFAD7F8943003F580335B012022194997
:1036CC001846FEF7E2FAD7F894300133C7F8943075
:1036DC00154B1B68D7F894209A42E2D3002387F845
:1036EC0093302EE0049D0008EC9C00082407002079
:1036FC009C0600202307002031070020089D0008AD
:10370C00109D0008DD060020A00600202B070020DD
:10371C000403002094070020F09C000825070020DB
:10372C00F49C0008B40700209406002097F893300E
:10373C009BB21846FEF758FA97F89330013387F886
:10374C00933097F89320A04B1B685B011B091B025D
:10375C0001339A42EAD30023C7F88C300023C7F810
:10376C0088300023C7F884306DE0D7F88C3003F52F
:10377C0080335B0107F1240220211846FEF7C8F9BB
:10378C00D7F8883003F5FC335B0107F144022021A4
:10379C001846FEF7BDF9BA6ABB6C9A4217D2D7F835
:1037AC00843001337B62D7F884305B0107F124014C
:1037BC0020221846FEF769FAD7F88C300133C7F887
:1037CC008C30D7F884300133C7F884303BE0BA6AC8
:1037DC00BB6C9A4217D9D7F8843001337B64D7F885
:1037EC0084305B0107F1440120221846FEF74DFAA4
:1037FC00D7F888300133C7F88830D7F884300133D4
:10380C00C7F884301FE0BA6ABB6C9A421BD1D7F858
:10381C00843001337B64D7F884305B0107F14401B9
:10382C0020221846FEF731FAD7F888300133C7F852
:10383C008830D7F88C300133C7F88C30D7F8843007
:10384C000133C7F88430604B1B68D7F88C209A4240
:10385C0028D2D7F88820D7F898309A4285D321E01F
:10386C00D7F88C3003F580335B0107F1240220215B
:10387C001846FEF74DF9D7F8843001337B62D7F840
:10388C0084305B0107F1240120221846FEF7FDF974
:10389C00D7F88C300133C7F88C30D7F8843001332B
:1038AC00C7F88430484B1B68D7F88C209A42D7D382
:1038BC0021E0D7F8883003F5FC335B0107F14402B3
:1038CC0020211846FEF724F9D7F8843001337B64A5
:1038DC00D7F884305B0107F1440120221846FEF72B
:1038EC00D4F9D7F888300133C7F88830D7F884304A
:1038FC000133C7F88430D7F88820D7F898309A422B
:10390C00D7D30023C7F880300DE0D7F880309BB2B6
:10391C0003F500539BB21846FEF766F9D7F88030D2
:10392C000133C7F88030284B1B685B011B091B0255
:10393C000133D7F880209A42E7D30023FB670AE0D3
:10394C00FB6F9BB203F57C539BB21846FEF74CF908
:10395C00FB6F0133FB67D7F898305B011B091B0227
:10396C000133FA6F9A42EBD3184B1B78002B06D01D
:10397C00164B00221A70164800F038FD03E015496A
:10398C00154800F007FC02F090FC144B1B78002B40
:10399C007FF483AE01F06EFC0246114B1B68D31A08
:1039AC00002BB8BF5B4242F2107293427FF78AAD94
:1039BC0002F07BFC86E500BF84E50A4B1B78002BEC
:1039CC007FF466AD6BE000BF940600203107002049
:1039DC00FC9C0008049D0008EC9C000824070020B7
:1039EC009C060020220700205049514800F0D2FBD1
:1039FC0001F040FC03464F4A13604F4B01221A70F2
:103A0C000020FCF748FD03461A464C4B1A60002078
:103A1C00FCF741FD03461A46484B1B689A421CD1E1
:103A2C00464B1B68B3F5007F01D902F03EFC434BBB
:103A3C001B68002B11D0414B1B689BB21A464049A6
:103A4C000020FDF743FA3E4B1B78572B05D13C4B1E
:103A5C005B78432B01D102F028FC3A4B1B78002BEE
:103A6C000DD0384B00221A70374B1B68194637485B
:103A7C0000F058FB01F0FEFB03462E4A136001F0E8
:103A8C00F9FB02462B4B1B68D31A002BB8BF5B42C9
:103A9C0042F210729342B3DD02F007FCB0E72C4BFC
:103AAC001B78002BA0D12B4B1B78002B30D02A4B32
:103ABC001B6842F21072934228D9284BC0221A700C
:103ACC00274BA8221A70274B00221A70264B48222B
:103ADC001A70264BC0221A70254BA8221A70254B3F
:103AEC0000221A70244B02221A70244B41F270727D
:103AFC001A80234B00221A80224B01221A70224B6F
:103B0C0000221A70FEF757F800F0D8FC02F0CDFB3B
:103B1C001E4B1B68642B01D102F0C7FB0A2001F07D
:103B2C00B3FBFEF7B8BE00BFFEF7B5BE149D000890
:103B3C00EC9C00089C060020DD060020A00600205E
:103B4C0004030020280700208C050020189D000885
:103B5C002C0700202E070020C40600201C05002086
:103B6C001D0500201E0500201F050020200500203B
:103B7C0021050020220500202305002082050020BD
:103B8C00840500201005002042050020CC060020F2
:103B9C0080B590B000AF07F1180328220021184619
:103BAC0006F032F83B1D00221A605A609A60DA6007
:103BBC001A610923BB614FF48033FB614FF400336E
:103BCC003B620123BB6201233B6302237B634FF403
:103BDC008033BB634FF4E013FB6307F11803184603
:103BEC0003F04EFA0346002B01D001F081F80F23AD
:103BFC007B600223BB600023FB604FF480633B615E
:103C0C0000237B613B1D0221184603F0BBFC0346DD
:103C1C00002B01D001F06CF800BF4037BD4680BDD1
:103C2C0080B500AF174B184A1A60164B3C225A60ED
:103C3C00144B00229A60134B0022DA60114B4FF4A4
:103C4C0070221A610F4B4FF4C0025A610D4B0022C7
:103C5C001A760C4B01225A760A4B00229A76094BA3
:103C6C000022DA76074B00221A77064B00225A778D
:103C7C00044801F04BFB0346002B01D001F038F84F
:103C8C0000BF80BD9C0000200064004080B500AFE8
:103C9C00094B0A4A1A60084B04225A60064B40F240
:103CAC0052729A60044803F097F90346002B01D036
:103CBC0001F01EF800BF80BDC400002000300040A1
:103CCC0080B500AF174B184A1A60164B4FF482722E
:103CDC005A60144B00229A60124B0022DA60114B8E
:103CEC0000221A610F4B00225A610E4B4FF40072E6
:103CFC009A610C4B2022DA610A4B00221A62094BA2
:103D0C0000225A62074B00229A62064B0A22DA62A0
:103D1C00044803F0C7FD0346002B01D000F0E8FF78
:103D2C0000BF80BDD00000200030014080B500AF46
:103D3C00174B184A1A60164B4FF482725A60144B88
:103D4C0000229A60124B0022DA60114B00221A6199
:103D5C000F4B00225A610E4B4FF400729A610C4BC0
:103D6C000022DA610A4B00221A62094B00225A62C5
:103D7C00074B00229A62064B0A22DA62044803F0CF
:103D8C0091FD0346002B01D000F0B2FF00BF80BDB7
:103D9C00280100200038004080B586B000AF07F144
:103DAC00080300221A605A609A60DA603B460022CF
:103DBC001A605A601E4B4FF080421A601C4B48F63A
:103DCC00A0425A601A4B00229A60194B40F2E7321B
:103DDC00DA60174B00221A61154B00229A611448C5
:103DEC0004F0F5FA0346002B01D000F081FF4FF4EC
:103DFC008053BB6007F1080319460D4804F078FCAA
:103E0C000346002B01D000F073FF00233B6000231E
:103E1C007B603B461946064804F05AFE0346002BCD
:103E2C0001D000F065FF00BF1837BD4680BD00BF54
:103E3C008001002080B586B000AF07F10803002296
:103E4C001A605A609A60DA603B4600221A605A6027
:103E5C001D4B1E4A1A601C4B48F6A0425A601A4B66
:103E6C0000229A60184B40F2E732DA60164B0022BF
:103E7C001A61154B00229A61134804F0A8FA034604
:103E8C00002B01D000F034FF4FF48053BB6007F1DE
:103E9C00080319460C4804F02BFC0346002B01D0F8
:103EAC0000F026FF00233B6000237B603B46194655
:103EBC00054804F00DFE0346002B01D000F018FF5E
:103ECC0000BF1837BD4680BDC8010020000400406B
:103EDC0080B500AF114B124A1A60104B4FF41652BA
:103EEC005A600E4B00229A600C4B0022DA600B4B8E
:103EFC0000221A61094B0C225A61084B00229A616C
:103F0C00064B0022DA61054804F052FE0346002BF2
:103F1C0001D000F0EDFE00BF80BD00BF10020020FC
:103F2C000038014080B582B000AF0C4B5B690B4A86
:103F3C0043F001035361094B5B6903F001037B60A0
:103F4C007B68002200210F2002F085F90F2002F07F
:103F5C009EF900BF0837BD4680BD00BF001002406F
:103F6C0080B588B000AF07F1100300221A605A60C8
:103F7C009A60DA60664B9B69654A43F01003936163
:103F8C00634B9B6903F01003FB60FB68604B9B6900
:103F9C005F4A43F0200393615D4B9B6903F0200360
:103FAC00BB60BB685A4B9B69594A43F0040393614D
:103FBC00574B9B6903F004037B607B68544B9B69F4
:103FCC00534A43F008039361514B9B6903F0080378
:103FDC003B603B6800224FF460414E4802F0B3FF57
:103FEC00012210214C4802F0AEFF002232214B4836
:103FFC0002F0A9FF01224FF48051484802F0A3FFC0
:10400C0000224FF48071444802F09DFF4FF460434E
:10401C003B6101237B610023BB610223FB6107F140
:10402C00100319463B4802F0F3FD04233B610023C7
:10403C007B610123BB6107F110031946364802F07E
:10404C00E7FD10233B6101237B610023BB6103234C
:10405C00FB6107F1100319462F4802F0D9FD01232B
:10406C003B612F4B7B610023BB6107F110031946A9
:10407C002A4802F0CDFD32233B6101237B610023F2
:10408C00BB610223FB6107F110031946234802F0C0
:10409C00BFFD4FF480533B6101237B610023BB6167
:1040AC000323FB6107F1100319461C4802F0B0FD15
:1040BC004FF480733B6101237B610023BB610223BE
:1040CC00FB6107F110031946134802F0A1FD4023D0
:1040DC003B61134B7B610123BB6107F11003194654
:1040EC000E4802F095FD00220121062002F0B3F8E3
:1040FC00062002F0CCF800220721172002F0ABF8C2
:10410C00172002F0C4F800BF2037BD4680BD00BFA9
:10411C00001002400010014000080140000C01405A
:10412C000000211080B584B000AF786039607B68E6
:10413C001B783B723B681B0EDBB27B723B681B0C23
:10414C00DBB2BB723B681B0ADBB2FB723B68DBB2B7
:10415C003B7307F10803052219460020FCF7BEFD4E
:10416C0000BF1037BD4680BD80B584B000AF78600D
:10417C000B46FB707B681B783B73FB787B7307F1FA
:10418C000C03022219460020FCF7A8FD00BF1037D3
:10419C00BD4680BD80B588B000AF7860396007F14E
:1041AC000C037968184605F06BFD07F10C033968B0
:1041BC00184605F031FD07F10C031846FBF7C0FF5C
:1041CC0003469AB207F10C0319460020FCF786FD52
:1041DC0000BF2037BD4680BD80B58AB000AF786087
:1041EC0039607B681B783B73002387F8273010E01D
:1041FC0097F827303A681A4497F827300133127829
:10420C0028333B4403F81C2C97F82730013387F8EC
:10421C00273097F82730192BEAD907F10C031B220A
:10422C0019460020FCF75AFD00BF2837BD4680BD5B
:10423C0084B02DE9F04387B000AF786007F13C0003
:10424C0080E80E006B461E462223FB75F97D0B465B
:10425C00013B3B61CBB20022984691464FF00002E5
:10426C004FF000034FEAC90343EA58734FEAC80200
:10427C00CBB200221C4615464FF000024FF0000353
:10428C00EB0043EA5473E2000B460733DB08DB0018
:10429C00ADEB030D6B460033FB607B681A78FB6853
:1042AC001A70FB6802225A703B6C1B0EDAB2FB6868
:1042BC009A703B6C1B0CDAB2FB68DA703B6C1B0A15
:1042CC00DAB2FB681A713B6CDAB2FB685A7197F878
:1042DC004420FB689A7197F84520FB68DA7197F8CF
:1042EC004620FB681A7297F84720FB685A7297F8B9
:1042FC004820FB689A7297F84920FB68DA7297F8A5
:10430C004A20FB681A7397F84B20FB685A7397F88E
:10431C004F20FB689A7397F84E20FB68DA73B7F856
:10432C004C301B0A9BB2DAB2FB681A74B7F84C30EB
:10433C00DAB2FB685A7497F85020FB689A7497F8B5
:10434C005120FB68DA7497F85520FB681A7597F8BA
:10435C005420FB685A75B7F852301B0A9BB2DAB27C
:10436C00FB689A75B7F85230DAB2FB68DA7597F8D1
:10437C005620FB681A7697F85720FB685A76FB7D17
:10438C009BB21A46F9680020FCF7A8FCB54600BFA2
:10439C001C37BD46BDE8F04304B0704780B584B00F
:1043AC0000AF78600B46FB707B681B783B73FB7827
:1043BC007B7301224FF480710A4802F0C4FD07F1AF
:1043CC000C014FF4FA730222074804F041FC00225E
:1043DC004FF48071034802F0B6FD00BF1037BD46A4
:1043EC0080BD00BF000801401002002080B584B0E1
:1043FC0000AF78607B681B783B737B685B787B7362
:10440C007B689B78BB737B68DB78FB7301224FF472
:10441C0080710A4802F097FD07F10C014FF4FA7312
:10442C000422074804F014FC00224FF48071034866
:10443C0002F089FD00BF1037BD4680BD0008014069
:10444C001002002080B58AB000AF786052233B7315
:10445C00002387F8273010E097F827307A681A4441
:10446C0097F827300133127828333B4403F81C2C7F
:10447C0097F82730013387F8273097F82730192B16
:10448C00EAD901224FF480710A4802F05CFD07F171
:10449C000C014FF47A731B22074804F0D9FB00225D
:1044AC004FF48071034802F04EFD00BF2837BD4623
:1044BC0080BD00BF00080140100200202DE9B04F64
:1044CC0096B000AF02F014FA5849594802F0F8FAC5
:1044DC00584B1B78DBB200221C46154622462B4655
:1044EC005549022002F094F9544B1B78DBB20022A0
:1044FC009846914642464B465149022002F088F9B3
:10450C00504B1B78DBB200229A46934652465B46D0
:10451C004D49022002F07CF94C4B1B78DBB2002297
:10452C003B657A65D7E914234949022002F070F9FA
:10453C00484B1B889BB20022BB64FA64D7E9122358
:10454C004549022002F064F9444B1B78DBB200228F
:10455C003B647A64D7E910234149022002F058F9F0
:10456C00404B1B78DBB20022BB63FA63D7E90E2306
:10457C003D49022002F04CF93C4B1B78DBB2002287
:10458C003B637A63D7E90C233949022002F040F9E6
:10459C00384B1B78DBB20022BB62FA62D7E90A23E4
:1045AC003549022002F034F9344B1B889BB20022AF
:1045BC003B627A62D7E908233149022002F028F9DC
:1045CC00304B1B78DBB20022BB61FA61D7E90623C2
:1045DC002D49022002F01CF92C4B1B78DBB2002277
:1045EC003B617A61D7E904232949022002F010F9D2
:1045FC00284B1B680022BB60FA60D7E902232649CE
:10460C00022002F005F9254B1B6800223B607A6002
:10461C00D7E900232249022002F0FAF802F08EF9C1
:10462C0000BF5837BD46BDE8B08F00BF88050020DD
:10463C008C0000201C05002000FC00081D0500203B
:10464C0004FC00081E05002008FC00081F050020C3
:10465C000CFC00088405002010FC0008200500203C
:10466C0014FC00082105002018FC0008220500207D
:10467C001CFC00082305002020FC000882050020FB
:10468C0024FC00081005002028FC0008420500202E
:10469C002CFC0008A806002030FC0008AC0600200A
:1046AC0034FC0008B0B598B000AFF860B9607A601F
:1046BC000123FB65BB68BB6507F134032022002195
:1046CC00184605F0A1FA2EE0FA6DBB6D13445B0899
:1046DC007B657B6D013B18097B6D013BDBB203F005
:1046EC000F03DBB25B01D9B207F114032022FDF7F3
:1046FC00DFF9BB697A689A420AD1FB681D4607F15B
:10470C0014040FCC0FC594E80F0085E80F0018E0D7
:10471C00BB697A689A4203D97B6D0133FB6502E071
:10472C007B6D013BBB65FA6DBB6D9A42CCD9FB68C6
:10473C001D4607F134040FCC0FC594E80F0085E833
:10474C000F00F8686037BD46B0BD90B587B000AFBC
:10475C00F860B9607A600023FB752BE00023BB7511
:10476C0022E0FB7DFA6813441B781A46BB7D42FAA3
:10477C0003F303F00103002B13D0FB7DDA00BB7DA8
:10478C0013441A46BB68134401221A70FB7DDA00ED
:10479C00BB7D13449B007A68D41800F06BFD034674
:1047AC002360BB7D0133BB75BB7D072BD9D9FB7D4A
:1047BC000133FB75FB7D072BD0D900BF00BF1C3725
:1047CC00BD4690BD80B487B000AF786039600023DF
:1047DC00FB7500233B611AE03B697A6813441B7834
:1047EC00DB09FB733B697A6813441B785BB25B0093
:1047FC005AB297F91730134359B23B693A681344CC
:10480C00CAB21A70FB7BFB753B6901333B613B6998
:10481C00072BE1DD00BF00BF1C37BD4680BC7047D5
:10482C0080B588B000AFF860B9607A603B6007F182
:10483C00100300221A605A60FB6A1B7897F8282034
:10484C009A4248D90023FB7740E00023BB7731E044
:10485C00FB7FDA00BB7F13449B00BA6813441B68D0
:10486C00002B1FD1FB7F3A6813441B781A46BB7F81
:10487C0042FA03F303F00103002B09D0FB7FDA00AB
:10488C00BB7F13441A46FB68134401221A700EE0D6
:10489C00FB7FDA00BB7F13441A46FB6813440022EB
:1048AC001A7004E0FB6A97F828201A7005E0BB7FA9
:1048BC000133BB77BB7F072BCAD9FB6A1B7897F8F0
:1048CC0028209A4206D0FB7F0133FB77FB7F072B16
:1048DC00BBD900E000BFFB6A1B7897F828209A42EE
:1048EC0048D800237B7742E000233B7739E07B7F7D
:1048FC003A6813441B781A463B7F42FA03F303F0E1
:10490C000103002B21D000F0B5FC01467B7FDA00BF
:10491C003B7F13449B00BA6813441B68CB1A83EA91
:10492C00E372A2EBE37297F828304FF47A7101FB33
:10493C0003F39A4209DD7B7FDA003B7F13441A466E
:10494C00FB68134401221A7008E07B7FDA003B7F7E
:10495C0013441A46FB68134400221A703B7F013340
:10496C003B773B7F072BC2D97B7F01337B777B7FE8
:10497C00072BB9D90023FB7626E00023BB761DE07C
:10498C00FB7E20333B4413F8103C5AB2FB7ED9001B
:10499C00BB7E0B441946FB680B441B781946BB7E47
:1049AC0001FA03F35BB213435AB2FB7ED2B220334B
:1049BC003B4403F8102CBB7E0133BB76BB7E072B2C
:1049CC00DED9FB7E0133FB76FB7E072BD5D907F1B5
:1049DC00100379681846FFF7F5FE00BF2037BD4677
:1049EC0080BD000080B584B000AF0346FB71FB793D
:1049FC009B000133DB0003F540731846FBF7A8FB63
:104A0C000346FB7300F036FC03462C4A1360FB7B19
:104A1C00172B09D101224FF48041294802F093FA57
:104A2C00284B00221A6039E0FCF729FE0346012BC3
:104A3C0023D1FB7B002B20D100224FF48041204856
:104A4C0002F081FA204B1A88F87920230121FBF718
:104A5C00CFFE1E4B1A88FB791D491846FCF756F8F9
:104A6C00184B1B680133174A1360144B1B68A3F5D2
:104A7C009C53083B114A136010E000224FF4804114
:104A8C000F4802F060FAFB791846FBF7C5FF0B4B99
:104A9C001B68A3F59C53083B084A1360FB799B00E9
:104AAC000133DB0003F540731846FBF751FB03465B
:104ABC00FB73FB7B18461037BD4680BDB00600204B
:104ACC0000100140CC060020840500208205002047
:104ADC000C05002080B58CB000AF0346FB71FB7950
:104AEC00002B0BD12C4B1E225A602B4B4FF4E02287
:104AFC001A61294B4FF400125A611CE0FB79012B0F
:104B0C000BD1254B28225A60234B4FF430221A61CB
:104B1C00214B4FF480025A610DE0FB79022B0AD134
:104B2C001D4B3C225A601C4B4FF470221A611A4BDD
:104B3C004FF4C0025A61184B0122DA76164B4FF033
:104B4C000072DA60144800F0E1FB0123BB62002321
:104B5C00FB610023BB614FF46843BB600023FB6027
:104B6C000E4B3B6106237B6100233B6201237B627E
:104B7C000D23FB6207F108031946074800F0C1FC3E
:104B8C00054800F087FD0221034801F02FF800BF13
:104B9C003037BD4680BD00BF9C000020E0FF010007
:104BAC0080B483B000AF0346FB80FB88144AA2FBA1
:104BBC000312D2094FF4C87101FB02F29B1A9BB28B
:104BCC00002B01D1012316E0FB880D4AA2FB031236
:104BDC005209642101FB02F29B1A9BB2002B01D1FA
:104BEC00002308E0FB8803F003039BB2002B01D1E8
:104BFC00012300E0002318460C37BD4680BC7047EB
:104C0C001F85EB5190B585B000AF044608461146A0
:104C1C001A462346FB8003467B710B463B711346B9
:104C2C00FB700023FB600023BB6040F2E473BB60AD
:104C3C0012E0BB689BB21846FFF7B2FF034603F2C3
:104C4C006D134FF4B46202FB03F31A46FB68134472
:104C5C00FB60BB680133BB60FB88A3F2E4731A46AC
:104C6C00BB689342E5D30023BB601EE01F4ABB68C0
:104C7C0052F823304FF4B46202FB03F31A46FB687C
:104C8C001344FB60BB68012B0CD1FB881846FFF763
:104C9C0087FF0346002B05D0FB6803F5A83303F50B
:104CAC00C073FB60BB680133BB607B79BA689A4206
:104CBC00DCD33B79013B1A464FF4B46302FB03F39C
:104CCC00FA681344FB60FA7813461B019B1A9B008D
:104CDC001A46FB681344FB6097F82030FA681344BB
:104CEC00FB60FB6818461437BD4690BD289D000834
:104CFC0080B400AF72B600BF00BFFDE780B485B0D2
:104D0C0000AF154B9B69144A43F001039361124B9E
:104D1C009B6903F00103BB60BB680F4BDB690E4A58
:104D2C0043F08053D3610C4BDB6903F080537B6001
:104D3C007B680A4B5B68FB60FB6823F0E063FB60FD
:104D4C00FB6843F00073FB60044AFB68536000BFD0
:104D5C001437BD4680BC7047001002400000014073
:104D6C0080B588B000AF786007F1100300221A609C
:104D7C005A609A60DA607B681B68204A934239D18A
:104D8C001F4BDB691E4A43F00073D3611C4BDB697C
:104D9C0003F00073FB60FB68194B9B69184A43F0E6
:104DAC0004039361164B9B6903F00403BB60BB685F
:104DBC004FF400633B6100237B610023BB6107F16F
:104DCC00100319460F4801F023FF4FF480533B6149
:104DDC0002237B610323FB6107F110031946094889
:104DEC0001F016FF00220321142001F034FA1420E4
:104DFC0001F04DFA00BF2037BD4680BD0064004075
:104E0C00001002400008014080B58AB000AF786005
:104E1C0007F1180300221A605A609A60DA607B6806
:104E2C001B68374A934230D1364B9B69354A43F461
:104E3C0080539361334B9B6903F480537B617B6993
:104E4C00304B9B692F4A43F0040393612D4B9B69B4
:104E5C0003F004033B613B69A023BB610223FB61AC
:104E6C0003237B6207F118031946274801F0D0FE93
:104E7C004023BB610023FB6100233B6207F1180355
:104E8C001946214801F0C4FE36E07B681B681F4AB6
:104E9C00934231D11B4BDB691A4A43F48043D361F3
:104EAC00184BDB6903F48043FB60FB68154B9B6973
:104EBC00144A43F008039361124B9B6903F00803F7
:104ECC00BB60BB684FF42043BB610223FB6103232F
:104EDC007B6207F1180319460D4801F099FE4FF457
:104EEC008043BB610023FB6100233B6207F1180385
:104EFC001946074801F08CFE00BF2837BD4680BD1F
:104F0C000030014000100240000801400038004011
:104F1C00000C014080B584B000AF78607B681B68E2
:104F2C00B3F1804F14D1194BDB69184A43F00103DC
:104F3C00D361164BDB6903F00103FB60FB680022B5
:104F4C0004211C2001F087F91C2001F0A0F918E0C5
:104F5C007B681B680E4A934213D10C4BDB690B4ADE
:104F6C0043F00203D361094BDB6903F00203BB601E
:104F7C00BB68002205211D2001F06DF91D2001F0F8
:104F8C0086F900BF1037BD4680BD00BF001002403F
:104F9C000004004080B588B000AF786007F11003C2
:104FAC0000221A605A609A60DA607B681B68334A88
:104FBC0093425FD1324B9B69314A43F480439361F6
:104FCC002F4B9B6903F48043FB60FB682C4B9B6964
:104FDC002B4A43F004039361294B9B6903F00403B0
:104FEC00BB60BB684FF400733B6102237B610323FE
:104FFC00FB6107F110031946224801F009FE4FF43A
:10500C0080633B6100237B610023BB6107F11003CC
:10501C0019461C4801F0FCFD1B4B1C4A1A601A4B2C
:10502C0000225A60184B00229A60174B8022DA60DB
:10503C00154B00221A61144B00225A61124B0022AC
:10504C009A61114B0022DA610F4801F03FF90346D7
:10505C00002B01D0FFF74CFE7B680B4ADA630A4A3F
:10506C007B68536200220221252001F0F4F82520F0
:10507C0001F00DF900BF2037BD4680BD003801405E
:10508C000010024000080140580200205800024065
:10509C0080B400AF00BFFDE780B400AF00BFFDE7F8
:1050AC0080B400AF00BFFDE780B400AF00BFFDE7E8
:1050BC0080B400AF00BFFDE780B400AF00BFBD46B9
:1050CC0080BC704780B400AF00BFBD4680BC704749
:1050DC0080B400AF00BFBD4680BC704780B500AF48
:1050EC0000F0B6F800BF80BD80B500AF012001F024
:1050FC005BFF00BF80BD000080B500AF024801F02F
:10510C0053FA00BF80BD00BF5802002080B500AF2D
:10511C00024800F090FD00BF80BD00BF9C00002045
:10512C0080B500AF402001F03FFF00BF80BD000004
:10513C0080B500AF024803F0EBF900BF80BD00BFA3
:10514C008001002080B500AF024803F0E1F900BFF8
:10515C0080BD00BFC801002080B500AF024803F03D
:10516C005BFE00BF80BD00BF1002002080B400AF0A
:10517C0000BFBD4680BC7047FFF7F8FF0B480C49D9
:10518C000C4A002302E0D458C4500433C4188C4297
:10519C00F9D3094A094C002301E013600432A242FE
:1051AC00FBD304F049FDFDF733F9704700000020F4
:1051BC0044000020949D000848000020F8070020BF
:1051CC00FEE7000080B500AF084B1B68074A43F0B0
:1051DC0010031360032001F033F8062000F008F8E8
:1051EC00FFF78CFD0023184680BD00BF0020024055
:1051FC0080B582B000AF7860124B1A68124B1B78E6
:10520C0019464FF47A73B3FBF1F3B2FBF3F3184680
:10521C0001F04FF80346002B01D001230EE07B6810
:10522C000F2B0AD8002279684FF0FF3001F013F8E9
:10523C00064A7B681360002300E0012318460837F8
:10524C00BD4680BD38000020400000203C000020FE
:10525C0080B400AF054B1B781A46054B1B681344F2
:10526C00034A136000BFBD4680BC7047400000205D
:10527C00D407002080B400AF024B1B681846BD4613
:10528C0080BC7047D407002080B584B000AF786034
:10529C00FFF7F0FFB8607B68FB60FB68B3F1FF3F82
:1052AC0005D00A4B1B781A46FB681344FB6000BF01
:1052BC00FFF7E0FF0246BB68D31AFA689A42F7D8A8
:1052CC0000BF00BF1037BD4680BD00BF40000020AE
:1052DC0080B400AF024B1B681846BD4680BC7047BB
:1052EC00E8F7FF1F80B400AF024B1B681846BD46A1
:1052FC0080BC7047ECF7FF1F80B400AF024B1B68FB
:10530C001846BD4680BC7047F0F7FF1F80B584B0CF
:10531C0000AF78607B68002B01D10123EDE07B6846
:10532C0093F82030DBB2002B02D17868FFF718FD20
:10533C007B681B681A687B681B6842F001021A6064
:10534C00FFF798FFF86012E0FFF794FF0246FB6846
:10535C00D31A0A2B0BD97B685B6A43F400327B6847
:10536C005A627B68052283F820200123C5E07B6804
:10537C001B685B6803F00103002BE5D07B681B689E
:10538C001A687B681B6822F002021A60FFF772FF32
:10539C00F86012E0FFF76EFF0246FB68D31A0A2B87
:1053AC000BD97B685B6A43F400327B685A627B687A
:1053BC00052283F8202001239FE07B681B685B6833
:1053CC0003F00203002BE5D17B681B7E012B08D177
:1053DC007B681B681A687B681B6842F080021A6045
:1053EC0007E07B681B681A687B681B6822F08002E8
:1053FC001A607B685B7E012B08D17B681B681A687E
:10540C007B681B6842F040021A6007E07B681B68EF
:10541C001A687B681B6822F040021A607B689B7ECE
:10542C00012B08D17B681B681A687B681B6842F0EB
:10543C0020021A6007E07B681B681A687B681B688F
:10544C0022F020021A607B68DB7E012B08D17B687E
:10545C001B681A687B681B6822F010021A6007E050
:10546C007B681B681A687B681B6842F010021A6024
:10547C007B681B7F012B08D17B681B681A687B68D3
:10548C001B6842F008021A6007E07B681B681A6808
:10549C007B681B6822F008021A607B685B7F012B1B
:1054AC0008D17B681B681A687B681B6842F0040291
:1054BC001A6007E07B681B681A687B681B6822F01F
:1054CC0004021A607B689A687B68DB681A437B6805
:1054DC001B691A437B685B6942EA03017B685B6862
:1054EC005A1E7B681B680A43DA617B6800225A6289
:1054FC007B68012283F82020002318461037BD4614
:10550C0080BD80B487B000AF786039607B681B6861
:10551C007B617B6893F82030FB74FB7C012B03D000
:10552C00FB7C022B40F0AA807B69D3F8003243F05D
:10553C0001027B69C3F800223B685B6903F01F031F
:10554C00012202FA03F3FB607B69D3F81C22FB688F
:10555C00DB431A407B69C3F81C223B68DB69002BD8
:10556C0023D17B69D3F80C22FB68DB431A407B699F
:10557C00C3F80C223B68DB6819043B685B689BB280
:10558C003A68526919437B69483243F832103B68D8
:10559C009B6819043B681B689AB23B685B690A43B9
:1055AC0079694833DB000B445A603B68DB69012B9B
:1055BC0022D17B69D3F80C22FB681A437B69C3F8B0
:1055CC000C223B681B6819043B685B689BB23A6809
:1055DC00526919437B69483243F832103B689B6827
:1055EC0019043B68DB689AB23B685B690A437969CA
:1055FC004833DB000B445A603B689B69002B09D194
:10560C007B69D3F80422FB68DB431A407B69C3F83F
:10561C00042207E07B69D3F80422FB681A437B69F8
:10562C00C3F804223B681B69002B09D17B69D3F8B2
:10563C001422FB68DB431A407B69C3F8142207E091
:10564C007B69D3F81422FB681A437B69C3F81422D4
:10565C003B681B6A012B07D17B69D3F81C22FB68C2
:10566C001A437B69C3F81C227B69D3F8003223F000
:10567C0001027B69C3F80022002306E07B685B6AA9
:10568C0043F480227B685A62012318461C37BD46BE
:10569C0080BC704780B584B000AF78607B6893F8AD
:1056AC002030DBB2012B2ED17B68022283F8202024
:1056BC007B681B681A687B681B6822F001021A6001
:1056CC00FFF7D8FDF86012E0FFF7D4FD0246FB6847
:1056DC00D31A0A2B0BD97B685B6A43F400327B68C4
:1056EC005A627B68052283F82020012312E07B6834
:1056FC001B685B6803F00103002BE5D17B6800227B
:10570C005A62002306E07B685B6A43F400227B68E4
:10571C005A62012318461037BD4680BD80B489B04B
:10572C0000AFF860B9607A603B60FB6893F820309A
:10573C00FB77FB681B689B68BB61FB7F012B03D06D
:10574C00FB7F022B40F0AD80BB6903F08063002B24
:10575C000AD1BB6903F00063002B05D1BB6903F0D0
:10576C008053002B00F09580BB691B0E03F00303E4
:10577C007B6101227B699A403B681A60BB689B681D
:10578C00002B0DD1BB681B685A05BB68DB68F96838
:10579C0009681A437B6918331B010B441A600FE02C
:1057AC00BB685B68DA00BB689B681A43BB68DB6844
:1057BC00F96809681A437B6918331B010B441A609A
:1057CC00FB681968BB681A697B6918331B010B44A9
:1057DC0004331A60BB681B7D012B11D1FB681A685E
:1057EC007B6918331B01134404331B68FA68116876
:1057FC0043F480727B6918331B010B4404331A6029
:10580C007B6807331B781A067B6806331B781B04EE
:10581C001A437B6805331B781B0213437A680432E6
:10582C0012781046FA68116843EA00027B691B0182
:10583C000B4403F5C6731A607B6803331B781A0696
:10584C007B6802331B781B041A437B6801331B787B
:10585C001B0213437A6812781046FA68116843EAFF
:10586C0000027B691B010B4403F5C4731A60FB68CF
:10587C001A687B6918331B0113441B68FA6811689A
:10588C0043F001027B6918331B010B441A6000239F
:10589C000EE0FB685B6A43F40012FB685A6201235A
:1058AC0006E0FB685B6A43F48022FB685A620123C2
:1058BC0018462437BD4680BC704780B485B000AF15
:1058CC00786039607B6893F82030FB73FB7B012B8D
:1058DC0002D0FB7B022B28D13B6803F00103002B89
:1058EC0007D07B681B689A687B681B6842F0800253
:1058FC009A603B6803F00203002B07D07B681B689F
:10590C009A687B681B6842F400429A603B6803F01B
:10591C000403002B07D07B681B689A687B681B68A4
:10592C0042F400029A60002306E07B685B6A43F451
:10593C0080227B685A62012318461437BD4680BC0E
:10594C00704780B485B000AF78600023FB607B6843
:10595C0093F82030FB72FB7A012B02D0FB7A022BDE
:10596C001DD17B681B689B6803F08063002B02D001
:10597C00FB680133FB607B681B689B6803F000636A
:10598C00002B02D0FB680133FB607B681B689B68B3
:10599C0003F08053002B02D0FB680133FB60FB68E3
:1059AC0018461437BD4680BC704780B487B000AF32
:1059BC00F860B9607A603B60FB6893F82030FB7547
:1059CC00FB7D012B03D0FB7D022B40F00381BB68D8
:1059DC00002B0ED1FB681B68DB6803F00303002B64
:1059EC0016D1FB685B6A43F40012FB685A62012310
:1059FC00F7E0FB681B681B6903F00303002B07D15E
:105A0C00FB685B6A43F40012FB685A620123E8E00E
:105A1C00FB681A68BB681B331B0113441B6803F03B
:105A2C0004027B689A607B689B68002B0CD1FB6836
:105A3C001A68BB681B331B0113441B685B0DC3F353
:105A4C000A027B681A600BE0FB681A68BB681B33A0
:105A5C001B0113441B68DB0823F060427B685A600F
:105A6C00FB681A68BB681B331B0113441B6803F0EB
:105A7C0002027B68DA60FB681A68BB681B331B0187
:105A8C00134404331B6803F00803002B03D07B681A
:105A9C0008221A610BE0FB681A68BB681B331B01F8
:105AAC00134404331B6803F00F027B681A61FB6814
:105ABC001A68BB681B331B01134404331B681B0A95
:105ACC00DAB27B689A61FB681A68BB681B331B01EE
