:020000040800F2
:10000000005000206D500008854F00088D4F0008FB
:10001000954F00089D4F0008A54F00080000000004
:10002000000000000000000000000000AD4F0008CC
:10003000B94F000800000000C54F0008D14F00086C
:10004000B5500008B5500008B5500008B55000087C
:10005000B5500008B5500008DD4F0008B550000845
:10006000B5500008B5500008B5500008B55000085C
:10007000B5500008B5500008B5500008ED4F000815
:10008000B5500008B5500008B5500008B55000083C
:1000900001500008B5500008B55000081550000880
:1000A000B5500008B5500008B5500008B55000081C
:1000B0002550000839500008B5500008B550000818
:1000C000B5500008B5500008B5500008B5500008FC
:1000D000B55000084D500008B5500008B550000854
:1000E000B5500008B5500008B550000800000000E9
:1000F0000000000000000000000000000000000000
:0C01000000000000000000005FF808F1A3
:10010C0010B5054C237833B9044B13B10448AFF345
:10011C0000800123237010BD480000200000000067
:10012C00849B000808B5034B1BB103490348AFF38C
:10013C00008008BD000000004C000020849B0008DB
:10014C00034613F8012B002AFBD1181A013870470B
:10015C0080B584B000AF7860224BDB689847214BA8
:10016C005B6998471F4B5B6A002B03D01D4B9B6A46
:10017C00002B14D11B4B1B6A7A68120CD2B210469E
:10018C009847184B1B6A7A68120AD2B210469847E5
:10019C00144B1B6A7A68D2B21046984711E07B6800
:1001AC001B0CDBB23B737B681B0ADBB27B737B687B
:1001BC00DBB2BB730B4B9B6A07F10C02032110469D
:1001CC009847084BDB6998470346FB73054B9B69C3
:1001DC009847044B1B699847FB7B18461037BD4664
:1001EC0080BD00BF0400002080B584B000AF7860F3
:1001FC000B46FB70224BDB689847214B5B69984799
:10020C007B6843F004037B601D4B9B6A002B19D168
:10021C001B4B1B6A7A68120CD2B210469847184BCB
:10022C001B6A7A68120AD2B210469847144B1B6AA2
:10023C007A68D2B210469847114B1B6AFA7810466E
:10024C00984713E07B681B0CDBB23B737B681B0A83
:10025C00DBB27B737B68DBB2BB73FB78FB73084B45
:10026C009B6A07F10C02042110469847044B9B69CA
:10027C009847034B1B69984700BF1037BD4680BD9C
:10028C000400002090B587B000AFF860B960134649
:10029C00FB802B4BDB689847294B5B699847284BB5
:1002AC005B6A002B03D0264B9B6A002B26D1244B78
:1002BC001B6AFA68120CD2B210469847204B1B6A84
:1002CC00FA68120AD2B2104698471D4B1B6AFA689C
:1002DC00D2B2104698470023FB820AE0184BDB6928
:1002EC00FA8AB9688C18984703462370FB8A013345
:1002FC00FB82FA8AFB889A42F0D317E0FB681B0C4E
:10030C00DBB23B74FB681B0ADBB27B74FB68DBB2B1
:10031C00BB740B4B9B6A07F11002032110469847E4
:10032C00074B5B6AFA881146B8689847044B9B697F
:10033C009847034B1B69984700BF1C37BD4690BDBF
:10034C000400002080B586B000AFF860B960134699
:10035C00FB802B4BDB689847294B5B699847FB6804
:10036C0043F00403FB60264B9B6A002B26D1244BE5
:10037C001B6AFA68120CD2B210469847204B1B6AC3
:10038C00FA68120AD2B2104698471D4B1B6AFA68DB
:10039C00D2B2104698470023FB820AE0184B1B6A26
:1003AC00FA8AB9680A44127810469847FB8A0133D6
:1003BC00FB82FA8AFB889A42F0D317E0FB681B0C8D
:1003CC00DBB23B74FB681B0ADBB27B74FB68DBB2F1
:1003DC00BB740B4B9B6A07F1100203211046984724
:1003EC00074B9B6AFA881146B8689847044B9B697F
:1003FC009847034B1B69984700BF1837BD4680BD13
:10040C000400002090B585B000AF0346FB710023BB
:10041C00FB810023BB81FB799B000133DB0003F5DF
:10042C0000531846FFF794FE0346BB81BB891B02A1
:10043C009CB2FB799B000133DB0003F50453184697
:10044C00FFF786FE03462344BB81BB89002B19D0E2
:10045C00FB799B000133DB0003F500531846FFF7D3
:10046C0077FE0346FB81FB891B029CB2FB799B0048
:10047C000133DB0003F504531846FFF769FE03460E
:10048C002344FB81FA89BB899A42C4D1FB89184663
:10049C001437BD4690BD90B585B000AF0346FB71D7
:1004AC000023FB810023BB81FB799B000133DB0024
:1004BC0003F518531846FFF74BFE0346BB81BB8967
:1004CC001B029CB2FB799B000133DB0003F51C5330
:1004DC001846FFF73DFE03462344BB81BB89002B26
:1004EC0019D0FB799B000133DB0003F51853184638
:1004FC00FFF72EFE0346FB81FB891B029CB2FB79A6
:10050C009B000133DB0003F51C531846FFF720FE5C
:10051C0003462344FB81FA89BB899A42C4D1FB89E7
:10052C0018461437BD4690BD90B585B000AF034654
:10053C003960FB711346BB800023FB810023BB6039
:10054C00BB88002B46D0FB799B000133DB0003F505
:10055C0010531846FFF7FCFD03461B029CB2FB79B7
:10056C009B000133DB0003F514531846FFF7F0FD35
:10057C0003462344FB81FB891A02FB799B0002335F
:10058C00DB001344BB60BB881A463968B868FFF7B8
:10059C00D9FEFA89BB881344FB81FB799B0001339C
:1005AC00DB0003F510531A46FB891B0A9BB2DBB226
:1005BC0019461046FFF718FEFB799B000133DB0050
:1005CC0003F514531A46FB89DBB219461046FFF7A4
:1005DC000BFE00E000BF1437BD4690BD90B585B052
:1005EC0000AF03463960FB711346BB800023FB81CF
:1005FC000023BB60BB88002B46D0FB799B000133EA
:10060C00DB0003F520531846FFF7A2FD03461B023F
:10061C009CB2FB799B000133DB0003F52453184695
:10062C00FFF796FD03462344FB81FB891A02FB79F5
:10063C009B000333DB001344BB60BB881A4639684C
:10064C00B868FFF71FFEFA89BB881344FB81FB795E
:10065C009B000133DB0003F520531A46FB891B0A70
:10066C009BB2DBB219461046FFF7BEFDFB799B002F
:10067C000133DB0003F524531A46FB89DBB2194620
:10068C001046FFF7B1FD00E000BF1437BD4690BD2A
:10069C0080B500AF00221021024806F0C8FB00BF55
:1006AC0080BD00BF0008014080B500AF01221021C1
:1006BC00024806F0BCFB00BF80BD00BF0008014033
:1006CC0080B582B000AFF91D4FF0FF330122044812
:1006DC0007F024FAFB7918460837BD4680BD00BFE9
:1006EC00D000002080B582B000AF0346FB71F91D2D
:1006FC004FF0FF330122034807F0CCF800BF083756
:10070C00BD4680BDD000002080B582B000AF7860BF
:10071C000B467B807A884FF0FF337968034807F0EB
:10072C00FDF900BF0837BD4680BD00BFD0000020DA
:10073C0080B582B000AF78600B467B807A884FF032
:10074C00FF337968034807F0A5F800BF0837BD46AA
:10075C0080BD00BFD000002090B587B000AFFF2354
:10076C00FB751A4B3C1D0FCB84E80F0001221021A6
:10077C00174806F05CFB00220221164806F057FBD6
:10078C0000BFFB7D5A1EFA75002BFAD10122022103
:10079C00104806F04CFB1049104800F029FD104998
:1007AC00104800F049FD1049104800F071FD3B1D48
:1007BC001946012000F098FD0346B3F1FF3F01D12B
:1007CC0000BFFDE700BF1C37BD4690BD9C9B0008D9
:1007DC0000080140000C0140B50600089D06000809
:1007EC00F1060008CD0600083D07000815070008B3
:1007FC0090B585B000AF0446084611461A4623460C
:10080C00FB710346BB710B46BB801346FB70FB7937
:10081C00082B02D94FF0FF33EFE0BB79012B05D049
:10082C00002B11DD023B022B0ED811E007F10C035B
:10083C00042219464FF47060FFF724FDFB68002B6F
:10084C0005D16FF00203D8E06FF00403D5E000BFD0
:10085C00FB7803F00403002B02D06FF00503CCE00F
:10086C00FB78002B28D0BB79012B02D0022B08D0AF
:10087C0022E0FB7803F02103002B1AD16FF0050363
:10088C00BBE0FB7803F02003002B06D097F9033074
:10089C00002B02DB6FF00503AFE0FB7803F01003D5
:1008AC00002B08D097F90330002B04DB6FF0050305
:1008BC00A3E000BF00E000BFFB79184600F0ACF8E5
:1008CC00FB799B000133D80097F9033023F00F0319
:1008DC005AB297F9063013435BB2DBB21946FFF7F5
:1008EC0083FCBB88002B10D1464B1B885A1C91B241
:1008FC00444A1180BB80434B1B884FF6F0729342E5
:10090C0003D1404B4FF440421A80FB799B000133DA
:10091C00DB0003F580631A46BB881B0A9BB2DBB273
:10092C0019461046FFF760FCFB799B000133DB0096
:10093C0003F5A0631A46BB88DBB219461046FFF7D5
:10094C0053FCFB799B000133DB0003F58073012121
:10095C001846FFF749FC00BFFB799B000133DB0015
:10096C0003F580731846FFF7F3FB0346002BF3D116
:10097C00FB79012202FA03F31BB2DB431AB2224BBE
:10098C001B881BB213401BB29AB21F4B1A80FB7808
:10099C0003F00102FB7902FA03F31AB21A4B1B881B
:1009AC001BB213431BB29AB2174B1A80FB7901226C
:1009BC0002FA03F31BB2DB431AB2144B1B881BB2B3
:1009CC0013401BB29AB2114B1A80FB79104A0021CA
:1009DC0022F81310FB790F4A0021D15400BFFB7988
:1009EC009B000133DB0003F540731846FFF7B0FBA7
:1009FC000346002BF3D097F9073018461437BD4641
:100A0C0090BD00BF000000206400002066000020A4
:100A1C00680000207C00002080B582B000AF034647
:100A2C00FB71FB79082B02D94FF0FF3360E0FB79A7
:100A3C009B000133DB0003F5807310211846FFF790
:100A4C00D3FB00BFFB799B000133DB0003F5807304
:100A5C001846FFF77DFB0346002BF3D1FB799B0077
:100A6C000133DB0003F500731F211846FFF7BCFBB5
:100A7C00FB79012202FA03F31BB2DB431AB21E4BC1
:100A8C001B881BB213401BB29AB21B4B1A80FB790A
:100A9C00012202FA03F31BB2DB431AB2174B1B8879
:100AAC001BB213401BB29AB2144B1A80FB79144A36
:100ABC00002122F81310FB79124A0021D1540AE0CC
:100ACC00114B1B78DBB2012B05D10F4B00221A7096
:100ADC006FF00C030CE0FB799B000133DB0003F59A
:100AEC0040731846FFF734FB0346002BE8D1012373
:100AFC0018460837BD4680BD640000206600002003
:100B0C00680000207C0000207800002080B584B0B4
:100B1C0000AF03463960FB711346BB80FB79082B91
:100B2C0002D94FF0FF33D1E0FB799B000133DB009E
:100B3C001846FFF70DFB034603F00F03012B02D001
:100B4C006FF00403C2E0FB799B000133DB0003F57B
:100B5C0040731846FFF7FCFA0346132B02D06FF0D4
:100B6C000203B3E03B681B78FB60FB681B023A682E
:100B7C00013212781344FB60FB681B023A680232A4
:100B8C0012781344FB60FB681B023A68033212783C
:100B9C001344FB60FB68B3F1FF3F02D0FB68002BF2
:100BAC0002D16FF00B0391E0BB88002B02D16FF0E8
:100BBC000A038BE0FB799B000133DB0003F54063F8
:100BCC00042239681846FFF7BDFBFB799B00013303
:100BDC00DB0003F580531A46BB881B0A9BB2DBB2C1
:100BEC0019461046FFF700FBFB799B000133DB0035
:100BFC0003F588531A46BB88DBB219461046FFF73B
:100C0C00F3FAFB799B000133DB0003F580730421BD
:100C1C001846FFF7E9FA00BFFB799B000133DB00B4
:100C2C0003F580731846FFF793FA0346002BF3D1B4
:100C3C00284B1B881A46FB7942FA03F303F0010395
:100C4C00002B36D0002341E0FB799B000133DB0005
:100C5C0003F500731846FFF77BFA034603F008030D
:100C6C00002B0CD0FB799B000133DB0003F50073E8
:100C7C0008211846FFF7B8FA6FF00C0326E0FB7951
:100C8C009B000133DB0003F540731846FFF760FA55
:100C9C000346002B02D16FF0030317E00E4B1B78B9
:100CAC00DBB2012B05D10C4B00221A706FF00C0338
:100CBC000CE0FB799B000133DB0003F54073184615
:100CCC00FFF746FA0346172BBED1012318461037FF
:100CDC00BD4680BD640000207800002080B582B045
:100CEC0000AF0346FB71FB79082B02D94FF0FF33A1
:100CFC006DE0FB799B000133DB001846FFF728FA07
:100D0C00034603F00F03012B02D06FF004035EE0E7
:100D1C00FB799B000133DB0003F580730821184637
:100D2C00FFF762FA00BFFB799B000133DB0003F590
:100D3C0080731846FFF70CFA0346002BF3D1FB79AE
:100D4C00012202FA03F31BB2DB431AB2224B1B88BB
:100D5C001BB213401BB29AB21F4B1A801F4B1B883D
:100D6C001A46FB7942FA03F303F00103002B21D05E
:100D7C0000232CE0FB799B000133DB0003F50073AF
:100D8C001846FFF7E5F9034603F00803002B06D0DD
:100D9C00FB791846FFF740FE6FF00C0317E0104B81
:100DAC001B78DBB2012B05D10D4B00221A706FF0B2
:100DBC000C030CE0FB799B000133DB0003F5407363
:100DCC001846FFF7C5F90346002BD3D1012318466B
:100DDC000837BD4680BD00BF6600002064000020BF
:100DEC007800002080B584B000AF03463960FB71F9
:100DFC001346BB800023FB730023BB81FB79082BBC
:100E0C0002D94FF0FF33DDE0FB799B000133DB00AF
:100E1C001846FFF79DF9034603F00F03012B02D090
:100E2C006FF00403CEE0BB88002B02D16FF00D03F2
:100E3C00C8E0FB799B000133DB0003F540731846D7
:100E4C00FFF786F90346FB73FB7B172B05D0FB7B67
:100E5C001C2B02D06FF00603B4E05C4B1B881A46C7
:100E6C00FB7942FA03F303F00103002B39D0FB7931
:100E7C009B000133DB0003F500731846FFF768F99C
:100E8C00034603F01F03FB73FB7B03F01003002BE3
:100E9C0019D0FB799B000133DB0003F500731021A3
:100EAC001846FFF7A1F9FB79012202FA03F31BB2F2
:100EBC00DB431AB2454B1B881BB213401BB29AB2D0
:100ECC00424B1A800DE0FB7B03F00803002B06D08D
:100EDC00FB791846FFF7A0FD6FF00C0372E00023BE
:100EEC0070E0FB799B000133DB0003F5F8531846E7
:100EFC00FFF72EF903469B02BB81BA88BB899A4245
:100F0C0001D9BB89BB80FB791846FFF77BFA0346F6
:100F1C00BB81FB799B000133DB0003F54073184662
:100F2C00FFF716F90346FB73FB7B172B09D0FB7BF2
:100F3C001C2B06D0FB791846FFF76EFD6FF00603ED
:100F4C0040E0234B1B881A46FB7942FA03F303F06B
:100F5C000103002B05D0BA88BB899A4201D9002322
:100F6C0030E0BA88BB899A4200D9CCE700BFBA8876
:100F7C00FB7939681846FFF7D7FAFB799B000133E8
:100F8C00DB0003F5807320211846FFF72DF900BF15
:100F9C00FB799B000133DB0003F580731846FFF7E8
:100FAC00D7F80346002BF3D1FB79012202FA03F3A5
:100FBC001AB2064B1B881BB213431BB29AB2034BDB
:100FCC001A80BB8818461037BD4680BD66000020CD
:100FDC006400002090B585B000AF03463960FB710A
:100FEC001346BB800023FB730023BB81FB79082BCA
:100FFC0002D94FF0FF339BE0FB799B000133DB0000
:10100C001846FFF7A5F8034603F00F03012B02D097
:10101C006FF004038CE0BB88002B02D16FF00D0342
:10102C0086E0FB799B000133DB0003F5F053184697
:10103C00FFF78EF803469B02BB81BA89BB889A42A4
:10104C0001D2BB89BB80FB791846FFF724FA034613
:10105C00BB81FB799B000133DB0003F54073184621
:10106C00FFF776F80346FB73FB7B172B26D0FB7B35
:10107C001C2B1CD1BB89002B33D1FB791846FFF7F5
:10108C00C1F903461C46FB799B000133DB0003F5D9
:10109C00F8531846FFF75CF803469B029C420DD1AF
:1010AC00FB791846FFF7B8FC6FF0060340E0FB79BC
:1010BC001846FFF7B1FC6FF0060339E01E4B1B8896
:1010CC001A46FB7942FA03F303F00103002B04D018
:1010DC00BB89002B01D100232AE0BB89002B02D154
:1010EC00B1E700BF00E000BFBA89BB889A4201D2C9
:1010FC00BB89BB80BA88FB7939681846FFF76EFA52
:10110C00FB799B000133DB0003F58073402118460B
:10111C00FFF76AF800BFFB799B000133DB0003F596
:10112C0080731846FFF714F80346002BF3D1BB88E5
:10113C0018461437BD4690BD6400002080B400AF43
:10114C0000BFBD4680BC704780B400AF00BFBD4639
:10115C0080BC704780B400AF00BFBD4680BC7047F8
:10116C0080B400AF00BFBD4680BC704780B483B074
:10117C0000AF78607B681B78DBB218460C37BD4635
:10118C0080BC704780B483B000AF78600B46FB70B6
:10119C007B68FA781A7000BF0C37BD4680BC70476C
:1011AC0080B400AF00231846BD4680BC704780B4A5
:1011BC0083B000AF0346FB7100BF0C37BD4680BC4B
:1011CC00704780B483B000AF78600B467B8000BF63
:1011DC000C37BD4680BC704780B483B000AF7860DC
:1011EC000B467B8000BF0C37BD4680BC70470000AF
:1011FC0080B483B000AF786039607B68002B02D07C
:10120C003B68002B06D1094B094A5A61074B094A26
:10121C009A6106E0054A7B685361044A3B68936116
:10122C0000BF00BF0C37BD4680BC704704000020D7
:10123C00611100086D11000880B483B000AF7860B4
:10124C00396000BF0F4B1B8803F40073002BF9D0DF
:10125C007B68002B02D03B68002B06D1094B0A4A55
:10126C00DA61084B094A1A6206E0064A7B68D361C8
:10127C00044A3B68136200BF00BF0C37BD4680BCFC
:10128C00704700BF04000020AD110008BB1100081E
:10129C0080B483B000AF7860396000BF0F4B1B88FF
:1012AC0003F40073002BF9D07B68002B02D03B6851
:1012BC00002B06D1094B0A4A5A62084B094A9A621A
:1012CC0006E0064A7B685362044A3B68936200BF9F
:1012DC0000BF0C37BD4680BC704700BF0400002027
:1012EC00CF110008E511000890B587B000AF034698
:1012FC003960FB710023FB750023FB6000233B610D
:10130C00FB790F2B00F2C58001A252F823F000BF2D
:10131C005D130008631300088F1300088313000883
:10132C009D130008A9130008B7130008DD1300086B
:10133C00FF13000843140008491400085114000856
:10134C00A514000859140008671400088314000839
:10135C0000F0AAF8A1E03B68002B04D03B68FB60CE
:10136C00FB6808333B61FB683A691146184600F08C
:10137C00E7F8034692E03B681B88184600F06CF9CE
:10138C008BE000F09DF903461A463B681A8084E016
:10139C003B681B88184600F0B8F97EE000F0D0F9E5
:1013AC0003461A463B681A8077E03B681B881B0A89
:1013BC009BB2DBB219464FF49850FEF715FF3B6811
:1013CC001B88DBB219464FF4A050FEF70DFF64E00A
:1013DC004FF49850FEF7BCFE03461B029CB24FF430
:1013EC00A050FEF7B5FE034623449AB23B681A8020
:1013FC0053E02C4B9A783B681A703B680133294AAE
:10140C00D2781A703B680233264A12791A703B68FC
:10141C000333244A52791A703B680433214A927977
:10142C001A703B6805331F4AD2791A703B68063331
:10143C0000221A7031E000F0D5F92EE0386800F087
:10144C00F8F92AE0386800F037FA26E03B681B7898
:10145C00184600F09BFA034620E000F0AAF9034678
:10146C00FB75FB7DFF2B02D14FF0FF3316E03B6881
:10147C00FA7D1A7011E000F086F90346FB75FB7DCE
:10148C00FF2B02D14FF0FF3308E03B68FA7D1A7056
:10149C0003E04FF0FF3301E000BF002318461C3778
:1014AC00BD4690BD0400002080B586B000AF3B1D4A
:1014BC00062219464FF41060FEF7E4FE07F1140300
:1014CC00042219464FF48070FEF7DCFE07F110037E
:1014DC00042219464FF4A060FEF7D4FE07F10C036A
:1014EC00042219464FF47060FEF7CCFE80210020D8
:1014FC00FEF77AFE0020FEF72BFE3B1D0622194656
:10150C004FF41060FEF71EFF07F114030422194676
:10151C004FF48070FEF716FF07F1100304221946F2
:10152C004FF4A060FEF70EFF07F10C0304221946DE
:10153C004FF47060FEF706FF00BF1837BD4680BD44
:10154C0080B584B000AF786039600023BB73FFF7BF
:10155C00ABFF7B68002B3BD00023BB730023FB73DA
:10156C0015E097F90F307A6813441A78BB7B134453
:10157C00DBB2BB7397F90E30102B02DD4FF0FF334B
:10158C0066E097F90F30DBB20133DBB2FB7397F9EE
:10159C000F30072BE5DD0023FB7315E097F90F30B7
:1015AC009B000133DB0003F5F853184697F90F3015
:1015BC007A6813441B781946FEF716FE97F90F301C
:1015CC00DBB20133DBB2FB7397F90F30072BE5DD90
:1015DC003B68002B3BD00023BB730023FB7315E04F
:1015EC0097F90F303A6813441A78BB7B1344DBB27B
:1015FC00BB7397F90E30102B02DD4FF0FF3327E051
:10160C0097F90F30DBB20133DBB2FB7397F90F3074
:10161C00072BE5DD0023FB7315E097F90F309B00DA
:10162C000133DB0003F5F053184697F90F303A6895
:10163C0013441B781946FEF7D7FD97F90F30DBB230
:10164C000133DBB2FB7397F90F30072BE5DD002379
:10165C0018461037BD4680BD80B584B000AF034638
:10166C00FB80FB88FB73FB881B0A9BB2BB73FB7B69
:10167C0023F00F03DBB219464FF4A850FEF7B4FD6C
:10168C000023FB7314E0BA7BFB7B42FA03F303F0F9
:10169C000103002B09D0FB7B9B000133DB0003F51E
:1016AC0000731F211846FEF79FFDFB7B0133FB7374
:1016BC00FB7B072BE7D900BF00BF1037BD4680BDB1
:1016CC0080B582B000AF0023FB710023BB710023F7
:1016DC00BB804FF4A850FEF73BFD034623F00F03ED
:1016EC00FB714FF4B850FEF733FD0346BB71BB7969
:1016FC00BB80BB881B029AB2FB799BB21344BB80A4
:10170C00BB8818460837BD4680BD80B584B000AF95
:10171C000346FB80FB88FB73FB881B0A9BB2BB73E5
:10172C00FB7B19464FF4B050FEF75EFDBB7B1946B0
:10173C004FF4C050FEF758FD00BF1037BD4680BDBA
:10174C0080B582B000AF0023FB710023BB71002376
:10175C00BB804FF4B050FEF7FBFC0346FB714FF41B
:10176C00C050FEF7F5FC0346BB71BB79BB80BB8850
:10177C001B029AB2FB799BB21344BB80BB88184600
:10178C000837BD4680BD80B582B000AF0023FB7129
:10179C004FF43850FEF7DCFC034603F00103002B3A
:1017AC0001D00123FB7197F9073018460837BD4665
:1017BC0080BD80B582B000AF0023FB714FF4385070
:1017CC00FEF7C6FC034603F03803302B02D101238D
:1017DC00FB7101E00023FB7197F9073018460837BD
:1017EC00BD4680BD80B582B000AF4FF43850FEF7D7
:1017FC00AFFC0346FB71FB7903F07F03FB71FB79B4
:10180C0019464FF43850FEF7EFFC4FF43850FEF702
:10181C009FFC0346FB71FB7963F07F03FB71FB7943
:10182C0019464FF43850FEF7DFFC00BF0837BD46B1
:10183C0080BD80B584B000AF78600023FB737B68FB
:10184C001B78012B04D1FB7B43F04003FB7303E0BB
:10185C00FB7B23F04003FB737B685B78012B04D18B
:10186C00FB7B43F03803FB7319E07B68DB78012BBF
:10187C000DD17B689B78012B04D1FB7B43F01803C3
:10188C00FB730CE0FB7B43F00803FB7307E07B6806
:10189C009B78012B03D1FB7B43F01003FB73FB7B89
:1018AC0019464FF43850FEF79FFCFFF79BFF00BF23
:1018BC001037BD4680BD000080B584B000AF7860A5
:1018CC000023FB734FF43850FEF742FC0346FB73C6
:1018DC00FB7B9B11DBB203F00103DAB27B681A705D
:1018EC00FB7B03F03803202B01D0382B03D17B6812
:1018FC0001225A7003E07B6800225A7000BFFB7B08
:10190C0003F03803103B102B8CBF01220022D2B203
:10191C00002A0FD11B4A22FA03F303F00103002B18
:10192C0014BF01230023DBB2002B03D07B68012200
:10193C009A7003E07B6800229A7000BFFB7B03F077
:10194C003803083B182B8CBF01220022D2B2002A8C
:10195C000FD10D4A22FA03F303F00103002B14BF3D
:10196C0001230023DBB2002B03D07B680122DA7049
:10197C0003E07B680022DA7000BF00BF1037BD4661
:10198C0080BD00BF010101000100010180B584B0E0
:10199C0000AF0346FB710023FB734FF43850FEF786
:1019AC00D7FB0346FB73FB7B03F04003002B02D1F8
:1019BC004FF0FF3330E0FB7B23F03803FB73FB79F4
:1019CC00012B04D1FB7B43F03003FB7303E0FB7B67
:1019DC0043F03803FB73FB7B19464FF43850FEF78A
:1019EC0003FCFFF7FFFE4FF43850FEF7B1FB034644
:1019FC00FB73FB79012B06D1FB7B03F03003002B2F
:101A0C0008D0002308E0FB7B03F03803002B01D047
:101A1C00002301E04FF0FF3318461037BD4680BD60
:101A2C0080B582B000AF78607B68062219464FF40F
:101A3C001060FEF787FC7B680E33042219464FF4C6
:101A4C008070FEF77FFC7B680A33042219464FF442
:101A5C00A060FEF777FC7B680633042219464FF42E
:101A6C007060FEF76FFC7B689A7C0B4B1A707B687E
:101A7C00DA7C094B5A707B681A7D074B9A707B682D
:101A8C005A7D054BDA707B689A7D044B1A7000BF47
:101A9C000837BD4680BD00BF8400002088000020B0
:101AAC0080B500AF00224FF48051024805F0BFF919
:101ABC0000BF80BD000C014080B500AF01224FF487
:101ACC008051024805F0B3F900BF80BD000C014005
:101ADC0080B582B000AF7860786803F049FB00BF36
:101AEC000837BD4680BD000080B582B000AF78607D
:101AFC000B467B807A884FF4FA637968034805F0CB
:101B0C00C9FE00BF0837BD4680BD00BF28010020BC
:101B1C0080B582B000AF78600B467B807A8841F24A
:101B2C0088337968034805F0F9FF00BF0837BD46D4
:101B3C0080BD00BF2801002080B582B000AF052316
:101B4C00BB710120FFF7C4FFFFF7AAFFB91D4FF4CB
:101B5C007A7301220B4805F09DFEF91D4FF47A7340
:101B6C000122084805F0DAFF0120FFF7B1FFFB79ED
:101B7C0003F00103002BF0D1FFF79EFF00BF0837E5
:101B8C00BD4680BD2801002080B582B000AF662321
:101B9C003B7199237B71FFF783FF391D4FF47A73E7
:101BAC000222044805F076FEFFF786FF00BF0837D7
:101BBC00BD4680BD2801002080B588B000AFF8601C
:101BCC007A603B600B46FB72FB681A02FB7A13448B
:101BDC00FB610B233B75FB691B0CDBB27B75FB6953
:101BEC001B0ADBB2BB75FB69DBB2FB7500233B76D2
:101BFC00FFF756FF07F1140305211846FFF774FF92
:101C0C007B689BB219463868FFF782FFFFF754FFD9
:101C1C0000BF2037BD4680BD80B586B000AFF860F0
:101C2C00B9607A600B233B74FB681B0CDBB27B74D2
:101C3C00FB681B0ADBB2BB74FB68DBB2FB740023D2
:101C4C003B75FFF72DFF07F1100305211846FFF731
:101C5C004BFFBB689BB219467868FFF759FFFFF73B
:101C6C002BFF00BF1837BD4680BD80B582B000AFDA
:101C7C000623FB71FFF714FFFB1D01211846FFF72C
:101C8C0033FFFFF719FF0120FFF722FF00BF0837D2
:101C9C00BD4680BD80B582B000AF0423FB71FFF759
:101CAC00FFFEFB1D01211846FFF71EFFFFF704FF87
:101CBC000120FFF70DFF00BF0837BD4680BD80B582
:101CCC0086B000AF0346FB80FB881B037B61FFF7EC
:101CDC0033FFFFF7CAFF20233B737B691B0CDBB27E
:101CEC007B737B691B0ADBB2BB737B69DBB2FB7357
:101CFC00FFF7D6FE07F10C0304211846FFF7F4FE9C
:101D0C00FFF7DAFEFFF718FFFFF7C4FF00BF183725
:101D1C00BD4680BD80B586B000AF786003233B74B0
:101D2C007B681B0CDBB27B747B681B0ADBB2BB745D
:101D3C007B68DBB2FB74FFF7B3FE07F110030421E1
:101D4C001846FFF7D1FE07F10F0301211846FFF7E4
:101D5C00DFFEFFF7B1FEFB7B18461837BD4680BD92
:101D6C0080B5C8B000AF07F59073A3F58A731860FF
:101D7C0007F59073A3F58C73196007F59073A3F5B1
:101D8C008E731A6007F59073A3F5887302221A708C
:101D9C0007F59073A3F58A731B681B0CDAB207F571
:101DAC009073A3F588735A7007F59073A3F58A7333
:101DBC001B681B0ADAB207F59073A3F588739A7047
:101DCC0007F59073A3F58A731B68DAB207F5907365
:101DDC00A3F58873DA70042387F81F3197F81F3145
:101DEC009AB207F59073A3F58E731B689BB21344DC
:101DFC00A7F81A310023A7F81C3118E0B7F81C31EA
:101E0C0007F59072A2F58C7212681A4497F81F317C
:101E1C00591C87F81F111946127807F59073A3F512
:101E2C0088735A54B7F81C310133A7F81C31B7F832
:101E3C001C3107F59072A2F58E7212689A42DDD8A9
:101E4C0007F59073A3F58A731868FFF763FF0346D1
:101E5C00FF2B2BD1FFF709FFB7F81A31FA2B15D945
:101E6C00FFF71EFE07F1100364211846FFF73CFE36
:101E7C0007F110036433B7F81A21643A92B2114691
:101E8C001846FFF731FEFFF717FE0BE0FFF708FED1
:101E9C00B7F81A2107F1100311461846FFF724FE74
:101EAC00FFF70AFEFFF748FEFFF7F4FE00BF07F549
:101EBC009077BD4680BD000080B584B000AF7860DF
:101ECC000B467B807B681A68A34B1B689A4240F0D8
:101EDC00318103F043F90346A04A1360A04B1B78F1
:101EEC00433B142B00F2268101A252F823F000BFD1
:101EFC00B11F0008511F00084121000841210008B2
:101F0C00412100084121000841210008412100081D
:101F1C00412100084121000841210008412100080D
:101F2C00412100084121000841210008212000081E
:101F3C00ED1F000841210008412100084121000843
:101F4C0045200008864B5B781A06854B9B781B0452
:101F5C001A43834BDB781B021343814A12791343D8
:101F6C001A46804B1A60804B1B7883F00103DBB25E
:101F7C00002B00F0DC807D4B1B7883F00103DBB27F
:101F8C00002B00F0D480774B1B681946784802F080
:101F9C00B3F8784B01221A7003F0E0F80346764A46
:101FAC001360C4E0754B1B78002B09D0734B0022D7
:101FBC001A70734B1B781946724802F067F905E0EA
:101FCC00714B1B7819466F4802F060F9644B1B7912
:101FDC00002B14BF01230023DAB26C4B1A70A9E05A
:101FEC006B4B01221A706B4B01221A700023FB738E
:101FFC0009E0FB7B5A1CFB7B5949895C664AD1542E
:10200C00FB7B0133FB73FB7B162BF2D9634B012259
:10201C001A708FE0524B5B78012B09D1604B012277
:10202C001A704F4B5A785F4B1A705A4B01221A7028
:10203C005A4B01221A707DE0494B5B78413B042BD3
:10204C0077D801A252F823F0692000083F2100083C
:10205C002B210008B12000088D200008434B0122E1
:10206C001A7003F07BF803464F4A1360494B012268
:10207C001A704E4B01221A70484B01221A7055E00F
:10208C00394B01221A7003F069F80346464A136073
:10209C00404B01221A70454B01221A703F4B012212
:1020AC001A7043E0424B1B680133414A13602C4BBE
:1020BC009B781A062A4BDB781B041A43284B1B7996
:1020CC001B021343264A527913431A46384B5A6063
:1020DC00234B9A79364B1A72214BDA79344B5A725C
:1020EC001F4B1A7A324B9A721D4B5A7A304BDA725A
:1020FC001B4B9A7A2E4B1A73194BDA7A2C4B5A7358
:10210C00174B1A7B2A4B9A73154B5A7B284BDA7355
:10211C00284B01221A701F4B01221A7006E0264B25
:10212C0001221A701B4B01221A7000BF01E000BF84
:10213C0000E000BF32220A49074806F088FD1F4B19
:10214C001B681A681D4B1B6822F004021A6000BF42
:10215C001037BD4680BD00BF10020020B008002023
:10216C00D002002084070020170900201609002047
:10217C00AC9B000815090020B4080020220900209F
:10218C0078070020B09B000830000020D008002009
:10219C001D0900202309002054070020780000208E
:1021AC001F0900206D070020940800201E09002044
:1021BC006C09002019090020180900205802002081
:1021CC0080B582B000AF0346FB80FB88402B45D125
:1021DC00142002F0CDFF4021224804F011FE0346EA
:1021EC00002B3BD1204B01221A7002F0B7FF0346A3
:1021FC001E4A13601E4B4FF4FA621A6027E002F07D
:10220C00ADFF0246194B1B68D31A1A4A1360194BBF
:10221C001B6842F21072934202D9154B64221A6069
:10222C0002F09CFF0246144B1B68D21A104B1B6821
:10223C009A4209D902F092FF03460F4A13604FF4F9
:10224C0000510E4804F00BFE0A2002F091FF4021D1
:10225C00044804F0D5FD0346002BD0D000BF08374E
:10226C00BD4680BD000C014020090020B8080020AC
:10227C00C4080020C0080020BC0800200010014049
:10228C0080B584B002AF78607B681A68434B1B68DA
:10229C009A4269D1424B1A78424B1B789A4205D22A
:1022AC003F4B1B780133DAB23D4B1A703E4B1B7817
:1022BC00002B1DD13D4B1B78002B19D13C4B1B78AF
:1022CC00002B15D13B4B1B78002B11D13A4B1B78B3
:1022DC00002B0DD1394B1B7883F00103DBB2002BA3
:1022EC0006D10421364804F08BFD0346002B21D186
:1022FC00344B01221A70334B00225A70314B00229E
:10230C009A70304B0022DA702E4B00221A712D4B32
:10231C0000225A712B4B00229A712A4B0022DA713F
:10232C0001224FF40041284804F081FD274B022282
:10233C001A7013E01B4B1B78194A01920093244B23
:10234C00204A2449244802F0E8F900224FF40041C5
:10235C001D4804F06CFD1D4B03221A701F4B194ACB
:10236C001F49204803F04EF97B681A681E4B1B6806
:10237C009A420ED11D4804F0E7FD1D4B1B7883F0EB
:10238C000103DBB2002B04D04FF400510E4804F0D3
:10239C0066FD00BF0837BD4680BD00BF8001002030
:1023AC006E070020080700201709002016090020DE
:1023BC0021090020D1080020D00800203600002080
:1023CC00000801403C0700200010014030000020B4
:1023DC000C0700208C070020D40800208807002060
:1023EC00B80200209C000020C8010020C40000207E
:1023FC002009002080B582B000AF7860124B134AE0
:10240C000021786803F045FA0346002B01D002F056
:10241C00E3FB0E4B1B68B3F5E86F10D10A4B9B78AE
:10242C00482B0CD1084B1B7903F04003002B03D035
:10243C00074B01221A7002E0054B00221A7000BFF4
:10244C000837BD4680BD00BF700700209C020020ED
:10245C0021090020B0B5AAB004AF02F027FE01F0AC
:10246C0081FB924B5B68914A43F48073536001F09B
:10247C0061FD01F041FD01F0BDFB01F00BFC01F031
:10248C003FFC01F00FFD01F0BFFC01F0E9FB01F096
:10249C006DFC874805F05EFF32228649864806F0BF
:1024AC00D6FB864B1B681A68844B1B6822F004020F
:1024BC001A60834B08221A61814B44F2FF725A60F6
:1024CC007F4B04229A607E4B0022DA607C4B002208
:1024DC001A607B4B00221A757A4B00221A60794BDA
:1024EC0001225A60774B784A9A60764B0122DA6067
:1024FC00754B1B68DAB2754B1A70754B1B68DAB2E8
:10250C00744B1A70744B1B68DAB2744B1A70744BA0
:10251C001B68DAB2734B1A70734B1B689AB2734B0D
:10252C001A80734B1B68DAB2724B1A70724B1B68B1
:10253C00DAB2724B1A70724B1B68DAB2714B1A70AA
:10254C00714B1B68DAB2714B1A70714B1B689AB2E3
:10255C00704B1A80704B1B68DAB2704B1A70704B50
:10256C001B68DAB26F4B1A706F4B1B686F4A1360A3
:10257C006F4B1B686F4A1360544B1B78FF2B02D1B7
:10258C00524BC0221A70534B1B78FF2B02D1514B6C
:10259C00A8221A70514B1B78FF2B02D14F4B0022F3
:1025AC001A70504B1B78FF2B02D14E4B48221A70DD
:1025BC004E4B1B884FF6FF72934202D14B4B0022BD
:1025CC001A804C4B1B78FF2B02D14A4BC0221A703D
:1025DC004A4B1B78FF2B02D1484BA8221A70494B4F
:1025EC001B78FF2B02D1474B00221A70474B1B78EC
:1025FC00FF2B02D1454B02221A70464B1B884FF61B
:10260C00FF72934203D1434B41F270721A80434BD9
:10261C001B78FF2B02D1414B01221A70414B1B78C6
:10262C00FF2B02D13F4B00221A70404B1B68DAB2D1
:10263C00414B1A703D4B1B681B0ADAB23E4B5A7069
:10264C003A4B1B681B0CDAB23B4B9A70374B1B682E
:10265C001B0EDAB2384BDA70364B1B68DAB2364BDB
:10266C001A71344B1B681B0ADAB2334B5A71314B5B
:10267C001B681B0CDAB2304B9A712E4B1B681B0E6D
:10268C00DAB22D4BDA711B4B1A782C4B1A701B4B90
:10269C001A782A4B5A701B4B1A78284B9A701B4B82
:1026AC001A78264BDA70FFF76FFA5FE0002004E02F
:1026BC00C8010020D0020020100200205802002087
:1026CC00B80200208C00002000FC00081407002039
:1026DC0004FC00081507002008FC00081607002061
:1026EC000CFC00081707002010FC00087C070020D9
:1026FC0014FC00081807002018FC0008190700201B
:10270C001CFC00081A07002020FC00081B070020F6
:10271C0024FC00087A07002028FC00080807002089
:10272C002CFC00083A07002030FC0008A008002010
:10273C0034FC0008A40800200C070020040700202B
:10274C001F4B1A6813465B001344DB001D4A18210B
:10275C001846FFF761FA1B4B1B685A1E184B1B6877
:10276C009A4203D1174B1B68154A1360154B1B6813
:10277C00B3F1FF3FE4D115E0134B1A6813465B002D
:10278C001344DB00114A18211846FFF745FA0F4B8A
:10279C001B685A1E0C4B1B689A4203D10B4B1B68CF
:1027AC00094A1360094B1B68B3F1FF3FE4D1064B98
:1027BC001B68002B26D00023C7F8943016E000BF0E
:1027CC008C080020240900209C0800203C090020D3
:1027DC00D7F894309BB203F504739BB21846FFF7FD
:1027EC006EFAD7F894300133C7F89430BD4B1A68A1
:1027FC0013465B001344DB001B0B0233D7F8942009
:10280C009A42E5D3002387F848301C2387F84930D7
:10281C00162387F84A30B44B1B7887F84B30B24BF1
:10282C001B78DB43DBB287F84C30AF4B1B78AE4ADE
:10283C00127802FB03F3DBB287F84D30AB4B1B78FD
:10284C0087F84E30AA4B1B7887F84F30A94B1B7872
:10285C0087F85030A44B1B7887F85130A64A07F103
:10286C00520310681860A54A07F1560310681860E7
:10287C00A34A07F15A0310681860012387F85E30E9
:10288C00A04B1A78A04B1A70A04B1A789E4B5A701A
:10289C009F4B1A789C4B9A709E4B1A789A4BDA7015
:1028AC0002F08AFC03461B0EDCB202F099FC0346D4
:1028BC001B0CDBB22344DCB202F088FC03461B0A7F
:1028CC00DBB22344DCB202F077FC0346DBB22344D8
:1028DC00DBB287F84B3002F079FC03461B0EDCB2FE
:1028EC0002F06AFC03461B0CDBB22344DCB202F0A0
:1028FC0077FC03461B0ADBB22344DCB202F070FC0B
:10290C000346DBB22344DBB287F84C3002F068FCA0
:10291C0003461B0EDCB202F059FC03461B0CDBB267
:10292C002344DCB202F048FC03461B0ADBB223440E
:10293C00DCB202F04BFC0346DBB22344DBB287F87B
:10294C004D30FDF709FF4FF4FA6002F011FC07F16E
:10295C0048031846FFF764F86F4B1A8820230121AF
:10296C000020FDF745FF6D4B1B881A466649002079
:10297C00FEF7CCF84FF44270FDF7EAFB0346172B39
:10298C000FD102F0EBFB0346654A136002F0E6FB45
:10299C000346644A136001224FF48041624804F0FC
:1029AC0046FA624B1B78184602F008F8604805F0AE
:1029BC00D1FC0020FDF76FFD03461A465D4B1A60F3
:1029CC000020FDF768FD03461A465A4B1B689A42D5
:1029DC0041F0AB80574B1B68B3F5806F01D903F006
:1029EC00D8FB544B1B68002B00F00081514B1B682B
:1029FC009BB21A4650490020FEF7ECFA4E4B1B785E
:102A0C00443B132B00F2F28001A252F823F000BFDA
:102A1C00AD2A0008F92B0008F92B0008F92B000847
:102A2C006D2A0008F92B0008F92B0008F92B000877
:102A3C00F92B0008F92B0008F92B0008F92B0008DA
:102A4C00F92B0008F92B0008832B0008E12A000859
:102A5C00F92B0008F92B0008F92B0008C72B0008EC
:102A6C0002F07CFB0346354A1360334BDB781BB218
:102A7C001B021AB2304B1B791BB213401BB298B21B
:102A8C002D4B99782C4B5A782B4B5C792A4B9B7994
:102A9C000093234602F02AF80346294A1360A5E066
:102AAC00284B01221A70002387F893300DE097F819
:102ABC0093305A1C97F893301F49895C224AD154A1
:102ACC0097F89330013387F8933097F89330082BAD
:102ADC00EDD98BE01D4B01221A70002387F8923040
:102AEC0044E000BF9C0800201707002014070020BA
:102AFC001507002016070020FC9B0008009C00080E
:102B0C00049C000818070020040700201907002067
:102B1C001A0700201B0700207C0700207A070020E2
:102B2C00A8080020AC080020001001403A07002043
:102B3C008001002098080020040300209008002049
:102B4C00CC0800201C090020480700201D0900208B
:102B5C0097F892305A1C97F892308549895C854ACF
:102B6C00D15497F89230013387F8923097F892301D
:102B7C00162BEDD93AE07E4B5B78022B08D17E4BBD
:102B8C0001221A7002F0EAFA03467C4A13602DE027
:102B9C00774B5B78032B08D1794B01221A7002F02A
:102BAC00DDFA0346754A136020E0764B01221A7059
:102BBC006F4B5A78744B1A7018E06D4B5B78412B45
:102BCC000AD0452B11D1714B01221A7002F0C6FAB2
:102BDC0003466A4A136008E06D4B01221A7002F03A
:102BEC00BDFA0346654A136000BF00BF694802F096
:102BFC001CFE0346002B0AD1674B1B68194665481F
:102C0C0002F0CFFD0346002B01D003F0C2FA634B58
:102C1C001B78172B10D102F0A1FA0246604B1B68EF
:102C2C00D31A002BB8BF5B4242F20F72934203DC03
:102C3C005C4B01221A7002E05A4B00221A7002F00F
:102C4C008DFA0246584B1B68D31A002BB8BF5B4257
:102C5C0042F21072934203DD544B00221A7002E0D0
:102C6C00524B01221A70524B1B78002B22D0504B26
:102C7C0000221A704F4B1B78002B02D0012B0AD06C
:102C8C0018E04D4B00221A704C4B01221A704C4B21
:102C9C0000221A700EE04B4A4B494C4801F0D2FC12
:102CAC00454B01221A70454B01221A70444B0022ED
:102CBC001A7000BF424B1B78002B06D0394B1B7887
:102CCC0083F00103DBB2002B0CD13D4B1B78002BA6
:102CDC003ED002F043FA02463D4B1B68D31AB3F5C3
:102CEC00FA7F35D9364B00221A703A4B19683A4B99
:102CFC001A683A4C3B46184601F04CFC25463C46BB
:102D0C000FCC0FC594E8030085E80300334B1B6818
:102D1C00002B17D0314B1A69314B1B689A4217D2D2
:102D2C002E4B5A692E4B1B689A4211D9254A2649BB
:102D3C002C4801F087FC204B01221A701F4B0122FA
:102D4C001A7005E01C4B00221A701C4B01221A70E1
:102D5C00254B1B78002B00F0CA80234B00221A70E5
:102D6C00044B1B78002B41D0012B00F0B680BEE049
:102D7C0004030020540700201A09002094080020A6
:102D8C001B0900201F0900206D07002017090020D7
:102D9C00160900209C000020880700204407002012
:102DAC009008002014090020B008002036000020F4
:102DBC001C09002048070020780700202209002069
:102DCC00150900208C070020D4080020490700209A
:102DDC00B40800208C08002084070020540900202F
:102DEC00CC0800205C0900201D0900208A4B5A7871
:102DFC008A4B1A70884B9A78894B1A70864BDA7802
:102E0C00884B1A70844B1A79874B1A70824B5B79FA
:102E1C001BB21B021AB2804B9B791BB213431BB221
:102E2C009AB2824B1A807C4BDA79814B1A707A4BAE
:102E3C001A7A804B1A70784B5A7A7F4B1A70764BF1
:102E4C009A7A7E4B1A70744BDB7A1BB21B021AB245
:102E5C00714B1B7B1BB213431BB29AB2784B1A807B
:102E6C006D4B5A7B774B1A706B4B9A7B764B1A7067
:102E7C00694BDB7B1A46684B1B7C1B021A43664B67
:102E8C005B7C1B041A43644B9B7C1B0613431A4646
:102E9C006E4B1A60604BDB7C1A465F4B1B7D1B0232
:102EAC001A435D4B5B7D1B041A435B4B9B7D1B06DE
:102EBC0013431A46664B1A6001F078FA654B1B787F
:102ECC00002B03D0644801F009FA03E0634964481D
:102EDC0001F04AF903F05DF909E04F4B5B78002BE8
:102EEC0014BF01230023DAB25E4B1A7000BF5E4B95
:102EFC001B78002B00F0C7805B4B00221A705B4BD9
:102F0C001B78002B02D0012B03D0BCE003F041F95D
:102F1C00B9E0424B1A78564B1A70414B1A78544B05
:102F2C005A70404B1A78524B9A703F4B1A78504B50
:102F3C00DA703E4B1B881B0A9BB2DAB24C4B1A71EF
:102F4C003A4B1B88DAB24A4B5A71394B1A78484BB8
:102F5C009A71384B1A78464BDA71374B1A78444BC6
:102F6C001A72364B1A78424B5A72354B1B881B0A15
:102F7C009BB2DAB23E4B9A72314B1B88DAB23C4BA5
:102F8C00DA72304B1A783A4B1A732F4B1A78384B3B
:102F9C005A73384B1B681B0EDAB2354B9A73354B90
:102FAC001B681B0CDAB2324BDA73324B1B681B0AF0
:102FBC00DAB22F4B1A742F4B1B68DAB22C4B5A74A3
:102FCC002D4B1A782A4B9A742B4B5A78284BDA745F
:102FDC00294B9A78264B1A75274BDA78244B5A755D
:102FEC00254B1A79224B9A75234B5A79204BDA755B
:102FFC00214B9A791E4B1A761F4BDA791C4B5A7659
:10300C00144B1B78002B39D0194801F093F9114B54
:10301C0000221A7036E000BF54070020140700206D
:10302C001507002016070020170700207C0700203A
:10303C0018070020190700201A0700201B07002082
:10304C007A070020080700203A070020A00800207B
:10305C00A408002023090020B49B0008B89B00089A
:10306C00BC9B0008D10800201F0900206D07002020
:10307C001C0700208C0800200C0700205D495E48CE
:10308C0001F094F800BF5D4B1B7883F00103DBB2B9
:10309C00002B00F09B8002F061F80246584B1B6835
:1030AC00D31A002BB8BF5B4241F28832934240F3F3
:1030BC008D8002F053F80346514A1360002001F052
:1030CC000DFC03461A464F4B1A704E4B1B78172BB0
:1030DC007CD14D4B1B78002B03D04C4B46225A70A5
:1030EC0033E04B4B1B78002B03D0484B50225A70CB
:1030FC002BE0484B1B78002B03D0444B45225A70D5
:10310C0023E0454B1B7883F00103DBB2002B03D08B
:10311C003E4B44225A7018E00421404803F070FEE4
:10312C000346002B03D1394B43225A700DE03C4B24
:10313C001B7883F00103DBB2002B03D0334B4F22FF
:10314C005A7002E0314B52225A7002222F49002051
:10315C00FDF748FE3AE0334B1B68002B07D10021EA
:10316C00314800F0EBFF314B00221A702EE00023A7
:10317C00C7F88C301DE0D7F88C2013465B00134445
:10318C00DB002B4A18211846FEF746FD284B6C46EF
:10319C0003F10C0207CA84E807000ECB224801F0A9
:1031AC0031F8642001F0E4FFD7F88C300133C7F814
:1031BC008C301C4B1B68D7F88C209A42DBD3012136
:1031CC00194800F0BBFF194B00221A70174B1B78E3
:1031DC00002BC0D1CCE10023C7F88830154B1B78ED
:1031EC00002B2BD0134B00221A70134801F076F8E9
:1031FC0028E000BF1C070020C09B00081E0900200F
:10320C00A8080020440700202109002034000020D9
:10321C00D1080020D0080020360000200008014012
:10322C00140900208C080020C49B00081A090020F7
:10323C008409002023090020C89B0008AC49AD4834
:10324C0000F092FF01F08AFF0346AB4A1360AB4BD0
:10325C0001221A700020FDF71EF903461A46A84BEE
:10326C001A600020FDF717F903461A46A44B1B6899
:10327C009A4240F07B81A24B1B68B3F5806F01D959
:10328C0002F087FF9F4B1B7883F00103DBB2002B0E
:10329C0000F0A4809A4B1B68002B00F09F80984B89
:1032AC001B689BB21A4698490020FDF793FE964B7B
:1032BC001B78572B40F09280934B5B78442B40F05B
:1032CC008680D7F888300133C7F888308F4AD7F812
:1032DC00883013608C4B9B781A068B4BDB781B0465
:1032EC001A43894B1B791B021343874A52791343A8
:1032FC001A46864B5A60844B9A79844B1A72824BCD
:10330C00DA79824B5A72804B1A7A804B9A727E4BC6
:10331C005A7A7E4BDA727C4B9A7A7C4B1A737A4BC4
:10332C00DA7A7A4B5A73784B1A7B784B9A73764BC2
:10333C005A7B764BDA73744B1B7C1BB21B021AB292
:10334C00714B5B7C1BB213401BB298B26E4BD97B9A
:10335C006D4B9A7B6C4B9C7C6B4BDB7C00932346BC
:10336C0001F0C4FB0346694A1361674B9B7D1BB29A
:10337C001B021AB2644BDB7D1BB213401BB298B21A
:10338C00614B597D604B1A7D5F4B1C7E5E4B5B7EA7
:10339C000093234601F0AAFB03465C4A5361D7F81D
:1033AC00882013465B001344DB001A46584B134429
:1033BC00182256491846FEF7D3FC56494D4800F0E2
:1033CC00D3FE01F0CBFE03464B4A136006E04E4B96
:1033DC005B78432B02D1504B01221A704F4B1B7858
:1033EC00002B00F0AD80D7F888300133C7F8883057
:1033FC00D7F8882013465B001344DB001A46444B75
:10340C001344182241491846FEF7AAFC434B0022EC
:10341C001A70434800F062FF01F0A0FE0346364AE2
:10342C0013608DE0002387F887300AE097F8873027
:10343C009BB21846FEF743FC97F88730013387F8A8
:10344C00873097F88710374B1A6813465B00134484
:10345C00DB001B0B01339942E8D30023C7F8803003
:10346C001CE0D7F8802013465B001344DB0003F507
:10347C0004132D4A18211846FEF7CEFBD7F88020EE
:10348C0013465B001344DB00182227491846FEF74D
:10349C0067FCD7F880300133C7F88030D7F880202C
:1034AC00D7F888309A42DCD30023FB670AE0FB6F25
:1034BC009BB203F504739BB21846FEF700FCFB6F3E
:1034CC000133FB67D7F8882013465B001344DB00FD
:1034DC001B0B0233FA6F9A42E9D3144B1B78002B67
:1034EC0028D0124B00221A70114800F0F7FE25E08C
:1034FC00D09B0008D49B000894080020D108002021
:10350C00980800201E090020040300206C090020EC
:10351C00E8FF2000D89B000818090020190900209A
:10352C00DC9B00088C080020840900202309002063
:10353C00E49B00089849994800F016FE02F029FE19
:10354C00974B1B78002B7FF46DAF01F007FE024602
:10355C00944B1B68D31A002BB8BF5B4242F210721B
:10356C0093427FF777AE02F014FE73E600BF71E66C
:10357C008D4B1B78002B7FF42EAE9BE20023BB6798
:10358C008A4B1B78002B06D0884B00221A70884877
:10359C0000F0A4FE11E08749804800F0E5FD3220E0
:1035AC0001F0E6FD83497D4800F0DEFD322001F09C
:1035BC00DFFD8049794800F0D7FD01F0CFFD0346CF
:1035CC00784A13607C4B01221A700020FCF763FFD1
:1035DC0003461A46794B1A600020FCF75CFF034641
:1035EC001A46764B1B689A4240F05182734B1B680B
:1035FC00B3F5806F01D902F0CCFD714B1B7883F0D1
:10360C000103DBB2002B00F0A2806C4B1B68002B7B
:10361C0000F09D80694B1B689BB21A4669490020DB
:10362C00FDF7D8FC674B1B78572B40F09080654B0F
:10363C005B78442B40F08480BB6F0133BB67624BDB
:10364C001B680133604A13605E4B9B781A065D4B16
:10365C00DB781B041A435B4B1B791B021343594A3F
:10366C00527913431A46584B5A60564B9A79564B1B
:10367C001A72544BDA79544B5A72524B1A7A524B87
:10368C009A72504B5A7A504BDA724E4B9A7A4E4B86
:10369C001A734C4BDA7A4C4B5A734A4B1A7B4A4B83
:1036AC009A73484B5A7B484BDA73464B1B7C1BB2C4
:1036BC001B021AB2434B5B7C1BB213401BB298B279
:1036CC00404BD97B3F4B9A7B3E4B9C7C3D4BDB7CF0
:1036DC000093234601F00AFA03463B4A1361394B27
:1036EC009B7D1BB21B021AB2364BDB7D1BB2134007
:1036FC001BB298B2334B597D324B1A7D314B1C7E29
:10370C00304B5B7E0093234601F0F0F903462E4AC2
:10371C005361BA6F13465B001344DB001A462B4B04
:10372C001344182228491846FEF71AFB28491B484F
:10373C0000F01AFD01F012FD03461A4A136006E070
:10374C00204B5B78432B02D1154B01221A70214B75
:10375C001B78002B00F08581BB6F0133BB67BA6F00
:10376C0013465B001344DB001A46184B1344182213
:10377C0015491846FEF7F4FA164B00221A70164833
:10378C0000F0ACFD01F0EAFC0346064A136068E168
:10379C0000237B6745E000BFEC9B0008D49B00082E
:1037AC001809002094080020170900202309002084
:1037BC00F09B0008F89B0008D10800209808002016
:1037CC001E090020040300206C090020E8FF2000E3
:1037DC00D89B000819090020DC9B00087A6F13465F
:1037EC005B001344DB00AB4A18211846FEF714FAB1
:1037FC007A6F13465B001344DB001946BA6F13460D
:10380C005B001344DB001B0B01331B030B4403F560
:10381C00041318229F491846FEF7A2FA7B6F013356
:10382C007B679D4B1B687A6F9A42D7D3002387F82E
:10383C0073300AE097F873309BB21846FEF73FFAE4
:10384C0097F87330013387F8733097F87310924BF5
:10385C001A6813465B001344DB001B0B01339942BF
:10386C00E8D30023FB660023BB6600237B666DE078
:10387C00FA6E13465B001344DB001946BA6F13460D
:10388C005B001344DB001B0B01331B030B4403F5E0
:10389C00041307F1300218211846FEF7BDF9BA6E71
:1038AC0013465B001344DB0003F5041307F1180205
:1038BC0018211846FEF7B0F97A6BFB699A4212D2BE
:1038CC007B6E01333B637A6E13465B001344DB0063
:1038DC00184607F1300318221946FEF741FAFB6E21
:1038EC000133FB662FE07A6BFB699A4212D97B6E2F
:1038FC000133BB617A6E13465B001344DB00184640
:10390C0007F1180318221946FEF72AFABB6E013389
:10391C00BB6618E07A6BFB699A4214D17B6E01335B
:10392C00BB617A6E13465B001344DB00184607F14B
:10393C00180318221946FEF713FABB6E0133BB6647
:10394C00FB6E0133FB667B6E01337B66524B1B684F
:10395C00FA6E9A4230D2BA6EBB6F9A4288D32BE081
:10396C00FA6E13465B001344DB001946BA6F13461C
:10397C005B001344DB001B0B01331B030B4403F5EF
:10398C00041307F1300218211846FEF745F97B6E37
:10399C0001333B637A6E13465B001344DB0018461D
:1039AC0007F1300318221946FEF7DAF9FB6E0133E2
:1039BC00FB667B6E01337B66374B1B68FA6E9A4253
:1039CC00CED321E0BA6E13465B001344DB0003F543
:1039DC00041307F1180218211846FEF71DF97B6E27
:1039EC000133BB617A6E13465B001344DB0018464F
:1039FC0007F1180318221946FEF7B2F9BB6E013312
:103A0C00BB667B6E01337B66BA6EBB6F9A42D9D3B1
:103A1C0000233B660AE03B6E9BB203F504739BB23A
:103A2C001846FEF74CF93B6E01333B667A6E134633
:103A3C005B001344DB001B0B03333A6E9A42EAD350
:103A4C00164B1B78002B06D0144B00221A7014480E
:103A5C0000F044FC03E01349134800F085FB02F02E
:103A6C0098FB124B1B78002B7FF492AE01F076FB87
:103A7C0002460F4B1B68D31A002BB8BF5B4242F2B5
:103A8C00107293427FF7A1AD02F083FB9DE500BF5E
:103A9C009BE500BF840900208C080020230900202E
:103AAC00E49B0008EC9B0008D49B0008180900203C
:103ABC00940800201E4B1B78002B7FF45FAD1D4B30
:103ACC001B78002B25D01C4B1B6842F210729342C2
:103ADC001DD91A4BC0221A70194BA8221A70194BF7
:103AEC0000221A70184B48221A70184BC0221A70F8
:103AFC00174BA8221A70174B00221A70164B022271
:103B0C001A70164B41F270721A8000F04FFC02F0E2
:103B1C0040FB134B1B68B3F5347F01D102F039FB2A
:103B2C000A2001F025FBFEF744BF00BFFEF741BFA2
:103B3C001609002020090020C008002014070020CE
:103B4C001507002016070020170700201807002073
:103B5C00190700201A0700201B0700207A070020F5
:103B6C00C808002080B590B000AF07F118032822D8
:103B7C000021184605F0BCFF3B1D00221A605A605C
:103B8C009A60DA601A610923BB614FF48033FB61E0
:103B9C004FF400333B620123BB6201233B630223DE
:103BAC007B634FF48033BB634FF4E013FB6307F18B
:103BBC001803184603F0D8F90346002B01D001F086
:103BCC000BF80F237B600223BB600023FB604FF4D8
:103BDC0080633B6100237B613B1D0221184603F08F
:103BEC0045FC0346002B01D000F0F6FF00BF403728
:103BFC00BD4680BD80B500AF174B184A1A60164BF6
:103C0C003C225A60144B00229A60134B0022DA605B
:103C1C00114B4FF470221A610F4B4FF4C0025A61D2
:103C2C000D4B00221A760C4B01225A760A4B0022BD
:103C3C009A76094B0022DA76074B00221A77064B4C
:103C4C0000225A77044801F0D5FA0346002B01D024
:103C5C0000F0C2FF00BF80BD9C000020006400404B
:103C6C0080B500AF094B0A4A1A60084B04225A600F
:103C7C00064B40F252729A60044803F021F9034655
:103C8C00002B01D000F0A8FF00BF80BDC4000020B5
:103C9C000030004080B500AF174B184A1A60164B25
:103CAC004FF482725A60144B00229A60124B00221D
:103CBC00DA60114B00221A610F4B00225A610E4B35
:103CCC004FF400729A610C4B2022DA610A4B0022ED
:103CDC001A62094B00225A62074B00229A62064B69
:103CEC000A22DA62044803F051FD0346002B01D08E
:103CFC0000F072FF00BF80BDD000002000300140FA
:103D0C0080B500AF174B184A1A60164B4FF48272ED
:103D1C005A60144B00229A60124B0022DA60114B4D
:103D2C0000221A610F4B00225A610E4B4FF40072A5
:103D3C009A610C4B0022DA610A4B00221A62094B81
:103D4C0000225A62074B00229A62064B0A22DA6260
:103D5C00044803F01BFD0346002B01D000F03CFF90
:103D6C0000BF80BD280100200038004080B586B01F
:103D7C0000AF07F1080300221A605A609A60DA60FB
:103D8C003B4600221A605A601E4B4FF080421A606C
:103D9C001C4B48F6A0425A601A4B00229A60194BF1
:103DAC0040F2E732DA60174B00221A61154B002201
:103DBC009A61144804F07FFA0346002B01D000F0FE
:103DCC000BFF4FF48053BB6007F1080319460D48F5
:103DDC0004F002FC0346002B01D000F0FDFE002392
:103DEC003B6000237B603B461946064804F0E4FD2B
:103DFC000346002B01D000F0EFFE00BF1837BD4684
:103E0C0080BD00BF8001002080B586B000AF07F1F7
:103E1C00080300221A605A609A60DA603B4600225E
:103E2C001A605A601D4B1E4A1A601C4B48F6A04281
:103E3C005A601A4B00229A60184B40F2E732DA6053
:103E4C00164B00221A61154B00229A61134804F09C
:103E5C0032FA0346002B01D000F0BEFE4FF4805323
:103E6C00BB6007F1080319460C4804F0B5FB034688
:103E7C00002B01D000F0B0FE00233B6000237B60E0
:103E8C003B461946054804F097FD0346002B01D02C
:103E9C0000F0A2FE00BF1837BD4680BDC80100204F
:103EAC000004004080B500AF114B124A1A60104B51
:103EBC004FF416525A600E4B00229A600C4B0022A3
:103ECC00DA600B4B00221A61094B0C225A61084B29
:103EDC0000229A61064B0022DA61054804F0DCFDF1
:103EEC000346002B01D000F077FE00BF80BD00BF61
:103EFC00100200200038014080B582B000AF0C4B9E
:103F0C005B690B4A43F001035361094B5B6903F096
:103F1C0001037B607B68002200210F2002F00FF967
:103F2C000F2002F028F900BF0837BD4680BD00BF46
:103F3C000010024080B588B000AF07F110030022DA
:103F4C001A605A609A60DA60664B9B69654A43F066
:103F5C0010039361634B9B6903F01003FB60FB68D8
:103F6C00604B9B695F4A43F0200393615D4B9B69F7
:103F7C0003F02003BB60BB685A4B9B69594A43F062
:103F8C0004039361574B9B6903F004037B607B68CC
:103F9C00544B9B69534A43F008039361514B9B6903
:103FAC0003F008033B603B6800224FF460414E482D
:103FBC0002F03DFF012210214C4802F038FF002294
:103FCC0032214B4802F033FF01224FF48051484814
:103FDC0002F02DFF00224FF48071444802F027FFBD
:103FEC004FF460433B6101237B610023BB610223DF
:103FFC00FB6107F1100319463B4802F07DFD0423D9
:10400C003B6100237B610123BB6107F1100319465F
:10401C00364802F071FD10233B6101237B610023C4
:10402C00BB610323FB6107F1100319462F4802F013
:10403C0063FD01233B612F4B7B610023BB6107F1C7
:10404C00100319462A4802F057FD32233B61012325
:10405C007B610023BB610223FB6107F1100319464E
:10406C00234802F049FD4FF480533B6101237B61EF
:10407C000023BB610323FB6107F1100319461C48A5
:10408C0002F03AFD4FF480733B6101237B61002306
:10409C00BB610223FB6107F110031946134802F0C0
:1040AC002BFD40233B61134B7B610123BB6107F16B
:1040BC00100319460E4802F01FFD002201210620B4
:1040CC0002F03DF8062002F056F8002207211720D6
:1040DC0002F035F8172002F04EF800BF2037BD462D
:1040EC0080BD00BF001002400010014000080140DC
:1040FC00000C01400000211080B584B000AF786046
:10410C0039607B681B783B723B681B0EDBB27B72A1
:10411C003B681B0CDBB2BB723B681B0ADBB2FB724D
:10412C003B68DBB23B7307F10803052219460020FC
:10413C00FCF758FE00BF1037BD4680BD80B584B07B
:10414C0000AF78600B46FB707B681B783B73FB7889
:10415C007B7307F10C03022219460020FCF742FE88
:10416C0000BF1037BD4680BD80B584B000AF78600D
:10417C00396007F108037968184605F0F5FC07F17A
:10418C0008033968184605F0BBFC07F1080318460C
:10419C00FBF7D6FF03469AB207F108031946002035
:1041AC00FCF720FE00BF1037BD4680BD80B58AB03D
:1041BC0000AF786039607B681B783B73002387F80D
:1041CC00273010E097F827303A681A4497F82730D0
:1041DC000133127828333B4403F81C2C97F8273012
:1041EC00013387F8273097F82730192BEAD907F1D4
:1041FC000C031B2219460020FCF7F4FD00BF2837E6
:10420C00BD4680BD84B080B586B000AF786007F144
:10421C00240080E80E007B681B783B7202237B72C3
:10422C00BB6A1B0EDBB2BB72BB6A1B0CDBB2FB7234
:10423C00BB6A1B0ADBB23B73BB6ADBB27B7397F8BE
:10424C002C30BB7397F82D30FB7397F82E303B74E2
:10425C0097F82F307B7497F83030BB7497F8313067
:10426C00FB7497F832303B7597F833307B7507F158
:10427C0008030E2219460020FCF7B4FD00BF1837C6
:10428C00BD46BDE8804004B07047000080B584B0E6
:10429C0000AF78600B46FB707B681B783B73FB7838
:1042AC007B7301224FF480710A4802F0C0FD07F1C4
:1042BC000C014FF4FA730222074804F03DFC002273
:1042CC004FF48071034802F0B2FD00BF1037BD46B9
:1042DC0080BD00BF000801401002002080B584B0F2
:1042EC0000AF78607B681B783B737B685B787B7373
:1042FC007B689B78BB737B68DB78FB7301224FF484
:10430C0080710A4802F093FD07F10C014FF4FA7327
:10431C000422074804F010FC00224FF4807103487B
:10432C0002F085FD00BF1037BD4680BD000801407E
:10433C001002002080B58AB000AF786052233B7326
:10434C00002387F8273010E097F827307A681A4452
:10435C0097F827300133127828333B4403F81C2C90
:10436C0097F82730013387F8273097F82730192B27
:10437C00EAD901224FF480710A4802F058FD07F186
:10438C000C014FF47A731B22074804F0D5FB002272
:10439C004FF48071034802F04AFD00BF2837BD4638
:1043AC0080BD00BF00080140100200202DE9B04F75
:1043BC0096B000AF02F010FA5849594802F0F4FADE
:1043CC00584B1B78DBB200221C46154622462B4666
:1043DC005549022002F090F9544B1B78DBB20022B5
:1043EC009846914642464B465149022002F084F9C8
:1043FC00504B1B78DBB200229A46934652465B46E2
:10440C004D49022002F078F94C4B1B78DBB20022AC
:10441C003B657A65D7E914234949022002F06CF90F
:10442C00484B1B889BB20022BB64FA64D7E9122369
:10443C004549022002F060F9444B1B78DBB20022A4
:10444C003B647A64D7E910234149022002F054F905
:10445C00404B1B78DBB20022BB63FA63D7E90E2317
:10446C003D49022002F048F93C4B1B78DBB200229C
:10447C003B637A63D7E90C233949022002F03CF9FB
:10448C00384B1B78DBB20022BB62FA62D7E90A23F5
:10449C003549022002F030F9344B1B889BB20022C4
:1044AC003B627A62D7E908233149022002F024F9F1
:1044BC00304B1B78DBB20022BB61FA61D7E90623D3
:1044CC002D49022002F018F92C4B1B78DBB200228C
:1044DC003B617A61D7E904232949022002F00CF9E7
:1044EC00284B1B680022BB60FA60D7E902232649DF
:1044FC00022002F001F9254B1B6800223B607A6018
:10450C00D7E900232249022002F0F6F802F08AF9DA
:10451C0000BF5837BD46BDE8B08F00BF80070020F4
:10452C008C0000201407002000FC00081507002058
:10453C0004FC00081607002008FC000817070020E0
:10454C000CFC00087C07002010FC00081807002059
:10455C0014FC00081907002018FC00081A0700209A
:10456C001CFC00081B07002020FC00087A07002018
:10457C0024FC00080807002028FC00083A0700204B
:10458C002CFC0008A008002030FC0008A408002027
:10459C0034FC0008B0B594B000AFF860B9607A6034
:1045AC000123FB64BB68BB6407F12C0300221A6077
:1045BC005A609A60DA601A615A6131E0FA6CBB6C2D
:1045CC0013445B087B647B6C013B18097B6C013BDF
:1045DC00DBB203F00F03DBB21A4652001344DB00CC
:1045EC00D9B207F114031822FDF7E6FABB697A6811
:1045FC009A420AD1FB681D4607F114040FCC0FC573
:10460C0094E8030085E8030018E0BB697A689A42D5
:10461C0003D97B6C0133FB6402E07B6C013BBB6414
:10462C00FA6CBB6C9A42C9D9FB681D4607F12C0485
:10463C000FCC0FC594E8030085E80300F8685037E9
:10464C00BD46B0BD90B587B000AFF860B9607A6078
:10465C000023FB752BE00023BB7522E0FB7DFA6881
:10466C0013441B781A46BB7D42FA03F303F0010393
:10467C00002B13D0FB7DDA00BB7D13441A46BB68BC
:10468C00134401221A70FB7DDA00BB7D13449B009E
:10469C007A68D41800F062FD03462360BB7D0133B9
:1046AC00BB75BB7D072BD9D9FB7D0133FB75FB7D1E
:1046BC00072BD0D900BF00BF1C37BD4690BD80B4BE
:1046CC0087B000AF786039600023FB7500233B6135
:1046DC001AE03B697A6813441B78DB09FB733B696E
:1046EC007A6813441B785BB25B005AB297F91730A7
:1046FC00134359B23B693A681344CAB21A70FB7B34
:10470C00FB753B6901333B613B69072BE1DD00BF66
:10471C0000BF1C37BD4680BC704780B588B000AF69
:10472C00F860B9607A603B6007F1100300221A60F0
:10473C005A60FB6A1B7897F828209A4248D90023C4
:10474C00FB7740E00023BB7731E0FB7FDA00BB7FD7
:10475C0013449B00BA6813441B68002B1FD1FB7FCA
:10476C003A6813441B781A46BB7F42FA03F303F0F2
:10477C000103002B09D0FB7FDA00BB7F13441A46E0
:10478C00FB68134401221A700EE0FB7FDA00BB7F3A
:10479C0013441A46FB68134400221A7004E0FB6AA7
:1047AC0097F828201A7005E0BB7F0133BB77BB7FDD
:1047BC00072BCAD9FB6A1B7897F828209A4206D097
:1047CC00FB7F0133FB77FB7F072BBBD900E000BFDE
:1047DC00FB6A1B7897F828209A4248D800237B77ED
:1047EC0042E000233B7739E07B7F3A6813441B7827
:1047FC001A463B7F42FA03F303F00103002B21D04E
:10480C0000F0ACFC01467B7FDA003B7F13449B003D
:10481C00BA6813441B68CB1A83EAE372A2EBE37207
:10482C0097F828304FF47A7101FB03F39A4209DDB3
:10483C007B7FDA003B7F13441A46FB68134401224A
:10484C001A7008E07B7FDA003B7F13441A46FB6842
:10485C00134400221A703B7F01333B773B7F072BBD
:10486C00C2D97B7F01337B777B7F072BB9D90023A0
:10487C00FB7626E00023BB761DE0FB7E20333B4419
:10488C0013F8103C5AB2FB7ED900BB7E0B44194680
:10489C00FB680B441B781946BB7E01FA03F35BB231
:1048AC0013435AB2FB7ED2B220333B4403F8102C94
:1048BC00BB7E0133BB76BB7E072BDED9FB7E01337F
:1048CC00FB76FB7E072BD5D907F1100379681846C8
:1048DC00FFF7F5FE00BF2037BD4680BD80B584B024
:1048EC0000AF0346FB71FB799B000133DB0003F542
:1048FC0040731846FBF72CFC0346FB73FCF743FF95
:10490C000346002B09D100224FF48041264802F0C7
:10491C008EFAFB791846FCF7E1F9FB7B1C2B09D1CD
:10492C0000224FF48041204802F081FAFB791846AE
:10493C00FCF7D4F9FCF727FF0346012B1BD1FB7BBB
:10494C00002B18D100224FF48041174802F06FFA67
:10495C00164B1A88F87920230121FBF749FF144BD9
:10496C001A88FB7913491846FCF7D0F8124B1B68D0
:10497C000133114A1360FB799B000133DB0003F513
:10498C0040731846FBF7E4FB0346FB73FB7B172BCA
:10499C0005D101224FF48041034802F048FAFB7B19
:1049AC0018461037BD4680BD001001407C07002022
:1049BC007A07002004070020C808002080B58CB0BE
:1049CC0000AF0346FB71FB79002B0BD12C4B1E2245
:1049DC005A602B4B4FF4E0221A61294B4FF4001212
:1049EC005A611CE0FB79012B0BD1254B28225A6014
:1049FC00234B4FF430221A61214B4FF480025A6141
:104A0C000DE0FB79022B0AD11D4B3C225A601C4B4A
:104A1C004FF470221A611A4B4FF4C0025A61184BB2
:104A2C000122DA76164B4FF00072DA60144800F06F
:104A3C00E1FB0123BB620023FB610023BB614FF44C
:104A4C006843BB600023FB600E4B3B6106237B611C
:104A5C0000233B6201237B620D23FB6207F10803F9
:104A6C001946074800F0C1FC054800F087FD0221FB
:104A7C00034801F02FF800BF3037BD4680BD00BFA2
:104A8C009C000020E0FF010080B483B000AF03461F
:104A9C00FB80FB88144AA2FB0312D2094FF4C871A5
:104AAC0001FB02F29B1A9BB2002B01D1012316E0F1
:104ABC00FB880D4AA2FB03125209642101FB02F28E
:104ACC009B1A9BB2002B01D1002308E0FB8803F05A
:104ADC0003039BB2002B01D1012300E000231846F5
:104AEC000C37BD4680BC70471F85EB5190B585B027
:104AFC0000AF0446084611461A462346FB8003467F
:104B0C007B710B463B711346FB700023FB6000234B
:104B1C00BB6040F2E973BB6012E0BB689BB2184605
:104B2C00FFF7B2FF034603F26D134FF4B46202FBBE
:104B3C0003F31A46FB681344FB60BB680133BB608C
:104B4C00FB88A3F2E9731A46BB689342E5D30023B2
:104B5C00BB601EE01F4ABB6852F823304FF4B462AE
:104B6C0002FB03F31A46FB681344FB60BB68012B82
:104B7C000CD1FB881846FFF787FF0346002B05D0A6
:104B8C00FB6803F5A83303F5C073FB60BB68013306
:104B9C00BB607B79BA689A42DCD33B79013B1A46FD
:104BAC004FF4B46302FB03F3FA681344FB60FA7826
:104BBC0013461B019B1A9B001A46FB681344FB60AF
:104BCC0097F82030FA681344FB60FB6818461437DA
:104BDC00BD4690BD089C000880B400AF72B600BF03
:104BEC0000BFFDE780B485B000AF154B9B69144A3C
:104BFC0043F001039361124B9B6903F00103BB600B
:104C0C00BB680F4BDB690E4A43F08053D3610C4BEE
:104C1C00DB6903F080537B607B680A4B5B68FB604D
:104C2C00FB6823F0E063FB60FB6843F00073FB6000
:104C3C00044AFB68536000BF1437BD4680BC704704
:104C4C00001002400000014080B588B000AF7860D1
:104C5C0007F1100300221A605A609A60DA607B68D0
:104C6C001B68204A934239D11F4BDB691E4A43F023
:104C7C000073D3611C4BDB6903F00073FB60FB68B2
:104C8C00194B9B69184A43F004039361164B9B69BB
:104C9C0003F00403BB60BB684FF400633B6100236B
:104CAC007B610023BB6107F1100319460F4801F02B
:104CBC0023FF4FF480533B6102237B610323FB6191
:104CCC0007F110031946094801F016FF00220321D1
:104CDC00142001F034FA142001F04DFA00BF2037F3
:104CEC00BD4680BD00640040001002400008014039
:104CFC0080B58AB000AF786007F1180300221A6003
:104D0C005A609A60DA607B681B68374A934230D1EC
:104D1C00364B9B69354A43F480539361334B9B6903
:104D2C0003F480537B617B69304B9B692F4A43F0C2
:104D3C00040393612D4B9B6903F004033B613B69B6
:104D4C00A023BB610223FB6103237B6207F11803E1
:104D5C001946274801F0D0FE4023BB610023FB61BC
:104D6C0000233B6207F118031946214801F0C4FEE9
:104D7C0036E07B681B681F4A934231D11B4BDB69C1
:104D8C001A4A43F48043D361184BDB6903F4804324
:104D9C00FB60FB68154B9B69144A43F00803936155
:104DAC00124B9B6903F00803BB60BB684FF42043B4
:104DBC00BB610223FB6103237B6207F118031946D5
:104DCC000D4801F099FE4FF48043BB610023FB6159
:104DDC0000233B6207F118031946074801F08CFECB
:104DEC0000BF2837BD4680BD003001400010024096
:104DFC000008014000380040000C014080B584B030
:104E0C0000AF78607B681B68B3F1804F14D1194BED
:104E1C00DB69184A43F00103D361164BDB6903F0DD
:104E2C000103FB60FB68002204211C2001F087F9C0
:104E3C001C2001F0A0F918E07B681B680E4A934215
:104E4C0013D10C4BDB690B4A43F00203D361094BC2
:104E5C00DB6903F00203BB60BB68002205211D2047
:104E6C0001F06DF91D2001F086F900BF1037BD4629
:104E7C0080BD00BF001002400004004080B588B027
:104E8C0000AF786007F1100300221A605A609A6034
:104E9C00DA607B681B68334A93425FD1324B9B6963
:104EAC00314A43F4804393612F4B9B6903F4804355
:104EBC00FB60FB682C4B9B692B4A43F0040393610A
:104ECC00294B9B6903F00403BB60BB684FF4007370
:104EDC003B6102237B610323FB6107F1100319463D
:104EEC00224801F009FE4FF480633B6100237B6193
:104EFC000023BB6107F1100319461C4801F0FCFDAF
:104F0C001B4B1C4A1A601A4B00225A60184B002289
:104F1C009A60174B8022DA60154B00221A61144BF1
:104F2C0000225A61124B00229A61114B0022DA6165
:104F3C000F4801F03FF90346002B01D0FFF74CFE60
:104F4C007B680B4ADA630A4A7B68536200220221AF
:104F5C00252001F0F4F8252001F00DF900BF2037D1
:104F6C00BD4680BD003801400010024000080140E1
:104F7C00580200205800024080B400AF00BFFDE78B
:104F8C0080B400AF00BFFDE780B400AF00BFFDE709
:104F9C0080B400AF00BFFDE780B400AF00BFFDE7F9
:104FAC0080B400AF00BFBD4680BC704780B400AF7A
:104FBC0000BFBD4680BC704780B400AF00BFBD468B
:104FCC0080BC704780B500AF00F0B6F800BF80BD64
:104FDC0080B500AF012001F05BFF00BF80BD000079
:104FEC0080B500AF024801F053FA00BF80BD00BF8E
:104FFC005802002080B500AF024800F090FD00BFC1
:10500C0080BD00BF9C00002080B500AF402001F0A7
:10501C003FFF00BF80BD000080B500AF024803F029
:10502C00EBF900BF80BD00BF8001002080B500AF50
:10503C00024803F0E1F900BF80BD00BFC8010020A9
:10504C0080B500AF024803F05BFE00BF80BD00BF1F
:10505C001002002080B400AF00BFBD4680BC70477A
:10506C00FFF7F8FF0B480C490C4A002302E0D45818
:10507C00C4500433C4188C42F9D3094A094C002398
:10508C0001E013600432A242FBD304F049FDFDF7AA
:10509C00E1F970470000002044000020749C0008D7
:1050AC0048000020C0090020FEE7000080B500AFDA
:1050BC00084B1B68074A43F010031360032001F0F0
:1050CC0033F8062000F008F8FFF78CFD0023184693
:1050DC0080BD00BF0020024080B582B000AF786078
:1050EC00124B1A68124B1B7819464FF47A73B3FBA8
:1050FC00F1F3B2FBF3F3184601F04FF80346002B23
:10510C0001D001230EE07B680F2B0AD800227968AE
:10511C004FF0FF3001F013F8064A7B681360002350
:10512C0000E0012318460837BD4680BD380000203A
:10513C00400000203C00002080B400AF054B1B78E1
:10514C001A46054B1B681344034A136000BFBD4647
:10515C0080BC7047400000209C09002080B400AF48
:10516C00024B1B681846BD4680BC70479C0900204A
:10517C0080B584B000AF7860FFF7F0FFB8607B6853
:10518C00FB60FB68B3F1FF3F05D00A4B1B781A4656
:10519C00FB681344FB6000BFFFF7E0FF0246BB68EF
:1051AC00D31AFA689A42F7D800BF00BF1037BD4631
:1051BC0080BD00BF4000002080B400AF024B1B68D4
:1051CC001846BD4680BC7047E8F7FF1F80B400AF9F
:1051DC00024B1B681846BD4680BC7047ECF7FF1F9E
:1051EC0080B400AF024B1B681846BD4680BC7047AC
:1051FC00F0F7FF1F80B584B000AF78607B68002BA0
:10520C0001D10123EDE07B6893F82030DBB2002B59
:10521C0002D17868FFF718FD7B681B681A687B68F9
:10522C001B6842F001021A60FFF798FFF86012E069
:10523C00FFF794FF0246FB68D31A0A2B0BD97B6845
:10524C005B6A43F400327B685A627B68052283F800
:10525C0020200123C5E07B681B685B6803F0010319
:10526C00002BE5D07B681B681A687B681B6822F0F2
:10527C0002021A60FFF772FFF86012E0FFF76EFF90
:10528C000246FB68D31A0A2B0BD97B685B6A43F482
:10529C0000327B685A627B68052283F82020012348
:1052AC009FE07B681B685B6803F00203002BE5D171
:1052BC007B681B7E012B08D17B681B681A687B6896
:1052CC001B6842F080021A6007E07B681B681A6852
:1052DC007B681B6822F080021A607B685B7E012B66
:1052EC0008D17B681B681A687B681B6842F0400217
:1052FC001A6007E07B681B681A687B681B6822F0E1
:10530C0040021A607B689B7E012B08D17B681B686E
:10531C001A687B681B6842F020021A6007E07B6801
:10532C001B681A687B681B6822F020021A607B6875
:10533C00DB7E012B08D17B681B681A687B681B68B5
:10534C0022F010021A6007E07B681B681A687B6801
:10535C001B6842F010021A607B681B7F012B08D17E
:10536C007B681B681A687B681B6842F008021A602D
:10537C0007E07B681B681A687B681B6822F00802D0
:10538C001A607B685B7F012B08D17B681B681A68ED
:10539C007B681B6842F004021A6007E07B681B689C
:1053AC001A687B681B6822F004021A607B689A6892
:1053BC007B68DB681A437B681B691A437B685B69F3
:1053CC0042EA03017B685B685A1E7B681B680A43D0
:1053DC00DA617B6800225A627B68012283F8202004
:1053EC00002318461037BD4680BD80B487B000AF8F
:1053FC00786039607B681B687B617B6893F8203030
:10540C00FB74FB7C012B03D0FB7C022B40F0AA80AD
:10541C007B69D3F8003243F001027B69C3F80022A8
:10542C003B685B6903F01F03012202FA03F3FB6084
:10543C007B69D3F81C22FB68DB431A407B69C3F8F9
:10544C001C223B68DB69002B23D17B69D3F80C222F
:10545C00FB68DB431A407B69C3F80C223B68DB68B2
:10546C0019043B685B689BB23A68526919437B69C3
:10547C00483243F832103B689B6819043B681B6840
:10548C009AB23B685B690A4379694833DB000B4489
:10549C005A603B68DB69012B22D17B69D3F80C2263
:1054AC00FB681A437B69C3F80C223B681B68190420
:1054BC003B685B689BB23A68526919437B69483216
:1054CC0043F832103B689B6819043B68DB689AB25E
:1054DC003B685B690A4379694833DB000B445A60CB
:1054EC003B689B69002B09D17B69D3F80422FB68CC
:1054FC00DB431A407B69C3F8042207E07B69D3F8CD
:10550C000422FB681A437B69C3F804223B681B69BD
:10551C00002B09D17B69D3F81422FB68DB431A40BA
:10552C007B69C3F8142207E07B69D3F81422FB686B
:10553C001A437B69C3F814223B681B6A012B07D101
:10554C007B69D3F81C22FB681A437B69C3F81C22C5
:10555C007B69D3F8003223F001027B69C3F8002287
:10556C00002306E07B685B6A43F480227B685A6206
:10557C00012318461C37BD4680BC704780B584B0EB
:10558C0000AF78607B6893F82030DBB2012B2ED112
:10559C007B68022283F820207B681B681A687B6872
:1055AC001B6822F001021A60FFF7D8FDF86012E0C8
:1055BC00FFF7D4FD0246FB68D31A0A2B0BD97B6884
:1055CC005B6A43F400327B685A627B68052283F87D
:1055DC002020012312E07B681B685B6803F0010349
:1055EC00002BE5D17B6800225A62002306E07B6821
:1055FC005B6A43F400227B685A6201231846103719
:10560C00BD4680BD80B489B000AFF860B9607A60E7
:10561C003B60FB6893F82030FB77FB681B689B684A
:10562C00BB61FB7F012B03D0FB7F022B40F0AD80D5
:10563C00BB6903F08063002B0AD1BB6903F00063E4
:10564C00002B05D1BB6903F08053002B00F0958033
:10565C00BB691B0E03F003037B6101227B699A403B
:10566C003B681A60BB689B68002B0DD1BB681B683C
:10567C005A05BB68DB68F96809681A437B691833FB
:10568C001B010B441A600FE0BB685B68DA00BB6857
:10569C009B681A43BB68DB68F96809681A437B6925
:1056AC0018331B010B441A60FB681968BB681A6934
:1056BC007B6918331B010B4404331A60BB681B7DD8
:1056CC00012B11D1FB681A687B6918331B01134439
:1056DC0004331B68FA68116843F480727B691833D1
:1056EC001B010B4404331A607B6807331B781A06C2
:1056FC007B6806331B781B041A437B6805331B78C5
:10570C001B0213437A68043212781046FA68116847
:10571C0043EA00027B691B010B4403F5C6731A6054
:10572C007B6803331B781A067B6802331B781B04D7
:10573C001A437B6801331B781B0213437A68127877
:10574C001046FA68116843EA00027B691B010B449E
:10575C0003F5C4731A60FB681A687B6918331B0164
:10576C0013441B68FA68116843F001027B69183313
:10577C001B010B441A6000230EE0FB685B6A43F4C8
:10578C000012FB685A62012306E0FB685B6A43F473
:10579C008022FB685A62012318462437BD4680BC20
:1057AC00704780B485B000AF786039607B6893F83F
:1057BC002030FB73FB7B012B02D0FB7B022B28D10F
:1057CC003B6803F00103002B07D07B681B689A68C9
:1057DC007B681B6842F080029A603B6803F002030E
:1057EC00002B07D07B681B689A687B681B6842F4A7
:1057FC0000429A603B6803F00403002B07D07B68DF
:10580C001B689A687B681B6842F400029A6000234C
:10581C0006E07B685B6A43F480227B685A62012352
:10582C0018461437BD4680BC704780B485B000AFB5
:10583C0078600023FB607B6893F82030FB72FB7A66
:10584C00012B02D0FB7A022B1DD17B681B689B6855
:10585C0003F08063002B02D0FB680133FB607B6894
:10586C001B689B6803F00063002B02D0FB680133BC
:10587C00FB607B681B689B6803F08053002B02D095
:10588C00FB680133FB60FB6818461437BD4680BCCF
:10589C00704780B487B000AFF860B9607A603B6045
:1058AC00FB6893F82030FB75FB7D012B03D0FB7D4F
:1058BC00022B40F00381BB68002B0ED1FB681B68E8
:1058CC00DB6803F00303002B16D1FB685B6A43F41F
:1058DC000012FB685A620123F7E0FB681B681B6926
:1058EC0003F00303002B07D1FB685B6A43F400123F
:1058FC00FB685A620123E8E0FB681A68BB681B333B
:10590C001B0113441B6803F004027B689A607B68DC
:10591C009B68002B0CD1FB681A68BB681B331B01FE
:10592C0013441B685B0DC3F30A027B681A600BE01F
:10593C00FB681A68BB681B331B0113441B68DB082C
:10594C0023F060427B685A60FB681A68BB681B33A3
:10595C001B0113441B6803F002027B68DA60FB68CE
:10596C001A68BB681B331B01134404331B6803F018
:10597C000803002B03D07B6808221A610BE0FB683C
:10598C001A68BB681B331B01134404331B6803F0F8
:10599C000F027B681A61FB681A68BB681B331B011A
:1059AC00134404331B681B0ADAB27B689A61FB68E8
:1059BC001A68BB681B331B01134404331B681B0C94
:1059CC009AB27B685A61FB681A68BB681B01134466
:1059DC0003F5DC731B68DAB23B681A70FB681A6853
:1059EC00BB681B01134403F5DC731B681A0A3B6884
:1059FC000133D2B21A70FB681A68BB681B011344DE
:105A0C0003F5DC731B681A0C3B680233D2B21A70B4
:105A1C00FB681A68BB681B01134403F5DC731B6835
:105A2C001A0E3B680333D2B21A70FB681A68BB6853
:105A3C001B01134403F5DE731A683B680433D2B2BE
:105A4C001A70FB681A68BB681B01134403F5DE73FC
:105A5C001B681A0A3B680533D2B21A70FB681A68C5
:105A6C00BB681B01134403F5DE731B681A0C3B68FF
:105A7C000633D2B21A70FB681A68BB681B01134458
:105A8C0003F5DE731B681A0E3B680733D2B21A702B
:105A9C00BB68002B08D1FB681B68DA68FB681B68C5
:105AAC0042F02002DA6007E0FB681B681A69FB68A9
:105ABC001B6842F020021A61002306E0FB685B6A57
:105ACC0043F48022FB685A62012318461C37BD46FA
