:020000040800F2
:1000000000500020514D0008694C0008714C000858
:10001000794C0008814C0008894C00080000000061
:10002000000000000000000000000000914C0008EB
:100030009D4C000800000000A94C0008B54C0008C9
:10004000994D0008994D0008994D0008994D0008F8
:10005000994D0008994D0008C14C0008994D0008C1
:10006000994D0008994D0008994D0008994D0008D8
:10007000994D0008994D0008994D0008D14C000891
:10008000994D0008994D0008994D0008994D0008B8
:10009000E54C0008994D0008994D0008F94C0008FE
:1000A000994D0008994D0008994D0008994D000898
:1000B000094D00081D4D0008994D0008994D000894
:1000C000994D0008994D0008994D0008994D000878
:1000D000994D0008314D0008994D0008994D0008D0
:1000E000994D0008994D0008994D00080000000046
:1000F0000000000000000000000000000000000000
:0C01000000000000000000005FF808F1A3
:10010C0010B5054C237833B9044B13B10448AFF345
:10011C0000800123237010BD480000200000000067
:10012C006898000808B5034B1BB103490348AFF3AB
:10013C00008008BD000000004C00002068980008FA
:10014C00034613F8012B002AFBD1181A013870470B
:10015C0080B584B000AF7860224BDB689847214BA8
:10016C005B6998471F4B5B6A002B03D01D4B9B6A46
:10017C00002B14D11B4B1B6A7A68120CD2B210469E
:10018C009847184B1B6A7A68120AD2B210469847E5
:10019C00144B1B6A7A68D2B21046984711E07B6800
:1001AC001B0CDBB23B737B681B0ADBB27B737B687B
:1001BC00DBB2BB730B4B9B6A07F10C02032110469D
:1001CC009847084BDB6998470346FB73054B9B69C3
:1001DC009847044B1B699847FB7B18461037BD4664
:1001EC0080BD00BF0400002080B584B000AF7860F3
:1001FC000B46FB70224BDB689847214B5B69984799
:10020C007B6843F004037B601D4B9B6A002B19D168
:10021C001B4B1B6A7A68120CD2B210469847184BCB
:10022C001B6A7A68120AD2B210469847144B1B6AA2
:10023C007A68D2B210469847114B1B6AFA7810466E
:10024C00984713E07B681B0CDBB23B737B681B0A83
:10025C00DBB27B737B68DBB2BB73FB78FB73084B45
:10026C009B6A07F10C02042110469847044B9B69CA
:10027C009847034B1B69984700BF1037BD4680BD9C
:10028C000400002090B587B000AFF860B960134649
:10029C00FB802B4BDB689847294B5B699847284BB5
:1002AC005B6A002B03D0264B9B6A002B26D1244B78
:1002BC001B6AFA68120CD2B210469847204B1B6A84
:1002CC00FA68120AD2B2104698471D4B1B6AFA689C
:1002DC00D2B2104698470023FB820AE0184BDB6928
:1002EC00FA8AB9688C18984703462370FB8A013345
:1002FC00FB82FA8AFB889A42F0D317E0FB681B0C4E
:10030C00DBB23B74FB681B0ADBB27B74FB68DBB2B1
:10031C00BB740B4B9B6A07F11002032110469847E4
:10032C00074B5B6AFA881146B8689847044B9B697F
:10033C009847034B1B69984700BF1C37BD4690BDBF
:10034C000400002080B586B000AFF860B960134699
:10035C00FB802B4BDB689847294B5B699847FB6804
:10036C0043F00403FB60264B9B6A002B26D1244BE5
:10037C001B6AFA68120CD2B210469847204B1B6AC3
:10038C00FA68120AD2B2104698471D4B1B6AFA68DB
:10039C00D2B2104698470023FB820AE0184B1B6A26
:1003AC00FA8AB9680A44127810469847FB8A0133D6
:1003BC00FB82FA8AFB889A42F0D317E0FB681B0C8D
:1003CC00DBB23B74FB681B0ADBB27B74FB68DBB2F1
:1003DC00BB740B4B9B6A07F1100203211046984724
:1003EC00074B9B6AFA881146B8689847044B9B697F
:1003FC009847034B1B69984700BF1837BD4680BD13
:10040C000400002090B585B000AF0346FB710023BB
:10041C00FB810023BB81FB799B000133DB0003F5DF
:10042C0000531846FFF794FE0346BB81BB891B02A1
:10043C009CB2FB799B000133DB0003F50453184697
:10044C00FFF786FE03462344BB81BB89002B19D0E2
:10045C00FB799B000133DB0003F500531846FFF7D3
:10046C0077FE0346FB81FB891B029CB2FB799B0048
:10047C000133DB0003F504531846FFF769FE03460E
:10048C002344FB81FA89BB899A42C4D1FB89184663
:10049C001437BD4690BD90B585B000AF0346FB71D7
:1004AC000023FB810023BB81FB799B000133DB0024
:1004BC0003F518531846FFF74BFE0346BB81BB8967
:1004CC001B029CB2FB799B000133DB0003F51C5330
:1004DC001846FFF73DFE03462344BB81BB89002B26
:1004EC0019D0FB799B000133DB0003F51853184638
:1004FC00FFF72EFE0346FB81FB891B029CB2FB79A6
:10050C009B000133DB0003F51C531846FFF720FE5C
:10051C0003462344FB81FA89BB899A42C4D1FB89E7
:10052C0018461437BD4690BD90B585B000AF034654
:10053C003960FB711346BB800023FB810023BB6039
:10054C00BB88002B46D0FB799B000133DB0003F505
:10055C0010531846FFF7FCFD03461B029CB2FB79B7
:10056C009B000133DB0003F514531846FFF7F0FD35
:10057C0003462344FB81FB891A02FB799B0002335F
:10058C00DB001344BB60BB881A463968B868FFF7B8
:10059C00D9FEFA89BB881344FB81FB799B0001339C
:1005AC00DB0003F510531A46FB891B0A9BB2DBB226
:1005BC0019461046FFF718FEFB799B000133DB0050
:1005CC0003F514531A46FB89DBB219461046FFF7A4
:1005DC000BFE00E000BF1437BD4690BD90B585B052
:1005EC0000AF03463960FB711346BB800023FB81CF
:1005FC000023BB60BB88002B46D0FB799B000133EA
:10060C00DB0003F520531846FFF7A2FD03461B023F
:10061C009CB2FB799B000133DB0003F52453184695
:10062C00FFF796FD03462344FB81FB891A02FB79F5
:10063C009B000333DB001344BB60BB881A4639684C
:10064C00B868FFF71FFEFA89BB881344FB81FB795E
:10065C009B000133DB0003F520531A46FB891B0A70
:10066C009BB2DBB219461046FFF7BEFDFB799B002F
:10067C000133DB0003F524531A46FB89DBB2194620
:10068C001046FFF7B1FD00E000BF1437BD4690BD2A
:10069C0080B500AF00221021024806F03AFA00BFE4
:1006AC0080BD00BF0008014080B500AF01221021C1
:1006BC00024806F02EFA00BF80BD00BF00080140C2
:1006CC0080B582B000AFF91D4FF0FF330122044812
:1006DC0007F096F8FB7918460837BD4680BD00BF79
:1006EC00D000002080B582B000AF0346FB71F91D2D
:1006FC004FF0FF330122034806F03EFF00BF0837DE
:10070C00BD4680BDD000002080B582B000AF7860BF
:10071C000B467B807A884FF0FF337968034807F0EB
:10072C006FF800BF0837BD4680BD00BFD000002069
:10073C0080B582B000AF78600B467B807A884FF032
:10074C00FF337968034806F017FF00BF0837BD4632
:10075C0080BD00BFD000002090B587B000AFFF2354
:10076C00FB751A4B3C1D0FCB84E80F0001221021A6
:10077C00174806F0CEF900220221164806F0C9F9F6
:10078C0000BFFB7D5A1EFA75002BFAD10122022103
:10079C00104806F0BEF91049104800F029FD104928
:1007AC00104800F049FD1049104800F071FD3B1D48
:1007BC001946012000F098FD0346B3F1FF3F01D12B
:1007CC0000BFFDE700BF1C37BD4690BD80980008F8
:1007DC0000080140000C0140B50600089D06000809
:1007EC00F1060008CD0600083D07000815070008B3
:1007FC0090B585B000AF0446084611461A4623460C
:10080C00FB710346BB710B46BB801346FB70FB7937
:10081C00082B02D94FF0FF33EFE0BB79012B05D049
:10082C00002B11DD023B022B0ED811E007F10C035B
:10083C00042219464FF47060FFF724FDFB68002B6F
:10084C0005D16FF00203D8E06FF00403D5E000BFD0
:10085C00FB7803F00403002B02D06FF00503CCE00F
:10086C00FB78002B28D0BB79012B02D0022B08D0AF
:10087C0022E0FB7803F02103002B1AD16FF0050363
:10088C00BBE0FB7803F02003002B06D097F9033074
:10089C00002B02DB6FF00503AFE0FB7803F01003D5
:1008AC00002B08D097F90330002B04DB6FF0050305
:1008BC00A3E000BF00E000BFFB79184600F0ACF8E5
:1008CC00FB799B000133D80097F9033023F00F0319
:1008DC005AB297F9063013435BB2DBB21946FFF7F5
:1008EC0083FCBB88002B10D1464B1B885A1C91B241
:1008FC00444A1180BB80434B1B884FF6F0729342E5
:10090C0003D1404B4FF440421A80FB799B000133DA
:10091C00DB0003F580631A46BB881B0A9BB2DBB273
:10092C0019461046FFF760FCFB799B000133DB0096
:10093C0003F5A0631A46BB88DBB219461046FFF7D5
:10094C0053FCFB799B000133DB0003F58073012121
:10095C001846FFF749FC00BFFB799B000133DB0015
:10096C0003F580731846FFF7F3FB0346002BF3D116
:10097C00FB79012202FA03F31BB2DB431AB2224BBE
:10098C001B881BB213401BB29AB21F4B1A80FB7808
:10099C0003F00102FB7902FA03F31AB21A4B1B881B
:1009AC001BB213431BB29AB2174B1A80FB7901226C
:1009BC0002FA03F31BB2DB431AB2144B1B881BB2B3
:1009CC0013401BB29AB2114B1A80FB79104A0021CA
:1009DC0022F81310FB790F4A0021D15400BFFB7988
:1009EC009B000133DB0003F540731846FFF7B0FBA7
:1009FC000346002BF3D097F9073018461437BD4641
:100A0C0090BD00BF000000206400002066000020A4
:100A1C00680000207C00002080B582B000AF034647
:100A2C00FB71FB79082B02D94FF0FF3360E0FB79A7
:100A3C009B000133DB0003F5807310211846FFF790
:100A4C00D3FB00BFFB799B000133DB0003F5807304
:100A5C001846FFF77DFB0346002BF3D1FB799B0077
:100A6C000133DB0003F500731F211846FFF7BCFBB5
:100A7C00FB79012202FA03F31BB2DB431AB21E4BC1
:100A8C001B881BB213401BB29AB21B4B1A80FB790A
:100A9C00012202FA03F31BB2DB431AB2174B1B8879
:100AAC001BB213401BB29AB2144B1A80FB79144A36
:100ABC00002122F81310FB79124A0021D1540AE0CC
:100ACC00114B1B78DBB2012B05D10F4B00221A7096
:100ADC006FF00C030CE0FB799B000133DB0003F59A
:100AEC0040731846FFF734FB0346002BE8D1012373
:100AFC0018460837BD4680BD640000206600002003
:100B0C00680000207C0000207800002080B584B0B4
:100B1C0000AF03463960FB711346BB80FB79082B91
:100B2C0002D94FF0FF33D1E0FB799B000133DB009E
:100B3C001846FFF70DFB034603F00F03012B02D001
:100B4C006FF00403C2E0FB799B000133DB0003F57B
:100B5C0040731846FFF7FCFA0346132B02D06FF0D4
:100B6C000203B3E03B681B78FB60FB681B023A682E
:100B7C00013212781344FB60FB681B023A680232A4
:100B8C0012781344FB60FB681B023A68033212783C
:100B9C001344FB60FB68B3F1FF3F02D0FB68002BF2
:100BAC0002D16FF00B0391E0BB88002B02D16FF0E8
:100BBC000A038BE0FB799B000133DB0003F54063F8
:100BCC00042239681846FFF7BDFBFB799B00013303
:100BDC00DB0003F580531A46BB881B0A9BB2DBB2C1
:100BEC0019461046FFF700FBFB799B000133DB0035
:100BFC0003F588531A46BB88DBB219461046FFF73B
:100C0C00F3FAFB799B000133DB0003F580730421BD
:100C1C001846FFF7E9FA00BFFB799B000133DB00B4
:100C2C0003F580731846FFF793FA0346002BF3D1B4
:100C3C00284B1B881A46FB7942FA03F303F0010395
:100C4C00002B36D0002341E0FB799B000133DB0005
:100C5C0003F500731846FFF77BFA034603F008030D
:100C6C00002B0CD0FB799B000133DB0003F50073E8
:100C7C0008211846FFF7B8FA6FF00C0326E0FB7951
:100C8C009B000133DB0003F540731846FFF760FA55
:100C9C000346002B02D16FF0030317E00E4B1B78B9
:100CAC00DBB2012B05D10C4B00221A706FF00C0338
:100CBC000CE0FB799B000133DB0003F54073184615
:100CCC00FFF746FA0346172BBED1012318461037FF
:100CDC00BD4680BD640000207800002080B582B045
:100CEC0000AF0346FB71FB79082B02D94FF0FF33A1
:100CFC006DE0FB799B000133DB001846FFF728FA07
:100D0C00034603F00F03012B02D06FF004035EE0E7
:100D1C00FB799B000133DB0003F580730821184637
:100D2C00FFF762FA00BFFB799B000133DB0003F590
:100D3C0080731846FFF70CFA0346002BF3D1FB79AE
:100D4C00012202FA03F31BB2DB431AB2224B1B88BB
:100D5C001BB213401BB29AB21F4B1A801F4B1B883D
:100D6C001A46FB7942FA03F303F00103002B21D05E
:100D7C0000232CE0FB799B000133DB0003F50073AF
:100D8C001846FFF7E5F9034603F00803002B06D0DD
:100D9C00FB791846FFF740FE6FF00C0317E0104B81
:100DAC001B78DBB2012B05D10D4B00221A706FF0B2
:100DBC000C030CE0FB799B000133DB0003F5407363
:100DCC001846FFF7C5F90346002BD3D1012318466B
:100DDC000837BD4680BD00BF6600002064000020BF
:100DEC007800002080B584B000AF03463960FB71F9
:100DFC001346BB800023FB730023BB81FB79082BBC
:100E0C0002D94FF0FF33DDE0FB799B000133DB00AF
:100E1C001846FFF79DF9034603F00F03012B02D090
:100E2C006FF00403CEE0BB88002B02D16FF00D03F2
:100E3C00C8E0FB799B000133DB0003F540731846D7
:100E4C00FFF786F90346FB73FB7B172B05D0FB7B67
:100E5C001C2B02D06FF00603B4E05C4B1B881A46C7
:100E6C00FB7942FA03F303F00103002B39D0FB7931
:100E7C009B000133DB0003F500731846FFF768F99C
:100E8C00034603F01F03FB73FB7B03F01003002BE3
:100E9C0019D0FB799B000133DB0003F500731021A3
:100EAC001846FFF7A1F9FB79012202FA03F31BB2F2
:100EBC00DB431AB2454B1B881BB213401BB29AB2D0
:100ECC00424B1A800DE0FB7B03F00803002B06D08D
:100EDC00FB791846FFF7A0FD6FF00C0372E00023BE
:100EEC0070E0FB799B000133DB0003F5F8531846E7
:100EFC00FFF72EF903469B02BB81BA88BB899A4245
:100F0C0001D9BB89BB80FB791846FFF77BFA0346F6
:100F1C00BB81FB799B000133DB0003F54073184662
:100F2C00FFF716F90346FB73FB7B172B09D0FB7BF2
:100F3C001C2B06D0FB791846FFF76EFD6FF00603ED
:100F4C0040E0234B1B881A46FB7942FA03F303F06B
:100F5C000103002B05D0BA88BB899A4201D9002322
:100F6C0030E0BA88BB899A4200D9CCE700BFBA8876
:100F7C00FB7939681846FFF7D7FAFB799B000133E8
:100F8C00DB0003F5807320211846FFF72DF900BF15
:100F9C00FB799B000133DB0003F580731846FFF7E8
:100FAC00D7F80346002BF3D1FB79012202FA03F3A5
:100FBC001AB2064B1B881BB213431BB29AB2034BDB
:100FCC001A80BB8818461037BD4680BD66000020CD
:100FDC006400002090B585B000AF03463960FB710A
:100FEC001346BB800023FB730023BB81FB79082BCA
:100FFC0002D94FF0FF339BE0FB799B000133DB0000
:10100C001846FFF7A5F8034603F00F03012B02D097
:10101C006FF004038CE0BB88002B02D16FF00D0342
:10102C0086E0FB799B000133DB0003F5F053184697
:10103C00FFF78EF803469B02BB81BA89BB889A42A4
:10104C0001D2BB89BB80FB791846FFF724FA034613
:10105C00BB81FB799B000133DB0003F54073184621
:10106C00FFF776F80346FB73FB7B172B26D0FB7B35
:10107C001C2B1CD1BB89002B33D1FB791846FFF7F5
:10108C00C1F903461C46FB799B000133DB0003F5D9
:10109C00F8531846FFF75CF803469B029C420DD1AF
:1010AC00FB791846FFF7B8FC6FF0060340E0FB79BC
:1010BC001846FFF7B1FC6FF0060339E01E4B1B8896
:1010CC001A46FB7942FA03F303F00103002B04D018
:1010DC00BB89002B01D100232AE0BB89002B02D154
:1010EC00B1E700BF00E000BFBA89BB889A4201D2C9
:1010FC00BB89BB80BA88FB7939681846FFF76EFA52
:10110C00FB799B000133DB0003F58073402118460B
:10111C00FFF76AF800BFFB799B000133DB0003F596
:10112C0080731846FFF714F80346002BF3D1BB88E5
:10113C0018461437BD4690BD6400002080B400AF43
:10114C0000BFBD4680BC704780B400AF00BFBD4639
:10115C0080BC704780B400AF00BFBD4680BC7047F8
:10116C0080B400AF00BFBD4680BC704780B483B074
:10117C0000AF78607B681B78DBB218460C37BD4635
:10118C0080BC704780B483B000AF78600B46FB70B6
:10119C007B68FA781A7000BF0C37BD4680BC70476C
:1011AC0080B400AF00231846BD4680BC704780B4A5
:1011BC0083B000AF0346FB7100BF0C37BD4680BC4B
:1011CC00704780B483B000AF78600B467B8000BF63
:1011DC000C37BD4680BC704780B483B000AF7860DC
:1011EC000B467B8000BF0C37BD4680BC70470000AF
:1011FC0080B483B000AF786039607B68002B02D07C
:10120C003B68002B06D1094B094A5A61074B094A26
:10121C009A6106E0054A7B685361044A3B68936116
:10122C0000BF00BF0C37BD4680BC704704000020D7
:10123C00611100086D11000880B483B000AF7860B4
:10124C00396000BF0F4B1B8803F40073002BF9D0DF
:10125C007B68002B02D03B68002B06D1094B0A4A55
:10126C00DA61084B094A1A6206E0064A7B68D361C8
:10127C00044A3B68136200BF00BF0C37BD4680BCFC
:10128C00704700BF04000020AD110008BB1100081E
:10129C0080B483B000AF7860396000BF0F4B1B88FF
:1012AC0003F40073002BF9D07B68002B02D03B6851
:1012BC00002B06D1094B0A4A5A62084B094A9A621A
:1012CC0006E0064A7B685362044A3B68936200BF9F
:1012DC0000BF0C37BD4680BC704700BF0400002027
:1012EC00CF110008E511000890B587B000AF034698
:1012FC003960FB710023FB750023FB6000233B610D
:10130C00FB790F2B00F2C58001A252F823F000BF2D
:10131C005D130008631300088F1300088313000883
:10132C009D130008A9130008B7130008DD1300086B
:10133C00FF13000843140008491400085114000856
:10134C00A514000859140008671400088314000839
:10135C0000F0AAF8A1E03B68002B04D03B68FB60CE
:10136C00FB6808333B61FB683A691146184600F08C
:10137C00E7F8034692E03B681B88184600F06CF9CE
:10138C008BE000F09DF903461A463B681A8084E016
:10139C003B681B88184600F0B8F97EE000F0D0F9E5
:1013AC0003461A463B681A8077E03B681B881B0A89
:1013BC009BB2DBB219464FF49850FEF715FF3B6811
:1013CC001B88DBB219464FF4A050FEF70DFF64E00A
:1013DC004FF49850FEF7BCFE03461B029CB24FF430
:1013EC00A050FEF7B5FE034623449AB23B681A8020
:1013FC0053E02C4B9A783B681A703B680133294AAE
:10140C00D2781A703B680233264A12791A703B68FC
:10141C000333244A52791A703B680433214A927977
:10142C001A703B6805331F4AD2791A703B68063331
:10143C0000221A7031E000F0D5F92EE0386800F087
:10144C00F8F92AE0386800F037FA26E03B681B7898
:10145C00184600F09BFA034620E000F0AAF9034678
:10146C00FB75FB7DFF2B02D14FF0FF3316E03B6881
:10147C00FA7D1A7011E000F086F90346FB75FB7DCE
:10148C00FF2B02D14FF0FF3308E03B68FA7D1A7056
:10149C0003E04FF0FF3301E000BF002318461C3778
:1014AC00BD4690BD0400002080B586B000AF3B1D4A
:1014BC00062219464FF41060FEF7E4FE07F1140300
:1014CC00042219464FF48070FEF7DCFE07F110037E
:1014DC00042219464FF4A060FEF7D4FE07F10C036A
:1014EC00042219464FF47060FEF7CCFE80210020D8
:1014FC00FEF77AFE0020FEF72BFE3B1D0622194656
:10150C004FF41060FEF71EFF07F114030422194676
:10151C004FF48070FEF716FF07F1100304221946F2
:10152C004FF4A060FEF70EFF07F10C0304221946DE
:10153C004FF47060FEF706FF00BF1837BD4680BD44
:10154C0080B584B000AF786039600023BB73FFF7BF
:10155C00ABFF7B68002B3BD00023BB730023FB73DA
:10156C0015E097F90F307A6813441A78BB7B134453
:10157C00DBB2BB7397F90E30102B02DD4FF0FF334B
:10158C0066E097F90F30DBB20133DBB2FB7397F9EE
:10159C000F30072BE5DD0023FB7315E097F90F30B7
:1015AC009B000133DB0003F5F853184697F90F3015
:1015BC007A6813441B781946FEF716FE97F90F301C
:1015CC00DBB20133DBB2FB7397F90F30072BE5DD90
:1015DC003B68002B3BD00023BB730023FB7315E04F
:1015EC0097F90F303A6813441A78BB7B1344DBB27B
:1015FC00BB7397F90E30102B02DD4FF0FF3327E051
:10160C0097F90F30DBB20133DBB2FB7397F90F3074
:10161C00072BE5DD0023FB7315E097F90F309B00DA
:10162C000133DB0003F5F053184697F90F303A6895
:10163C0013441B781946FEF7D7FD97F90F30DBB230
:10164C000133DBB2FB7397F90F30072BE5DD002379
:10165C0018461037BD4680BD80B584B000AF034638
:10166C00FB80FB88FB73FB881B0A9BB2BB73FB7B69
:10167C0023F00F03DBB219464FF4A850FEF7B4FD6C
:10168C000023FB7314E0BA7BFB7B42FA03F303F0F9
:10169C000103002B09D0FB7B9B000133DB0003F51E
:1016AC0000731F211846FEF79FFDFB7B0133FB7374
:1016BC00FB7B072BE7D900BF00BF1037BD4680BDB1
:1016CC0080B582B000AF0023FB710023BB710023F7
:1016DC00BB804FF4A850FEF73BFD034623F00F03ED
:1016EC00FB714FF4B850FEF733FD0346BB71BB7969
:1016FC00BB80BB881B029AB2FB799BB21344BB80A4
:10170C00BB8818460837BD4680BD80B584B000AF95
:10171C000346FB80FB88FB73FB881B0A9BB2BB73E5
:10172C00FB7B19464FF4B050FEF75EFDBB7B1946B0
:10173C004FF4C050FEF758FD00BF1037BD4680BDBA
:10174C0080B582B000AF0023FB710023BB71002376
:10175C00BB804FF4B050FEF7FBFC0346FB714FF41B
:10176C00C050FEF7F5FC0346BB71BB79BB80BB8850
:10177C001B029AB2FB799BB21344BB80BB88184600
:10178C000837BD4680BD80B582B000AF0023FB7129
:10179C004FF43850FEF7DCFC034603F00103002B3A
:1017AC0001D00123FB7197F9073018460837BD4665
:1017BC0080BD80B582B000AF0023FB714FF4385070
:1017CC00FEF7C6FC034603F03803302B02D101238D
:1017DC00FB7101E00023FB7197F9073018460837BD
:1017EC00BD4680BD80B582B000AF4FF43850FEF7D7
:1017FC00AFFC0346FB71FB7903F07F03FB71FB79B4
:10180C0019464FF43850FEF7EFFC4FF43850FEF702
:10181C009FFC0346FB71FB7963F07F03FB71FB7943
:10182C0019464FF43850FEF7DFFC00BF0837BD46B1
:10183C0080BD80B584B000AF78600023FB737B68FB
:10184C001B78012B04D1FB7B43F04003FB7303E0BB
:10185C00FB7B23F04003FB737B685B78012B04D18B
:10186C00FB7B43F03803FB7319E07B68DB78012BBF
:10187C000DD17B689B78012B04D1FB7B43F01803C3
:10188C00FB730CE0FB7B43F00803FB7307E07B6806
:10189C009B78012B03D1FB7B43F01003FB73FB7B89
:1018AC0019464FF43850FEF79FFCFFF79BFF00BF23
:1018BC001037BD4680BD000080B584B000AF7860A5
:1018CC000023FB734FF43850FEF742FC0346FB73C6
:1018DC00FB7B9B11DBB203F00103DAB27B681A705D
:1018EC00FB7B03F03803202B01D0382B03D17B6812
:1018FC0001225A7003E07B6800225A7000BFFB7B08
:10190C0003F03803103B102B8CBF01220022D2B203
:10191C00002A0FD11B4A22FA03F303F00103002B18
:10192C0014BF01230023DBB2002B03D07B68012200
:10193C009A7003E07B6800229A7000BFFB7B03F077
:10194C003803083B182B8CBF01220022D2B2002A8C
:10195C000FD10D4A22FA03F303F00103002B14BF3D
:10196C0001230023DBB2002B03D07B680122DA7049
:10197C0003E07B680022DA7000BF00BF1037BD4661
:10198C0080BD00BF010101000100010180B584B0E0
:10199C0000AF0346FB710023FB734FF43850FEF786
:1019AC00D7FB0346FB73FB7B03F04003002B02D1F8
:1019BC004FF0FF3330E0FB7B23F03803FB73FB79F4
:1019CC00012B04D1FB7B43F03003FB7303E0FB7B67
:1019DC0043F03803FB73FB7B19464FF43850FEF78A
:1019EC0003FCFFF7FFFE4FF43850FEF7B1FB034644
:1019FC00FB73FB79012B06D1FB7B03F03003002B2F
:101A0C0008D0002308E0FB7B03F03803002B01D047
:101A1C00002301E04FF0FF3318461037BD4680BD60
:101A2C0080B582B000AF78607B68062219464FF40F
:101A3C001060FEF787FC7B680E33042219464FF4C6
:101A4C008070FEF77FFC7B680A33042219464FF442
:101A5C00A060FEF777FC7B680633042219464FF42E
:101A6C007060FEF76FFC7B689A7C0B4B1A707B687E
:101A7C00DA7C094B5A707B681A7D074B9A707B682D
:101A8C005A7D054BDA707B689A7D044B1A7000BF47
:101A9C000837BD4680BD00BF8400002088000020B0
:101AAC0080B500AF00224FF48051024805F031F8A8
:101ABC0000BF80BD000C014080B500AF01224FF487
:101ACC008051024805F025F800BF80BD000C014094
:101ADC0080B582B000AF7860786803F0BBF900BFC6
:101AEC000837BD4680BD000080B582B000AF78607D
:101AFC000B467B807A884FF4FA637968034805F0CB
:101B0C003BFD00BF0837BD4680BD00BF280100204B
:101B1C0080B582B000AF78600B467B807A8841F24A
:101B2C0088337968034805F06BFE00BF0837BD4663
:101B3C0080BD00BF2801002080B582B000AF052316
:101B4C00BB710120FFF7C4FFFFF7AAFFB91D4FF4CB
:101B5C007A7301220B4805F00FFDF91D4FF47A73CF
:101B6C000122084805F04CFE0120FFF7B1FFFB797C
:101B7C0003F00103002BF0D1FFF79EFF00BF0837E5
:101B8C00BD4680BD2801002080B582B000AF662321
:101B9C003B7199237B71FFF783FF391D4FF47A73E7
:101BAC000222044805F0E8FCFFF786FF00BF083767
:101BBC00BD4680BD2801002080B588B000AFF8601C
:101BCC007A603B600B46FB72FB681A02FB7A13448B
:101BDC00FB610B233B75FB691B0CDBB27B75FB6953
:101BEC001B0ADBB2BB75FB69DBB2FB7500233B76D2
:101BFC00FFF756FF07F1140305211846FFF774FF92
:101C0C007B689BB219463868FFF782FFFFF754FFD9
:101C1C0000BF2037BD4680BD80B582B000AF062323
:101C2C00FB71FFF73DFFFB1D01211846FFF75CFF21
:101C3C00FFF742FF0120FFF74BFF00BF0837BD46FF
:101C4C0080BD80B582B000AF0423FB71FFF728FF85
:101C5C00FB1D01211846FFF747FFFFF72DFF012061
:101C6C00FFF736FF00BF0837BD4680BD80B586B094
:101C7C0000AF0346FB80FB881B037B61FFF75CFF17
:101C8C00FFF7CAFF20233B737B691B0CDBB27B7312
:101C9C007B691B0ADBB2BB737B69DBB2FB73FFF79F
:101CAC00FFFE07F10C0304211846FFF71DFFFFF799
:101CBC0003FFFFF741FFFFF7C4FF00BF1837BD4616
:101CCC0080BD80B586B000AF786003233B747B6821
:101CDC001B0CDBB27B747B681B0ADBB2BB747B68AE
:101CEC00DBB2FB74FFF7DCFE07F11003042118468E
:101CFC00FFF7FAFE07F10F0301211846FFF708FF63
:101D0C00FFF7DAFEFB7B18461837BD4680BD80B561
:101D1C00C8B000AF07F59073A3F58A73186007F588
:101D2C009073A3F58C73196007F59073A3F58E73FC
:101D3C001A6007F59073A3F5887302221A7007F5E1
:101D4C009073A3F58A731B681B0CDAB207F59073BA
:101D5C00A3F588735A7007F59073A3F58A731B6803
:101D6C001B0ADAB207F59073A3F588739A7007F51E
:101D7C009073A3F58A731B68DAB207F59073A3F519
:101D8C008873DA70042387F81F3197F81F319AB2E1
:101D9C0007F59073A3F58E731B689BB21344A7F8D9
:101DAC001A310023A7F81C3118E0B7F81C3107F5DD
:101DBC009072A2F58C7212681A4497F81F31591C54
:101DCC0087F81F111946127807F59073A3F58873DD
:101DDC005A54B7F81C310133A7F81C31B7F81C3131
:101DEC0007F59072A2F58E7212689A42DDD807F54B
:101DFC009073A3F58A731868FFF763FF0346FF2BF4
:101E0C002BD1FFF709FFB7F81A31FA2B15D9FFF7C9
:101E1C0047FE07F1100364211846FFF765FE07F132
:101E2C0010036433B7F81A21643A92B2114618467B
:101E3C00FFF75AFEFFF740FE0BE0FFF731FEB7F855
:101E4C001A2107F1100311461846FFF74DFEFFF754
:101E5C0033FEFFF771FEFFF7F4FE00BF07F5907736
:101E6C00BD4680BD90B589B000AF78610B467B82D2
:101E7C007B691A68A94B1B689A4240F0908102F06A
:101E8C00DFFF0346A64A1360A64B1B78433B142B7B
:101E9C0000F2858101A252F823F000BF951F0008C3
:101EAC00FD1E0008AB210008AB210008AB21000887
:101EBC00AB210008AB210008AB210008AB210008C6
:101ECC00AB210008AB210008AB210008AB210008B6
:101EDC00AB210008AB21000805200008D11F000829
:101EEC00AB210008AB210008AB2100082920000819
:101EFC008C4B5B781A068B4B9B781B041A43894BD3
:101F0C00DB781B021343874A127913431A46864B1C
:101F1C001A60864B1B7883F00103DBB2002B00F0B8
:101F2C00FA80834B1B78002B0ED07F4B1B68194615
:101F3C00804802F005F8804B01221A7002F080FFF5
:101F4C0003467E4A1360E6E07D4B1968764B1A68AF
:101F5C007C4C3B46184602F041FA3B460FCB84E8DA
:101F6C000F00784B1B68002B09D0774A77497848CB
:101F7C0002F081FA0121774802F0ACF8CBE00021A5
:101F8C00744802F0A7F8C6E0734B1B78002B09D0FD
:101F9C00714B00221A70714B1B7819466D4802F078
:101FAC0099F805E06E4B1B7819466A4802F092F8D6
:101FBC005C4B1B79002B14BF01230023DAB2694B55
:101FCC001A70ECE0684B01221A70684B01221A70EF
:101FDC000023FB7709E0FB7F5A1CFB7F5149895C8E
:101FEC00634AD154FB7F0133FB77FB7F162BF2D96D
:101FFC00604B01221A70D2E04A4B5B78012B09D15D
:10200C005D4B01221A70474B5A785C4B1A70574B38
:10201C0001221A70574B01221A70C0E0414B5B78B9
:10202C00413B042B00F2BA8001A252F823F000BF0E
:10203C0051200008A921000813210008992000084C
:10204C00752000084E4B01221A7002F0F9FE03466F
:10205C004C4A1360454B01221A704B4B01221A70EB
:10206C00444B01221A7055E0484B01221A7002F0C1
:10207C00E7FE0346434A13603C4B01221A70424B65
:10208C0001221A703B4B01221A7043E0404B1B6833
:10209C0001333F4A1360234B9B781A06214BDB78A4
:1020AC001B041A431F4B1B791B0213431D4A527905
:1020BC0013431A46364B5A601A4B9A79344B1A72A0
:1020CC00184BDA79324B5A72164B1A7A304B9A7289
:1020DC00144B5A7A2E4BDA72124B9A7A2C4B1A7387
:1020EC00104BDA7A2A4B5A730E4B1A7B284B9A7385
:1020FC000C4B5A7B264BDA73264B01221A701B4B66
:10210C0001221A7006E0244B01221A70174B01228F
:10211C001A7000BF42E000BF41E000BF1002002077
:10212C00B0080020D00200208407002014090020F1
:10213C00100900209098000811090020B408002014
:10214C008C080020440900208C070020D0080020B7
:10215C004C090020949800081F09002078070020E3
:10216C0030000020CC0800201A0900202009002093
:10217C0054070020780000201C0900206D07002067
:10218C0012090020940800201B09002013090020CC
:10219C0054090020160900201509002000BF322226
:1021AC000749084806F0C5FB074B1B681A68064B25
:1021BC001B6822F004021A6000BF2437BD4690BD94
:1021CC00D0020020100200205802002080B582B0FE
:1021DC0000AF0346FB80FB88402B45D1142002F056
:1021EC0039FE4021224804F07DFC0346002B3BD1F4
:1021FC00204B01221A7002F023FE03461E4A136084
:10220C001E4B4FF4FA621A6027E002F019FE0246E8
:10221C00194B1B68D31A1A4A1360194B1B6842F2EC
:10222C001072934202D9154B64221A6002F008FE18
:10223C000246144B1B68D21A104B1B689A4209D9E0
:10224C0002F0FEFD03460F4A13604FF400510E4896
:10225C0004F077FC0A2002F0FDFD4021044804F054
:10226C0041FC0346002BD0D000BF0837BD4680BDD3
:10227C00000C01401D090020B8080020C4080020F3
:10228C00C0080020BC0800200010014080B584B0BC
:10229C0002AF78607B681A68414B1B689A4265D123
:1022AC00404B1A78404B1B789A4205D23D4B1B7819
:1022BC000133DAB23B4B1A703C4B1B78002B19D113
:1022CC003B4B1B78002B15D13A4B1B78002B11D1B3
:1022DC00394B1B78002B0DD1384B1B7883F0010345
:1022EC00DBB2002B06D10421354804F0FBFB03467E
:1022FC00002B21D1334B01221A70324B00225A7021
:10230C00304B00229A702F4B0022DA702D4B00229A
:10231C001A712C4B00225A712A4B00229A71294BAC
:10232C000022DA7101224FF40041274804F0F1FB3E
:10233C00264B02221A7013E01B4B1B78194A019290
:10234C000093234B1F4A2349234802F0FFF8002235
:10235C004FF400411C4804F0DCFB1C4B03221A70A8
:10236C001E4B184A1E491F4802F0BEFF7B681A68B4
:10237C001D4B1B689A420ED11C4804F057FC1C4B99
:10238C001B7883F00103DBB2002B04D04FF4005117
:10239C000D4804F0D6FB00BF0837BD4680BD00BF1A
:1023AC00800100206E07002008070020140900207F
:1023BC001E090020CD080020CC080020360000208B
:1023CC00000801403C0700200010014030000020B4
:1023DC000C0700208C070020D00800208807002064
:1023EC00B80200209C000020C8010020C40000207E
:1023FC001D09002080B582B000AF7860124B134AE3
:10240C000021786803F0B7F80346002B01D002F0E6
:10241C0055FA0E4B1B68B3F5E86F10D10A4B9B783D
:10242C00482B0CD1084B1B7903F04003002B03D035
:10243C00074B01221A7002E0054B00221A7000BFF4
:10244C000837BD4680BD00BF700700209C020020ED
:10245C001E09002090B5A3B002AF02F099FC01F068
:10246C00A5FA924B5B68914A43F48073536001F078
:10247C0085FC01F065FC01F0E1FA01F02FFB01F0A5
:10248C0063FB01F033FC01F0E3FB01F00DFB01F009
:10249C0091FB874805F0D0FD32228649864806F02C
:1024AC0048FA864B1B681A68844B1B6822F004029E
:1024BC001A60834B08221A61814B44F2FF725A60F6
:1024CC007F4B04229A607E4B0022DA607C4B002208
:1024DC001A607B4B00221A757A4B00221A60794BDA
:1024EC0001225A60774B784A9A60764B0122DA6067
:1024FC00754B1B68DAB2754B1A70754B1B68DAB2E8
:10250C00744B1A70744B1B68DAB2744B1A70744BA0
:10251C001B68DAB2734B1A70734B1B689AB2734B0D
:10252C001A80734B1B68DAB2724B1A70724B1B68B1
:10253C00DAB2724B1A70724B1B68DAB2714B1A70AA
:10254C00714B1B68DAB2714B1A70714B1B689AB2E3
:10255C00704B1A80704B1B68DAB2704B1A70704B50
:10256C001B68DAB26F4B1A706F4B1B686F4A1360A3
:10257C006F4B1B686F4A1360544B1B78FF2B02D1B7
:10258C00524BC0221A70534B1B78FF2B02D1514B6C
:10259C00A8221A70514B1B78FF2B02D14F4B0022F3
:1025AC001A70504B1B78FF2B02D14E4B48221A70DD
:1025BC004E4B1B884FF6FF72934202D14B4B0022BD
:1025CC001A804C4B1B78FF2B02D14A4BC0221A703D
:1025DC004A4B1B78FF2B02D1484BA8221A70494B4F
:1025EC001B78FF2B02D1474B00221A70474B1B78EC
:1025FC00FF2B02D1454B02221A70464B1B884FF61B
:10260C00FF72934203D1434B41F270721A80434BD9
:10261C001B78FF2B02D1414B01221A70414B1B78C6
:10262C00FF2B02D13F4B00221A70404B1B68DAB2D1
:10263C00414B1A703D4B1B681B0ADAB23E4B5A7069
:10264C003A4B1B681B0CDAB23B4B9A70374B1B682E
:10265C001B0EDAB2384BDA70364B1B68DAB2364BDB
:10266C001A71344B1B681B0ADAB2334B5A71314B5B
:10267C001B681B0CDAB2304B9A712E4B1B681B0E6D
:10268C00DAB22D4BDA711B4B1A782C4B1A701B4B90
:10269C001A782A4B5A701B4B1A78284B9A701B4B82
:1026AC001A78264BDA70FFF76FFA63E0002004E02B
:1026BC00C8010020D0020020100200205802002087
:1026CC00B80200208C00002000FC00081407002039
:1026DC0004FC00081507002008FC00081607002061
:1026EC000CFC00081707002010FC00087C070020D9
:1026FC0014FC00081807002018FC0008190700201B
:10270C001CFC00081A07002020FC00081B070020F6
:10271C0024FC00087A07002028FC00080807002089
:10272C002CFC00083A07002030FC0008A008002010
:10273C0034FC0008A40800200C070020040700202B
:10274C00234B1B681809224B1B68DBB203F00F03E9
:10275C00DBB21B01D9B21F4B1022FFF72DFA1D4B18
:10276C001B685A1E1A4B1B689A4203D1194B1B68E3
:10277C00174A1360174B1B68B3F1FF3FE0D11BE006
:10278C00154B1B681B0903F50410134B1B68DBB2BC
:10279C0003F00F03DBB21B01D9B2104B1022FFF771
:1027AC000BFA0E4B1B685A1E0B4B1B689A4203D13B
:1027BC000A4B1B68084A1360084B1B68B3F1FF3FB8
:1027CC00DED1054B1B68002B1CD00023FB6712E0ED
:1027DC008C080020240900209C08002034090020CB
:1027EC00FB6F9BB203F504739BB21846FFF73EFADE
:1027FC00FB6F0133FB67BE4B1B681B0A0233FA6F7E
:10280C009A42EDD3002387F830301C2387F83130FF
:10281C00162387F83230B74B1B7887F83330B54B1B
:10282C001B78DB43DBB287F83430B24B1B78B14AF0
:10283C00127802FB03F3DBB287F83530AE4B1B7812
:10284C0087F83630AD4B1B7887F83730AC4B1B789C
:10285C0087F83830A74B1B7887F83930A94A07F12D
:10286C003A0310681860A84A07F13E031068186014
:10287C00A64A07F1420310681860012387F8463016
:10288C00A34B1A78A34B1A70A34B1A78A14B5A700E
:10289C00A24B1A789F4B9A70A14B1A789D4BDA7009
:1028AC0002F0FCFA03461B0EDCB202F00BFB0346F3
:1028BC001B0CDBB22344DCB202F0FAFA03461B0A0F
:1028CC00DBB22344DCB202F0E9FA0346DBB2234468
:1028DC00DBB287F8333002F0EBFA03461B0EDCB2A6
:1028EC0002F0DCFA03461B0CDBB22344DCB202F030
:1028FC00E9FA03461B0ADBB22344DCB202F0E2FA2B
:10290C000346DBB22344DBB287F8343002F0DAFA48
:10291C0003461B0EDCB202F0CBFA03461B0CDBB2F7
:10292C002344DCB202F0BAFA03461B0ADBB223449E
:10293C00DCB202F0BDFA0346DBB22344DBB287F80B
:10294C003530FDF709FF4FF4FA6002F083FA07F116
:10295C0030031846FFF764F8724B1A8820230121C4
:10296C000020FDF745FF704B1B881A466949002073
:10297C00FEF7CCF84FF44270FDF7EAFB0346172B39
:10298C000FD102F05DFA0346684A136002F058FA60
:10299C000346674A136001224FF48041654804F0F6
:1029AC00B8F8654B1B78184601F022FF634805F018
:1029BC0043FB0020FDF76FFD03461A46604B1A607F
:1029CC000020FDF768FD03461A465D4B1B689A42D2
:1029DC0040F0C0875A4B1B68B3F5806F01D903F0E8
:1029EC004AFA574B1B68002B00F0EA80544B1B68CB
:1029FC009BB21A4653490020FEF7ECFA514B1B7858
:102A0C00443B132B00F2DC8001A252F823F000BFF0
:102A1C00792A0008CD2B0008CD2B0008CD2B0008FF
:102A2C006D2A0008CD2B0008CD2B0008CD2B0008FB
:102A3C00CD2B0008CD2B0008CD2B0008CD2B00088A
:102A4C00CD2B0008CD2B0008E12A0008AD2A000888
:102A5C00CD2B0008CD2B0008CD2B00089B2B00089C
:102A6C0002F0EEF90346384A1360A9E0374B012215
:102A7C001A70002387F87B300DE097F87B305A1CD6
:102A8C0097F87B302F49895C314AD15497F87B30C9
:102A9C00013387F87B3097F87B30082BEDD98FE02A
:102AAC002C4B01221A70002387F87A300DE097F82E
:102ABC007A305A1C97F87A302249895C264AD154CC
:102ACC0097F87A30013387F87A3097F87A30162BEA
:102ADC00EDD975E01B4B5B78022B43D11F4B0122C8
:102AEC001A7002F0ADF903461D4A136068E000BF8E
:102AFC009C08002017070020140700201507002051
:102B0C0016070020E0980008E4980008E8980008F0
:102B1C001807002004070020190700201A070020BE
:102B2C001B0700207C0700207A070020A808002043
:102B3C00AC080020001001403A0700208001002062
:102B4C009808002004030020900800201909002098
:102B5C00480700201A0900205407002017090020FC
:102B6C00940800209D4B5B78032B08D19C4B0122D1
:102B7C001A7002F065F903469A4A136020E09A4BEA
:102B8C0001221A70954B5A78984B1A7018E0934B97
:102B9C005B78412B0AD0452B11D1954B01221A7031
:102BAC0002F04EF903468F4A136008E0914B012264
:102BBC001A7002F045F903468A4A136000BF00BF41
:102BCC008D4802F0A4FC0346002B0AD18B4B1B68EA
:102BDC001946894802F057FC0346002B01D003F03C
:102BEC004AF9874B1B78172B10D102F029F90246B2
:102BFC00844B1B68D31A002BB8BF5B4242F20F7296
:102C0C00934203DC804B01221A7002E07E4B0022BF
:102C1C001A7002F015F902467C4B1B68D31A002B74
:102C2C00B8BF5B4242F21072934203DD784B002234
:102C3C001A7002E0764B01221A70764B1B78002B2F
:102C4C001CD0744B00221A70734B1B78002B02D0D3
:102C5C00012B07D012E0714B00221A70704B01222D
:102C6C001A700BE06F4A7049704801F004FC6B4B12
:102C7C0001221A706A4B01221A7000BF6C4B1B7830
:102C8C00002B2AD002F0DCF802466A4B1B68D31AE0
:102C9C00B3F5FA7F21D9664B00221A70664B19687E
:102CAC00664B1A68664C3B46184601F097FB3B4650
:102CBC000FCB84E80F00624B1B68002B09D0594ADC
:102CCC005949604801F0D7FB01215F4801F002FA35
:102CDC0003E000215C4801F0FDF95C4B1B78002BF4
:102CEC0000F0E980594B00221A70594B1B78002BCD
:102CFC0003D0012B00F0D580DDE0554B5A78554BB5
:102D0C001A70534B9A78544B1A70514BDA78534BC8
:102D1C001A704F4B1A79524B1A704D4B5B791BB290
:102D2C001B021AB24A4B9B791BB213431BB29AB2C9
:102D3C004C4B1A80464BDA794B4B1A70444B1A7A2F
:102D4C004A4B1A70424B5A7A494B1A70404B9A7A3A
:102D5C00484B1A703E4BDB7A1BB21B021AB23C4B2F
:102D6C001B7B1BB213431BB29AB2434B1A80384BDA
:102D7C005A7B424B1A70364B9A7B414B1A70344B30
:102D8C00DB7B1A46324B1B7C1B021A43304B5B7CA1
:102D9C001B041A432E4B9B7C1B0613431A46394BC0
:102DAC001A602B4BDB7C1A46294B1B7D1B021A43EA
:102DBC00274B5B7D1B041A43254B9B7D1B06134342
:102DCC001A46314B1A6001F015FA304B1B78002B68
:102DDC0060D02F4801F0A6F960E000BF040300208A
:102DEC0018090020940800201C0900206D07002001
:102DFC0013090020120900209C00002088070020E5
:102E0C00440700209008002010090020B008002082
:102E1C003600002019090020480700207807002000
:102E2C001F0900208C070020D00800204907002033
:102E3C0011090020B40800208C0800208407002011
:102E4C00440900204C090020949800081A0900201D
:102E5C005407002014070020150700201607002037
:102E6C00170700207C0700201807002019070020F6
:102E7C001A0700201B0700207A07002008070020F3
:102E8C003A070020A0080020A408002020090020F8
:102E9C00989800089049914801F08AF802F0EBFFED
:102EAC0009E08F4B5B78002B14BF01230023DAB2AF
:102EBC008C4B1A7000BF8C4B1B78002B00F094804D
:102ECC00894B00221A70894B1B78002B02D0012BE6
:102EDC0003D089E002F0CFFF86E0854B1A78854B52
:102EEC001A70854B1A78834B5A70844B1A78814B25
:102EFC009A70834B1A787F4BDA70824B1B881B0AB3
:102F0C009BB2DAB27B4B1A717E4B1B88DAB2794BCF
:102F1C005A717D4B1A78774B9A717C4B1A78754B9A
:102F2C00DA717B4B1A78734B1A727A4B1A78714B95
:102F3C005A72794B1B881B0A9BB2DAB26D4B9A7290
:102F4C00754B1B88DAB26B4BDA72744B1A78694B7F
:102F5C001A73734B1A78674B5A73724B1B681B0EA0
:102F6C00DAB2644B9A736F4B1B681B0CDAB2614B71
:102F7C00DA736C4B1B681B0ADAB25E4B1A74694B22
:102F8C001B68DAB25B4B5A74674B1A78594B9A74BC
:102F9C00654B5A78574BDA74634B9A78554B1A75C4
:102FAC00614BDA78534B5A755F4B1A79514B9A75C2
:102FBC005D4B5A794F4BDA755B4B9A794D4B1A76C0
:102FCC00594BDA794B4B5A76584B1B78002B06D061
:102FDC00484801F0D3F8554B00221A7003E04549DC
:102FEC00534801F007F800BF524B1B7883F00103E4
:102FFC00DBB2002B00F0E18001F022FF02464E4BC9
:10300C001B68D31A002BB8BF5B4241F28832934243
:10301C0040F3D38001F014FF0346474A13600020AD
:10302C0001F076FB03461A46444B1A70434B1B784F
:10303C00172B40F0C280424B1B78002B03D0414B26
:10304C0046225A7033E0274B1B78002B03D03D4BA4
:10305C0050225A702BE03C4B1B78002B03D0394B81
:10306C0045225A7023E0394B1B7883F00103DBB205
:10307C00002B03D0334B44225A7018E004213448FF
:10308C0003F030FD0346002B03D12E4B43225A7024
:10309C000DE0304B1B7883F00103DBB2002B03D027
:1030AC00284B4F225A7002E0264B52225A700222B1
:1030BC0024490020FDF796FE7FE01A4B1B68002B7D
:1030CC0007D10021244800F05DFF244B00221A7028
:1030DC0073E000237B676BE09C980008A0980008C5
:1030EC0054070020CD0800201C0900206D0700208B
:1030FC00140700201C0700201507002016070020CD
:10310C00170700207C070020180700201907002053
:10311C001A0700201B0700207A0700200807002050
:10312C003A0700208C0800200C0700202009002002
:10313C00A49800081B090020A808002044070020C0
:10314C001E09002034000020CC080020360000208E
:10315C000008014010090020A89800081709002059
:10316C007B6F18097B6FDBB203F00F03DBB21B0123
:10317C00D9B29F4B1022FEF71FFD9D4BDA680092CF
:10318C000ECB9C4800F062FF642001F063FE9A4B6A
:10319C001B68013B7A6F9A4207D10121954800F0D8
:1031AC00F1FE964B00221A7007E07B6F01337B67B0
:1031BC00914B1B687A6F9A42D2D3904B1B78002BA1
:1031CC007FF47BAF58E100233B678D4B1B78002BC2
:1031DC0006D08B4B00221A708A4800F0A3FF03E044
:1031EC0089498A4800F0E4FE01F02AFE0346884A29
:1031FC001360884B01221A700020FDF74CF903462E
:10320C001A46854B1A600020FDF745F903461A460D
:10321C00814B1B689A4240F02D817F4B1B68B3F5A4
:10322C00806F01D902F027FE7C4B1B7883F00103E1
:10323C00DBB2002B66D0784B1B68002B62D0764B30
:10324C001B689BB21A4676490020FDF7C3FE744BEF
:10325C001B78572B56D1724B5B78442B4BD13B6F61
:10326C0001333B676F4A3B6F13606D4B9B781A06BB
:10327C006B4BDB781B041A43694B1B791B02134302
:10328C00674A527913431A46664B5A60644B9A79D3
:10329C00644B1A72624BDA79624B5A72604B1A7A2F
:1032AC00604B9A725E4B5A7A5E4BDA725C4B9A7A2E
:1032BC005C4B1A735A4BDA7A5A4B5A73584B1A7B2B
:1032CC00584B9A73564B5A7B564BDA733B6F03F53C
:1032DC00033303F2FF331B01102252491846FEF749
:1032EC0016FD5149494800F063FE01F0A9FD034663
:1032FC00474A136006E04A4B5B78432B02D14B4B99
:10330C0001221A704A4B1B78002B00F09D803B6FFA
:10331C0001333B673B6F03F5033303F2FF331B01B0
:10332C00102240491846FEF7F2FC414B00221A705D
:10333C00404800F0F7FE01F083FD0346344A136069
:10334C0082E0002387F86F300AE097F86F309BB269
:10335C001846FEF78BFC97F86F30013387F86F3007
:10336C0097F86F20244B1B681B0A01339A42ECD34D
:10337C000023BB6618E0BB6E1B0903F50450BB6E43
:10338C00DBB203F00F03DBB21B01D9B2184B1022D6
:10339C00FEF712FCBB6E1B01102215491846FEF7F6
:1033AC00B6FCBB6E0133BB66BA6E3B6F9A42E2D37E
:1033BC0000237B660AE07B6E9BB203F504739BB221
:1033CC001846FEF753FC7B6E01337B663B6F1B0A82
:1033DC0002337A6E9A42EED3094B1B78002B2DD018
:1033EC00074B00221A70144800F09CFE2AE000BF24
:1033FC0064090020A89800088C08002017090020F8
:10340C0020090020AC980008B4980008B89800086F
:10341C0094080020CD080020980800201B090020EB
:10342C000403002054090020BC9800081509002052
:10343C0016090020C0980008C898000898499948B7
:10344C0000F0B6FD02F017FD974B1B78002B7FF4B4
:10345C0078AF01F0F5FC0246944B1B68D31A002B95
:10346C00B8BF5B4242F2107293427FF7C5AE02F0D6
:10347C0002FDC1E600BFBFE68D4B1B78002B7FF42D
:10348C00A2AE2CE200233B668A4B1B78002B06D0A5
:10349C00884B00221A70884800F044FE11E08749DE
:1034AC00804800F085FD322001F0D4FC83497D4832
:1034BC0000F07EFD322001F0CDFC8049794800F00F
:1034CC0077FD01F0BDFC0346784A13607C4B01226A
:1034DC001A700020FCF7DFFF03461A46794B1A607E
:1034EC000020FCF7D8FF03461A46764B1B689A421D
:1034FC0040F0F381734B1B68B3F5806F01D902F078
:10350C00BAFC714B1B7883F00103DBB2002B68D043
:10351C006C4B1B68002B64D06A4B1B689BB21A4621
:10352C006A490020FDF756FD684B1B78572B58D184
:10353C00664B5B78442B4DD13B6E01333B66644B41
:10354C001B680133624A1360604B9B781A065F4B11
:10355C00DB781B041A435D4B1B791B0213435B4A3C
:10356C00527913431A465A4B5A60584B9A79584B16
:10357C001A72564BDA79564B5A72544B1A7A544B80
:10358C009A72524B5A7A524BDA72504B9A7A504B7F
:10359C001A734E4BDA7A4E4B5A734C4B1A7B4C4B7C
:1035AC009A734A4B5A7B4A4BDA733B6E03F50333DF
:1035BC0003F2FF331B01102245491846FEF7A7FB07
:1035CC004449384800F0F4FC01F03AFC0346374A11
:1035DC00136006E03D4B5B78432B02D1324B01224A
:1035EC001A703D4B1B78002B00F061813B6E013350
:1035FC003B663B6E03F5033303F2FF331B011022D2
:10360C0033491846FEF783FB334B00221A703348BC
:10361C0000F088FD01F014FC0346244A136046E1D7
:10362C000023FB651DE0FB6D1809FB6DDBB203F09D
:10363C000F03DBB21B01D9B2294B1022FEF7BCFAE7
:10364C003B6E1B0A01331A02FB6D134403F5043362
:10365C001B01102222491846FEF759FBFB6D013362
:10366C00FB65204B1B68FA6D9A42DCD30023BB65CB
:10367C0007E0BB6D9BB21846FEF7F8FABB6D013341
:10368C00BB65184B1B681B0A0133BA6D9A42F0D309
:10369C0000237B6500233B650023FB6487E000BFB0
:1036AC00D0980008B898000815090020940800204C
:1036BC001309002020090020D4980008DC98000889
:1036CC00CD080020980800201B09002004030020CE
:1036DC0054090020BC98000816090020C098000866
:1036EC00640900208C0800207B6D1A093B6E1B0AB4
:1036FC0001331B01134403F504507B6DDBB203F063
:10370C000F03DBB21B01D9B207F120031022FEF725
:10371C0053FA3B6D1B0903F504503B6DDBB203F010
:10372C000F03DBB21B01D9B207F110031022FEF715
:10373C0043FA7A6A7B699A420ED2FB6C01333B6284
:10374C00FB6C1B0107F1200110221846FEF7DFFA73
:10375C007B6D01337B6527E07A6A7B699A420ED9CF
:10376C00FB6C01333B61FB6C1B0107F11001102258
:10377C001846FEF7CCFA3B6D01333B6514E07A6AD0
:10378C007B699A4210D1FB6C01333B61FB6C1B01D2
:10379C0007F1100110221846FEF7B9FA3B6D013300
:1037AC003B657B6D01337B65FB6C0133FB646B4BC1
:1037BC001B687A6D9A422AD23A6D3B6E9A4293D329
:1037CC0025E07B6D1A093B6E1B0A01331B01134468
:1037DC0003F504507B6DDBB203F00F03DBB21B016E
:1037EC00D9B207F120031022FEF7E6F9FB6C013386
:1037FC003B62FB6C1B0107F1200110221846FEF7FF
:10380C0086FA7B6D01337B65FB6C0133FB64534B98
:10381C001B687A6D9A42D4D320E03B6D1B0903F5EB
:10382C0004503B6DDBB203F00F03DBB21B01D9B2CA
:10383C0007F110031022FEF7BFF9FB6C01333B615B
:10384C00FB6C1B0107F1100110221846FEF75FFA02
:10385C003B6D01333B65FB6C0133FB643A6D3B6E96
:10386C009A42DAD30023BB640AE0BB6C9BB203F52B
:10387C0004739BB21846FEF7F9F9BB6C0133BB64B9
:10388C00FB6C1B0A0233BA6C9A42EED3344B1B7896
:10389C00002B06D0324B00221A70324800F042FC4A
:1038AC0003E03149314800F083FB02F0E4FA304B7D
:1038BC001B78002B7FF4B4AE01F0C2FA02462D4BFC
:1038CC001B68D31A002BB8BF5B4242F210729342B2
:1038DC007FF7FFAD02F0CFFAFBE500BFF9E5264B11
:1038EC001B78002B7FF4CEAD244B1B78002B25D0FE
:1038FC00234B1B6842F2107293421DD9214BC022FC
:10390C001A70214BA8221A70204B00221A70204BDF
:10391C0048221A701F4BC0221A701F4BA8221A7013
:10392C001E4B00221A701E4B02221A701D4B41F2C4
:10393C0070721A8000F05EFC02F09DFA1A4B1B6844
:10394C00B3F5347F01D102F096FA0A2001F082FA25
:10395C00FFF72FB800BFFFF72CB800BF8C08002072
:10396C0020090020C8980008D0980008B8980008D2
:10397C001509002094080020120900201D090020C0
:10398C00C00800201407002015070020160700208F
:10399C001707002018070020190700201A0700201D
:1039AC001B0700207A070020C808002080B590B0C3
:1039BC0000AF07F1180328220021184605F00AFF72
:1039CC003B1D00221A605A609A60DA601A61092362
:1039DC00BB614FF48033FB614FF400333B62012336
:1039EC00BB6201233B6302237B634FF48033BB63D5
:1039FC004FF4E013FB6307F11803184603F026F9A4
:103A0C000346002B01D000F059FF0F237B600223EB
:103A1C00BB600023FB604FF480633B6100237B6140
:103A2C003B1D0221184603F093FB0346002B01D0EB
:103A3C0000F044FF00BF4037BD4680BD80B500AFED
:103A4C00174B184A1A60164B3C225A60144B002232
:103A5C009A60134B0022DA60114B4FF470221A61FA
:103A6C000F4B4FF4C0025A610D4B00221A760C4BCF
:103A7C0001225A760A4B00229A76094B0022DA76FA
:103A8C00074B00221A77064B00225A77044801F0A4
:103A9C0023FA0346002B01D000F010FF00BF80BDBD
:103AAC009C0000200064004080B500AF094B0A4A1E
:103ABC001A60084B04225A60064B40F252729A600C
:103ACC00044803F06FF80346002B01D000F0F6FE1B
:103ADC0000BF80BDC40000200030004080B500AFA6
:103AEC00174B184A1A60164B4FF482725A60144BDB
:103AFC0000229A60124B0022DA60114B00221A61EC
:103B0C000F4B00225A610E4B4FF400729A610C4B12
:103B1C002022DA610A4B00221A62094B00225A62F7
:103B2C00074B00229A62064B0A22DA62044803F021
:103B3C009FFC0346002B01D000F0C0FE00BF80BDEF
:103B4C00D00000200030014080B500AF174B184A60
:103B5C001A60164B4FF482725A60144B00229A6012
:103B6C00124B0022DA60114B00221A610F4B00221B
:103B7C005A610E4B4FF400729A610C4B0022DA61C1
:103B8C000A4B00221A62094B00225A62074B002290
:103B9C009A62064B0A22DA62044803F069FC034677
:103BAC00002B01D000F08AFE00BF80BD2801002050
:103BBC000038004080B586B000AF07F10803002242
:103BCC001A605A609A60DA603B4600221A605A60AA
:103BDC001E4B4FF080421A601C4B48F6A0425A60B4
:103BEC001A4B00229A60194B40F2E732DA60174BFD
:103BFC0000221A61154B00229A61144804F0CDF989
:103C0C000346002B01D000F059FE4FF48053BB60EB
:103C1C0007F1080319460D4804F050FB0346002B2E
:103C2C0001D000F04BFE00233B6000237B603B4641
:103C3C001946064804F032FD0346002B01D000F073
:103C4C003DFE00BF1837BD4680BD00BF800100207F
:103C5C0080B586B000AF07F1080300221A605A60E5
:103C6C009A60DA603B4600221A605A601D4B1E4A6D
:103C7C001A601C4B48F6A0425A601A4B00229A60FC
:103C8C00184B40F2E732DA60164B00221A61154BE2
:103C9C0000229A61134804F080F90346002B01D0EE
:103CAC0000F00CFE4FF48053BB6007F1080319467B
:103CBC000C4804F003FB0346002B01D000F0FEFD82
:103CCC0000233B6000237B603B461946054804F00B
:103CDC00E5FC0346002B01D000F0F0FD00BF1837C7
:103CEC00BD4680BDC80100200004004080B500AF77
:103CFC00114B124A1A60104B4FF416525A600E4B6D
:103D0C0000229A600C4B0022DA600B4B00221A61E5
:103D1C00094B0C225A61084B00229A61064B002277
:103D2C00DA61054804F02AFD0346002B01D000F0AF
:103D3C00C5FD00BF80BD00BF10020020003801404F
:103D4C0080B582B000AF0C4B5B690B4A43F00103AA
:103D5C005361094B5B6903F001037B607B680022B4
:103D6C0000210F2002F05DF80F2002F076F800BF62
:103D7C000837BD4680BD00BF0010024080B588B03A
:103D8C0000AF07F1100300221A605A609A60DA60E3
:103D9C00664B9B69654A43F010039361634B9B69C7
:103DAC0003F01003FB60FB68604B9B695F4A43F0B8
:103DBC00200393615D4B9B6903F02003BB60BB68E0
:103DCC005A4B9B69594A43F004039361574B9B69C7
:103DDC0003F004037B607B68544B9B69534A43F0AC
:103DEC0008039361514B9B6903F008033B603B68EC
:103DFC0000224FF460414E4802F08BFE012210214C
:103E0C004C4802F086FE002232214B4802F081FE23
:103E1C0001224FF48051484802F07BFE00224FF4FF
:103E2C008071444802F075FE4FF460433B610123FE
:103E3C007B610023BB610223FB6107F11003194670
:103E4C003B4802F0CBFC04233B6100237B61012344
:103E5C00BB6107F110031946364802F0BFFC102372
:103E6C003B6101237B610023BB610323FB6107F1F1
:103E7C00100319462F4802F0B1FC01233B612F4B74
:103E8C007B610023BB6107F1100319462A4802F03D
:103E9C00A5FC32233B6101237B610023BB61022320
:103EAC00FB6107F110031946234802F097FC4FF40D
:103EBC0080533B6101237B610023BB610323FB61C6
:103ECC0007F1100319461C4802F088FC4FF480736C
:103EDC003B6101237B610023BB610223FB6107F182
:103EEC0010031946134802F079FC40233B61134B35
:103EFC007B610123BB6107F1100319460E4802F0E8
:103F0C006DFC00220121062001F08BFF062001F040
:103F1C00A4FF00220721172001F083FF172001F0D6
:103F2C009CFF00BF2037BD4680BD00BF0010024083
:103F3C000010014000080140000C0140000021105D
:103F4C0080B584B000AF786039607B681B783B72B9
:103F5C003B681B0EDBB27B723B681B0CDBB2BB728B
:103F6C003B681B0ADBB2FB723B68DBB23B7307F1AD
:103F7C000803052219460020FCF734FF00BF103758
:103F8C00BD4680BD80B584B000AF78600B46FB7039
:103F9C007B681B783B73FB787B7307F10C03022265
:103FAC0019460020FCF71EFF00BF1037BD4680BD30
:103FBC0080B584B000AF7860396007F10803796888
:103FCC00184605F043FC07F108033968184605F05C
:103FDC0009FC07F108031846FCF7B2F803469AB23D
:103FEC0007F1080319460020FCF7FCFE00BF103750
:103FFC00BD4680BD80B58AB000AF786039607B6803
:10400C001B783B73002387F8273010E097F8273094
:10401C003A681A4497F827300133127828333B4416
:10402C0003F81C2C97F82730013387F8273097F8C2
:10403C002730192BEAD907F10C031B221946002053
:10404C00FCF7D0FE00BF2837BD4680BD84B080B5DC
:10405C0086B000AF786007F1240080E80E007B6822
:10406C001B783B7202237B72BB6A1B0EDBB2BB72EA
:10407C00BB6A1B0CDBB2FB72BB6A1B0ADBB23B7369
:10408C00BB6ADBB27B7397F82C30BB7397F82D307F
:10409C00FB7397F82E303B7497F82F307B7497F89E
:1040AC003030BB7497F83130FB7497F832303B7575
:1040BC0097F833307B7507F108030E221946002060
:1040CC00FCF790FE00BF1837BD46BDE8804004B039
:1040DC007047000080B584B000AF78600B46FB7071
:1040EC007B681B783B73FB787B7301224FF48071E8
:1040FC000A4802F00EFD07F10C014FF4FA7302228C
:10410C00074804F08BFB00224FF48071034802F047
:10411C0000FD00BF1037BD4680BD00BF0008014048
:10412C001002002080B584B000AF78607B681B78EB
:10413C003B737B685B787B737B689B78BB737B681A
:10414C00DB78FB7301224FF480710A4802F0E1FC2A
:10415C0007F10C014FF4FA730422074804F05EFBDC
:10416C0000224FF48071034802F0D3FC00BF1037DB
:10417C00BD4680BD000801401002002080B58AB009
:10418C0000AF786052233B73002387F8273010E090
:10419C0097F827307A681A4497F827300133127849
:1041AC0028333B4403F81C2C97F82730013387F84D
:1041BC00273097F82730192BEAD901224FF4807158
:1041CC000A4802F0A6FC07F10C014FF47A731B228B
:1041DC00074804F023FB00224FF48071034802F0DF
:1041EC0098FC00BF2837BD4680BD00BF00080140C9
:1041FC00100200202DE9B04F96B000AF02F05EF92E
:10420C005849594802F042FA584B1B78DBB200224D
:10421C001C46154622462B465549022002F0DEF874
:10422C00544B1B78DBB200229846914642464B46D3
:10423C005149022002F0D2F8504B1B78DBB200221D
:10424C009A46934652465B464D49022002F0C6F808
:10425C004C4B1B78DBB200223B657A65D7E9142303
:10426C004949022002F0BAF8484B1B889BB2002245
:10427C00BB64FA64D7E912234549022002F0AEF878
:10428C00444B1B78DBB200223B647A64D7E91023E1
:10429C004149022002F0A2F8404B1B78DBB200220D
:1042AC00BB63FA63D7E90E233D49022002F096F86E
:1042BC003C4B1B78DBB200223B637A63D7E90C23BF
:1042CC003949022002F08AF8384B1B78DBB2002205
:1042DC00BB62FA62D7E90A233549022002F07EF864
:1042EC00344B1B889BB200223B627A62D7E90823CD
:1042FC003149022002F072F8304B1B78DBB20022FD
:10430C00BB61FA61D7E906232D49022002F066F859
:10431C002C4B1B78DBB200223B617A61D7E904237A
:10432C002949022002F05AF8284B1B680022BB6076
:10433C00FA60D7E902232649022002F04FF8254BF8
:10434C001B6800223B607A60D7E9002322490220D7
:10435C0002F044F802F0D8F800BF5837BD46BDE86B
:10436C00B08F00BF800700208C00002014070020B5
:10437C0000FC00081507002004FC000816070020AC
:10438C0008FC0008170700200CFC00087C07002024
:10439C0010FC00081807002014FC00081907002066
:1043AC0018FC00081A0700201CFC00081B07002042
:1043BC0020FC00087A07002024FC000808070020D5
:1043CC0028FC00083A0700202CFC0008A00800205C
:1043DC0030FC0008A408002034FC000890B591B013
:1043EC0000AFF860B9607A600123FB63BB68BB6304
:1043FC0007F1240300221A605A609A60DA602BE0FD
:10440C00FA6BBB6B13445B087B637B6B013B18093A
:10441C007B6B013BDBB203F00F03DBB21B01D9B2A8
:10442C0007F114031022FDF7C7FBBB697A689A42A7
:10443C0007D1FB681C4607F114030FCB84E80F006F
:10444C0015E0BB697A689A4203D97B6B0133FB6335
:10445C0002E07B6B013BBB63FA6BBB6B9A42CFD91F
:10446C00FB681C4607F124030FCB84E80F00F868A7
:10447C004437BD4690BD90B587B000AFF860B960C9
:10448C007A600023FB752BE00023BB7522E0FB7DDB
:10449C00FA6813441B781A46BB7D42FA03F303F007
:1044AC000103002B13D0FB7DDA00BB7D13441A46AD
:1044BC00BB68134401221A70FB7DDA00BB7D1344E8
:1044CC009B007A68D41800F0BBFC03462360BB7DCC
:1044DC000133BB75BB7D072BD9D9FB7D0133FB7534
:1044EC00FB7D072BD0D900BF00BF1C37BD4690BD4C
:1044FC0080B487B000AF786039600023FB7500236F
:10450C003B611AE03B697A6813441B78DB09FB7347
:10451C003B697A6813441B785BB25B005AB297F91B
:10452C001730134359B23B693A681344CAB21A7034
:10453C00FB7BFB753B6901333B613B69072BE1DD81
:10454C0000BF00BF1C37BD4680BC704780B588B02B
:10455C0000AFF860B9607A603B6007F1100300228D
:10456C001A605A60FB6A1B7897F828209A4248D93F
:10457C000023FB7740E00023BB7731E0FB7FDA00C0
:10458C00BB7F13449B00BA6813441B68002B1FD1DC
:10459C00FB7F3A6813441B781A46BB7F42FA03F33D
:1045AC0003F00103002B09D0FB7FDA00BB7F13441F
:1045BC001A46FB68134401221A700EE0FB7FDA00E6
:1045CC00BB7F13441A46FB68134400221A7004E0A4
:1045DC00FB6A97F828201A7005E0BB7F0133BB7784
:1045EC00BB7F072BCAD9FB6A1B7897F828209A4205
:1045FC0006D0FB7F0133FB77FB7F072BBBD900E099
:10460C0000BFFB6A1B7897F828209A4248D80023F1
:10461C007B7742E000233B7739E07B7F3A68134499
:10462C001B781A463B7F42FA03F303F00103002B7D
:10463C0021D000F005FC01467B7FDA003B7F134460
:10464C009B00BA6813441B68CB1A83EAE372A2EB93
:10465C00E37297F828304FF47A7101FB03F39A4216
:10466C0009DD7B7FDA003B7F13441A46FB68134459
:10467C0001221A7008E07B7FDA003B7F13441A4654
:10468C00FB68134400221A703B7F01333B773B7F5E
:10469C00072BC2D97B7F01337B777B7F072BB9D963
:1046AC000023FB7626E00023BB761DE0FB7E203347
:1046BC003B4413F8103C5AB2FB7ED900BB7E0B4432
:1046CC001946FB680B441B781946BB7E01FA03F3B1
:1046DC005BB213435AB2FB7ED2B220333B4403F895
:1046EC00102CBB7E0133BB76BB7E072BDED9FB7E49
:1046FC000133FB76FB7E072BD5D907F110037968C4
:10470C001846FFF7F5FE00BF2037BD4680BD000000
:10471C0080B584B000AF0346FB71FB799B0001337D
:10472C00DB0003F540731846FBF712FD0346FB73E1
:10473C00FDF729F80346002B09D100224FF48041E4
:10474C00264802F0E6F9FB791846FCF7C7FAFB7B22
:10475C001C2B09D100224FF48041204802F0D9F9DA
:10476C00FB791846FCF7BAFAFDF70DF80346012B56
:10477C001BD1FB7B002B18D100224FF48041174832
:10478C0002F0C7F9164B1A88F87920230121FCF79F
:10479C002FF8144B1A88FB7913491846FCF7B6F915
:1047AC00124B1B680133114A1360FB799B000133D8
:1047BC00DB0003F540731846FBF7CAFC0346FB739A
:1047CC00FB7B172B05D101224FF48041034802F0EB
:1047DC00A0F9FB7B18461037BD4680BD0010014088
:1047EC007C0700207A07002004070020C80800205E
:1047FC0080B58CB000AF0346FB71FB79002B0BD15D
:10480C002C4B1E225A602B4B4FF4E0221A61294B81
:10481C004FF400125A611CE0FB79012B0BD1254B94
:10482C0028225A60234B4FF430221A61214B4FF44B
:10483C0080025A610DE0FB79022B0AD11D4B3C2200
:10484C005A601C4B4FF470221A611A4B4FF4C00281
:10485C005A61184B0122DA76164B4FF00072DA606F
:10486C00144800F039FB0123BB620023FB610023D9
:10487C00BB614FF46843BB600023FB600E4B3B6194
:10488C0006237B6100233B6201237B620D23FB62C9
:10489C0007F108031946074800F019FC054800F019
:1048AC00DFFC0221034800F087FF00BF3037BD4614
:1048BC0080BD00BF9C000020E0FF010080B400AF71
:1048CC0072B600BF00BFFDE780B485B000AF154BDA
:1048DC009B69144A43F001039361124B9B6903F0EB
:1048EC000103BB60BB680F4BDB690E4A43F080537E
:1048FC00D3610C4BDB6903F080537B607B680A4B04
:10490C005B68FB60FB6823F0E063FB60FB6843F0D3
:10491C000073FB60044AFB68536000BF1437BD464C
:10492C0080BC7047001002400000014080B588B088
:10493C0000AF786007F1100300221A605A609A6089
:10494C00DA607B681B68204A934239D11F4BDB69C4
:10495C001E4A43F00073D3611C4BDB6903F00073F8
:10496C00FB60FB68194B9B69184A43F00403936185
:10497C00164B9B6903F00403BB60BB684FF40063E8
:10498C003B6100237B610023BB6107F110031946D7
:10499C000F4801F023FF4FF480533B6102237B61EE
:1049AC000323FB6107F110031946094801F016FFB8
:1049BC0000220321142001F034FA142001F04DFAE6
:1049CC0000BF2037BD4680BD00640040001002408F
:1049DC000008014080B58AB000AF786007F1180379
:1049EC0000221A605A609A60DA607B681B68374A4A
:1049FC00934230D1364B9B69354A43F480539361D3
:104A0C00334B9B6903F480537B617B69304B9B690F
:104A1C002F4A43F0040393612D4B9B6903F004036D
:104A2C003B613B69A023BB610223FB6103237B62D7
:104A3C0007F118031946274801F0D0FE4023BB614B
:104A4C000023FB6100233B6207F118031946214840
:104A5C0001F0C4FE36E07B681B681F4A934231D1DB
:104A6C001B4BDB691A4A43F48043D361184BDB6957
:104A7C0003F48043FB60FB68154B9B69144A43F0BD
:104A8C0008039361124B9B6903F00803BB60BB687E
:104A9C004FF42043BB610223FB6103237B6207F1CC
:104AAC00180319460D4801F099FE4FF48043BB6181
:104ABC000023FB6100233B6207F1180319460748EA
:104ACC0001F08CFE00BF2837BD4680BD0030014090
:104ADC00001002400008014000380040000C01406A
:104AEC0080B584B000AF78607B681B68B3F1804FF1
:104AFC0014D1194BDB69184A43F00103D361164BEF
:104B0C00DB6903F00103FB60FB68002204211C201D
:104B1C0001F087F91C2001F0A0F918E07B681B68F4
:104B2C000E4A934213D10C4BDB690B4A43F0020340
:104B3C00D361094BDB6903F00203BB60BB68002245
:104B4C0005211D2001F06DF91D2001F086F900BF33
:104B5C001037BD4680BD00BF00100240000400406D
:104B6C0080B588B000AF786007F1100300221A609E
:104B7C005A609A60DA607B681B68334A93425FD153
:104B8C00324B9B69314A43F4804393612F4B9B69B1
:104B9C0003F48043FB60FB682C4B9B692B4A43F06E
:104BAC0004039361294B9B6903F00403BB60BB684E
:104BBC004FF400733B6102237B610323FB6107F11C
:104BCC0010031946224801F009FE4FF480633B6143
:104BDC0000237B610023BB6107F1100319461C48BD
:104BEC0001F0FCFD1B4B1C4A1A601A4B00225A6048
:104BFC00184B00229A60174B8022DA60154B00226A
:104C0C001A61144B00225A61124B00229A61114B0B
:104C1C000022DA610F4801F03FF90346002B01D066
:104C2C00FFF74CFE7B680B4ADA630A4A7B685362D7
:104C3C0000220221252001F0F4F8252001F00DF9C5
:104C4C0000BF2037BD4680BD003801400010024037
:104C5C0000080140580200205800024080B400AF08
:104C6C0000BFFDE780B400AF00BFFDE780B400AF2C
:104C7C0000BFFDE780B400AF00BFFDE780B400AF1C
:104C8C0000BFFDE780B400AF00BFBD4680BC7047DD
:104C9C0080B400AF00BFBD4680BC704780B400AF8D
:104CAC0000BFBD4680BC704780B500AF00F0B6F8C1
:104CBC0000BF80BD80B500AF012001F05BFF00BFDD
:104CCC0080BD000080B500AF024801F053FA00BF70
:104CDC0080BD00BF5802002080B500AF024800F034
:104CEC0090FD00BF80BD00BF9C00002080B500AFD0
:104CFC00402001F03FFF00BF80BD000080B500AF39
:104D0C00024803F0EBF900BF80BD00BF800100201A
:104D1C0080B500AF024803F0E1F900BF80BD00BFD1
:104D2C00C801002080B500AF024803F05BFE00BF55
:104D3C0080BD00BF1002002080B400AF00BFBD4694
:104D4C0080BC7047FFF7F8FF0B480C490C4A002356
:104D5C0002E0D458C4500433C4188C42F9D3094A25
:104D6C00094C002301E013600432A242FBD304F08F
:104D7C0049FDFDF76FFB7047000000204400002048
:104D8C00289900084800002098090020FEE7000040
:104D9C0080B500AF084B1B68074A43F01003136043
:104DAC00032001F033F8062000F008F8FFF78CFD23
:104DBC000023184680BD00BF0020024080B582B0A1
:104DCC0000AF7860124B1A68124B1B7819464FF4DF
:104DDC007A73B3FBF1F3B2FBF3F3184601F04FF81F
:104DEC000346002B01D001230EE07B680F2B0AD861
:104DFC00002279684FF0FF3001F013F8064A7B6807
:104E0C001360002300E0012318460837BD4680BD1F
:104E1C0038000020400000203C00002080B400AF8F
:104E2C00054B1B781A46054B1B681344034A136049
:104E3C0000BFBD4680BC70474000002074090020B4
:104E4C0080B400AF024B1B681846BD4680BC70474F
:104E5C007409002080B584B000AF7860FFF7F0FFD4
:104E6C00B8607B68FB60FB68B3F1FF3F05D00A4B71
:104E7C001B781A46FB681344FB6000BFFFF7E0FF8A
:104E8C000246BB68D31AFA689A42F7D800BF00BF33
:104E9C001037BD4680BD00BF4000002080B400AF7D
:104EAC00024B1B681846BD4680BC7047E8F7FF1FD5
:104EBC0080B400AF024B1B681846BD4680BC7047DF
:104ECC00ECF7FF1F80B400AF024B1B681846BD46C1
:104EDC0080BC7047F0F7FF1F80B584B000AF7860DE
:104EEC007B68002B01D10123EDE07B6893F8203027
:104EFC00DBB2002B02D17868FFF718FD7B681B68CA
:104F0C001A687B681B6842F001021A60FFF798FF71
:104F1C00F86012E0FFF794FF0246FB68D31A0A2BE5
:104F2C000BD97B685B6A43F400327B685A627B68FE
:104F3C00052283F820200123C5E07B681B685B6891
:104F4C0003F00103002BE5D07B681B681A687B68B3
:104F5C001B6822F002021A60FFF772FFF86012E081
:104F6C00FFF76EFF0246FB68D31A0A2B0BD97B683E
:104F7C005B6A43F400327B685A627B68052283F8D3
:104F8C00202001239FE07B681B685B6803F0020311
:104F9C00002BE5D17B681B7E012B08D17B681B683D
:104FAC001A687B681B6842F080021A6007E07B6815
:104FBC001B681A687B681B6822F080021A607B6889
:104FCC005B7E012B08D17B681B681A687B681B68A9
:104FDC0042F040021A6007E07B681B681A687B6825
:104FEC001B6822F040021A607B689B7E012B08D163
:104FFC007B681B681A687B681B6842F020021A6089
:10500C0007E07B681B681A687B681B6822F020022B
:10501C001A607B68DB7E012B08D17B681B681A68E1
:10502C007B681B6822F010021A6007E07B681B6823
:10503C001A687B681B6842F010021A607B681B7F41
:10504C00012B08D17B681B681A687B681B6842F0CF
:10505C0008021A6007E07B681B681A687B681B688B
:10506C0022F008021A607B685B7F012B08D17B68F9
:10507C001B681A687B681B6842F004021A6007E020
:10508C007B681B681A687B681B6822F004021A6034
:10509C007B689A687B68DB681A437B681B691A43D8
:1050AC007B685B6942EA03017B685B685A1E7B681C
:1050BC001B680A43DA617B6800225A627B68012212
:1050CC0083F82020002318461037BD4680BD80B4DD
:1050DC0087B000AF786039607B681B687B617B6848
:1050EC0093F82030FB74FB7C012B03D0FB7C022B50
:1050FC0040F0AA807B69D3F8003243F001027B694F
:10510C00C3F800223B685B6903F01F03012202FA1B
:10511C0003F3FB607B69D3F81C22FB68DB431A406A
:10512C007B69C3F81C223B68DB69002B23D17B69AC
:10513C00D3F80C22FB68DB431A407B69C3F80C22C2
:10514C003B68DB6819043B685B689BB23A68526940
:10515C0019437B69483243F832103B689B68190449
:10516C003B681B689AB23B685B690A4379694833B0
:10517C00DB000B445A603B68DB69012B22D17B6955
:10518C00D3F80C22FB681A437B69C3F80C223B68EA
:10519C001B6819043B685B689BB23A6852691943F7
:1051AC007B69483243F832103B689B6819043B68B2
:1051BC00DB689AB23B685B690A4379694833DB0068
:1051CC000B445A603B689B69002B09D17B69D3F86F
:1051DC000422FB68DB431A407B69C3F8042207E016
:1051EC007B69D3F80422FB681A437B69C3F8042259
:1051FC003B681B69002B09D17B69D3F81422FB682F
:10520C00DB431A407B69C3F8142207E07B69D3F8AF
:10521C001422FB681A437B69C3F814223B681B6A8F
:10522C00012B07D17B69D3F81C22FB681A437B69DD
:10523C00C3F81C227B69D3F8003223F001027B698E
:10524C00C3F80022002306E07B685B6A43F48022EB
:10525C007B685A62012318461C37BD4680BC7047D8
:10526C0080B584B000AF78607B6893F82030DBB2F7
:10527C00012B2ED17B68022283F820207B681B68CF
:10528C001A687B681B6822F001021A60FFF7D8FDD0
:10529C00F86012E0FFF7D4FD0246FB68D31A0A2B24
:1052AC000BD97B685B6A43F400327B685A627B687B
:1052BC00052283F82020012312E07B681B685B68C1
:1052CC0003F00103002BE5D17B6800225A62002316
:1052DC0006E07B685B6A43F400227B685A62012318
:1052EC0018461037BD4680BD80B489B000AFF86059
:1052FC00B9607A603B60FB6893F82030FB77FB6801
:10530C001B689B68BB61FB7F012B03D0FB7F022BCF
:10531C0040F0AD80BB6903F08063002B0AD1BB6900
:10532C0003F00063002B05D1BB6903F08053002B05
:10533C0000F09580BB691B0E03F003037B61012217
:10534C007B699A403B681A60BB689B68002B0DD147
:10535C00BB681B685A05BB68DB68F96809681A43A7
:10536C007B6918331B010B441A600FE0BB685B6848
:10537C00DA00BB689B681A43BB68DB68F96809688C
:10538C001A437B6918331B010B441A60FB681968BC
:10539C00BB681A697B6918331B010B4404331A6010
:1053AC00BB681B7D012B11D1FB681A687B69183314
:1053BC001B01134404331B68FA68116843F48072B0
:1053CC007B6918331B010B4404331A607B68073369
:1053DC001B781A067B6806331B781B041A437B6800
:1053EC0005331B781B0213437A680432127810467B
:1053FC00FA68116843EA00027B691B010B4403F550
:10540C00C6731A607B6803331B781A067B680233F9
:10541C001B781B041A437B6801331B781B02134354
:10542C007A6812781046FA68116843EA00027B69C0
:10543C001B010B4403F5C4731A60FB681A687B6983
:10544C0018331B0113441B68FA68116843F00102FE
:10545C007B6918331B010B441A6000230EE0FB68B8
:10546C005B6A43F40012FB685A62012306E0FB6896
:10547C005B6A43F48022FB685A6201231846243786
:10548C00BD4680BC704780B485B000AF7860396091
:10549C007B6893F82030FB73FB7B012B02D0FB7BEA
:1054AC00022B28D13B6803F00103002B07D07B684B
:1054BC001B689A687B681B6842F080029A603B68A4
:1054CC0003F00203002B07D07B681B689A687B688B
:1054DC001B6842F400429A603B6803F00403002B03
:1054EC0007D07B681B689A687B681B6842F40002D3
:1054FC009A60002306E07B685B6A43F480227B6839
:10550C005A62012318461437BD4680BC704780B4DC
:10551C0085B000AF78600023FB607B6893F8203087
:10552C00FB72FB7A012B02D0FB7A022B1DD17B681C
:10553C001B689B6803F08063002B02D0FB6801336F
:10554C00FB607B681B689B6803F00063002B02D038
:10555C00FB680133FB607B681B689B6803F080531E
:10556C00002B02D0FB680133FB60FB681846143734
:10557C00BD4680BC704780B487B000AFF860B9609E
:10558C007A603B60FB6893F82030FB75FB7D012B48
:10559C0003D0FB7D022B40F00381BB68002B0ED1A6
:1055AC00FB681B68DB6803F00303002B16D1FB6858
:1055BC005B6A43F40012FB685A620123F7E0FB6854
:1055CC001B681B6903F00303002B07D1FB685B6AA4
:1055DC0043F40012FB685A620123E8E0FB681A6886
:1055EC00BB681B331B0113441B6803F004027B686C
:1055FC009A607B689B68002B0CD1FB681A68BB68AF
:10560C001B331B0113441B685B0DC3F30A027B683D
:10561C001A600BE0FB681A68BB681B331B01134450
:10562C001B68DB0823F060427B685A60FB681A68D1
:10563C00BB681B331B0113441B6803F002027B681D
:10564C00DA60FB681A68BB681B331B011344043314
:10565C001B6803F00803002B03D07B6808221A6137
:10566C000BE0FB681A68BB681B331B011344043343
:10567C001B6803F00F027B681A61FB681A68BB6831
:10568C001B331B01134404331B681B0ADAB27B68FF
:10569C009A61FB681A68BB681B331B011344043303
:1056AC001B681B0C9AB27B685A61FB681A68BB6852
:1056BC001B01134403F5DC731B68DAB23B681A70E8
:1056CC00FB681A68BB681B01134403F5DC731B6889
:1056DC001A0A3B680133D2B21A70FB681A68BB68AD
:1056EC001B01134403F5DC731B681A0C3B68023373
:1056FC00D2B21A70FB681A68BB681B01134403F51D
:10570C00DC731B681A0E3B680333D2B21A70FB6849
:10571C001A68BB681B01134403F5DE731A683B68F7
:10572C000433D2B21A70FB681A68BB681B011344AD
:10573C0003F5DE731B681A0A3B680533D2B21A7084
:10574C00FB681A68BB681B01134403F5DE731B6806
:10575C001A0C3B680633D2B21A70FB681A68BB6825
:10576C001B01134403F5DE731B681A0E3B680733E9
:10577C00D2B21A70BB68002B08D1FB681B68DA68C0
:10578C00FB681B6842F02002DA6007E0FB681B68CC
:10579C001A69FB681B6842F020021A61002306E0BC
:1057AC00FB685B6A43F48022FB685A62012318464B
:1057BC001C37BD4680BC704780B485B000AF7860A4
:1057CC0039607B6893F82030FB73FB7B012B02D094
:1057DC00FB7B022B09D17B681B6859697B681B68B2
:1057EC003A680A435A61002306E07B685B6A43F41B
:1057FC0080227B685A62012318461437BD4680BC50
:10580C00704780B58AB000AF786000237B627B68FC
:10581C001B685B693B627B681B685B68FB617B6830
:10582C001B689B68BB617B681B68DB687B617B6862
:10583C001B681B693B617B681B689B69FB603B6A4F
:10584C0003F00103002B7CD0BB6903F00103002B98
:10585C0023D07B681B6801229A60BB6903F00203AA
:10586C00002B03D0786800F083F916E0BB6903F0D5
:10587C000403002B04D07B6A43F400637B620CE0CE
:10588C00BB6903F00803002B04D07B6A43F48053FC
:10589C007B6202E0786800F086F9BB6903F48073E0
:1058AC00002B24D07B681B684FF480729A60BB6914
:1058BC0003F40073002B03D0786800F062F916E053
:1058CC00BB6903F48063002B04D07B6A43F4005360
:1058DC007B620CE0BB6903F40063002B04D07B6A91
:1058EC0043F480437B6202E0786800F065F9BB69A1
:1058FC0003F48033002B24D07B681B684FF4803278
:10590C009A60BB6903F40033002B03D0786800F075
:10591C0041F916E0BB6903F48023002B04D07B6AA9
:10592C0043F400437B620CE0BB6903F40023002BBF
:10593C0004D07B6A43F480337B6202E0786800F029
:10594C0044F93B6A03F00803002B0CD07B6903F08D
:10595C001003002B07D07B6A43F400737B627B68D7
:10596C001B681022DA603B6A03F00403002B0BD097
:10597C007B6903F00803002B06D07B681B680822A8
:10598C00DA60786800F02AF93B6A03F00203002B16
:10599C0009D07B681B68DB6803F00303002B02D083
:1059AC007868FCF727FD3B6A03F04003002B0CD012
:1059BC003B6903F01003002B07D07B6A43F4806330
:1059CC007B627B681B6810221A613B6A03F0200320
:1059DC00002B0BD03B6903F00803002B06D07B682F
:1059EC001B6808221A61786800F00AF93B6A03F018
:1059FC001003002B09D07B681B681B6903F00303A1
:105A0C00002B02D0786800F0F2F83B6A03F4003304
:105A1C00002B0BD0FB6903F01003002B06D07B6826
:105A2C001B6810225A60786800F0F3F83B6A03F4A4
:105A3C008033002B0BD0FB6903F00803002B06D03E
:105A4C007B681B6808225A60786800F0EBF83B6AA8
:105A5C0003F40043002B7BD0FB6903F00403002B01
:105A6C0072D03B6A03F48073002B08D0FB6803F000
:105A7C000103002B03D07B6A43F001037B623B6A7A
:105A8C0003F40073002B08D0FB6803F00203002B17
:105A9C0003D07B6A43F002037B623B6A03F48063AE
:105AAC00002B08D0FB6803F00403002B03D07B6AA7
:105ABC0043F004037B623B6A03F40063002B43D086
:105ACC00FB6803F07003002B3ED0FB6803F07003FF
