:020000040800F2
:1000000000500020F150000809500008115000086D
:100010001950000821500008295000080000000075
:100020000000000000000000000000003150000847
:100030003D500008000000004950000855500008DD
:100040003951000839510008395100083951000868
:100050003951000839510008615000083951000831
:100060003951000839510008395100083951000848
:100070003951000839510008395100087150000801
:100080003951000839510008395100083951000828
:10009000855000083951000839510008995000086E
:1000A0003951000839510008395100083951000808
:1000B000A9500008BD500008395100083951000806
:1000C00039510008395100083951000839510008E8
:1000D00039510008D1500008395100083951000841
:1000E000395100083951000839510008000000005A
:1000F0000000000000000000000000000000000000
:0C01000000000000000000005FF808F1A3
:10010C0010B5054C237833B9044B13B10448AFF345
:10011C0000800123237010BD40000020000000006F
:10012C00089C000808B5034B1BB103490348AFF307
:10013C00008008BD0000000044000020089C00085E
:10014C00034613F8012B002AFBD1181A013870470B
:10015C0080B584B000AF7860224BDB689847214BA8
:10016C005B6998471F4B5B6A002B03D01D4B9B6A46
:10017C00002B14D11B4B1B6A7A68120CD2B210469E
:10018C009847184B1B6A7A68120AD2B210469847E5
:10019C00144B1B6A7A68D2B21046984711E07B6800
:1001AC001B0CDBB23B737B681B0ADBB27B737B687B
:1001BC00DBB2BB730B4B9B6A07F10C02032110469D
:1001CC009847084BDB6998470346FB73054B9B69C3
:1001DC009847044B1B699847FB7B18461037BD4664
:1001EC0080BD00BF0400002080B584B000AF7860F3
:1001FC000B46FB70224BDB689847214B5B69984799
:10020C007B6843F004037B601D4B9B6A002B19D168
:10021C001B4B1B6A7A68120CD2B210469847184BCB
:10022C001B6A7A68120AD2B210469847144B1B6AA2
:10023C007A68D2B210469847114B1B6AFA7810466E
:10024C00984713E07B681B0CDBB23B737B681B0A83
:10025C00DBB27B737B68DBB2BB73FB78FB73084B45
:10026C009B6A07F10C02042110469847044B9B69CA
:10027C009847034B1B69984700BF1037BD4680BD9C
:10028C000400002090B587B000AFF860B960134649
:10029C00FB802B4BDB689847294B5B699847284BB5
:1002AC005B6A002B03D0264B9B6A002B26D1244B78
:1002BC001B6AFA68120CD2B210469847204B1B6A84
:1002CC00FA68120AD2B2104698471D4B1B6AFA689C
:1002DC00D2B2104698470023FB820AE0184BDB6928
:1002EC00FA8AB9688C18984703462370FB8A013345
:1002FC00FB82FA8AFB889A42F0D317E0FB681B0C4E
:10030C00DBB23B74FB681B0ADBB27B74FB68DBB2B1
:10031C00BB740B4B9B6A07F11002032110469847E4
:10032C00074B5B6AFA881146B8689847044B9B697F
:10033C009847034B1B69984700BF1C37BD4690BDBF
:10034C000400002080B586B000AFF860B960134699
:10035C00FB802B4BDB689847294B5B699847FB6804
:10036C0043F00403FB60264B9B6A002B26D1244BE5
:10037C001B6AFA68120CD2B210469847204B1B6AC3
:10038C00FA68120AD2B2104698471D4B1B6AFA68DB
:10039C00D2B2104698470023FB820AE0184B1B6A26
:1003AC00FA8AB9680A44127810469847FB8A0133D6
:1003BC00FB82FA8AFB889A42F0D317E0FB681B0C8D
:1003CC00DBB23B74FB681B0ADBB27B74FB68DBB2F1
:1003DC00BB740B4B9B6A07F1100203211046984724
:1003EC00074B9B6AFA881146B8689847044B9B697F
:1003FC009847034B1B69984700BF1837BD4680BD13
:10040C000400002090B585B000AF0346FB710023BB
:10041C00FB810023BB81FB799B000133DB0003F5DF
:10042C0000531846FFF794FE0346BB81BB891B02A1
:10043C009CB2FB799B000133DB0003F50453184697
:10044C00FFF786FE03462344BB81BB89002B19D0E2
:10045C00FB799B000133DB0003F500531846FFF7D3
:10046C0077FE0346FB81FB891B029CB2FB799B0048
:10047C000133DB0003F504531846FFF769FE03460E
:10048C002344FB81FA89BB899A42C4D1FB89184663
:10049C001437BD4690BD90B585B000AF0346FB71D7
:1004AC000023FB810023BB81FB799B000133DB0024
:1004BC0003F518531846FFF74BFE0346BB81BB8967
:1004CC001B029CB2FB799B000133DB0003F51C5330
:1004DC001846FFF73DFE03462344BB81BB89002B26
:1004EC0019D0FB799B000133DB0003F51853184638
:1004FC00FFF72EFE0346FB81FB891B029CB2FB79A6
:10050C009B000133DB0003F51C531846FFF720FE5C
:10051C0003462344FB81FA89BB899A42C4D1FB89E7
:10052C0018461437BD4690BD90B585B000AF034654
:10053C003960FB711346BB800023FB810023BB6039
:10054C00BB88002B46D0FB799B000133DB0003F505
:10055C0010531846FFF7FCFD03461B029CB2FB79B7
:10056C009B000133DB0003F514531846FFF7F0FD35
:10057C0003462344FB81FB891A02FB799B0002335F
:10058C00DB001344BB60BB881A463968B868FFF7B8
:10059C00D9FEFA89BB881344FB81FB799B0001339C
:1005AC00DB0003F510531A46FB891B0A9BB2DBB226
:1005BC0019461046FFF718FEFB799B000133DB0050
:1005CC0003F514531A46FB89DBB219461046FFF7A4
:1005DC000BFE00E000BF1437BD4690BD90B585B052
:1005EC0000AF03463960FB711346BB800023FB81CF
:1005FC000023BB60BB88002B46D0FB799B000133EA
:10060C00DB0003F520531846FFF7A2FD03461B023F
:10061C009CB2FB799B000133DB0003F52453184695
:10062C00FFF796FD03462344FB81FB891A02FB79F5
:10063C009B000333DB001344BB60BB881A4639684C
:10064C00B868FFF71FFEFA89BB881344FB81FB795E
:10065C009B000133DB0003F520531A46FB891B0A70
:10066C009BB2DBB219461046FFF7BEFDFB799B002F
:10067C000133DB0003F524531A46FB89DBB2194620
:10068C001046FFF7B1FD00E000BF1437BD4690BD2A
:10069C0080B500AF00221021024806F00AFC00BF12
:1006AC0080BD00BF0008014080B500AF01221021C1
:1006BC00024806F0FEFB00BF80BD00BF00080140F1
:1006CC0080B582B000AFF91D4FF0FF330122044812
:1006DC0007F066FAFB7918460837BD4680BD00BFA7
:1006EC00D800002080B582B000AF0346FB71F91D25
:1006FC004FF0FF330122034807F00EF900BF083713
:10070C00BD4680BDD800002080B582B000AF7860B7
:10071C000B467B807A884FF0FF337968034807F0EB
:10072C003FFA00BF0837BD4680BD00BFD80000208F
:10073C0080B582B000AF78600B467B807A884FF032
:10074C00FF337968034807F0E7F800BF0837BD4668
:10075C0080BD00BFD800002090B587B000AFFF234C
:10076C00FB751A4B3C1D0FCB84E80F0001221021A6
:10077C00174806F09EFB00220221164806F099FB52
:10078C0000BFFB7D5A1EFA75002BFAD10122022103
:10079C00104806F08EFB1049104800F0B9FC1049C7
:1007AC00104800F0D9FC1049104800F001FD3B1D29
:1007BC001946012000F028FD0346B3F1FF3F01D19B
:1007CC0000BFFDE700BF1C37BD4690BD209C000854
:1007DC0000080140000C0140B50600089D06000809
:1007EC00F1060008CD0600083D07000815070008B3
:1007FC0090B585B000AF0446084611461A4623460C
:10080C00FB710346BB710B46BB801346FB70FB7937
:10081C00082B02D94FF0FF33EFE0BB79012B05D049
:10082C00002B11DD023B022B0ED811E007F10C035B
:10083C00042219464FF47060FFF724FDFB68002B6F
:10084C0005D16FF00203D8E06FF00403D5E000BFD0
:10085C00FB7803F00403002B02D06FF00503CCE00F
:10086C00FB78002B28D0BB79012B02D0022B08D0AF
:10087C0022E0FB7803F02103002B1AD16FF0050363
:10088C00BBE0FB7803F02003002B06D097F9033074
:10089C00002B02DB6FF00503AFE0FB7803F01003D5
:1008AC00002B08D097F90330002B04DB6FF0050305
:1008BC00A3E000BF00E000BFFB79184600F0ACF8E5
:1008CC00FB799B000133D80097F9033023F00F0319
:1008DC005AB297F9063013435BB2DBB21946FFF7F5
:1008EC0083FCBB88002B10D1464B1B885A1C91B241
:1008FC00444A1180BB80434B1B884FF6F0729342E5
:10090C0003D1404B4FF440421A80FB799B000133DA
:10091C00DB0003F580631A46BB881B0A9BB2DBB273
:10092C0019461046FFF760FCFB799B000133DB0096
:10093C0003F5A0631A46BB88DBB219461046FFF7D5
:10094C0053FCFB799B000133DB0003F58073012121
:10095C001846FFF749FC00BFFB799B000133DB0015
:10096C0003F580731846FFF7F3FB0346002BF3D116
:10097C00FB79012202FA03F31BB2DB431AB2224BBE
:10098C001B881BB213401BB29AB21F4B1A80FB7808
:10099C0003F00102FB7902FA03F31AB21A4B1B881B
:1009AC001BB213431BB29AB2174B1A80FB7901226C
:1009BC0002FA03F31BB2DB431AB2144B1B881BB2B3
:1009CC0013401BB29AB2114B1A80FB79104A0021CA
:1009DC0022F81310FB790F4A0021D15400BFFB7988
:1009EC009B000133DB0003F540731846FFF7B0FBA7
:1009FC000346002BF3D097F9073018461437BD4641
:100A0C0090BD00BF000000205C0000205E000020B4
:100A1C00600000207400002080B582B000AF034657
:100A2C00FB71FB79082B02D94FF0FF3369E0FB799E
:100A3C009B000133DB0003F5807310211846FFF790
:100A4C00D3FB09E0314B1B78012B05D12F4B002236
:100A5C001A706FF00C0354E0FB799B000133DB0040
:100A6C0003F580731846FFF773FB0346002BE9D19F
:100A7C00FB799B000133DB0003F500731F21184643
:100A8C00FFF7B2FBFB79012202FA03F31BB2DB4343
:100A9C001AB21F4B1B881BB213401BB29AB21C4BD1
:100AAC001A80FB79012202FA03F31BB2DB431AB260
:100ABC00184B1B881BB213401BB29AB2154B1A80F1
:100ACC00FB79154A002122F81310FB79134A0021F7
:100ADC00D15409E00D4B1B78012B05D10B4B002297
:100AEC001A706FF00C030CE0FB799B000133DB00F8
:100AFC0003F540731846FFF72BFB0346002BE9D197
:100B0C00012318460837BD4680BD00BF7000002089
:100B1C005C0000205E0000206000002074000020BB
:100B2C0080B584B000AF03463960FB711346BB80BF
:100B3C00FB79082B02D94FF0FF33DAE0FB799B00ED
:100B4C000133DB001846FFF703FB034603F00F03EA
:100B5C00012B02D06FF00403CBE0FB799B00013337
:100B6C00DB0003F540731846FFF7F2FA0346132B2C
:100B7C0002D06FF00203BCE03B681B78FB60FB68A3
:100B8C001B023A68013212781344FB60FB681B02AB
:100B9C003A68023212781344FB60FB681B023A6815
:100BAC00033212781344FB60FB68B3F1FF3F02D0B1
:100BBC00FB68002B02D16FF00B039AE0BB88002B73
:100BCC0002D16FF00A0394E0FB799B000133DB0048
:100BDC0003F54063042239681846FFF7B3FBFB7931
:100BEC009B000133DB0003F580531A46BB881B0ABC
:100BFC009BB2DBB219461046FFF7F6FAFB799B0065
:100C0C000133DB0003F588531A46BB88DBB2194667
:100C1C001046FFF7E9FAFB799B000133DB0003F583
:100C2C00807304211846FFF7DFFA09E0334B1B7879
:100C3C00012B05D1314B00221A706FF00C0358E0D8
:100C4C00FB799B000133DB0003F580731846FFF73B
:100C5C007FFA0346002BE9D1294B1B881A46FB79F6
:100C6C0042FA03F303F00103002B35D0002340E0DC
:100C7C00FB799B000133DB0003F500731846FFF78B
:100C8C0067FA034603F00803002B0CD0FB799B009A
:100C9C000133DB0003F5007308211846FFF7A4FAB3
:100CAC006FF00C0325E0FB799B000133DB0003F5AF
:100CBC0040731846FFF74CFA0346002B02D16FF035
:100CCC00030316E00D4B1B78012B05D10B4B0022B7
:100CDC001A706FF00C030CE0FB799B000133DB0006
:100CEC0003F540731846FFF733FA0346172BBFD1B1
:100CFC00012318461037BD4680BD00BF7000002090
:100D0C005C00002080B584B000AF03463960FB71F5
:100D1C001346BB800023FB730023BB81FB79082B9C
:100D2C0002D94FF0FF33DDE0FB799B000133DB0090
:100D3C001846FFF70DFA034603F00F03012B02D000
:100D4C006FF00403CEE0BB88002B02D16FF00D03D3
:100D5C00C8E0FB799B000133DB0003F540731846B8
:100D6C00FFF7F6F90346FB73FB7B172B05D0FB7BD8
:100D7C001C2B02D06FF00603B4E05C4B1B881A46A8
:100D8C00FB7942FA03F303F00103002B39D0FB7912
:100D9C009B000133DB0003F500731846FFF7D8F90D
:100DAC00034603F01F03FB73FB7B03F01003002BC4
:100DBC0019D0FB799B000133DB0003F50073102184
:100DCC001846FFF711FAFB79012202FA03F31BB262
:100DDC00DB431AB2454B1B881BB213401BB29AB2B1
:100DEC00424B1A800DE0FB7B03F00803002B06D06E
:100DFC00FB791846FFF710FE6FF00C0372E000232E
:100E0C0070E0FB799B000133DB0003F5F8531846C7
:100E1C00FFF79EF903469B02BB81BA88BB899A42B5
:100E2C0001D9BB89BB80FB791846FFF7EBFA034667
:100E3C00BB81FB799B000133DB0003F54073184643
:100E4C00FFF786F90346FB73FB7B172B09D0FB7B63
:100E5C001C2B06D0FB791846FFF7DEFD6FF006035E
:100E6C0040E0234B1B881A46FB7942FA03F303F04C
:100E7C000103002B05D0BA88BB899A4201D9002303
:100E8C0030E0BA88BB899A4200D9CCE700BFBA8857
:100E9C00FB7939681846FFF747FBFB799B00013358
:100EAC00DB0003F5807320211846FFF79DF900BF86
:100EBC00FB799B000133DB0003F580731846FFF7C9
:100ECC0047F90346002BF3D1FB79012202FA03F315
:100EDC001AB2064B1B881BB213431BB29AB2034BBC
:100EEC001A80BB8818461037BD4680BD5E000020B6
:100EFC005C00002090B585B000AF03463960FB71F3
:100F0C001346BB800023FB730023BB81FB79082BAA
:100F1C0002D94FF0FF339BE0FB799B000133DB00E0
:100F2C001846FFF715F9034603F00F03012B02D007
:100F3C006FF004038CE0BB88002B02D16FF00D0323
:100F4C0086E0FB799B000133DB0003F5F053184678
:100F5C00FFF7FEF803469B02BB81BA89BB889A4215
:100F6C0001D2BB89BB80FB791846FFF794FA034684
:100F7C00BB81FB799B000133DB0003F54073184602
:100F8C00FFF7E6F80346FB73FB7B172B26D0FB7BA6
:100F9C001C2B1CD1BB89002B33D1FB791846FFF7D6
:100FAC0031FA03461C46FB799B000133DB0003F549
:100FBC00F8531846FFF7CCF803469B029C420DD120
:100FCC00FB791846FFF728FD6FF0060340E0FB792C
:100FDC001846FFF721FD6FF0060339E01E4B1B8806
:100FEC001A46FB7942FA03F303F00103002B04D0F9
:100FFC00BB89002B01D100232AE0BB89002B02D135
:10100C00B1E700BF00E000BFBA89BB889A4201D2A9
:10101C00BB89BB80BA88FB7939681846FFF7DEFAC2
:10102C00FB799B000133DB0003F5807340211846EC
:10103C00FFF7DAF800BFFB799B000133DB0003F507
:10104C0080731846FFF784F80346002BF3D1BB8856
:10105C0018461437BD4690BD5C00002080B400AF2C
:10106C0000BFBD4680BC704780B400AF00BFBD461A
:10107C0080BC704780B400AF00BFBD4680BC7047D9
:10108C0080B400AF00BFBD4680BC704780B483B055
:10109C0000AF78607B681B78DBB218460C37BD4616
:1010AC0080BC704780B483B000AF78600B46FB7097
:1010BC007B68FA781A7000BF0C37BD4680BC70474D
:1010CC0080B400AF00231846BD4680BC704780B486
:1010DC0083B000AF0346FB7100BF0C37BD4680BC2C
:1010EC00704780B483B000AF78600B467B8000BF44
:1010FC000C37BD4680BC704780B483B000AF7860BD
:10110C000B467B8000BF0C37BD4680BC704700008F
:10111C0080B483B000AF786039607B68002B02D05C
:10112C003B68002B06D1094B094A5A61074B094A07
:10113C009A6106E0054A7B685361044A3B689361F7
:10114C0000BF00BF0C37BD4680BC704704000020B8
:10115C00811000088D10000880B483B000AF786057
:10116C00396000BF0F4B1B8803F40073002BF9D0C0
:10117C007B68002B02D03B68002B06D1094B0A4A36
:10118C00DA61084B094A1A6206E0064A7B68D361A9
:10119C00044A3B68136200BF00BF0C37BD4680BCDD
:1011AC00704700BF04000020CD100008DB100008C1
:1011BC0080B483B000AF7860396000BF0F4B1B88E0
:1011CC0003F40073002BF9D07B68002B02D03B6832
:1011DC00002B06D1094B0A4A5A62084B094A9A62FB
:1011EC0006E0064A7B685362044A3B68936200BF80
:1011FC0000BF0C37BD4680BC704700BF0400002008
:10120C00EF1000080511000890B587B000AF034639
:10121C003960FB710023FB750023FB6000233B61ED
:10122C00FB790F2B00F2C58001A252F823F000BF0E
:10123C007D12000883120008AF120008A3120008E8
:10124C00BD120008C9120008D7120008FD120008D0
:10125C001F130008631300086913000871130008BA
:10126C00C51300087913000887130008A31300089E
:10127C0000F0AAF8A1E03B68002B04D03B68FB60AF
:10128C00FB6808333B61FB683A691146184600F06D
:10129C00E7F8034692E03B681B88184600F06CF9AF
:1012AC008BE000F09DF903461A463B681A8084E0F7
:1012BC003B681B88184600F0B8F97EE000F0D0F9C6
:1012CC0003461A463B681A8077E03B681B881B0A6A
:1012DC009BB2DBB219464FF49850FEF785FF3B6882
:1012EC001B88DBB219464FF4A050FEF77DFF64E07B
:1012FC004FF49850FEF72CFF03461B029CB24FF4A0
:10130C00A050FEF725FF034623449AB23B681A808F
:10131C0053E02C4B9A783B681A703B680133294A8E
:10132C00D2781A703B680233264A12791A703B68DD
:10133C000333244A52791A703B680433214A927958
:10134C001A703B6805331F4AD2791A703B68063312
:10135C0000221A7031E000F0D5F92EE0386800F068
:10136C00F8F92AE0386800F037FA26E03B681B7879
:10137C00184600F09BFA034620E000F0AAF9034659
:10138C00FB75FB7DFF2B02D14FF0FF3316E03B6862
:10139C00FA7D1A7011E000F086F90346FB75FB7DAF
:1013AC00FF2B02D14FF0FF3308E03B68FA7D1A7037
:1013BC0003E04FF0FF3301E000BF002318461C3759
:1013CC00BD4690BD0400002080B586B000AF3B1D2B
:1013DC00062219464FF41060FEF754FF07F1140370
:1013EC00042219464FF48070FEF74CFF07F11003EE
:1013FC00042219464FF4A060FEF744FF07F10C03DA
:10140C00042219464FF47060FEF73CFF8021002047
:10141C00FEF7EAFE0020FEF79BFE3B1D0622194656
:10142C004FF41060FEF78EFF07F1140304221946E7
:10143C004FF48070FEF786FF07F110030422194663
:10144C004FF4A060FEF77EFF07F10C03042219464F
:10145C004FF47060FEF776FF00BF1837BD4680BDB5
:10146C0080B584B000AF786039600023BB73FFF7A0
:10147C00ABFF7B68002B3BD00023BB730023FB73BB
:10148C0015E097F90F307A6813441A78BB7B134434
:10149C00DBB2BB7397F90E30102B02DD4FF0FF332C
:1014AC0066E097F90F30DBB20133DBB2FB7397F9CF
:1014BC000F30072BE5DD0023FB7315E097F90F3098
:1014CC009B000133DB0003F5F853184697F90F30F6
:1014DC007A6813441B781946FEF786FE97F90F308D
:1014EC00DBB20133DBB2FB7397F90F30072BE5DD71
:1014FC003B68002B3BD00023BB730023FB7315E030
:10150C0097F90F303A6813441A78BB7B1344DBB25B
:10151C00BB7397F90E30102B02DD4FF0FF3327E031
:10152C0097F90F30DBB20133DBB2FB7397F90F3055
:10153C00072BE5DD0023FB7315E097F90F309B00BB
:10154C000133DB0003F5F053184697F90F303A6876
:10155C0013441B781946FEF747FE97F90F30DBB2A0
:10156C000133DBB2FB7397F90F30072BE5DD00235A
:10157C0018461037BD4680BD80B584B000AF034619
:10158C00FB80FB88FB73FB881B0A9BB2BB73FB7B4A
:10159C0023F00F03DBB219464FF4A850FEF724FEDC
:1015AC000023FB7314E0BA7BFB7B42FA03F303F0DA
:1015BC000103002B09D0FB7B9B000133DB0003F5FF
:1015CC0000731F211846FEF70FFEFB7B0133FB73E4
:1015DC00FB7B072BE7D900BF00BF1037BD4680BD92
:1015EC0080B582B000AF0023FB710023BB710023D8
:1015FC00BB804FF4A850FEF7ABFD034623F00F035E
:10160C00FB714FF4B850FEF7A3FD0346BB71BB79D9
:10161C00BB80BB881B029AB2FB799BB21344BB8084
:10162C00BB8818460837BD4680BD80B584B000AF76
:10163C000346FB80FB88FB73FB881B0A9BB2BB73C6
:10164C00FB7B19464FF4B050FEF7CEFDBB7B194621
:10165C004FF4C050FEF7C8FD00BF1037BD4680BD2B
:10166C0080B582B000AF0023FB710023BB71002357
:10167C00BB804FF4B050FEF76BFD0346FB714FF48B
:10168C00C050FEF765FD0346BB71BB79BB80BB88C0
:10169C001B029AB2FB799BB21344BB80BB881846E1
:1016AC000837BD4680BD80B582B000AF0023FB710A
:1016BC004FF43850FEF74CFD034603F00103002BAA
:1016CC0001D00123FB7197F9073018460837BD4646
:1016DC0080BD80B582B000AF0023FB714FF4385051
:1016EC00FEF736FD034603F03803302B02D10123FD
:1016FC00FB7101E00023FB7197F90730184608379E
:10170C00BD4680BD80B582B000AF4FF43850FEF7B7
:10171C001FFD0346FB71FB7903F07F03FB71FB7923
:10172C0019464FF43850FEF75FFD4FF43850FEF772
:10173C000FFD0346FB71FB7963F07F03FB71FB79B3
:10174C0019464FF43850FEF74FFD00BF0837BD4621
:10175C0080BD80B584B000AF78600023FB737B68DC
:10176C001B78012B04D1FB7B43F04003FB7303E09C
:10177C00FB7B23F04003FB737B685B78012B04D16C
:10178C00FB7B43F03803FB7319E07B68DB78012BA0
:10179C000DD17B689B78012B04D1FB7B43F01803A4
:1017AC00FB730CE0FB7B43F00803FB7307E07B68E7
:1017BC009B78012B03D1FB7B43F01003FB73FB7B6A
:1017CC0019464FF43850FEF70FFDFFF79BFF00BF93
:1017DC001037BD4680BD000080B584B000AF786086
:1017EC000023FB734FF43850FEF7B2FC0346FB7337
:1017FC00FB7B9B11DBB203F00103DAB27B681A703E
:10180C00FB7B03F03803202B01D0382B03D17B68F2
:10181C0001225A7003E07B6800225A7000BFFB7BE8
:10182C0003F03803103B102B8CBF01220022D2B2E4
:10183C00002A0FD11B4A22FA03F303F00103002BF9
:10184C0014BF01230023DBB2002B03D07B680122E1
:10185C009A7003E07B6800229A7000BFFB7B03F058
:10186C003803083B182B8CBF01220022D2B2002A6D
:10187C000FD10D4A22FA03F303F00103002B14BF1E
:10188C0001230023DBB2002B03D07B680122DA702A
:10189C0003E07B680022DA7000BF00BF1037BD4642
:1018AC0080BD00BF010101000100010180B584B0C1
:1018BC0000AF0346FB710023FB734FF43850FEF767
:1018CC0047FC0346FB73FB7B03F04003002B02D168
:1018DC004FF0FF3330E0FB7B23F03803FB73FB79D5
:1018EC00012B04D1FB7B43F03003FB7303E0FB7B48
:1018FC0043F03803FB73FB7B19464FF43850FEF76B
:10190C0073FCFFF7FFFE4FF43850FEF721FC034643
:10191C00FB73FB79012B06D1FB7B03F03003002B0F
:10192C0008D0002308E0FB7B03F03803002B01D028
:10193C00002301E04FF0FF3318461037BD4680BD41
:10194C0080B582B000AF78607B68062219464FF4F0
:10195C001060FEF7F7FC7B680E33042219464FF437
:10196C008070FEF7EFFC7B680A33042219464FF4B3
:10197C00A060FEF7E7FC7B680633042219464FF49F
:10198C007060FEF7DFFC7B689A7C0B4B1A707B68EF
:10199C00DA7C094B5A707B681A7D074B9A707B680E
:1019AC005A7D054BDA707B689A7D044B1A7000BF28
:1019BC000837BD4680BD00BF7C00002080000020A1
:1019CC0080B500AF00224FF48051024805F071FA47
:1019DC0000BF80BD000C014080B500AF01224FF468
:1019EC008051024805F065FA00BF80BD000C014033
:1019FC0080B582B000AF7860786803F0FBFB00BF65
:101A0C000837BD4680BD000080B582B000AF78605D
:101A1C000B467B807A884FF4FA637968034805F0AB
:101A2C007BFF00BF0837BD4680BD00BF30010020E2
:101A3C0080B582B000AF78600B467B807A8841F22B
:101A4C0088337968034806F0ABF800BF0837BD4609
:101A5C0080BD00BF3001002080B582B000AF0523EF
:101A6C00BB710120FFF7C4FFFFF7AAFFB91D4FF4AC
:101A7C007A7301220B4805F04FFFF91D4FF47A736E
:101A8C000122084806F08CF80120FFF7B1FFFB7922
:101A9C0003F00103002BF0D1FFF79EFF00BF0837C6
:101AAC00BD4680BD3001002080B582B000AF6623FA
:101ABC003B7199237B71FFF783FF391D4FF47A73C8
:101ACC000222044805F028FFFFF786FF00BF083705
:101ADC00BD4680BD3001002080B588B000AFF860F5
:101AEC007A603B600B46FB72FB681A02FB7A13446C
:101AFC00FB610B233B75FB691B0CDBB27B75FB6934
:101B0C001B0ADBB2BB75FB69DBB2FB7500233B76B2
:101B1C00FFF756FF07F1140305211846FFF774FF72
:101B2C007B689BB219463868FFF782FFFFF754FFBA
:101B3C0000BF2037BD4680BD80B586B000AFF860D1
:101B4C00B9607A600B233B74FB681B0CDBB27B74B3
:101B5C00FB681B0ADBB2BB74FB68DBB2FB740023B3
:101B6C003B75FFF72DFF07F1100305211846FFF712
:101B7C004BFFBB689BB219467868FFF759FFFFF71C
:101B8C002BFF00BF1837BD4680BD80B582B000AFBB
:101B9C000623FB71FFF714FFFB1D01211846FFF70D
:101BAC0033FFFFF719FF0120FFF722FF00BF0837B3
:101BBC00BD4680BD80B582B000AF0423FB71FFF73A
:101BCC00FFFEFB1D01211846FFF71EFFFFF704FF68
:101BDC000120FFF70DFF00BF0837BD4680BD80B563
:101BEC0082B000AFC723FB71FFF7CFFFFFF7E8FE12
:101BFC00FB1D01211846FFF707FFFFF7EDFEFFF76E
:101C0C002BFF0520FFF7F4FE00BF0837BD4680BD53
:101C1C0080B586B000AF0346FB80FB881B037B615D
:101C2C00FFF71AFFFFF7B1FF20233B737B691B0CF7
:101C3C00DBB27B737B691B0ADBB2BB737B69DBB2E8
:101C4C00FB73FFF7BDFE07F10C0304211846FFF7E9
:101C5C00DBFEFFF7C1FEFFF7FFFEFFF7ABFF00BF98
:101C6C001837BD4680BD80B586B000AF78600323C1
:101C7C003B747B681B0CDBB27B747B681B0ADBB28E
:101C8C00BB747B68DBB2FB74FFF79AFE07F11003A1
:101C9C0004211846FFF7B8FE07F10F03012118467F
:101CAC00FFF7C6FEFFF798FEFB7B18461837BD46BC
:101CBC0080BD80B5C8B000AF07F59073A3F58A73EB
:101CCC00186007F59073A3F58C73196007F5907382
:101CDC00A3F58E731A6007F59073A3F5887302222F
:101CEC001A7007F59073A3F58A731B681B0CDAB294
:101CFC0007F59073A3F588735A7007F59073A3F5E5
:101D0C008A731B681B0ADAB207F59073A3F5887304
:101D1C009A7007F59073A3F58A731B68DAB207F50E
:101D2C009073A3F58873DA70042387F81F3197F842
:101D3C001F319AB207F59073A3F58E731B689BB293
:101D4C001344A7F81A310023A7F81C3118E0B7F890
:101D5C001C3107F59072A2F58C7212681A4497F830
:101D6C001F31591C87F81F111946127807F590730B
:101D7C00A3F588735A54B7F81C310133A7F81C31FA
:101D8C00B7F81C3107F59072A2F58E7212689A4260
:101D9C00DDD807F59073A3F58A731868FFF763FF16
:101DAC000346FF2B2BD1FFF7F0FEB7F81A31FA2BB5
:101DBC0015D9FFF705FE07F1100364211846FFF74C
:101DCC0023FE07F110036433B7F81A21643A92B278
:101DDC0011461846FFF718FEFFF7FEFD0BE0FFF764
:101DEC00EFFDB7F81A2107F1100311461846FFF75B
:101DFC000BFEFFF7F1FDFFF72FFEFFF7DBFE00BF39
:101E0C0007F59077BD4680BD80B582B000AF786095
:101E1C000B467B807B681A683D4B1B689A4265D1E8
:101E2C0003F0DEF903463B4A13603B4B1B78432B14
:101E3C003DD0442B5AD1384B5B781A06364B9B78E5
:101E4C001B041A43344BDB781B021343324A1279BE
:101E5C0013431A46314B1A60314B1B7883F0010344
:101E6C00DBB2002B1BD02F4B1B7883F00103DBB2B2
:101E7C00002B14D02C4B1B7883F00103DBB2002B0E
:101E8C000DD0264B1B681946284802F09BF8284BAE
:101E9C0001221A7003F0A4F90346264A1360224B60
:101EAC001B78002B21D0244B01221A701DE0234BF0
:101EBC001B78002B09D0214B00221A70204B1B7869
:101ECC001946204802F000FA05E01F4B1B78194612
:101EDC001C4802F0F9F9104B1B79002B14BF01239D
:101EEC000023DAB2194B1A7000E000BF32220A4903
:101EFC00074806F0EEFE164B1B681A68144B1B685D
:101F0C0022F004021A6000BF0837BD4680BD00BF36
:101F1C0018020020C8060020D8020020A0050020CE
:101F2C003B0700203A07002043070020309C0008A4
:101F3C0039070020CC0600203F070020470700206F
:101F4C0090050020349C000830000020F40600208E
:101F5C006002002080B582B000AF0346FB80FB8896
:101F6C00402B45D1142003F045F94021224804F0C0
:101F7C0089FF0346002B3BD1204B01221A7003F042
:101F8C002FF903461E4A13601E4B4FF4FA621A6077
:101F9C0027E003F025F90246194B1B68D31A1A4A9D
:101FAC001360194B1B6842F21072934202D9154B05
:101FBC0064221A6003F014F90246144B1B68D21AFF
:101FCC00104B1B689A4209D903F00AF903460F4AD1
:101FDC0013604FF400510E4804F083FF0A2003F005
:101FEC0009F94021044804F04DFF0346002BD0D0E2
:101FFC0000BF0837BD4680BD000C014045070020DE
:10200C00D4060020E0060020DC060020D8060020C4
:10201C000010014080B584B002AF78607B681A680C
:10202C00494B1B689A4269D1484B1A78484B1B782C
:10203C009A4205D2454B1B780133DAB2434B1A70E6
:10204C00444B1B78002B1DD1434B1B78002B19D113
:10205C00424B1B78002B15D1414B1B78002B11D117
:10206C00404B1B78002B0DD13F4B1B7883F00103A9
:10207C00DBB2002B06D104213C4804F003FF0346DD
:10208C00002B21D13A4B01221A70394B00225A7085
:10209C00374B00229A70364B0022DA70344B0022F8
:1020AC001A71334B00225A71314B00229A71304B0A
:1020BC000022DA7101224FF400412E4804F0F9FE9F
:1020CC002D4B02221A7013E0214B1B781F4A0192F0
:1020DC0000932A4B264A2A492A4802F034FB002254
:1020EC004FF40041234804F0E4FE234B03221A7002
:1020FC00254B1F4A2549264803F0C6FA7B681A6807
:10210C00244B1B689A421AD1234804F05FFF03F05A
:10211C0067F80246214B1B68D31AB3F5967F02D998
:10212C001F4B01221A701F4B1B7883F00103DBB28B
:10213C00002B04D04FF400510E4804F0D2FE00BF27
:10214C000837BD4680BD00BF8801002086050020F1
:10215C00180500203B0700203A0700204607002006
:10216C00F5060020F4060020310000200008014094
:10217C004C05002000100140300000201C05002000
:10218C00A8050020F8060020A4050020C0020020AD
:10219C00A4000020D0010020CC000020D00600209C
:1021AC00700000204507002080B582B000AF786039
:1021BC00124B134A0021786803F0ADFB0346002B49
:1021CC0001D002F04BFD0E4B1B68B3F5E86F10D13C
:1021DC000A4B9B78482B0CD1084B1B7903F040031E
:1021EC00002B03D0074B01221A7002E0054B002292
:1021FC001A7000BF0837BD4680BD00BF880500209F
:10220C00A402002046070020F0B5B5B006AF02F0DE
:10221C008FFF01F00DFC964B5B68954A43F480737D
:10222C00536001F0EDFD01F0CDFD01F049FC01F032
:10223C0097FC01F0CBFC01F09BFD01F04BFD01F094
:10224C0075FC01F0F9FC8B4806F0C6F832228A497D
:10225C008A4806F03EFD8A4B1B681A68884B1B683F
:10226C0022F004021A60874B08221A61854B44F253
:10227C00FF725A60834B04229A60824B0022DA6010
:10228C00804B00221A607F4B00221A757E4B002275
:10229C001A607D4B01225A607B4B7C4A9A607A4BC8
:1022AC000122DA607A4B00221A60794B01225A60C3
:1022BC00774B784A9A60764B0122DA60734B1B6835
:1022CC00DAB2754B1A70754B1B68DAB2744B1A7014
:1022DC00744B1B68DAB2744B1A70744B1B68DAB20D
:1022EC00734B1A70734B1B689AB2734B1A80734BF7
:1022FC001B68DAB2724B1A70724B1B68DAB2724BF3
:10230C001A70724B1B68DAB2714B1A70714B1B68E6
:10231C00DAB2714B1A70714B1B689AB2704B1A80FF
:10232C00704B1B68DAB2704B1A70704B1B68DAB2C8
:10233C006F4B1A706F4B1B686F4A13606F4B1B68A7
:10234C006F4A1360534B1B68DAB26E4B1A706E4BAC
:10235C001B68DAB26D4B1A706D4B1B689AB26D4BE1
:10236C001A806D4B1B68DAB26C4B1A706C4B1B6885
:10237C00DAB26C4B1A70484B1B78FF2B02D1464BD0
:10238C00C0221A70464B1B78FF2B02D1444BA8225B
:10239C001A70454B1B78FF2B02D1434B00221A704D
:1023AC00434B1B78FF2B02D1414B48221A70424BF6
:1023BC001B884FF6FF72934202D13F4B00221A80CA
:1023CC003F4B1B78FF2B02D13D4BC0221A703E4B6A
:1023DC001B78FF2B02D13C4BA8221A703C4B1B786C
:1023EC00FF2B02D13A4B00221A703B4B1B78FF2B70
:1023FC0002D1394B02221A70394B1B884FF6FF72EF
:10240C00934203D1364B41F270721A80364B1B78D3
:10241C00FF2B02D1344B01221A70354B1B78FF2B4A
:10242C0002D1334B00221A70334B1B68DAB23E4B8D
:10243C001A70314B1B681B0ADAB23B4B5A702E4B8D
:10244C001B681B0CDAB2384B9A702B4B1B681B0E9B
:10245C00DAB2354BDA702A4B1B68DAB2324B1A718E
:10246C00274B1B681B0ADAB22F4B5A715EE000BF78
:10247C00002004E0D0010020D80200201802002027
:10248C0060020020C00200208400002000FC000834
:10249C009400002000F800082405002004FC00082B
:1024AC002505002008FC0008260500200CFC00086F
:1024BC002705002010FC00089805002014FC0008DB
:1024CC002805002018FC0008290500201CFC000829
:1024DC002A05002020FC00082B05002024FC000805
:1024EC009605002028FC0008180500202CFC00088C
:1024FC004A05002030FC0008BC06002034FC000813
:10250C00C00600209105002004F800089205002068
:10251C0008F800089A0500200CF800089305002024
:10252C0010F80008940500201C050020A84B1B681F
:10253C001B0CDAB2A74B9A71A54B1B681B0EDAB2B7
:10254C00A44BDA71A44B1A78A44B1A70A44B1A78CA
:10255C00A24B5A70A34B1A78A04B9A70A24B1A78C4
:10256C009E4BDA70FFF7A0FA12E0A04B1B685B01E0
:10257C009F4A20211846FFF7DFFA9D4B1B685A1E15
:10258C009A4B1B689A4203D1994B1B68974A13606C
:10259C00974B1B68B3F1FF3FE7D114E0954B1B68D9
:1025AC0003F580335B01944A20211846FFF7C4FAE7
:1025BC00914B1B685A1E8F4B1B689A4203D18E4B52
:1025CC001B688C4A13608C4B1B68B3F1FF3FE5D141
:1025DC00884B1B68002B1AD00023C7F8B4300DE0D1
:1025EC00D7F8B4309BB203F500739BB21846FFF7D3
:1025FC000FFBD7F8B4300133C7F8B4307D4B1B68F0
:10260C005B011B0B0233D7F8B4209A42E8D30023AA
:10261C0087F864301C2387F86530162387F86630FA
:10262C0002F00CFE0346DAB2744B1B785340DBB25B
:10263C0087F8673002F00CFE0346DAB26F4B1B785A
:10264C005340DBB287F8683002F00CFE0346DAB276
:10265C006A4B1B785340DBB287F86930684B1B78A8
:10266C0087F86A30674B1B7887F86B30664B1B78A2
:10267C0087F86C30614B1B7887F86D30634A07F133
:10268C006E0310681860624A07F1720310681860D4
:10269C00604A07F1760310681860012387F87A30D6
:1026AC00FEF75AF84FF4FA6002F0A4FD07F1640348
:1026BC001846FFF745F9584B1B78184602F0B6F947
:1026CC00564805F089FE0020FDF7E5FE03461A4644
:1026DC00534B1A600020FDF7DEFE03461A46504BA2
:1026EC001B689A4241F066814D4B1B68B3F5007F25
:1026FC0003D901F009FF03F08EFD494B1B68002B39
:10270C0000F06581464B1B689BB21A464549002078
:10271C00FEF7F0FB434B1B78443B132B00F2578125
:10272C0001A252F823F000BF79280008DB29000829
:10273C00DB290008DB29000885270008DB290008B5
:10274C00DB290008DB290008DB290008DB2900084D
:10275C00DB290008DB290008DB290008DB2900083D
:10276C00E1280008AD280008DB290008DB29000857
:10277C00DB2900082529000802F032FD03462A4A0D
:10278C001360284BDB781BB21B021AB2254B1B794A
:10279C001BB213431BB29AB2244B1A80214B9A786A
:1027AC00234B1A701F4B5A79224B1A701D4B9A7976
:1027BC00214B1A701B4B5A78204B1B789A423FD9ED
:1027CC00184B5A781D4B1A7001F09EFE3CE000BF6E
:1027DC00C00600201C050020280500201405002040
:1027EC00290500202A0500202B050020A806002022
:1027FC0048070020B80600206807002027050020A5
:10280C00240500202505002026050020649C0008D6
:10281C00689C00086C9C00084A0500208801002078
:10282C00B40600200C030020AC0600209A05002002
:10283C0092050020930500209405002091050020AE
:10284C008E4B5A788E4B1A708E4B18888B4B99780E
:10285C008A4B5A78894B5C79884B9B790093234639
:10286C0002F078F90346884A1360B0E0874B0122E6
:10287C001A70002387F8B3300DE097F8B3305A1C68
:10288C0097F8B3307D49895C814AD15497F8B330BD
:10289C00013387F8B33097F8B330082BEDD996E0B5
:1028AC007C4B01221A70002387F8B2300DE097F8A8
:1028BC00B2305A1C97F8B2307049895C764AD154C0
:1028CC0097F8B230013387F8B23097F8B230162B44
:1028DC00EDD97CE0694B5B78022B08D16F4B012260
:1028EC001A7002F07DFC03466D4A13606FE0634B77
:1028FC005B78032B08D16B4B01221A7002F070FC31
:10290C000346674A136062E0674B01221A705B4B07
:10291C005A78664B1A705AE0584B5B78413B192B2E
:10292C0054D801A252F823F0B5290008D92900087F
:10293C00D9290008D9290008A3290008D929000899
:10294C00D9290008C7290008D9290008D929000865
:10295C00D9290008D9290008D9290008D929000843
:10296C00D9290008D9290008D9290008D929000833
:10297C00D9290008D9290008D9290008D929000823
:10298C00D9290008D9290008D92900089D2900084F
:10299C00FFF725F91AE0464B01221A7002F020FCD1
:1029AC0003463F4A136011E0424B01221A7002F0B9
:1029BC0017FC03463A4A136008E03F4B01221A7099
:1029CC0002F00EFC0346364A136000BF00BF3B48C2
:1029DC0002F06DFF0346002B0CD1394B1B681946D6
:1029EC00364802F020FF0346002B03D001F08CFD8B
:1029FC0003F011FC334B1B78172B10D102F0F0FBBA
:102A0C000246314B1B68D31A002BB8BF5B4243F60E
:102A1C009722934203DC2D4B01221A7002E02B4BC0
:102A2C0000221A7002F0DCFB0246294B1B68D31AF9
:102A3C00002BB8BF5B4243F69822934203DD254B33
:102A4C0000221A7002E0234B01221A700F4B1B78E4
:102A5C00002B56D00D4B00221A700D4B1B78002BFF
:102A6C0002D0012B3ED04CE01B4B00221A701B4BAA
:102A7C0001221A701A4B00221A7042E00C0300203B
:102A8C00910500209A050020E80600204007002050
:102A9C0060050020410700206C0500203D07002048
:102AAC00B00600203E0700204407002085050020CA
:102ABC003B0700203A07002043070020A400002019
:102ACC00A40500205C050020AC060020380700207F
:102ADC00C806002031000020900500204707002088
:102AEC0039070020924A9349934801F0C1FD934B5A
:102AFC0001221A70924B01221A70924B00221A700A
:102B0C0000BF904B1B78002B74D08F4B1B7883F03D
:102B1C000103DBB2002B08D102F062FB02468B4BA7
:102B2C001B68D31AB3F5FA7F64D9864B00221A704E
:102B3C00874B1968874B1A68874C3B46184601F03F
:102B4C0049FD25463C460FCC0FC594E80F0085E89F
:102B5C000F00814B1B68002B46D07F4B1A687C4BB7
:102B6C001B689A4240D87C4B188A7B4B997C7A4BD9
:102B7C00DA7C794B1C7D784B5B7D0093234601F00E
:102B8C00E9FF0346754A1360734BD88A724B197E62
:102B9C00714B5A7E704B9C7E6F4BDB7E00932346B1
:102BAC0001F0D8FF03466E4A13606C4B1A686D4BEC
:102BBC001B689A4211D86B4B1A68694B1B689A4276
:102BCC000BD85B4A5B49684801F052FD5B4B012214
:102BDC001A705B4B01221A700CE0584B00221A70D1
:102BEC00574B01221A7005E0544B00221A70544BBB
:102BFC0001221A705D4B1B78002B00F085805B4B1B
:102C0C0000221A705A4B1B78002B02D0012B71D06A
:102C1C007AE0574B5A78574B1A70554B9A78564B5B
:102C2C001A70534BDA78554B1A70514B1A79544B26
:102C3C001A704F4B5B791BB21B021AB24C4B9B792F
:102C4C001BB213431BB29AB24E4B1A80484BDA7923
:102C5C004D4B1A70464B1A7A4C4B1A70444B5A7A9D
:102C6C004B4B1A70424B9A7A4A4B1A70404BDB7A98
:102C7C001BB21B021AB23E4B1B7B1BB213431BB283
:102C8C009AB2454B1A803A4B5A7B444B1A70384BCC
:102C9C009A7B434B1A70364BDB7B1A46344B1B7CAE
:102CAC001B021A43324B5B7C1B041A43304B9B7C3C
:102CBC001B0613431A463B4B1A602D4BDB7C1A4602
:102CCC002B4B1B7D1B021A43294B5B7D1B041A43A8
:102CDC00274B9B7D1B0613431A46334B1A6001F09E
:102CEC001FFB01F011FC3149314801F0ABF903F045
:102CFC0092FA09E01E4B5B78002B14BF01230023D2
:102D0C00DAB22C4B1A7000BF2B4B1B78002B00F047
:102D1C00D380294B00221A70284B1B78002B02D031
:102D2C00012B4DD0C8E001F0EFFB03F074FAC3E0C7
:102D3C00A8050020F8060020610500209005002061
:102D4C00470700203907002038070020CC06002058
:102D5C00A8060020A005002088070020EC06002013
:102D6C00F0060020E8060020900700204107002014
:102D7C006C050020240500202505002026050020D8
:102D8C002705002098050020280500202905002093
:102D9C002A0500202B050020960500201805002090
:102DAC004A050020BC060020C0060020389C000804
:102DBC003C9C0008F50600204407002085050020F7
:102DCC009A4B1A789A4B1A709A4B1A78984B5A70ED
:102DDC00994B1A78964B9A70984B1A78944BDA70E8
:102DEC00974B1B881B0A9BB2DAB2914B1A71944B0E
:102DFC001B88DAB28E4B5A71924B1A788C4B9A71A3
:102E0C00914B1A788A4BDA71904B1A78884B1A725C
:102E1C008F4B1A78864B5A728E4B1B881B0A9BB2AF
:102E2C00DAB2834B9A728B4B1B88DAB2804BDA7214
:102E3C00894B1A787E4B1A73884B1A787C4B5A73D1
:102E4C00874B1B681B0EDAB2794B9A73844B1B6849
:102E5C001B0CDAB2764BDA73814B1B681B0ADAB2A5
:102E6C00734B1A747E4B1B68DAB2714B5A747D4BE0
:102E7C001A786F4B9A747B4B5A786D4BDA74794B8A
:102E8C009A786B4B1A75774BDA78694B5A75754B88
:102E9C001A79674B9A75734B5A79654BDA75714B86
:102EAC009A79634B1A766F4BDA79614B5A76604993
:102EBC006D4801F01DF900BF6C4B1B7883F00103CA
:102ECC00DBB2002B00F0AD8002F08AF90246684BB1
:102EDC001B68D31A002BB8BF5B4241F28832934275
:102EEC0040F39F80002001F00FFD03461A46614B12
:102EFC001A70604B1B78172B40F093805E4B482266
:102F0C001A705E4B1B78002B03D05B4B46225A7019
:102F1C0033E05B4B1B78002B03D0574B50225A707D
:102F2C002BE0584B1B78002B03D0534B45225A7087
:102F3C0023E0554B1B7883F00103DBB2002B03D04D
:102F4C004D4B44225A7018E00421504803F09AFF6C
:102F5C000346002B03D1484B43225A700DE04C4BD7
:102F6C001B7883F00103DBB2002B03D0424B4F22C2
:102F7C005A7002E0404B52225A70464B1A783E4B24
:102F8C009A70454B1A783C4BDA70444B1B881B0AE1
:102F9C009BB2DAB2384B1A71404B1B88DAB2364B03
:102FAC005A713F4B1A78344B9A713E4B1A78324B0C
:102FBC00DA71082230490020FDF7A4FE31E04FF40D
:102FCC00FA7002F017F90023C7F8AC301CE0D7F800
:102FDC00AC305B01344A20211846FEF7ADFD324E71
:102FEC006D4606F10C040FCC0FC523682B6096E8D8
:102FFC000E002E4801F0AEF8642002F0FBF8D7F872
:10300C00AC300133C7F8AC30154B1B68D7F8AC208B
:10301C009A42DCD30121254800F0FAFF244B002210
:10302C001A70234B1B78002BC9D195E12405002085
:10303C002C05002025050020260500202705002052
:10304C009805002028050020290500202A050020CD
:10305C002B05002096050020180500204A050020AD
:10306C00A80600201C050020409C000842070020F8
:10307C00C40600205C0500205405002046070020F3
:10308C00F5060020F4060020310000200008014065
:10309C003807002091050020920500209A05002099
:1030AC009305002094050020C8070020449C0008CC
:1030BC003D0700204FF47A7002F09CF80023C7F80B
:1030CC00A830A849A84800F0BDFF02F089F80346D3
:1030DC00A64A1360A64B01221A700020FDF7DBF9FB
:1030EC0003461A46A34B1A600020FDF7D4F9034699
:1030FC001A46A04B1B689A4240F02C819D4B1B68D2
:10310C00B3F5FA7F03D901F0FFF903F084F89A4B79
:10311C001B7883F00103DBB2002B00F00481954B8C
:10312C001B68002B00F0FF80924B1B689BB21A4669
:10313C0092490020FDF7DEFE904B1B78572B40F098
:10314C00F2808E4B5B78442B40F08980D7F8A83006
:10315C000133C7F8A8308A4AD7F8A8301360874BD8
:10316C009B781A06854BDB781B041A43834B1B791F
:10317C001B021343814A527913431A46804B5A60FF
:10318C007E4B9A797E4B1A727C4BDA797C4B5A7255
:10319C007A4B1A7A7A4B9A72784B5A7A784BDA7253
:1031AC00764B9A7A764B1A73744BDA7A744B5A7351
:1031BC00724B1A7B724B9A73704B5A7B704BDA734F
:1031CC006E4B9A7B6E4BDA746C4BDA7B6C4B9A744D
:1031DC006A4B1B7C1BB21B021AB2684B5B7C1BB28A
:1031EC0013431BB29AB2664B1A82644B9A7C644BA3
:1031FC001A75624BDA7C624B5A75604B1A7D604BC8
:10320C005A765E4B5A7D5E4B1A765C4B9B7D1BB29D
:10321C001B021AB2594BDB7D1BB213431BB29AB281
:10322C00574BDA82554B1A7E554B9A76534B5A7E36
:10323C00534BDA76D7F8A83003F57F43FF335B01A5
:10324C0020224F491846FEF734FD4E49464800F0FF
:10325C00F9FE01F0C5FF0346444A136063E0474B97
:10326C005B78432B5FD1484B01221A705BE0002343
:10327C0087F8A7300AE097F8A7309BB21846FEF7FC
:10328C00C7FC97F8A730013387F8A73097F8A72029
:10329C003E4B1B685B011B0B01339A42EBD30023A3
:1032AC00C7F8A03016E0D7F8A03003F580335B01E7
:1032BC00374A20211846FEF73FFCD7F8A0305B01B7
:1032CC00202233491846FEF7F4FCD7F8A03001331E
:1032DC00C7F8A030D7F8A020D7F8A8309A42E2D38C
:1032EC000023C7F89C300DE0D7F89C309BB203F557
:1032FC0000739BB21846FEF78BFCD7F89C30013359
:10330C00C7F89C30D7F8A8305B011B0B0133D7F8FA
:10331C009C209A42E8D31F49134800F093FE01F019
:10332C00F3F802F078FF184B1B78002B9FD101F0BB
:10333C0057FF02460D4B1B68D31A002BB8BF5B42DC
:10334C0042F2107293427FF7C8AE01F0DDF802F042
:10335C0062FFC2E600BFC0E60F4B1B78002B7FF468
:10336C00A9AE77E2489C00084C9C0008B0060020EF
:10337C00F5060020B4060020420700200C030020B4
:10338C00A8070020509C00083C070020A80600203D
:10339C00C8070020549C00083B0700204FF47A70AB
:1033AC0001F028FF0023C7F89830A749A74800F080
:1033BC0049FE01F015FF0346A54A1360A54B0122F7
:1033CC001A700020FDF767F803461A46A24B1A60E4
:1033DC000020FDF760F803461A469F4B1B689A4283
:1033EC0040F036829C4B1B68B3F5007F03D901F08B
:1033FC008BF802F010FF994B1B7883F00103DBB2C2
:10340C00002B00F00D82944B1B68002B00F00882FF
:10341C00914B1B689BB21A4691490020FDF76AFD3F
:10342C008F4B1B78572B40F0FB818D4B5B78442BDB
:10343C0040F08B80D7F898300133C7F89830894B1F
:10344C001B680133874A1360854B9B781A06844BA3
:10345C00DB781B041A43824B1B791B021343804AF3
:10346C00527913431A467F4B5A607D4B9A797D4BA8
:10347C001A727B4BDA797B4B5A72794B1A7A794BED
:10348C009A72774B5A7A774BDA72754B9A7A754BEC
:10349C001A73734BDA7A734B5A73714B1A7B714BE9
:1034AC009A736F4B5A7B6F4BDA736D4B9A7B6D4BE8
:1034BC00DA746B4BDA7B6B4B9A74694B1B7C1BB2CB
:1034CC001B021AB2664B5B7C1BB213431BB29AB243
:1034DC00644B1A82624B9A7C624B1A75604BDA7C95
:1034EC00604B5A755E4B1A7D5E4B5A765C4B5A7D1F
:1034FC005C4B1A765A4B9B7D1BB21B021AB2584B73
:10350C00DB7D1BB213431BB29AB2564BDA82544B7F
:10351C001A7E544B9A76524B5A7E524BDA76D7F827
:10352C00983003F5FB3303F2FF135B0120224D4966
:10353C001846FEF7BEFB4C49444800F083FD01F0F1
:10354C004FFE0346424A13606AE1454B5B78432BBE
:10355C0040F06681454B01221A7061E10023C7F8E7
:10356C00943016E0D7F894305B01414A202118467C
:10357C00FEF7E2FAD7F8943003F580335B01202292
:10358C003B491846FEF795FBD7F894300133C7F842
:10359C009430384B1B68D7F894209A42E2D300231E
:1035AC0087F893300AE097F893309BB21846FEF7F1
:1035BC002FFB97F89330013387F8933097F89320CB
:1035CC002C4B1B685B011B0B01339A42EBD3002382
:1035DC00C7F88C300023C7F888300023C7F8843034
:1035EC0086E0D7F88C3003F580335B0107F12402B9
:1035FC0020211846FEF7A0FAD7F8883003F5FC33E3
:10360C005B0107F1440220211846FEF795FABA6ACD
:10361C00BB6C9A4230D2D7F8843001337B62D7F836
:10362C0084305B0107F1240120221846FEF741FB90
:10363C00D7F88C300133C7F88C30D7F8843001338D
:10364C00C7F8843054E000BF589C00084C9C00081C
:10365C00B0060020F5060020B4060020420700202A
:10366C000C030020A8070020509C00083C070020F9
:10367C00C8070020A8060020BA6ABB6C9A4217D96A
:10368C00D7F8843001337B64D7F884305B0107F1C1
:10369C00440120221846FEF70CFBD7F88830013382
:1036AC00C7F88830D7F884300133C7F884301FE06E
:1036BC00BA6ABB6C9A421BD1D7F8843001337B6455
:1036CC00D7F884305B0107F1440120221846FEF73D
:1036DC00F0FAD7F888300133C7F88830D7F88C3037
:1036EC000133C7F88C30D7F884300133C7F88430F5
:1036FC00B24B1B68D7F88C209A4229D2D7F8882075
:10370C00D7F898309A42FFF46CAF21E0D7F88C30A0
:10371C0003F580335B0107F1240220211846FEF7E4
:10372C000BFAD7F8843001337B62D7F884305B0115
:10373C0007F1240120221846FEF7BBFAD7F88C308B
:10374C000133C7F88C30D7F884300133C7F8843094
:10375C009A4B1B68D7F88C209A42D7D321E0D7F824
:10376C00883003F5FC335B0107F144022021184635
:10377C00FEF7E2F9D7F8843001337B64D7F8843054
:10378C005B0107F1440120221846FEF792FAD7F8A4
:10379C0088300133C7F88830D7F884300133C7F844
:1037AC008430D7F88820D7F898309A42D7D30023A2
:1037BC00C7F880300DE0D7F880309BB203F500736A
:1037CC009BB21846FEF724FAD7F880300133C7F8BD
:1037DC0080307A4B1B685B011B0B0133D7F88020C0
:1037EC009A42E8D30023FB670AE0FB6F9BB203F518
:1037FC007C739BB21846FEF70BFAFB6F0133FB6729
:10380C00D7F898305B011B0B0133FA6F9A42ECD35B
:10381C006B496C4800F016FC00F076FE02F0FBFCE5
:10382C00694B1B78002B7FF499AE01F0D9FC024652
:10383C00664B1B68D31A002BB8BF5B4242F2107266
:10384C0093427FF7BEAD00F05FFE02F0E4FCB8E5FA
:10385C0000BFB6E55E4B1B78002B7FF49FAD60E09C
:10386C005C49584800F0EEFB01F0BAFC0346574A9D
:10387C001360594B01221A700020FCF70CFE034612
:10388C001A46564B1A600020FCF705FE03461A46F2
:10389C00524B1B689A4220D1504B1B68B3F5007FEA
:1038AC0003D900F031FE02F0B6FC4C4B1B68002B28
:1038BC0013D04A4B1B689BB21A4649490020FDF7AE
:1038CC0019FB474B1B78572B07D1454B5B78432B88
:1038DC0003D100F019FE02F09EFC424B1B78002B2A
:1038EC000DD0404B00221A703F4B1B6819463F48C5
:1038FC0000F068FB01F074FC0346344A136001F0DD
:10390C006FFC0246314B1B68D31A002BB8BF5B42CD
:10391C0042F210729342AFDD00F0F6FD02F07BFC38
:10392C00AAE7334B1B78002B9AD1324B1B78002B18
:10393C0032D0314B1B6842F2107293422AD92F4B72
:10394C00C0221A702E4BA8221A702E4B00221A700D
:10395C002D4B48221A702D4BC0221A702C4BA822CA
:10396C001A702C4B00221A702B4B02221A702B4B04
:10397C0041F270721A802A4B00221A80294B0122C4
:10398C001A70294B00221A70FEF729F900F0C8FCB6
:10399C0000F0BAFD02F03FFC244B1B68B3F52F7FFF
:1039AC0003D100F0B1FD02F036FC0A2001F022FC3C
:1039BC00FEF789BE00BFFEF786BE00BFA80600203A
:1039CC00549C00084C9C00083C070020B0060020CA
:1039DC003A0700205C9C0008F5060020B406002085
:1039EC000C0300203F070020A0050020609C00086D
:1039FC004307002045070020DC060020240500209A
:103A0C00250500202605002027050020280500207C
:103A1C00290500202A0500202B05002096050020F2
:103A2C0098050020180500204A050020E406002017
:103A3C0080B590B000AF07F118032822002118467A
:103A4C0006F098F83B1D00221A605A609A60DA6002
:103A5C001A610923BB614FF48033FB614FF40033CF
:103A6C003B620123BB6201233B6302237B634FF464
:103A7C008033BB634FF4E013FB6307F11803184664
:103A8C0003F0B4FA0346002B01D001F0E7F80F2342
:103A9C007B600223BB600023FB604FF480633B61BF
:103AAC0000237B613B1D0221184603F021FD0346D8
:103ABC00002B01D001F0D2F800BF4037BD4680BDCD
:103ACC0080B500AF174B184A1A60164B3C225A604F
:103ADC00144B00229A60134B0022DA60114B4FF406
:103AEC0070221A610F4B4FF4C0025A610D4B002229
:103AFC001A760C4B01225A760A4B00229A76094B05
:103B0C000022DA76074B00221A77064B00225A77EE
:103B1C00044801F0B1FB0346002B01D001F09EF8E4
:103B2C0000BF80BDA40000200064004080B500AF41
:103B3C00094B0A4A1A60084B04225A60064B40F2A1
:103B4C0052729A60044803F0FDF90346002B01D031
:103B5C0001F084F800BF80BDCC0000200030004094
:103B6C0080B500AF174B184A1A60164B4FF482728F
:103B7C005A60144B00229A60124B0022DA60114BEF
:103B8C0000221A610F4B00225A610E4B4FF4007247
:103B9C009A610C4B2022DA610A4B00221A62094B03
:103BAC0000225A62074B00229A62064B0A22DA6202
:103BBC00044803F02DFE0346002B01D001F04EF813
:103BCC0000BF80BDD80000200030014080B500AFA0
:103BDC00174B184A1A60164B4FF482725A60144BEA
:103BEC0000229A60124B0022DA60114B00221A61FB
:103BFC000F4B00225A610E4B4FF400729A610C4B22
:103C0C000022DA610A4B00221A62094B00225A6226
:103C1C00074B00229A62064B0A22DA62044803F030
:103C2C00F7FD0346002B01D001F018F800BF80BD52
:103C3C00300100200038004080B586B000AF07F19D
:103C4C00080300221A605A609A60DA603B46002230
:103C5C001A605A601E4B4FF080421A601C4B48F69B
:103C6C00A0425A601A4B00229A60194B40F2E7327C
:103C7C00DA60174B00221A61154B00229A61144826
:103C8C0004F05BFB0346002B01D000F0E7FF4FF480
:103C9C008053BB6007F1080319460D4804F0DEFCA5
:103CAC000346002B01D000F0D9FF00233B6000231A
:103CBC007B603B461946064804F0C0FE0346002BC9
:103CCC0001D000F0CBFF00BF1837BD4680BD00BF50
:103CDC008801002080B586B000AF07F108030022F0
:103CEC001A605A609A60DA603B4600221A605A6089
:103CFC001D4B1E4A1A601C4B48F6A0425A601A4BC8
:103D0C0000229A60184B40F2E732DA60164B002220
:103D1C001A61154B00229A61134804F00EFB0346FE
:103D2C00002B01D000F09AFF4FF48053BB6007F1D9
:103D3C00080319460C4804F091FC0346002B01D0F3
:103D4C0000F08CFF00233B6000237B603B46194650
:103D5C00054804F073FE0346002B01D000F07EFFF3
:103D6C0000BF1837BD4680BDD001002000040040C4
:103D7C0080B500AF114B124A1A60104B4FF416521B
:103D8C005A600E4B00229A600C4B0022DA600B4BEF
:103D9C0000221A61094B0C225A61084B00229A61CD
:103DAC00064B0022DA61054804F0B8FE0346002BEE
:103DBC0001D000F053FF00BF80BD00BF18020020EF
:103DCC000038014080B582B000AF0C4B5B690B4AE8
:103DDC0043F001035361094B5B6903F001037B6002
:103DEC007B68002200210F2002F0EBF90F2002F07B
:103DFC0004FA00BF0837BD4680BD00BF001002406A
:103E0C0080B588B000AF07F1100300221A605A6029
:103E1C009A60DA60664B9B69654A43F010039361C4
:103E2C00634B9B6903F01003FB60FB68604B9B6961
:103E3C005F4A43F0200393615D4B9B6903F02003C1
:103E4C00BB60BB685A4B9B69594A43F004039361AE
:103E5C00574B9B6903F004037B607B68544B9B6955
:103E6C00534A43F008039361514B9B6903F00803D9
:103E7C003B603B6800224FF460414E4803F019F858
:103E8C00012210214C4803F014F8002232214B4837
:103E9C0003F00FF801224FF48051484803F009F861
:103EAC0000224FF48071444803F003F84FF4604350
:103EBC003B6101237B610023BB610223FB6107F1A2
:103ECC00100319463B4802F059FE04233B610023C2
:103EDC007B610123BB6107F110031946364802F0E0
:103EEC004DFE10233B6101237B610023BB61032347
:103EFC00FB6107F1100319462F4802F03FFE012326
:103F0C003B612F4B7B610023BB6107F1100319460A
:103F1C002A4802F033FE32233B6101237B610023EC
:103F2C00BB610223FB6107F110031946234802F021
:103F3C0025FE4FF480533B6101237B610023BB6161
:103F4C000323FB6107F1100319461C4802F016FE0F
:103F5C004FF480733B6101237B610023BB6102231F
:103F6C00FB6107F110031946134802F007FE4023CA
:103F7C003B61134B7B610123BB6107F110031946B5
:103F8C000E4802F0FBFD00220121062002F019F977
:103F9C00062002F032F900220721172002F011F955
:103FAC00172002F02AF900BF2037BD4680BD00BFA4
:103FBC00001002400010014000080140000C0140BC
:103FCC000000211080B584B000AF786039607B6848
:103FDC001B783B723B681B0EDBB27B723B681B0C85
:103FEC00DBB2BB723B681B0ADBB2FB723B68DBB219
:103FFC003B730D237B730A23BB7307F10803072262
:10400C0019460020FCF77EFE00BF1037BD4680BD70
:10401C0080B584B000AF78600B46FB707B681B7872
:10402C003B73FB787B730D23BB730A23FB7307F184
:10403C000C03042219460020FCF764FE00BF103765
:10404C00BD4680BD2DE9F04385B000AF7860396086
:10405C006B461E463868FCF773F80346D91C0B46B2
:10406C00013BFB600023884699464FF000024FF05D
:10407C0000034FEAC90343EA58734FEAC80200230E
:10408C000C461D464FF000024FF00003EB0043EAD4
:10409C005473E200CB1DDB08DB00ADEB030D6B466C
:1040AC000033BB607968B86805F0A0FD3968B86862
:1040BC0005F068FDB868FCF743F803461A46BB6880
:1040CC0013440A4A1188927819809A70B868FCF7E0
:1040DC0037F803469BB21A46B9680020FCF712FE6B
:1040EC00B54600BF1437BD46BDE8F083709C000890
:1040FC0080B58AB000AF786039607B681B783B7202
:10410C00002387F8273010E097F827303A681A44D4
:10411C0097F827300133127828333B4403F8202CCE
:10412C0097F82730013387F8273097F82730192B69
:10413C00EAD90D2387F823300A2387F8243007F1B6
:10414C0008031D2219460020FCF7DCFD00BF2837B0
:10415C00BD4680BD84B02DE9F04387B000AF7860D8
:10416C0007F13C0080E80E006B461E462023FB75D1
:10417C00F97D0B46013B3B61CBB200229846914640
:10418C004FF000024FF000034FEAC90343EA5873A3
:10419C004FEAC802CBB200221C4615464FF0000273
:1041AC004FF00003EB0043EA5473E2000B46073375
:1041BC00DB08DB00ADEB030D6B460033FB607B686B
:1041CC001A78FB681A70FB6802225A703B6C1B0E43
:1041DC00DAB2FB689A703B6C1B0CDAB2FB68DA70D3
:1041EC003B6C1B0ADAB2FB681A713B6CDAB2FB68E7
:1041FC005A7197F84420FB689A7197F84520FB6830
:10420C00DA7197F84620FB681A7297F84720FB681A
:10421C005A7297F84820FB689A7297F84920FB6805
:10422C00DA7297F84A20FB681A7397F84B20FB68F0
:10423C005A7397F84F20FB689A7397F84E20FB68D7
:10424C00DA73B7F84C301B0A9BB2DAB2FB681A74FB
:10425C00B7F84C30DAB2FB685A7497F85020FB6808
:10426C009A7497F85120FB68DA7497F85520FB681C
:10427C001A7597F85420FB685A75B7F852301B0A18
:10428C009BB2DAB2FB689A75B7F85230DAB2FB68B7
:10429C00DA7597F85620FB681A7697F85720FB6862
:1042AC005A76FB680D229A76FB680A22DA761C2273
:1042BC00F9680020FCF726FDB54600BF1C37BD464B
:1042CC00BDE8F04304B0704780B584B000AF7860AF
:1042DC000B46FB707B681B783B73FB787B730D2361
:1042EC00BB730A23FB7301224FF480710A4802F05E
:1042FC00E0FD07F10C014FF4FA730422074804F0B7
:10430C005DFC00224FF48071034802F0D2FD00BF27
:10431C001037BD4680BD00BF0008014018020020C8
:10432C002DE9B04F96B000AF02F098FA58495948B1
:10433C0002F07CFB584B1B78DBB200221C46154666
:10434C0022462B465549022002F018FA544B1B7892
:10435C00DBB200229846914642464B465149022018
:10436C0002F00CFA504B1B78DBB200229A469346B3
:10437C0052465B464D49022002F000FA4C4B1B782A
:10438C00DBB200223B657A65D7E914234949022048
:10439C0002F0F4F9484B1B889BB20022BB64FA6410
:1043AC00D7E912234549022002F0E8F9444B1B7867
:1043BC00DBB200223B647A64D7E910234149022026
:1043CC0002F0DCF9404B1B78DBB20022BB63FA63D2
:1043DC00D7E90E233D49022002F0D0F93C4B1B7863
:1043EC00DBB200223B637A63D7E90C233949022004
:1043FC0002F0C4F9384B1B78DBB20022BB62FA62C4
:10440C00D7E90A233549022002F0B8F9344B1B884E
:10441C009BB200223B627A62D7E908233149022021
:10442C0002F0ACF9304B1B78DBB20022BB61FA61B5
:10443C00D7E906232D49022002F0A0F92C4B1B785A
:10444C00DBB200223B617A61D7E9042329490220BF
:10445C0002F094F9284B1B680022BB60FA60D7E984
:10446C0002232649022002F089F9254B1B68002201
:10447C003B607A60D7E900232249022002F07EF9E2
:10448C0002F012FA00BF5837BD46BDE8B08F00BF2E
:10449C009C050020840000202405002000FC00085E
:1044AC002505002004FC00082605002008FC000857
:1044BC00270500200CFC00089805002010FC0008C3
:1044CC002805002014FC00082905002018FC000811
:1044DC002A0500201CFC00082B05002020FC0008ED
:1044EC009605002024FC00081805002028FC000874
:1044FC004A0500202CFC0008BC06002030FC0008FB
:10450C00C006002034FC00082DE9B04F84B000AF89
:10451C0002F0A4F92349244802F088FA234B1B78B3
:10452C00DBB200221C46154622462B4620490220AF
:10453C0002F024F91F4B1B78DBB20022BB60FA603F
:10454C00D7E902231C49022002F018F91B4B1B88E7
:10455C009BB200223B607A60D7E900231849022005
:10456C0002F00CF9174B1B78DBB200229A469346EB
:10457C0052465B461449022002F000F9134B1B789B
:10458C00DBB200229846914642464B461049022027
:10459C0002F0F4F802F088F900BF1037BD46BDE810
:1045AC00B08F00BF9C0500209400002091050020D6
:1045BC0000F800089205002004F800089A05002075
:1045CC0008F80008930500200CF80008940500205A
:1045DC0010F80008B0B590B000AFF860B9607A6020
:1045EC000123FB63BB68BB632EE0FA6BBB6B13440C
:1045FC005B087B637B6B013B18097B6B013BDBB27C
:10460C0003F00F03DBB25B01D9B207F114032022D4
:10461C00FDF762FABB697A689A420AD1FB681D46BB
:10462C0007F114040FCC0FC594E80F0085E80F00B8
:10463C001AE0BB697A689A4203D97B6B0133FB633E
:10464C0002E07B6B013BBB63FA6BBB6B9A42CCD930
:10465C0000237B61FB681D4607F114040FCC0FC5CA
:10466C0094E80F0085E80F00F8684037BD46B0BDF0
:10467C0090B587B000AFF860B9607A600023FB7525
:10468C002BE00023BB7522E0FB7DFA6813441B78FA
:10469C001A46BB7D42FA03F303F00103002B13D03F
:1046AC00FB7DDA00BB7D13441A46BB681344012220
:1046BC001A70FB7DDA00BB7D13449B007A68D4181A
:1046CC0000F08EFD03462360BB7D0133BB75BB7DC3
:1046DC00072BD9D9FB7D0133FB75FB7D072BD0D97B
:1046EC0000BF00BF1C37BD4690BD80B487B000AF83
:1046FC00786039600023FB7500233B611AE03B694D
:10470C007A6813441B78DB09FB733B697A681344A2
:10471C001B785BB25B005AB297F91730134359B24E
:10472C003B693A681344CAB21A70FB7BFB753B6950
:10473C0001333B613B69072BE1DD00BF00BF1C3738
:10474C00BD4680BC704780B588B000AFF860B960DA
:10475C007A603B6007F1100300221A605A60FB6A12
:10476C001B7897F828209A4248D90023FB7740E021
:10477C000023BB7731E0FB7FDA00BB7F13449B0047
:10478C00BA6813441B68002B1FD1FB7F3A68134493
:10479C001B781A46BB7F42FA03F303F00103002B8C
:1047AC0009D0FB7FDA00BB7F13441A46FB68134425
:1047BC0001221A700EE0FB7FDA00BB7F13441A460D
:1047CC00FB68134400221A7004E0FB6A97F8282057
:1047DC001A7005E0BB7F0133BB77BB7F072BCAD9AF
:1047EC00FB6A1B7897F828209A4206D0FB7F01338E
:1047FC00FB77FB7F072BBBD900E000BFFB6A1B7864
:10480C0097F828209A4248D800237B7742E000236F
:10481C003B7739E07B7F3A6813441B781A463B7F21
:10482C0042FA03F303F00103002B21D000F0D8FC73
:10483C0001467B7FDA003B7F13449B00BA6813442C
:10484C001B68CB1A83EAE372A2EBE37297F8283069
:10485C004FF47A7101FB03F39A4209DD7B7FDA0096
:10486C003B7F13441A46FB68134401221A7008E07C
:10487C007B7FDA003B7F13441A46FB68134400220B
:10488C001A703B7F01333B773B7F072BC2D97B7F71
:10489C0001337B777B7F072BB9D90023FB7626E08E
:1048AC000023BB761DE0FB7E20333B4413F8103C09
:1048BC005AB2FB7ED900BB7E0B441946FB680B44F5
:1048CC001B781946BB7E01FA03F35BB213435AB251
:1048DC00FB7ED2B220333B4403F8102CBB7E013359
:1048EC00BB76BB7E072BDED9FB7E0133FB76FB7ED2
:1048FC00072BD5D907F1100379681846FFF7F5FE99
:10490C0000BF2037BD4680BD80B584B000AF0346E4
:10491C00FB71FB799B000133DB0003F540731846F8
:10492C00FBF716FC0346FB7300F05AFC0346384AAF
:10493C001360FB7B1C2B04D0FCF7B5FE0346002B4D
:10494C0015D100224FF48041324802F0B2FA00F047
:10495C0047FC0346304A1360FB791846FCF75CF8B9
:10496C002B4B1B68A3F59C53083B294A1360FCF79F
:10497C009AFE0346012B26D1FB7B002B23D1002270
:10498C004FF48041234802F094FA00F029FC0346CE
:10499C00214A1360214B1A88F87920230121FBF757
:1049AC0027FF1F4B1A88FB791E491846FCF7B8F8ED
:1049BC001D4B1B6801331C4A1360154B1B68A3F578
:1049CC007A63134A1360FB799B000133DB0003F518
:1049DC0040731846FBF7BCFB0346FB73FB7B172BA2
:1049EC0005D101224FF480410A4802F062FAFB79AA
:1049FC009B000133DB0003F540731846FBF7A8FB63
:104A0C000346FB73FB7B18461037BD4680BD00BFC9
:104A1C00C406002000100140D0060020980500209C
:104A2C009605002014050020E406002080B58CB00B
:104A3C0000AF0346FB71FB79002B0BD12C4B1E22D4
:104A4C005A602B4B4FF4E0221A61294B4FF40012A1
:104A5C005A611CE0FB79012B0BD1254B28225A60A3
:104A6C00234B4FF430221A61214B4FF480025A61D0
:104A7C000DE0FB79022B0AD11D4B3C225A601C4BDA
:104A8C004FF470221A611A4B4FF4C0025A61184B42
:104A9C000122DA76164B4FF00072DA60144800F0FF
:104AAC00EBFB0123BB620023FB610023BB614FF4D2
:104ABC006843BB600023FB600E4B3B6106237B61AC
:104ACC0000233B6201237B620D23FB6207F1080389
:104ADC001946074800F0CBFC054800F091FD022177
:104AEC00034801F039F800BF3037BD4680BD00BF28
:104AFC00A4000020E0FF010080B483B000AF0346A7
:104B0C00FB80FB8803F003039BB2002B0BD1FB88CB
:104B1C000F4AA2FB03125209642101FB02F29B1AF9
:104B2C009BB2002B0CD1FB88094AA2FB0312D209C1
:104B3C004FF4C87101FB02F29B1A9BB2002B01D1FE
:104B4C00012300E0002318460C37BD4680BC70479B
:104B5C001F85EB5190B585B000AF04460846114651
:104B6C001A462346FB8003467B710B463B7113466A
:104B7C00FB700023FB60FB8840F2E37293421BD96D
:104B8C0040F2E473BB6012E0BB689BB21846FFF7BF
:104B9C00B3FF034603F26D131A464FF4B46302FBE2
:104BAC0003F3FA681344FB60BB680133BB60FB88FA
:104BBC00BA689A42E8D301E0002348E07B79002BE5
:104BCC0029D07B790C2B26D80023BB600EE0224A1F
:104BDC00BB6852F823301A464FF4B46302FB03F35C
:104BEC00FA681344FB60BB680133BB607B79013B03
:104BFC001A46BB689342EAD37B79022B0DD9FB880A
:104C0C001846FFF779FF0346002B06D0FB6803F527
:104C1C00B463FB6001E0002319E000BF3B79013B6A
:104C2C001A464FF4B46302FB03F3FA681344FB60B7
:104C3C00FA7813461B019B1A9B001A46FB68134417
:104C4C00FB6097F82030FA681344FB60FB68184649
:104C5C001437BD4690BD00BF749C000880B400AFF3
:104C6C0072B600BF00BFFDE780B485B000AF154B36
:104C7C009B69144A43F001039361124B9B6903F047
:104C8C000103BB60BB680F4BDB690E4A43F08053DA
:104C9C00D3610C4BDB6903F080537B607B680A4B60
:104CAC005B68FB60FB6823F0E063FB60FB6843F030
:104CBC000073FB60044AFB68536000BF1437BD46A9
:104CCC0080BC7047001002400000014080B588B0E5
:104CDC0000AF786007F1100300221A605A609A60E6
:104CEC00DA607B681B68204A934239D11F4BDB6921
:104CFC001E4A43F00073D3611C4BDB6903F0007355
:104D0C00FB60FB68194B9B69184A43F004039361E1
:104D1C00164B9B6903F00403BB60BB684FF4006344
:104D2C003B6100237B610023BB6107F11003194633
:104D3C000F4801F023FF4FF480533B6102237B614A
:104D4C000323FB6107F110031946094801F016FF14
:104D5C0000220321142001F034FA142001F04DFA42
:104D6C0000BF2037BD4680BD0064004000100240EB
:104D7C000008014080B58AB000AF786007F11803D5
:104D8C0000221A605A609A60DA607B681B68374AA6
:104D9C00934230D1364B9B69354A43F4805393612F
:104DAC00334B9B6903F480537B617B69304B9B696C
:104DBC002F4A43F0040393612D4B9B6903F00403CA
:104DCC003B613B69A023BB610223FB6103237B6234
:104DDC0007F118031946274801F0D0FE4023BB61A8
:104DEC000023FB6100233B6207F11803194621489D
:104DFC0001F0C4FE36E07B681B681F4A934231D138
:104E0C001B4BDB691A4A43F48043D361184BDB69B3
:104E1C0003F48043FB60FB68154B9B69144A43F019
:104E2C0008039361124B9B6903F00803BB60BB68DA
:104E3C004FF42043BB610223FB6103237B6207F128
:104E4C00180319460D4801F099FE4FF48043BB61DD
:104E5C000023FB6100233B6207F118031946074846
:104E6C0001F08CFE00BF2837BD4680BD00300140EC
:104E7C00001002400008014000380040000C0140C6
:104E8C0080B584B000AF78607B681B68B3F1804F4D
:104E9C0014D1194BDB69184A43F00103D361164B4B
:104EAC00DB6903F00103FB60FB68002204211C207A
:104EBC0001F087F91C2001F0A0F918E07B681B6851
:104ECC000E4A934213D10C4BDB690B4A43F002039D
:104EDC00D361094BDB6903F00203BB60BB680022A2
:104EEC0005211D2001F06DF91D2001F086F900BF90
:104EFC001037BD4680BD00BF0010024000040040CA
:104F0C0080B588B000AF786007F1100300221A60FA
:104F1C005A609A60DA607B681B68334A93425FD1AF
:104F2C00324B9B69314A43F4804393612F4B9B690D
:104F3C0003F48043FB60FB682C4B9B692B4A43F0CA
:104F4C0004039361294B9B6903F00403BB60BB68AA
:104F5C004FF400733B6102237B610323FB6107F178
:104F6C0010031946224801F009FE4FF480633B619F
:104F7C0000237B610023BB6107F1100319461C4819
:104F8C0001F0FCFD1B4B1C4A1A601A4B00225A60A4
:104F9C00184B00229A60174B8022DA60154B0022C6
:104FAC001A61144B00225A61124B00229A61114B68
:104FBC000022DA610F4801F03FF90346002B01D0C3
:104FCC00FFF74CFE7B680B4ADA630A4A7B68536234
:104FDC0000220221252001F0F4F8252001F00DF922
:104FEC0000BF2037BD4680BD003801400010024094
:104FFC0000080140600200205800024080B400AF5D
:10500C0000BFFDE780B400AF00BFFDE780B400AF88
:10501C0000BFFDE780B400AF00BFFDE780B400AF78
:10502C0000BFFDE780B400AF00BFBD4680BC704739
:10503C0080B400AF00BFBD4680BC704780B400AFE9
:10504C0000BFBD4680BC704780B500AF00F0B6F81D
:10505C0000BF80BD80B500AF012001F05BFF00BF39
:10506C0080BD000080B500AF024801F053FA00BFCC
:10507C0080BD00BF6002002080B500AF024800F088
:10508C0090FD00BF80BD00BFA400002080B500AF24
:10509C00402001F03FFF00BF80BD000080B500AF95
:1050AC00024803F0EBF900BF80BD00BF880100206F
:1050BC0080B500AF024803F0E1F900BF80BD00BF2E
:1050CC00D001002080B500AF024803F05BFE00BFAA
:1050DC0080BD00BF1802002080B400AF00BFBD46E9
:1050EC0080BC7047FFF7F8FF0B480C490C4A0023B3
:1050FC0002E0D458C4500433C4188C42F9D3094A82
:10510C00094C002301E013600432A242FBD304F0EB
:10511C0049FDFDF779F870470000002040000020A1
:10512C00E09C00084000002010080020FEE7000072
:10513C0080B500AF084B1B68074A43F0100313609F
:10514C00032001F033F8062000F008F8FFF78CFD7F
:10515C000023184680BD00BF0020024080B582B0FD
:10516C0000AF7860124B1A68124B1B7819464FF43B
:10517C007A73B3FBF1F3B2FBF3F3184601F04FF87B
:10518C000346002B01D001230EE07B680F2B0AD8BD
:10519C00002279684FF0FF3001F013F8064A7B6863
:1051AC001360002300E0012318460837BD4680BD7C
:1051BC00340000203C0000203800002080B400AFF8
:1051CC00054B1B781A46054B1B681344034A1360A6
:1051DC0000BFBD4680BC70473C000020E8070020A3
:1051EC0080B400AF024B1B681846BD4680BC7047AC
:1051FC00E807002080B584B000AF7860FFF7F0FFBF
:10520C00B8607B68FB60FB68B3F1FF3F05D00A4BCD
:10521C001B781A46FB681344FB6000BFFFF7E0FFE6
:10522C000246BB68D31AFA689A42F7D800BF00BF8F
:10523C001037BD4680BD00BF3C00002080B400AFDD
:10524C00024B1B681846BD4680BC7047E8F7FF1F31
:10525C0080B400AF024B1B681846BD4680BC70473B
:10526C00ECF7FF1F80B400AF024B1B681846BD461D
:10527C0080BC7047F0F7FF1F80B584B000AF78603A
:10528C007B68002B01D10123EDE07B6893F8203083
:10529C00DBB2002B02D17868FFF718FD7B681B6826
:1052AC001A687B681B6842F001021A60FFF798FFCE
:1052BC00F86012E0FFF794FF0246FB68D31A0A2B42
:1052CC000BD97B685B6A43F400327B685A627B685B
:1052DC00052283F820200123C5E07B681B685B68EE
:1052EC0003F00103002BE5D07B681B681A687B6810
:1052FC001B6822F002021A60FFF772FFF86012E0DE
:10530C00FFF76EFF0246FB68D31A0A2B0BD97B689A
:10531C005B6A43F400327B685A627B68052283F82F
:10532C00202001239FE07B681B685B6803F002036D
:10533C00002BE5D17B681B7E012B08D17B681B6899
:10534C001A687B681B6842F080021A6007E07B6871
:10535C001B681A687B681B6822F080021A607B68E5
:10536C005B7E012B08D17B681B681A687B681B6805
:10537C0042F040021A6007E07B681B681A687B6881
:10538C001B6822F040021A607B689B7E012B08D1BF
:10539C007B681B681A687B681B6842F020021A60E5
:1053AC0007E07B681B681A687B681B6822F0200288
:1053BC001A607B68DB7E012B08D17B681B681A683E
:1053CC007B681B6822F010021A6007E07B681B6880
:1053DC001A687B681B6842F010021A607B681B7F9E
:1053EC00012B08D17B681B681A687B681B6842F02C
:1053FC0008021A6007E07B681B681A687B681B68E8
:10540C0022F008021A607B685B7F012B08D17B6855
:10541C001B681A687B681B6842F004021A6007E07C
:10542C007B681B681A687B681B6822F004021A6090
:10543C007B689A687B68DB681A437B681B691A4334
:10544C007B685B6942EA03017B685B685A1E7B6878
:10545C001B680A43DA617B6800225A627B6801226E
:10546C0083F82020002318461037BD4680BD80B439
:10547C0087B000AF786039607B681B687B617B68A4
:10548C0093F82030FB74FB7C012B03D0FB7C022BAC
:10549C0040F0AA807B69D3F8003243F001027B69AB
:1054AC00C3F800223B685B6903F01F03012202FA78
:1054BC0003F3FB607B69D3F81C22FB68DB431A40C7
:1054CC007B69C3F81C223B68DB69002B23D17B6909
:1054DC00D3F80C22FB68DB431A407B69C3F80C221F
:1054EC003B68DB6819043B685B689BB23A6852699D
:1054FC0019437B69483243F832103B689B681904A6
:10550C003B681B689AB23B685B690A43796948330C
:10551C00DB000B445A603B68DB69012B22D17B69B1
:10552C00D3F80C22FB681A437B69C3F80C223B6846
:10553C001B6819043B685B689BB23A685269194353
:10554C007B69483243F832103B689B6819043B680E
:10555C00DB689AB23B685B690A4379694833DB00C4
:10556C000B445A603B689B69002B09D17B69D3F8CB
:10557C000422FB68DB431A407B69C3F8042207E072
:10558C007B69D3F80422FB681A437B69C3F80422B5
:10559C003B681B69002B09D17B69D3F81422FB688B
:1055AC00DB431A407B69C3F8142207E07B69D3F80C
:1055BC001422FB681A437B69C3F814223B681B6AEC
:1055CC00012B07D17B69D3F81C22FB681A437B693A
:1055DC00C3F81C227B69D3F8003223F001027B69EB
:1055EC00C3F80022002306E07B685B6A43F4802248
:1055FC007B685A62012318461C37BD4680BC704735
:10560C0080B584B000AF78607B6893F82030DBB253
:10561C00012B2ED17B68022283F820207B681B682B
:10562C001A687B681B6822F001021A60FFF7D8FD2C
:10563C00F86012E0FFF7D4FD0246FB68D31A0A2B80
:10564C000BD97B685B6A43F400327B685A627B68D7
:10565C00052283F82020012312E07B681B685B681D
:10566C0003F00103002BE5D17B6800225A62002372
:10567C0006E07B685B6A43F400227B685A62012374
:10568C0018461037BD4680BD80B489B000AFF860B5
:10569C00B9607A603B60FB6893F82030FB77FB685D
:1056AC001B689B68BB61FB7F012B03D0FB7F022B2C
:1056BC0040F0AD80BB6903F08063002B0AD1BB695D
:1056CC0003F00063002B05D1BB6903F08053002B62
:1056DC0000F09580BB691B0E03F003037B61012274
:1056EC007B699A403B681A60BB689B68002B0DD1A4
:1056FC00BB681B685A05BB68DB68F96809681A4304
:10570C007B6918331B010B441A600FE0BB685B68A4
:10571C00DA00BB689B681A43BB68DB68F9680968E8
:10572C001A437B6918331B010B441A60FB68196818
:10573C00BB681A697B6918331B010B4404331A606C
:10574C00BB681B7D012B11D1FB681A687B69183370
:10575C001B01134404331B68FA68116843F480720C
:10576C007B6918331B010B4404331A607B680733C5
:10577C001B781A067B6806331B781B041A437B685C
:10578C0005331B781B0213437A68043212781046D7
:10579C00FA68116843EA00027B691B010B4403F5AC
:1057AC00C6731A607B6803331B781A067B68023356
:1057BC001B781B041A437B6801331B781B021343B1
:1057CC007A6812781046FA68116843EA00027B691D
:1057DC001B010B4403F5C4731A60FB681A687B69E0
:1057EC0018331B0113441B68FA68116843F001025B
:1057FC007B6918331B010B441A6000230EE0FB6815
:10580C005B6A43F40012FB685A62012306E0FB68F2
:10581C005B6A43F48022FB685A62012318462437E2
:10582C00BD4680BC704780B485B000AF78603960ED
:10583C007B6893F82030FB73FB7B012B02D0FB7B46
:10584C00022B28D13B6803F00103002B07D07B68A7
:10585C001B689A687B681B6842F080029A603B6800
:10586C0003F00203002B07D07B681B689A687B68E7
:10587C001B6842F400429A603B6803F00403002B5F
:10588C0007D07B681B689A687B681B6842F400022F
:10589C009A60002306E07B685B6A43F480227B6895
:1058AC005A62012318461437BD4680BC704780B439
:1058BC0085B000AF78600023FB607B6893F82030E4
:1058CC00FB72FB7A012B02D0FB7A022B1DD17B6879
:1058DC001B689B6803F08063002B02D0FB680133CC
:1058EC00FB607B681B689B6803F00063002B02D095
:1058FC00FB680133FB607B681B689B6803F080537B
:10590C00002B02D0FB680133FB60FB681846143790
:10591C00BD4680BC704780B487B000AFF860B960FA
:10592C007A603B60FB6893F82030FB75FB7D012BA4
:10593C0003D0FB7D022B40F00381BB68002B0ED102
:10594C00FB681B68DB6803F00303002B16D1FB68B4
:10595C005B6A43F40012FB685A620123F7E0FB68B0
:10596C001B681B6903F00303002B07D1FB685B6A00
:10597C0043F40012FB685A620123E8E0FB681A68E2
:10598C00BB681B331B0113441B6803F004027B68C8
:10599C009A607B689B68002B0CD1FB681A68BB680B
:1059AC001B331B0113441B685B0DC3F30A027B689A
:1059BC001A600BE0FB681A68BB681B331B011344AD
:1059CC001B68DB0823F060427B685A60FB681A682E
:1059DC00BB681B331B0113441B6803F002027B687A
:1059EC00DA60FB681A68BB681B331B011344043371
:1059FC001B6803F00803002B03D07B6808221A6194
:105A0C000BE0FB681A68BB681B331B01134404339F
:105A1C001B6803F00F027B681A61FB681A68BB688D
:105A2C001B331B01134404331B681B0ADAB27B685B
:105A3C009A61FB681A68BB681B331B01134404335F
:105A4C001B681B0C9AB27B685A61FB681A68BB68AE
:105A5C001B01134403F5DC731B68DAB23B681A7044
:105A6C00FB681A68BB681B01134403F5DC731B68E5
:105A7C001A0A3B680133D2B21A70FB681A68BB6809
:105A8C001B01134403F5DC731B681A0C3B680233CF
:105A9C00D2B21A70FB681A68BB681B01134403F579
:105AAC00DC731B681A0E3B680333D2B21A70FB68A6
:105ABC001A68BB681B01134403F5DE731A683B6854
:105ACC000433D2B21A70FB681A68BB681B0113440A
